{
	"contracts/AlfaCoin.sol": {
		"AlfaCoin": {
			"abi": [
				{
					"inputs": [
						{
							"internalType": "string",
							"name": "token_name",
							"type": "string"
						},
						{
							"internalType": "string",
							"name": "short_symbol",
							"type": "string"
						},
						{
							"internalType": "uint8",
							"name": "token_decimals",
							"type": "uint8"
						},
						{
							"internalType": "uint256",
							"name": "token_totalSupply",
							"type": "uint256"
						}
					],
					"stateMutability": "nonpayable",
					"type": "constructor"
				},
				{
					"anonymous": false,
					"inputs": [
						{
							"indexed": true,
							"internalType": "address",
							"name": "owner",
							"type": "address"
						},
						{
							"indexed": true,
							"internalType": "address",
							"name": "spender",
							"type": "address"
						},
						{
							"indexed": false,
							"internalType": "uint256",
							"name": "value",
							"type": "uint256"
						}
					],
					"name": "Approval",
					"type": "event"
				},
				{
					"anonymous": false,
					"inputs": [
						{
							"indexed": true,
							"internalType": "address",
							"name": "previousOwner",
							"type": "address"
						},
						{
							"indexed": true,
							"internalType": "address",
							"name": "newOwner",
							"type": "address"
						}
					],
					"name": "OwnershipTransferred",
					"type": "event"
				},
				{
					"anonymous": false,
					"inputs": [
						{
							"indexed": true,
							"internalType": "address",
							"name": "user",
							"type": "address"
						},
						{
							"indexed": false,
							"internalType": "uint256",
							"name": "amount",
							"type": "uint256"
						},
						{
							"indexed": false,
							"internalType": "uint256",
							"name": "index",
							"type": "uint256"
						},
						{
							"indexed": false,
							"internalType": "uint256",
							"name": "timestamp",
							"type": "uint256"
						}
					],
					"name": "Staked",
					"type": "event"
				},
				{
					"anonymous": false,
					"inputs": [
						{
							"indexed": true,
							"internalType": "address",
							"name": "from",
							"type": "address"
						},
						{
							"indexed": true,
							"internalType": "address",
							"name": "to",
							"type": "address"
						},
						{
							"indexed": false,
							"internalType": "uint256",
							"name": "value",
							"type": "uint256"
						}
					],
					"name": "Transfer",
					"type": "event"
				},
				{
					"inputs": [
						{
							"internalType": "address",
							"name": "owner",
							"type": "address"
						},
						{
							"internalType": "address",
							"name": "spender",
							"type": "address"
						}
					],
					"name": "allowance",
					"outputs": [
						{
							"internalType": "uint256",
							"name": "",
							"type": "uint256"
						}
					],
					"stateMutability": "view",
					"type": "function"
				},
				{
					"inputs": [
						{
							"internalType": "address",
							"name": "spender",
							"type": "address"
						},
						{
							"internalType": "uint256",
							"name": "amount",
							"type": "uint256"
						}
					],
					"name": "approve",
					"outputs": [
						{
							"internalType": "bool",
							"name": "",
							"type": "bool"
						}
					],
					"stateMutability": "nonpayable",
					"type": "function"
				},
				{
					"inputs": [
						{
							"internalType": "address",
							"name": "account",
							"type": "address"
						}
					],
					"name": "balanceOf",
					"outputs": [
						{
							"internalType": "uint256",
							"name": "",
							"type": "uint256"
						}
					],
					"stateMutability": "view",
					"type": "function"
				},
				{
					"inputs": [
						{
							"internalType": "address",
							"name": "account",
							"type": "address"
						},
						{
							"internalType": "uint256",
							"name": "amount",
							"type": "uint256"
						}
					],
					"name": "burn",
					"outputs": [
						{
							"internalType": "bool",
							"name": "",
							"type": "bool"
						}
					],
					"stateMutability": "nonpayable",
					"type": "function"
				},
				{
					"inputs": [],
					"name": "decimals",
					"outputs": [
						{
							"internalType": "uint8",
							"name": "",
							"type": "uint8"
						}
					],
					"stateMutability": "view",
					"type": "function"
				},
				{
					"inputs": [
						{
							"internalType": "address",
							"name": "spender",
							"type": "address"
						},
						{
							"internalType": "uint256",
							"name": "amount",
							"type": "uint256"
						}
					],
					"name": "decreaseAllowance",
					"outputs": [
						{
							"internalType": "bool",
							"name": "",
							"type": "bool"
						}
					],
					"stateMutability": "nonpayable",
					"type": "function"
				},
				{
					"inputs": [],
					"name": "getOwner",
					"outputs": [
						{
							"internalType": "address",
							"name": "",
							"type": "address"
						}
					],
					"stateMutability": "view",
					"type": "function"
				},
				{
					"inputs": [
						{
							"internalType": "address",
							"name": "_staker",
							"type": "address"
						}
					],
					"name": "hasStake",
					"outputs": [
						{
							"components": [
								{
									"internalType": "uint256",
									"name": "total_amount",
									"type": "uint256"
								},
								{
									"components": [
										{
											"internalType": "address",
											"name": "user",
											"type": "address"
										},
										{
											"internalType": "uint256",
											"name": "amount",
											"type": "uint256"
										},
										{
											"internalType": "uint256",
											"name": "since",
											"type": "uint256"
										},
										{
											"internalType": "uint256",
											"name": "claimable",
											"type": "uint256"
										}
									],
									"internalType": "struct Stakeable.Stake[]",
									"name": "stakes",
									"type": "tuple[]"
								}
							],
							"internalType": "struct Stakeable.StakingSummary",
							"name": "",
							"type": "tuple"
						}
					],
					"stateMutability": "view",
					"type": "function"
				},
				{
					"inputs": [
						{
							"internalType": "address",
							"name": "spender",
							"type": "address"
						},
						{
							"internalType": "uint256",
							"name": "amount",
							"type": "uint256"
						}
					],
					"name": "increaseAllowance",
					"outputs": [
						{
							"internalType": "bool",
							"name": "",
							"type": "bool"
						}
					],
					"stateMutability": "nonpayable",
					"type": "function"
				},
				{
					"inputs": [
						{
							"internalType": "address",
							"name": "account",
							"type": "address"
						},
						{
							"internalType": "uint256",
							"name": "amount",
							"type": "uint256"
						}
					],
					"name": "mint",
					"outputs": [
						{
							"internalType": "bool",
							"name": "",
							"type": "bool"
						}
					],
					"stateMutability": "nonpayable",
					"type": "function"
				},
				{
					"inputs": [],
					"name": "name",
					"outputs": [
						{
							"internalType": "string",
							"name": "",
							"type": "string"
						}
					],
					"stateMutability": "view",
					"type": "function"
				},
				{
					"inputs": [],
					"name": "owner",
					"outputs": [
						{
							"internalType": "address",
							"name": "",
							"type": "address"
						}
					],
					"stateMutability": "view",
					"type": "function"
				},
				{
					"inputs": [],
					"name": "renounceOwnership",
					"outputs": [],
					"stateMutability": "nonpayable",
					"type": "function"
				},
				{
					"inputs": [
						{
							"internalType": "uint256",
							"name": "amount",
							"type": "uint256"
						}
					],
					"name": "setRewardPerHour",
					"outputs": [
						{
							"internalType": "bool",
							"name": "",
							"type": "bool"
						}
					],
					"stateMutability": "nonpayable",
					"type": "function"
				},
				{
					"inputs": [
						{
							"internalType": "uint256",
							"name": "_amount",
							"type": "uint256"
						}
					],
					"name": "stake",
					"outputs": [],
					"stateMutability": "nonpayable",
					"type": "function"
				},
				{
					"inputs": [],
					"name": "symbol",
					"outputs": [
						{
							"internalType": "string",
							"name": "",
							"type": "string"
						}
					],
					"stateMutability": "view",
					"type": "function"
				},
				{
					"inputs": [],
					"name": "totalSupply",
					"outputs": [
						{
							"internalType": "uint256",
							"name": "",
							"type": "uint256"
						}
					],
					"stateMutability": "view",
					"type": "function"
				},
				{
					"inputs": [
						{
							"internalType": "address",
							"name": "recipient",
							"type": "address"
						},
						{
							"internalType": "uint256",
							"name": "amount",
							"type": "uint256"
						}
					],
					"name": "transfer",
					"outputs": [
						{
							"internalType": "bool",
							"name": "",
							"type": "bool"
						}
					],
					"stateMutability": "nonpayable",
					"type": "function"
				},
				{
					"inputs": [
						{
							"internalType": "address",
							"name": "spender",
							"type": "address"
						},
						{
							"internalType": "address",
							"name": "recipient",
							"type": "address"
						},
						{
							"internalType": "uint256",
							"name": "amount",
							"type": "uint256"
						}
					],
					"name": "transferFrom",
					"outputs": [
						{
							"internalType": "bool",
							"name": "",
							"type": "bool"
						}
					],
					"stateMutability": "nonpayable",
					"type": "function"
				},
				{
					"inputs": [
						{
							"internalType": "address",
							"name": "newOwner",
							"type": "address"
						}
					],
					"name": "transferOwnership",
					"outputs": [],
					"stateMutability": "nonpayable",
					"type": "function"
				},
				{
					"inputs": [
						{
							"internalType": "address",
							"name": "_staker",
							"type": "address"
						}
					],
					"name": "viewAll",
					"outputs": [
						{
							"internalType": "uint256",
							"name": "",
							"type": "uint256"
						}
					],
					"stateMutability": "view",
					"type": "function"
				},
				{
					"inputs": [],
					"name": "viewRewardPerHour",
					"outputs": [
						{
							"internalType": "uint256",
							"name": "",
							"type": "uint256"
						}
					],
					"stateMutability": "view",
					"type": "function"
				},
				{
					"inputs": [],
					"name": "withdrawAll",
					"outputs": [],
					"stateMutability": "nonpayable",
					"type": "function"
				},
				{
					"inputs": [
						{
							"internalType": "uint256",
							"name": "amount",
							"type": "uint256"
						},
						{
							"internalType": "uint256",
							"name": "stake_index",
							"type": "uint256"
						}
					],
					"name": "withdrawStake",
					"outputs": [],
					"stateMutability": "nonpayable",
					"type": "function"
				}
			],
			"devdoc": {
				"kind": "dev",
				"methods": {},
				"version": 1
			},
			"evm": {
				"assembly": "    /* \"contracts/AlfaCoin.sol\":239:11363  contract AlfaCoin is Ownable, Stakeable {... */\n  mstore(0x40, 0x80)\n    /* \"contracts/AlfaCoin.sol\":1722:2283  constructor(... */\n  callvalue\n  dup1\n  iszero\n  tag_1\n  jumpi\n  0x00\n  dup1\n  revert\ntag_1:\n  pop\n  mload(0x40)\n  sub(codesize, bytecodeSize)\n  dup1\n  bytecodeSize\n  dup4\n  codecopy\n  dup2\n  dup2\n  add\n  0x40\n  mstore\n  dup2\n  add\n  swap1\n  tag_2\n  swap2\n  swap1\n  tag_3\n  jump\t// in\ntag_2:\n    /* \"contracts/Ownable.sol\":965:975  msg.sender */\n  caller\n    /* \"contracts/Ownable.sol\":956:962  _owner */\n  0x00\n  dup1\n    /* \"contracts/Ownable.sol\":956:975  _owner = msg.sender */\n  0x0100\n  exp\n  dup2\n  sload\n  dup2\n  0xffffffffffffffffffffffffffffffffffffffff\n  mul\n  not\n  and\n  swap1\n  dup4\n  0xffffffffffffffffffffffffffffffffffffffff\n  and\n  mul\n  or\n  swap1\n  sstore\n  pop\n    /* \"contracts/Ownable.sol\":1023:1029  _owner */\n  0x00\n  dup1\n  sload\n  swap1\n  0x0100\n  exp\n  swap1\n  div\n  0xffffffffffffffffffffffffffffffffffffffff\n  and\n    /* \"contracts/Ownable.sol\":990:1030  OwnershipTransferred(address(0), _owner) */\n  0xffffffffffffffffffffffffffffffffffffffff\n  and\n    /* \"contracts/Ownable.sol\":1019:1020  0 */\n  0x00\n    /* \"contracts/Ownable.sol\":990:1030  OwnershipTransferred(address(0), _owner) */\n  0xffffffffffffffffffffffffffffffffffffffff\n  and\n  0x8be0079c531659141344cd1fd0a4f28419497f9722a3daafe3b4186f6b6457e0\n  mload(0x40)\n  mload(0x40)\n  dup1\n  swap2\n  sub\n  swap1\n  log3\n    /* \"contracts/Stakeable.sol\":465:477  stakeholders */\n  0x02\n    /* \"contracts/Stakeable.sol\":465:484  stakeholders.push() */\n  0x01\n  dup2\n  0x01\n  dup2\n  sload\n  add\n  dup1\n  dup3\n  sstore\n  dup1\n  swap2\n  pop\n  pop\n  sub\n  swap1\n  0x00\n  mstore\n  keccak256(0x00, 0x20)\n  swap1\n  pop\n  pop\n    /* \"contracts/Stakeable.sol\":650:656  109500 */\n  0x01abbc\n    /* \"contracts/Stakeable.sol\":633:647  _rewardPerHour */\n  0x01\n    /* \"contracts/Stakeable.sol\":633:656  _rewardPerHour = 109500 */\n  dup2\n  swap1\n  sstore\n  pop\n    /* \"contracts/AlfaCoin.sol\":1893:1903  token_name */\n  dup4\n    /* \"contracts/AlfaCoin.sol\":1885:1890  _name */\n  0x07\n    /* \"contracts/AlfaCoin.sol\":1885:1903  _name = token_name */\n  swap1\n  dup2\n  tag_11\n  swap2\n  swap1\n  tag_12\n  jump\t// in\ntag_11:\n  pop\n    /* \"contracts/AlfaCoin.sol\":1923:1935  short_symbol */\n  dup3\n    /* \"contracts/AlfaCoin.sol\":1913:1920  _symbol */\n  0x06\n    /* \"contracts/AlfaCoin.sol\":1913:1935  _symbol = short_symbol */\n  swap1\n  dup2\n  tag_13\n  swap2\n  swap1\n  tag_12\n  jump\t// in\ntag_13:\n  pop\n    /* \"contracts/AlfaCoin.sol\":1957:1971  token_decimals */\n  dup2\n    /* \"contracts/AlfaCoin.sol\":1945:1954  _decimals */\n  0x05\n  0x00\n    /* \"contracts/AlfaCoin.sol\":1945:1971  _decimals = token_decimals */\n  0x0100\n  exp\n  dup2\n  sload\n  dup2\n  0xff\n  mul\n  not\n  and\n  swap1\n  dup4\n  0xff\n  and\n  mul\n  or\n  swap1\n  sstore\n  pop\n    /* \"contracts/AlfaCoin.sol\":1996:2013  token_totalSupply */\n  dup1\n    /* \"contracts/AlfaCoin.sol\":1981:1993  _totalSupply */\n  0x04\n    /* \"contracts/AlfaCoin.sol\":1981:2013  _totalSupply = token_totalSupply */\n  dup2\n  swap1\n  sstore\n  pop\n    /* \"contracts/AlfaCoin.sol\":2114:2126  _totalSupply */\n  sload(0x04)\n    /* \"contracts/AlfaCoin.sol\":2090:2099  _balances */\n  0x08\n    /* \"contracts/AlfaCoin.sol\":2090:2111  _balances[msg.sender] */\n  0x00\n    /* \"contracts/AlfaCoin.sol\":2100:2110  msg.sender */\n  caller\n    /* \"contracts/AlfaCoin.sol\":2090:2111  _balances[msg.sender] */\n  0xffffffffffffffffffffffffffffffffffffffff\n  and\n  0xffffffffffffffffffffffffffffffffffffffff\n  and\n  dup2\n  mstore\n  0x20\n  add\n  swap1\n  dup2\n  mstore\n  0x20\n  add\n  0x00\n  keccak256\n    /* \"contracts/AlfaCoin.sol\":2090:2126  _balances[msg.sender] = _totalSupply */\n  dup2\n  swap1\n  sstore\n  pop\n    /* \"contracts/AlfaCoin.sol\":2251:2261  msg.sender */\n  caller\n    /* \"contracts/AlfaCoin.sol\":2230:2276  Transfer(address(0), msg.sender, _totalSupply) */\n  0xffffffffffffffffffffffffffffffffffffffff\n  and\n    /* \"contracts/AlfaCoin.sol\":2247:2248  0 */\n  0x00\n    /* \"contracts/AlfaCoin.sol\":2230:2276  Transfer(address(0), msg.sender, _totalSupply) */\n  0xffffffffffffffffffffffffffffffffffffffff\n  and\n  0xddf252ad1be2c89b69c2b068fc378daa952ba7f163c4a11628f55a4df523b3ef\n    /* \"contracts/AlfaCoin.sol\":2263:2275  _totalSupply */\n  sload(0x04)\n    /* \"contracts/AlfaCoin.sol\":2230:2276  Transfer(address(0), msg.sender, _totalSupply) */\n  mload(0x40)\n  tag_14\n  swap2\n  swap1\n  tag_15\n  jump\t// in\ntag_14:\n  mload(0x40)\n  dup1\n  swap2\n  sub\n  swap1\n  log3\n    /* \"contracts/AlfaCoin.sol\":1722:2283  constructor(... */\n  pop\n  pop\n  pop\n  pop\n    /* \"contracts/AlfaCoin.sol\":239:11363  contract AlfaCoin is Ownable, Stakeable {... */\n  jump(tag_16)\n    /* \"#utility.yul\":7:82   */\ntag_17:\n    /* \"#utility.yul\":40:46   */\n  0x00\n    /* \"#utility.yul\":73:75   */\n  0x40\n    /* \"#utility.yul\":67:76   */\n  mload\n    /* \"#utility.yul\":57:76   */\n  swap1\n  pop\n    /* \"#utility.yul\":7:82   */\n  swap1\n  jump\t// out\n    /* \"#utility.yul\":88:205   */\ntag_18:\n    /* \"#utility.yul\":197:198   */\n  0x00\n    /* \"#utility.yul\":194:195   */\n  dup1\n    /* \"#utility.yul\":187:199   */\n  revert\n    /* \"#utility.yul\":211:328   */\ntag_19:\n    /* \"#utility.yul\":320:321   */\n  0x00\n    /* \"#utility.yul\":317:318   */\n  dup1\n    /* \"#utility.yul\":310:322   */\n  revert\n    /* \"#utility.yul\":334:451   */\ntag_20:\n    /* \"#utility.yul\":443:444   */\n  0x00\n    /* \"#utility.yul\":440:441   */\n  dup1\n    /* \"#utility.yul\":433:445   */\n  revert\n    /* \"#utility.yul\":457:574   */\ntag_21:\n    /* \"#utility.yul\":566:567   */\n  0x00\n    /* \"#utility.yul\":563:564   */\n  dup1\n    /* \"#utility.yul\":556:568   */\n  revert\n    /* \"#utility.yul\":580:682   */\ntag_22:\n    /* \"#utility.yul\":621:627   */\n  0x00\n    /* \"#utility.yul\":672:674   */\n  0x1f\n    /* \"#utility.yul\":668:675   */\n  not\n    /* \"#utility.yul\":663:665   */\n  0x1f\n    /* \"#utility.yul\":656:661   */\n  dup4\n    /* \"#utility.yul\":652:666   */\n  add\n    /* \"#utility.yul\":648:676   */\n  and\n    /* \"#utility.yul\":638:676   */\n  swap1\n  pop\n    /* \"#utility.yul\":580:682   */\n  swap2\n  swap1\n  pop\n  jump\t// out\n    /* \"#utility.yul\":688:868   */\ntag_23:\n    /* \"#utility.yul\":736:813   */\n  0x4e487b7100000000000000000000000000000000000000000000000000000000\n    /* \"#utility.yul\":733:734   */\n  0x00\n    /* \"#utility.yul\":726:814   */\n  mstore\n    /* \"#utility.yul\":833:837   */\n  0x41\n    /* \"#utility.yul\":830:831   */\n  0x04\n    /* \"#utility.yul\":823:838   */\n  mstore\n    /* \"#utility.yul\":857:861   */\n  0x24\n    /* \"#utility.yul\":854:855   */\n  0x00\n    /* \"#utility.yul\":847:862   */\n  revert\n    /* \"#utility.yul\":874:1155   */\ntag_24:\n    /* \"#utility.yul\":957:984   */\n  tag_64\n    /* \"#utility.yul\":979:983   */\n  dup3\n    /* \"#utility.yul\":957:984   */\n  tag_22\n  jump\t// in\ntag_64:\n    /* \"#utility.yul\":949:955   */\n  dup2\n    /* \"#utility.yul\":945:985   */\n  add\n    /* \"#utility.yul\":1087:1093   */\n  dup2\n    /* \"#utility.yul\":1075:1085   */\n  dup2\n    /* \"#utility.yul\":1072:1094   */\n  lt\n    /* \"#utility.yul\":1051:1069   */\n  0xffffffffffffffff\n    /* \"#utility.yul\":1039:1049   */\n  dup3\n    /* \"#utility.yul\":1036:1070   */\n  gt\n    /* \"#utility.yul\":1033:1095   */\n  or\n    /* \"#utility.yul\":1030:1118   */\n  iszero\n  tag_65\n  jumpi\n    /* \"#utility.yul\":1098:1116   */\n  tag_66\n  tag_23\n  jump\t// in\ntag_66:\n    /* \"#utility.yul\":1030:1118   */\ntag_65:\n    /* \"#utility.yul\":1138:1148   */\n  dup1\n    /* \"#utility.yul\":1134:1136   */\n  0x40\n    /* \"#utility.yul\":1127:1149   */\n  mstore\n    /* \"#utility.yul\":917:1155   */\n  pop\n    /* \"#utility.yul\":874:1155   */\n  pop\n  pop\n  jump\t// out\n    /* \"#utility.yul\":1161:1290   */\ntag_25:\n    /* \"#utility.yul\":1195:1201   */\n  0x00\n    /* \"#utility.yul\":1222:1242   */\n  tag_68\n  tag_17\n  jump\t// in\ntag_68:\n    /* \"#utility.yul\":1212:1242   */\n  swap1\n  pop\n    /* \"#utility.yul\":1251:1284   */\n  tag_69\n    /* \"#utility.yul\":1279:1283   */\n  dup3\n    /* \"#utility.yul\":1271:1277   */\n  dup3\n    /* \"#utility.yul\":1251:1284   */\n  tag_24\n  jump\t// in\ntag_69:\n    /* \"#utility.yul\":1161:1290   */\n  swap2\n  swap1\n  pop\n  jump\t// out\n    /* \"#utility.yul\":1296:1604   */\ntag_26:\n    /* \"#utility.yul\":1358:1362   */\n  0x00\n    /* \"#utility.yul\":1448:1466   */\n  0xffffffffffffffff\n    /* \"#utility.yul\":1440:1446   */\n  dup3\n    /* \"#utility.yul\":1437:1467   */\n  gt\n    /* \"#utility.yul\":1434:1490   */\n  iszero\n  tag_71\n  jumpi\n    /* \"#utility.yul\":1470:1488   */\n  tag_72\n  tag_23\n  jump\t// in\ntag_72:\n    /* \"#utility.yul\":1434:1490   */\ntag_71:\n    /* \"#utility.yul\":1508:1537   */\n  tag_73\n    /* \"#utility.yul\":1530:1536   */\n  dup3\n    /* \"#utility.yul\":1508:1537   */\n  tag_22\n  jump\t// in\ntag_73:\n    /* \"#utility.yul\":1500:1537   */\n  swap1\n  pop\n    /* \"#utility.yul\":1592:1596   */\n  0x20\n    /* \"#utility.yul\":1586:1590   */\n  dup2\n    /* \"#utility.yul\":1582:1597   */\n  add\n    /* \"#utility.yul\":1574:1597   */\n  swap1\n  pop\n    /* \"#utility.yul\":1296:1604   */\n  swap2\n  swap1\n  pop\n  jump\t// out\n    /* \"#utility.yul\":1610:1856   */\ntag_27:\n    /* \"#utility.yul\":1691:1692   */\n  0x00\n    /* \"#utility.yul\":1701:1814   */\ntag_75:\n    /* \"#utility.yul\":1715:1721   */\n  dup4\n    /* \"#utility.yul\":1712:1713   */\n  dup2\n    /* \"#utility.yul\":1709:1722   */\n  lt\n    /* \"#utility.yul\":1701:1814   */\n  iszero\n  tag_77\n  jumpi\n    /* \"#utility.yul\":1800:1801   */\n  dup1\n    /* \"#utility.yul\":1795:1798   */\n  dup3\n    /* \"#utility.yul\":1791:1802   */\n  add\n    /* \"#utility.yul\":1785:1803   */\n  mload\n    /* \"#utility.yul\":1781:1782   */\n  dup2\n    /* \"#utility.yul\":1776:1779   */\n  dup5\n    /* \"#utility.yul\":1772:1783   */\n  add\n    /* \"#utility.yul\":1765:1804   */\n  mstore\n    /* \"#utility.yul\":1737:1739   */\n  0x20\n    /* \"#utility.yul\":1734:1735   */\n  dup2\n    /* \"#utility.yul\":1730:1740   */\n  add\n    /* \"#utility.yul\":1725:1740   */\n  swap1\n  pop\n    /* \"#utility.yul\":1701:1814   */\n  jump(tag_75)\ntag_77:\n    /* \"#utility.yul\":1848:1849   */\n  0x00\n    /* \"#utility.yul\":1839:1845   */\n  dup5\n    /* \"#utility.yul\":1834:1837   */\n  dup5\n    /* \"#utility.yul\":1830:1846   */\n  add\n    /* \"#utility.yul\":1823:1850   */\n  mstore\n    /* \"#utility.yul\":1672:1856   */\n  pop\n    /* \"#utility.yul\":1610:1856   */\n  pop\n  pop\n  pop\n  jump\t// out\n    /* \"#utility.yul\":1862:2296   */\ntag_28:\n    /* \"#utility.yul\":1951:1956   */\n  0x00\n    /* \"#utility.yul\":1976:2042   */\n  tag_79\n    /* \"#utility.yul\":1992:2041   */\n  tag_80\n    /* \"#utility.yul\":2034:2040   */\n  dup5\n    /* \"#utility.yul\":1992:2041   */\n  tag_26\n  jump\t// in\ntag_80:\n    /* \"#utility.yul\":1976:2042   */\n  tag_25\n  jump\t// in\ntag_79:\n    /* \"#utility.yul\":1967:2042   */\n  swap1\n  pop\n    /* \"#utility.yul\":2065:2071   */\n  dup3\n    /* \"#utility.yul\":2058:2063   */\n  dup2\n    /* \"#utility.yul\":2051:2072   */\n  mstore\n    /* \"#utility.yul\":2103:2107   */\n  0x20\n    /* \"#utility.yul\":2096:2101   */\n  dup2\n    /* \"#utility.yul\":2092:2108   */\n  add\n    /* \"#utility.yul\":2141:2144   */\n  dup5\n    /* \"#utility.yul\":2132:2138   */\n  dup5\n    /* \"#utility.yul\":2127:2130   */\n  dup5\n    /* \"#utility.yul\":2123:2139   */\n  add\n    /* \"#utility.yul\":2120:2145   */\n  gt\n    /* \"#utility.yul\":2117:2229   */\n  iszero\n  tag_81\n  jumpi\n    /* \"#utility.yul\":2148:2227   */\n  tag_82\n  tag_21\n  jump\t// in\ntag_82:\n    /* \"#utility.yul\":2117:2229   */\ntag_81:\n    /* \"#utility.yul\":2238:2290   */\n  tag_83\n    /* \"#utility.yul\":2283:2289   */\n  dup5\n    /* \"#utility.yul\":2278:2281   */\n  dup3\n    /* \"#utility.yul\":2273:2276   */\n  dup6\n    /* \"#utility.yul\":2238:2290   */\n  tag_27\n  jump\t// in\ntag_83:\n    /* \"#utility.yul\":1957:2296   */\n  pop\n    /* \"#utility.yul\":1862:2296   */\n  swap4\n  swap3\n  pop\n  pop\n  pop\n  jump\t// out\n    /* \"#utility.yul\":2316:2671   */\ntag_29:\n    /* \"#utility.yul\":2383:2388   */\n  0x00\n    /* \"#utility.yul\":2432:2435   */\n  dup3\n    /* \"#utility.yul\":2425:2429   */\n  0x1f\n    /* \"#utility.yul\":2417:2423   */\n  dup4\n    /* \"#utility.yul\":2413:2430   */\n  add\n    /* \"#utility.yul\":2409:2436   */\n  slt\n    /* \"#utility.yul\":2399:2521   */\n  tag_85\n  jumpi\n    /* \"#utility.yul\":2440:2519   */\n  tag_86\n  tag_20\n  jump\t// in\ntag_86:\n    /* \"#utility.yul\":2399:2521   */\ntag_85:\n    /* \"#utility.yul\":2550:2556   */\n  dup2\n    /* \"#utility.yul\":2544:2557   */\n  mload\n    /* \"#utility.yul\":2575:2665   */\n  tag_87\n    /* \"#utility.yul\":2661:2664   */\n  dup5\n    /* \"#utility.yul\":2653:2659   */\n  dup3\n    /* \"#utility.yul\":2646:2650   */\n  0x20\n    /* \"#utility.yul\":2638:2644   */\n  dup7\n    /* \"#utility.yul\":2634:2651   */\n  add\n    /* \"#utility.yul\":2575:2665   */\n  tag_28\n  jump\t// in\ntag_87:\n    /* \"#utility.yul\":2566:2665   */\n  swap2\n  pop\n    /* \"#utility.yul\":2389:2671   */\n  pop\n    /* \"#utility.yul\":2316:2671   */\n  swap3\n  swap2\n  pop\n  pop\n  jump\t// out\n    /* \"#utility.yul\":2677:2763   */\ntag_30:\n    /* \"#utility.yul\":2712:2719   */\n  0x00\n    /* \"#utility.yul\":2752:2756   */\n  0xff\n    /* \"#utility.yul\":2745:2750   */\n  dup3\n    /* \"#utility.yul\":2741:2757   */\n  and\n    /* \"#utility.yul\":2730:2757   */\n  swap1\n  pop\n    /* \"#utility.yul\":2677:2763   */\n  swap2\n  swap1\n  pop\n  jump\t// out\n    /* \"#utility.yul\":2769:2887   */\ntag_31:\n    /* \"#utility.yul\":2840:2862   */\n  tag_90\n    /* \"#utility.yul\":2856:2861   */\n  dup2\n    /* \"#utility.yul\":2840:2862   */\n  tag_30\n  jump\t// in\ntag_90:\n    /* \"#utility.yul\":2833:2838   */\n  dup2\n    /* \"#utility.yul\":2830:2863   */\n  eq\n    /* \"#utility.yul\":2820:2881   */\n  tag_91\n  jumpi\n    /* \"#utility.yul\":2877:2878   */\n  0x00\n    /* \"#utility.yul\":2874:2875   */\n  dup1\n    /* \"#utility.yul\":2867:2879   */\n  revert\n    /* \"#utility.yul\":2820:2881   */\ntag_91:\n    /* \"#utility.yul\":2769:2887   */\n  pop\n  jump\t// out\n    /* \"#utility.yul\":2893:3032   */\ntag_32:\n    /* \"#utility.yul\":2948:2953   */\n  0x00\n    /* \"#utility.yul\":2979:2985   */\n  dup2\n    /* \"#utility.yul\":2973:2986   */\n  mload\n    /* \"#utility.yul\":2964:2986   */\n  swap1\n  pop\n    /* \"#utility.yul\":2995:3026   */\n  tag_93\n    /* \"#utility.yul\":3020:3025   */\n  dup2\n    /* \"#utility.yul\":2995:3026   */\n  tag_31\n  jump\t// in\ntag_93:\n    /* \"#utility.yul\":2893:3032   */\n  swap3\n  swap2\n  pop\n  pop\n  jump\t// out\n    /* \"#utility.yul\":3038:3115   */\ntag_33:\n    /* \"#utility.yul\":3075:3082   */\n  0x00\n    /* \"#utility.yul\":3104:3109   */\n  dup2\n    /* \"#utility.yul\":3093:3109   */\n  swap1\n  pop\n    /* \"#utility.yul\":3038:3115   */\n  swap2\n  swap1\n  pop\n  jump\t// out\n    /* \"#utility.yul\":3121:3243   */\ntag_34:\n    /* \"#utility.yul\":3194:3218   */\n  tag_96\n    /* \"#utility.yul\":3212:3217   */\n  dup2\n    /* \"#utility.yul\":3194:3218   */\n  tag_33\n  jump\t// in\ntag_96:\n    /* \"#utility.yul\":3187:3192   */\n  dup2\n    /* \"#utility.yul\":3184:3219   */\n  eq\n    /* \"#utility.yul\":3174:3237   */\n  tag_97\n  jumpi\n    /* \"#utility.yul\":3233:3234   */\n  0x00\n    /* \"#utility.yul\":3230:3231   */\n  dup1\n    /* \"#utility.yul\":3223:3235   */\n  revert\n    /* \"#utility.yul\":3174:3237   */\ntag_97:\n    /* \"#utility.yul\":3121:3243   */\n  pop\n  jump\t// out\n    /* \"#utility.yul\":3249:3392   */\ntag_35:\n    /* \"#utility.yul\":3306:3311   */\n  0x00\n    /* \"#utility.yul\":3337:3343   */\n  dup2\n    /* \"#utility.yul\":3331:3344   */\n  mload\n    /* \"#utility.yul\":3322:3344   */\n  swap1\n  pop\n    /* \"#utility.yul\":3353:3386   */\n  tag_99\n    /* \"#utility.yul\":3380:3385   */\n  dup2\n    /* \"#utility.yul\":3353:3386   */\n  tag_34\n  jump\t// in\ntag_99:\n    /* \"#utility.yul\":3249:3392   */\n  swap3\n  swap2\n  pop\n  pop\n  jump\t// out\n    /* \"#utility.yul\":3398:4560   */\ntag_3:\n    /* \"#utility.yul\":3513:3519   */\n  0x00\n    /* \"#utility.yul\":3521:3527   */\n  dup1\n    /* \"#utility.yul\":3529:3535   */\n  0x00\n    /* \"#utility.yul\":3537:3543   */\n  dup1\n    /* \"#utility.yul\":3586:3589   */\n  0x80\n    /* \"#utility.yul\":3574:3583   */\n  dup6\n    /* \"#utility.yul\":3565:3572   */\n  dup8\n    /* \"#utility.yul\":3561:3584   */\n  sub\n    /* \"#utility.yul\":3557:3590   */\n  slt\n    /* \"#utility.yul\":3554:3674   */\n  iszero\n  tag_101\n  jumpi\n    /* \"#utility.yul\":3593:3672   */\n  tag_102\n  tag_18\n  jump\t// in\ntag_102:\n    /* \"#utility.yul\":3554:3674   */\ntag_101:\n    /* \"#utility.yul\":3734:3735   */\n  0x00\n    /* \"#utility.yul\":3723:3732   */\n  dup6\n    /* \"#utility.yul\":3719:3736   */\n  add\n    /* \"#utility.yul\":3713:3737   */\n  mload\n    /* \"#utility.yul\":3764:3782   */\n  0xffffffffffffffff\n    /* \"#utility.yul\":3756:3762   */\n  dup2\n    /* \"#utility.yul\":3753:3783   */\n  gt\n    /* \"#utility.yul\":3750:3867   */\n  iszero\n  tag_103\n  jumpi\n    /* \"#utility.yul\":3786:3865   */\n  tag_104\n  tag_19\n  jump\t// in\ntag_104:\n    /* \"#utility.yul\":3750:3867   */\ntag_103:\n    /* \"#utility.yul\":3891:3965   */\n  tag_105\n    /* \"#utility.yul\":3957:3964   */\n  dup8\n    /* \"#utility.yul\":3948:3954   */\n  dup3\n    /* \"#utility.yul\":3937:3946   */\n  dup9\n    /* \"#utility.yul\":3933:3955   */\n  add\n    /* \"#utility.yul\":3891:3965   */\n  tag_29\n  jump\t// in\ntag_105:\n    /* \"#utility.yul\":3881:3965   */\n  swap5\n  pop\n    /* \"#utility.yul\":3684:3975   */\n  pop\n    /* \"#utility.yul\":4035:4037   */\n  0x20\n    /* \"#utility.yul\":4024:4033   */\n  dup6\n    /* \"#utility.yul\":4020:4038   */\n  add\n    /* \"#utility.yul\":4014:4039   */\n  mload\n    /* \"#utility.yul\":4066:4084   */\n  0xffffffffffffffff\n    /* \"#utility.yul\":4058:4064   */\n  dup2\n    /* \"#utility.yul\":4055:4085   */\n  gt\n    /* \"#utility.yul\":4052:4169   */\n  iszero\n  tag_106\n  jumpi\n    /* \"#utility.yul\":4088:4167   */\n  tag_107\n  tag_19\n  jump\t// in\ntag_107:\n    /* \"#utility.yul\":4052:4169   */\ntag_106:\n    /* \"#utility.yul\":4193:4267   */\n  tag_108\n    /* \"#utility.yul\":4259:4266   */\n  dup8\n    /* \"#utility.yul\":4250:4256   */\n  dup3\n    /* \"#utility.yul\":4239:4248   */\n  dup9\n    /* \"#utility.yul\":4235:4257   */\n  add\n    /* \"#utility.yul\":4193:4267   */\n  tag_29\n  jump\t// in\ntag_108:\n    /* \"#utility.yul\":4183:4267   */\n  swap4\n  pop\n    /* \"#utility.yul\":3985:4277   */\n  pop\n    /* \"#utility.yul\":4316:4318   */\n  0x40\n    /* \"#utility.yul\":4342:4404   */\n  tag_109\n    /* \"#utility.yul\":4396:4403   */\n  dup8\n    /* \"#utility.yul\":4387:4393   */\n  dup3\n    /* \"#utility.yul\":4376:4385   */\n  dup9\n    /* \"#utility.yul\":4372:4394   */\n  add\n    /* \"#utility.yul\":4342:4404   */\n  tag_32\n  jump\t// in\ntag_109:\n    /* \"#utility.yul\":4332:4404   */\n  swap3\n  pop\n    /* \"#utility.yul\":4287:4414   */\n  pop\n    /* \"#utility.yul\":4453:4455   */\n  0x60\n    /* \"#utility.yul\":4479:4543   */\n  tag_110\n    /* \"#utility.yul\":4535:4542   */\n  dup8\n    /* \"#utility.yul\":4526:4532   */\n  dup3\n    /* \"#utility.yul\":4515:4524   */\n  dup9\n    /* \"#utility.yul\":4511:4533   */\n  add\n    /* \"#utility.yul\":4479:4543   */\n  tag_35\n  jump\t// in\ntag_110:\n    /* \"#utility.yul\":4469:4543   */\n  swap2\n  pop\n    /* \"#utility.yul\":4424:4553   */\n  pop\n    /* \"#utility.yul\":3398:4560   */\n  swap3\n  swap6\n  swap2\n  swap5\n  pop\n  swap3\n  pop\n  jump\t// out\n    /* \"#utility.yul\":4566:4665   */\ntag_36:\n    /* \"#utility.yul\":4618:4624   */\n  0x00\n    /* \"#utility.yul\":4652:4657   */\n  dup2\n    /* \"#utility.yul\":4646:4658   */\n  mload\n    /* \"#utility.yul\":4636:4658   */\n  swap1\n  pop\n    /* \"#utility.yul\":4566:4665   */\n  swap2\n  swap1\n  pop\n  jump\t// out\n    /* \"#utility.yul\":4671:4851   */\ntag_37:\n    /* \"#utility.yul\":4719:4796   */\n  0x4e487b7100000000000000000000000000000000000000000000000000000000\n    /* \"#utility.yul\":4716:4717   */\n  0x00\n    /* \"#utility.yul\":4709:4797   */\n  mstore\n    /* \"#utility.yul\":4816:4820   */\n  0x22\n    /* \"#utility.yul\":4813:4814   */\n  0x04\n    /* \"#utility.yul\":4806:4821   */\n  mstore\n    /* \"#utility.yul\":4840:4844   */\n  0x24\n    /* \"#utility.yul\":4837:4838   */\n  0x00\n    /* \"#utility.yul\":4830:4845   */\n  revert\n    /* \"#utility.yul\":4857:5177   */\ntag_38:\n    /* \"#utility.yul\":4901:4907   */\n  0x00\n    /* \"#utility.yul\":4938:4939   */\n  0x02\n    /* \"#utility.yul\":4932:4936   */\n  dup3\n    /* \"#utility.yul\":4928:4940   */\n  div\n    /* \"#utility.yul\":4918:4940   */\n  swap1\n  pop\n    /* \"#utility.yul\":4985:4986   */\n  0x01\n    /* \"#utility.yul\":4979:4983   */\n  dup3\n    /* \"#utility.yul\":4975:4987   */\n  and\n    /* \"#utility.yul\":5006:5024   */\n  dup1\n    /* \"#utility.yul\":4996:5077   */\n  tag_114\n  jumpi\n    /* \"#utility.yul\":5062:5066   */\n  0x7f\n    /* \"#utility.yul\":5054:5060   */\n  dup3\n    /* \"#utility.yul\":5050:5067   */\n  and\n    /* \"#utility.yul\":5040:5067   */\n  swap2\n  pop\n    /* \"#utility.yul\":4996:5077   */\ntag_114:\n    /* \"#utility.yul\":5124:5126   */\n  0x20\n    /* \"#utility.yul\":5116:5122   */\n  dup3\n    /* \"#utility.yul\":5113:5127   */\n  lt\n    /* \"#utility.yul\":5093:5111   */\n  dup2\n    /* \"#utility.yul\":5090:5128   */\n  sub\n    /* \"#utility.yul\":5087:5171   */\n  tag_115\n  jumpi\n    /* \"#utility.yul\":5143:5161   */\n  tag_116\n  tag_37\n  jump\t// in\ntag_116:\n    /* \"#utility.yul\":5087:5171   */\ntag_115:\n    /* \"#utility.yul\":4908:5177   */\n  pop\n    /* \"#utility.yul\":4857:5177   */\n  swap2\n  swap1\n  pop\n  jump\t// out\n    /* \"#utility.yul\":5183:5324   */\ntag_39:\n    /* \"#utility.yul\":5232:5236   */\n  0x00\n    /* \"#utility.yul\":5255:5258   */\n  dup2\n    /* \"#utility.yul\":5247:5258   */\n  swap1\n  pop\n    /* \"#utility.yul\":5278:5281   */\n  dup2\n    /* \"#utility.yul\":5275:5276   */\n  0x00\n    /* \"#utility.yul\":5268:5282   */\n  mstore\n    /* \"#utility.yul\":5312:5316   */\n  0x20\n    /* \"#utility.yul\":5309:5310   */\n  0x00\n    /* \"#utility.yul\":5299:5317   */\n  keccak256\n    /* \"#utility.yul\":5291:5317   */\n  swap1\n  pop\n    /* \"#utility.yul\":5183:5324   */\n  swap2\n  swap1\n  pop\n  jump\t// out\n    /* \"#utility.yul\":5330:5423   */\ntag_40:\n    /* \"#utility.yul\":5367:5373   */\n  0x00\n    /* \"#utility.yul\":5414:5416   */\n  0x20\n    /* \"#utility.yul\":5409:5411   */\n  0x1f\n    /* \"#utility.yul\":5402:5407   */\n  dup4\n    /* \"#utility.yul\":5398:5412   */\n  add\n    /* \"#utility.yul\":5394:5417   */\n  div\n    /* \"#utility.yul\":5384:5417   */\n  swap1\n  pop\n    /* \"#utility.yul\":5330:5423   */\n  swap2\n  swap1\n  pop\n  jump\t// out\n    /* \"#utility.yul\":5429:5536   */\ntag_41:\n    /* \"#utility.yul\":5473:5481   */\n  0x00\n    /* \"#utility.yul\":5523:5528   */\n  dup3\n    /* \"#utility.yul\":5517:5521   */\n  dup3\n    /* \"#utility.yul\":5513:5529   */\n  shl\n    /* \"#utility.yul\":5492:5529   */\n  swap1\n  pop\n    /* \"#utility.yul\":5429:5536   */\n  swap3\n  swap2\n  pop\n  pop\n  jump\t// out\n    /* \"#utility.yul\":5542:5935   */\ntag_42:\n    /* \"#utility.yul\":5611:5617   */\n  0x00\n    /* \"#utility.yul\":5661:5662   */\n  0x08\n    /* \"#utility.yul\":5649:5659   */\n  dup4\n    /* \"#utility.yul\":5645:5663   */\n  mul\n    /* \"#utility.yul\":5684:5781   */\n  tag_121\n    /* \"#utility.yul\":5714:5780   */\n  0xffffffffffffffffffffffffffffffffffffffffffffffffffffffffffffffff\n    /* \"#utility.yul\":5703:5712   */\n  dup3\n    /* \"#utility.yul\":5684:5781   */\n  tag_41\n  jump\t// in\ntag_121:\n    /* \"#utility.yul\":5802:5841   */\n  tag_122\n    /* \"#utility.yul\":5832:5840   */\n  dup7\n    /* \"#utility.yul\":5821:5830   */\n  dup4\n    /* \"#utility.yul\":5802:5841   */\n  tag_41\n  jump\t// in\ntag_122:\n    /* \"#utility.yul\":5790:5841   */\n  swap6\n  pop\n    /* \"#utility.yul\":5874:5878   */\n  dup1\n    /* \"#utility.yul\":5870:5879   */\n  not\n    /* \"#utility.yul\":5863:5868   */\n  dup5\n    /* \"#utility.yul\":5859:5880   */\n  and\n    /* \"#utility.yul\":5850:5880   */\n  swap4\n  pop\n    /* \"#utility.yul\":5923:5927   */\n  dup1\n    /* \"#utility.yul\":5913:5921   */\n  dup7\n    /* \"#utility.yul\":5909:5928   */\n  and\n    /* \"#utility.yul\":5902:5907   */\n  dup5\n    /* \"#utility.yul\":5899:5929   */\n  or\n    /* \"#utility.yul\":5889:5929   */\n  swap3\n  pop\n    /* \"#utility.yul\":5618:5935   */\n  pop\n  pop\n    /* \"#utility.yul\":5542:5935   */\n  swap4\n  swap3\n  pop\n  pop\n  pop\n  jump\t// out\n    /* \"#utility.yul\":5941:6001   */\ntag_43:\n    /* \"#utility.yul\":5969:5972   */\n  0x00\n    /* \"#utility.yul\":5990:5995   */\n  dup2\n    /* \"#utility.yul\":5983:5995   */\n  swap1\n  pop\n    /* \"#utility.yul\":5941:6001   */\n  swap2\n  swap1\n  pop\n  jump\t// out\n    /* \"#utility.yul\":6007:6149   */\ntag_44:\n    /* \"#utility.yul\":6057:6066   */\n  0x00\n    /* \"#utility.yul\":6090:6143   */\n  tag_125\n    /* \"#utility.yul\":6108:6142   */\n  tag_126\n    /* \"#utility.yul\":6117:6141   */\n  tag_127\n    /* \"#utility.yul\":6135:6140   */\n  dup5\n    /* \"#utility.yul\":6117:6141   */\n  tag_33\n  jump\t// in\ntag_127:\n    /* \"#utility.yul\":6108:6142   */\n  tag_43\n  jump\t// in\ntag_126:\n    /* \"#utility.yul\":6090:6143   */\n  tag_33\n  jump\t// in\ntag_125:\n    /* \"#utility.yul\":6077:6143   */\n  swap1\n  pop\n    /* \"#utility.yul\":6007:6149   */\n  swap2\n  swap1\n  pop\n  jump\t// out\n    /* \"#utility.yul\":6155:6230   */\ntag_45:\n    /* \"#utility.yul\":6198:6201   */\n  0x00\n    /* \"#utility.yul\":6219:6224   */\n  dup2\n    /* \"#utility.yul\":6212:6224   */\n  swap1\n  pop\n    /* \"#utility.yul\":6155:6230   */\n  swap2\n  swap1\n  pop\n  jump\t// out\n    /* \"#utility.yul\":6236:6505   */\ntag_46:\n    /* \"#utility.yul\":6346:6385   */\n  tag_130\n    /* \"#utility.yul\":6377:6384   */\n  dup4\n    /* \"#utility.yul\":6346:6385   */\n  tag_44\n  jump\t// in\ntag_130:\n    /* \"#utility.yul\":6407:6498   */\n  tag_131\n    /* \"#utility.yul\":6456:6497   */\n  tag_132\n    /* \"#utility.yul\":6480:6496   */\n  dup3\n    /* \"#utility.yul\":6456:6497   */\n  tag_45\n  jump\t// in\ntag_132:\n    /* \"#utility.yul\":6448:6454   */\n  dup5\n    /* \"#utility.yul\":6441:6445   */\n  dup5\n    /* \"#utility.yul\":6435:6446   */\n  sload\n    /* \"#utility.yul\":6407:6498   */\n  tag_42\n  jump\t// in\ntag_131:\n    /* \"#utility.yul\":6401:6405   */\n  dup3\n    /* \"#utility.yul\":6394:6499   */\n  sstore\n    /* \"#utility.yul\":6312:6505   */\n  pop\n    /* \"#utility.yul\":6236:6505   */\n  pop\n  pop\n  pop\n  jump\t// out\n    /* \"#utility.yul\":6511:6584   */\ntag_47:\n    /* \"#utility.yul\":6556:6559   */\n  0x00\n    /* \"#utility.yul\":6511:6584   */\n  swap1\n  jump\t// out\n    /* \"#utility.yul\":6590:6779   */\ntag_48:\n    /* \"#utility.yul\":6667:6699   */\n  tag_135\n  tag_47\n  jump\t// in\ntag_135:\n    /* \"#utility.yul\":6708:6773   */\n  tag_136\n    /* \"#utility.yul\":6766:6772   */\n  dup2\n    /* \"#utility.yul\":6758:6764   */\n  dup5\n    /* \"#utility.yul\":6752:6756   */\n  dup5\n    /* \"#utility.yul\":6708:6773   */\n  tag_46\n  jump\t// in\ntag_136:\n    /* \"#utility.yul\":6643:6779   */\n  pop\n    /* \"#utility.yul\":6590:6779   */\n  pop\n  pop\n  jump\t// out\n    /* \"#utility.yul\":6785:6971   */\ntag_49:\n    /* \"#utility.yul\":6845:6965   */\ntag_138:\n    /* \"#utility.yul\":6862:6865   */\n  dup2\n    /* \"#utility.yul\":6855:6860   */\n  dup2\n    /* \"#utility.yul\":6852:6866   */\n  lt\n    /* \"#utility.yul\":6845:6965   */\n  iszero\n  tag_140\n  jumpi\n    /* \"#utility.yul\":6916:6955   */\n  tag_141\n    /* \"#utility.yul\":6953:6954   */\n  0x00\n    /* \"#utility.yul\":6946:6951   */\n  dup3\n    /* \"#utility.yul\":6916:6955   */\n  tag_48\n  jump\t// in\ntag_141:\n    /* \"#utility.yul\":6889:6890   */\n  0x01\n    /* \"#utility.yul\":6882:6887   */\n  dup2\n    /* \"#utility.yul\":6878:6891   */\n  add\n    /* \"#utility.yul\":6869:6891   */\n  swap1\n  pop\n    /* \"#utility.yul\":6845:6965   */\n  jump(tag_138)\ntag_140:\n    /* \"#utility.yul\":6785:6971   */\n  pop\n  pop\n  jump\t// out\n    /* \"#utility.yul\":6977:7520   */\ntag_50:\n    /* \"#utility.yul\":7078:7080   */\n  0x1f\n    /* \"#utility.yul\":7073:7076   */\n  dup3\n    /* \"#utility.yul\":7070:7081   */\n  gt\n    /* \"#utility.yul\":7067:7513   */\n  iszero\n  tag_143\n  jumpi\n    /* \"#utility.yul\":7112:7150   */\n  tag_144\n    /* \"#utility.yul\":7144:7149   */\n  dup2\n    /* \"#utility.yul\":7112:7150   */\n  tag_39\n  jump\t// in\ntag_144:\n    /* \"#utility.yul\":7196:7225   */\n  tag_145\n    /* \"#utility.yul\":7214:7224   */\n  dup5\n    /* \"#utility.yul\":7196:7225   */\n  tag_40\n  jump\t// in\ntag_145:\n    /* \"#utility.yul\":7186:7194   */\n  dup2\n    /* \"#utility.yul\":7182:7226   */\n  add\n    /* \"#utility.yul\":7379:7381   */\n  0x20\n    /* \"#utility.yul\":7367:7377   */\n  dup6\n    /* \"#utility.yul\":7364:7382   */\n  lt\n    /* \"#utility.yul\":7361:7410   */\n  iszero\n  tag_146\n  jumpi\n    /* \"#utility.yul\":7400:7408   */\n  dup2\n    /* \"#utility.yul\":7385:7408   */\n  swap1\n  pop\n    /* \"#utility.yul\":7361:7410   */\ntag_146:\n    /* \"#utility.yul\":7423:7503   */\n  tag_147\n    /* \"#utility.yul\":7479:7501   */\n  tag_148\n    /* \"#utility.yul\":7497:7500   */\n  dup6\n    /* \"#utility.yul\":7479:7501   */\n  tag_40\n  jump\t// in\ntag_148:\n    /* \"#utility.yul\":7469:7477   */\n  dup4\n    /* \"#utility.yul\":7465:7502   */\n  add\n    /* \"#utility.yul\":7452:7463   */\n  dup3\n    /* \"#utility.yul\":7423:7503   */\n  tag_49\n  jump\t// in\ntag_147:\n    /* \"#utility.yul\":7082:7513   */\n  pop\n  pop\n    /* \"#utility.yul\":7067:7513   */\ntag_143:\n    /* \"#utility.yul\":6977:7520   */\n  pop\n  pop\n  pop\n  jump\t// out\n    /* \"#utility.yul\":7526:7643   */\ntag_51:\n    /* \"#utility.yul\":7580:7588   */\n  0x00\n    /* \"#utility.yul\":7630:7635   */\n  dup3\n    /* \"#utility.yul\":7624:7628   */\n  dup3\n    /* \"#utility.yul\":7620:7636   */\n  shr\n    /* \"#utility.yul\":7599:7636   */\n  swap1\n  pop\n    /* \"#utility.yul\":7526:7643   */\n  swap3\n  swap2\n  pop\n  pop\n  jump\t// out\n    /* \"#utility.yul\":7649:7818   */\ntag_52:\n    /* \"#utility.yul\":7693:7699   */\n  0x00\n    /* \"#utility.yul\":7726:7777   */\n  tag_151\n    /* \"#utility.yul\":7774:7775   */\n  0x00\n    /* \"#utility.yul\":7770:7776   */\n  not\n    /* \"#utility.yul\":7762:7767   */\n  dup5\n    /* \"#utility.yul\":7759:7760   */\n  0x08\n    /* \"#utility.yul\":7755:7768   */\n  mul\n    /* \"#utility.yul\":7726:7777   */\n  tag_51\n  jump\t// in\ntag_151:\n    /* \"#utility.yul\":7722:7778   */\n  not\n    /* \"#utility.yul\":7807:7811   */\n  dup1\n    /* \"#utility.yul\":7801:7805   */\n  dup4\n    /* \"#utility.yul\":7797:7812   */\n  and\n    /* \"#utility.yul\":7787:7812   */\n  swap2\n  pop\n    /* \"#utility.yul\":7700:7818   */\n  pop\n    /* \"#utility.yul\":7649:7818   */\n  swap3\n  swap2\n  pop\n  pop\n  jump\t// out\n    /* \"#utility.yul\":7823:8118   */\ntag_53:\n    /* \"#utility.yul\":7899:7903   */\n  0x00\n    /* \"#utility.yul\":8045:8074   */\n  tag_153\n    /* \"#utility.yul\":8070:8073   */\n  dup4\n    /* \"#utility.yul\":8064:8068   */\n  dup4\n    /* \"#utility.yul\":8045:8074   */\n  tag_52\n  jump\t// in\ntag_153:\n    /* \"#utility.yul\":8037:8074   */\n  swap2\n  pop\n    /* \"#utility.yul\":8107:8110   */\n  dup3\n    /* \"#utility.yul\":8104:8105   */\n  0x02\n    /* \"#utility.yul\":8100:8111   */\n  mul\n    /* \"#utility.yul\":8094:8098   */\n  dup3\n    /* \"#utility.yul\":8091:8112   */\n  or\n    /* \"#utility.yul\":8083:8112   */\n  swap1\n  pop\n    /* \"#utility.yul\":7823:8118   */\n  swap3\n  swap2\n  pop\n  pop\n  jump\t// out\n    /* \"#utility.yul\":8123:9518   */\ntag_12:\n    /* \"#utility.yul\":8240:8277   */\n  tag_155\n    /* \"#utility.yul\":8273:8276   */\n  dup3\n    /* \"#utility.yul\":8240:8277   */\n  tag_36\n  jump\t// in\ntag_155:\n    /* \"#utility.yul\":8342:8360   */\n  0xffffffffffffffff\n    /* \"#utility.yul\":8334:8340   */\n  dup2\n    /* \"#utility.yul\":8331:8361   */\n  gt\n    /* \"#utility.yul\":8328:8384   */\n  iszero\n  tag_156\n  jumpi\n    /* \"#utility.yul\":8364:8382   */\n  tag_157\n  tag_23\n  jump\t// in\ntag_157:\n    /* \"#utility.yul\":8328:8384   */\ntag_156:\n    /* \"#utility.yul\":8408:8446   */\n  tag_158\n    /* \"#utility.yul\":8440:8444   */\n  dup3\n    /* \"#utility.yul\":8434:8445   */\n  sload\n    /* \"#utility.yul\":8408:8446   */\n  tag_38\n  jump\t// in\ntag_158:\n    /* \"#utility.yul\":8493:8560   */\n  tag_159\n    /* \"#utility.yul\":8553:8559   */\n  dup3\n    /* \"#utility.yul\":8545:8551   */\n  dup3\n    /* \"#utility.yul\":8539:8543   */\n  dup6\n    /* \"#utility.yul\":8493:8560   */\n  tag_50\n  jump\t// in\ntag_159:\n    /* \"#utility.yul\":8587:8588   */\n  0x00\n    /* \"#utility.yul\":8611:8615   */\n  0x20\n    /* \"#utility.yul\":8598:8615   */\n  swap1\n  pop\n    /* \"#utility.yul\":8643:8645   */\n  0x1f\n    /* \"#utility.yul\":8635:8641   */\n  dup4\n    /* \"#utility.yul\":8632:8646   */\n  gt\n    /* \"#utility.yul\":8660:8661   */\n  0x01\n    /* \"#utility.yul\":8655:9273   */\n  dup2\n  eq\n  tag_161\n  jumpi\n    /* \"#utility.yul\":9317:9318   */\n  0x00\n    /* \"#utility.yul\":9334:9340   */\n  dup5\n    /* \"#utility.yul\":9331:9408   */\n  iszero\n  tag_162\n  jumpi\n    /* \"#utility.yul\":9383:9392   */\n  dup3\n    /* \"#utility.yul\":9378:9381   */\n  dup8\n    /* \"#utility.yul\":9374:9393   */\n  add\n    /* \"#utility.yul\":9368:9394   */\n  mload\n    /* \"#utility.yul\":9359:9394   */\n  swap1\n  pop\n    /* \"#utility.yul\":9331:9408   */\ntag_162:\n    /* \"#utility.yul\":9434:9501   */\n  tag_163\n    /* \"#utility.yul\":9494:9500   */\n  dup6\n    /* \"#utility.yul\":9487:9492   */\n  dup3\n    /* \"#utility.yul\":9434:9501   */\n  tag_53\n  jump\t// in\ntag_163:\n    /* \"#utility.yul\":9428:9432   */\n  dup7\n    /* \"#utility.yul\":9421:9502   */\n  sstore\n    /* \"#utility.yul\":9290:9512   */\n  pop\n    /* \"#utility.yul\":8625:9512   */\n  jump(tag_160)\n    /* \"#utility.yul\":8655:9273   */\ntag_161:\n    /* \"#utility.yul\":8707:8711   */\n  0x1f\n    /* \"#utility.yul\":8703:8712   */\n  not\n    /* \"#utility.yul\":8695:8701   */\n  dup5\n    /* \"#utility.yul\":8691:8713   */\n  and\n    /* \"#utility.yul\":8741:8778   */\n  tag_164\n    /* \"#utility.yul\":8773:8777   */\n  dup7\n    /* \"#utility.yul\":8741:8778   */\n  tag_39\n  jump\t// in\ntag_164:\n    /* \"#utility.yul\":8800:8801   */\n  0x00\n    /* \"#utility.yul\":8814:9022   */\ntag_165:\n    /* \"#utility.yul\":8828:8835   */\n  dup3\n    /* \"#utility.yul\":8825:8826   */\n  dup2\n    /* \"#utility.yul\":8822:8836   */\n  lt\n    /* \"#utility.yul\":8814:9022   */\n  iszero\n  tag_167\n  jumpi\n    /* \"#utility.yul\":8907:8916   */\n  dup5\n    /* \"#utility.yul\":8902:8905   */\n  dup10\n    /* \"#utility.yul\":8898:8917   */\n  add\n    /* \"#utility.yul\":8892:8918   */\n  mload\n    /* \"#utility.yul\":8884:8890   */\n  dup3\n    /* \"#utility.yul\":8877:8919   */\n  sstore\n    /* \"#utility.yul\":8958:8959   */\n  0x01\n    /* \"#utility.yul\":8950:8956   */\n  dup3\n    /* \"#utility.yul\":8946:8960   */\n  add\n    /* \"#utility.yul\":8936:8960   */\n  swap2\n  pop\n    /* \"#utility.yul\":9005:9007   */\n  0x20\n    /* \"#utility.yul\":8994:9003   */\n  dup6\n    /* \"#utility.yul\":8990:9008   */\n  add\n    /* \"#utility.yul\":8977:9008   */\n  swap5\n  pop\n    /* \"#utility.yul\":8851:8855   */\n  0x20\n    /* \"#utility.yul\":8848:8849   */\n  dup2\n    /* \"#utility.yul\":8844:8856   */\n  add\n    /* \"#utility.yul\":8839:8856   */\n  swap1\n  pop\n    /* \"#utility.yul\":8814:9022   */\n  jump(tag_165)\ntag_167:\n    /* \"#utility.yul\":9050:9056   */\n  dup7\n    /* \"#utility.yul\":9041:9048   */\n  dup4\n    /* \"#utility.yul\":9038:9057   */\n  lt\n    /* \"#utility.yul\":9035:9214   */\n  iszero\n  tag_168\n  jumpi\n    /* \"#utility.yul\":9108:9117   */\n  dup5\n    /* \"#utility.yul\":9103:9106   */\n  dup10\n    /* \"#utility.yul\":9099:9118   */\n  add\n    /* \"#utility.yul\":9093:9119   */\n  mload\n    /* \"#utility.yul\":9151:9199   */\n  tag_169\n    /* \"#utility.yul\":9193:9197   */\n  0x1f\n    /* \"#utility.yul\":9185:9191   */\n  dup10\n    /* \"#utility.yul\":9181:9198   */\n  and\n    /* \"#utility.yul\":9170:9179   */\n  dup3\n    /* \"#utility.yul\":9151:9199   */\n  tag_52\n  jump\t// in\ntag_169:\n    /* \"#utility.yul\":9143:9149   */\n  dup4\n    /* \"#utility.yul\":9136:9200   */\n  sstore\n    /* \"#utility.yul\":9058:9214   */\n  pop\n    /* \"#utility.yul\":9035:9214   */\ntag_168:\n    /* \"#utility.yul\":9260:9261   */\n  0x01\n    /* \"#utility.yul\":9256:9257   */\n  0x02\n    /* \"#utility.yul\":9248:9254   */\n  dup9\n    /* \"#utility.yul\":9244:9258   */\n  mul\n    /* \"#utility.yul\":9240:9262   */\n  add\n    /* \"#utility.yul\":9234:9238   */\n  dup9\n    /* \"#utility.yul\":9227:9263   */\n  sstore\n    /* \"#utility.yul\":8662:9273   */\n  pop\n  pop\n  pop\n    /* \"#utility.yul\":8625:9512   */\ntag_160:\n  pop\n    /* \"#utility.yul\":8215:9518   */\n  pop\n  pop\n  pop\n    /* \"#utility.yul\":8123:9518   */\n  pop\n  pop\n  jump\t// out\n    /* \"#utility.yul\":9524:9642   */\ntag_54:\n    /* \"#utility.yul\":9611:9635   */\n  tag_171\n    /* \"#utility.yul\":9629:9634   */\n  dup2\n    /* \"#utility.yul\":9611:9635   */\n  tag_33\n  jump\t// in\ntag_171:\n    /* \"#utility.yul\":9606:9609   */\n  dup3\n    /* \"#utility.yul\":9599:9636   */\n  mstore\n    /* \"#utility.yul\":9524:9642   */\n  pop\n  pop\n  jump\t// out\n    /* \"#utility.yul\":9648:9870   */\ntag_15:\n    /* \"#utility.yul\":9741:9745   */\n  0x00\n    /* \"#utility.yul\":9779:9781   */\n  0x20\n    /* \"#utility.yul\":9768:9777   */\n  dup3\n    /* \"#utility.yul\":9764:9782   */\n  add\n    /* \"#utility.yul\":9756:9782   */\n  swap1\n  pop\n    /* \"#utility.yul\":9792:9863   */\n  tag_173\n    /* \"#utility.yul\":9860:9861   */\n  0x00\n    /* \"#utility.yul\":9849:9858   */\n  dup4\n    /* \"#utility.yul\":9845:9862   */\n  add\n    /* \"#utility.yul\":9836:9842   */\n  dup5\n    /* \"#utility.yul\":9792:9863   */\n  tag_54\n  jump\t// in\ntag_173:\n    /* \"#utility.yul\":9648:9870   */\n  swap3\n  swap2\n  pop\n  pop\n  jump\t// out\n    /* \"contracts/AlfaCoin.sol\":239:11363  contract AlfaCoin is Ownable, Stakeable {... */\ntag_16:\n  dataSize(sub_0)\n  dup1\n  dataOffset(sub_0)\n  0x00\n  codecopy\n  0x00\n  return\nstop\n\nsub_0: assembly {\n        /* \"contracts/AlfaCoin.sol\":239:11363  contract AlfaCoin is Ownable, Stakeable {... */\n      mstore(0x40, 0x80)\n      callvalue\n      dup1\n      iszero\n      tag_1\n      jumpi\n      0x00\n      dup1\n      revert\n    tag_1:\n      pop\n      jumpi(tag_2, lt(calldatasize, 0x04))\n      shr(0xe0, calldataload(0x00))\n      dup1\n      0x893d20e8\n      gt\n      tag_27\n      jumpi\n      dup1\n      0xa694fc3a\n      gt\n      tag_28\n      jumpi\n      dup1\n      0xa694fc3a\n      eq\n      tag_21\n      jumpi\n      dup1\n      0xa9059cbb\n      eq\n      tag_22\n      jumpi\n      dup1\n      0xdd62ed3e\n      eq\n      tag_23\n      jumpi\n      dup1\n      0xe73e14bf\n      eq\n      tag_24\n      jumpi\n      dup1\n      0xf1fdf469\n      eq\n      tag_25\n      jumpi\n      dup1\n      0xf2fde38b\n      eq\n      tag_26\n      jumpi\n      jump(tag_2)\n    tag_28:\n      dup1\n      0x893d20e8\n      eq\n      tag_15\n      jumpi\n      dup1\n      0x8da5cb5b\n      eq\n      tag_16\n      jumpi\n      dup1\n      0x93eb26da\n      eq\n      tag_17\n      jumpi\n      dup1\n      0x95d89b41\n      eq\n      tag_18\n      jumpi\n      dup1\n      0x9dc29fac\n      eq\n      tag_19\n      jumpi\n      dup1\n      0xa457c2d7\n      eq\n      tag_20\n      jumpi\n      jump(tag_2)\n    tag_27:\n      dup1\n      0x40c10f19\n      gt\n      tag_29\n      jumpi\n      dup1\n      0x40c10f19\n      eq\n      tag_9\n      jumpi\n      dup1\n      0x4f9a9caa\n      eq\n      tag_10\n      jumpi\n      dup1\n      0x70a08231\n      eq\n      tag_11\n      jumpi\n      dup1\n      0x715018a6\n      eq\n      tag_12\n      jumpi\n      dup1\n      0x853828b6\n      eq\n      tag_13\n      jumpi\n      dup1\n      0x8761dc5f\n      eq\n      tag_14\n      jumpi\n      jump(tag_2)\n    tag_29:\n      dup1\n      0x06fdde03\n      eq\n      tag_3\n      jumpi\n      dup1\n      0x095ea7b3\n      eq\n      tag_4\n      jumpi\n      dup1\n      0x18160ddd\n      eq\n      tag_5\n      jumpi\n      dup1\n      0x23b872dd\n      eq\n      tag_6\n      jumpi\n      dup1\n      0x313ce567\n      eq\n      tag_7\n      jumpi\n      dup1\n      0x39509351\n      eq\n      tag_8\n      jumpi\n    tag_2:\n      0x00\n      dup1\n      revert\n        /* \"contracts/AlfaCoin.sol\":2718:2801  function name() external view returns (string memory) {... */\n    tag_3:\n      tag_30\n      tag_31\n      jump\t// in\n    tag_30:\n      mload(0x40)\n      tag_32\n      swap2\n      swap1\n      tag_33\n      jump\t// in\n    tag_32:\n      mload(0x40)\n      dup1\n      swap2\n      sub\n      swap1\n      return\n        /* \"contracts/AlfaCoin.sol\":7522:7671  function approve(address spender, uint256 amount) external returns (bool) {... */\n    tag_4:\n      tag_34\n      0x04\n      dup1\n      calldatasize\n      sub\n      dup2\n      add\n      swap1\n      tag_35\n      swap2\n      swap1\n      tag_36\n      jump\t// in\n    tag_35:\n      tag_37\n      jump\t// in\n    tag_34:\n      mload(0x40)\n      tag_38\n      swap2\n      swap1\n      tag_39\n      jump\t// in\n    tag_38:\n      mload(0x40)\n      dup1\n      swap2\n      sub\n      swap1\n      return\n        /* \"contracts/AlfaCoin.sol\":2896:2987  function totalSupply() external view returns (uint256) {... */\n    tag_5:\n      tag_40\n      tag_41\n      jump\t// in\n    tag_40:\n      mload(0x40)\n      tag_42\n      swap2\n      swap1\n      tag_43\n      jump\t// in\n    tag_42:\n      mload(0x40)\n      dup1\n      swap2\n      sub\n      swap1\n      return\n        /* \"contracts/AlfaCoin.sol\":8695:9315  function transferFrom(... */\n    tag_6:\n      tag_44\n      0x04\n      dup1\n      calldatasize\n      sub\n      dup2\n      add\n      swap1\n      tag_45\n      swap2\n      swap1\n      tag_46\n      jump\t// in\n    tag_45:\n      tag_47\n      jump\t// in\n    tag_44:\n      mload(0x40)\n      tag_48\n      swap2\n      swap1\n      tag_39\n      jump\t// in\n    tag_48:\n      mload(0x40)\n      dup1\n      swap2\n      sub\n      swap1\n      return\n        /* \"contracts/AlfaCoin.sol\":2400:2483  function decimals() external view returns (uint8) {... */\n    tag_7:\n      tag_49\n      tag_50\n      jump\t// in\n    tag_49:\n      mload(0x40)\n      tag_51\n      swap2\n      swap1\n      tag_52\n      jump\t// in\n    tag_51:\n      mload(0x40)\n      dup1\n      swap2\n      sub\n      swap1\n      return\n        /* \"contracts/AlfaCoin.sol\":9438:9696  function increaseAllowance(address spender, uint256 amount)... */\n    tag_8:\n      tag_53\n      0x04\n      dup1\n      calldatasize\n      sub\n      dup2\n      add\n      swap1\n      tag_54\n      swap2\n      swap1\n      tag_36\n      jump\t// in\n    tag_54:\n      tag_55\n      jump\t// in\n    tag_53:\n      mload(0x40)\n      tag_56\n      swap2\n      swap1\n      tag_39\n      jump\t// in\n    tag_56:\n      mload(0x40)\n      dup1\n      swap2\n      sub\n      swap1\n      return\n        /* \"contracts/AlfaCoin.sol\":5406:5573  function mint(address account, uint256 amount)... */\n    tag_9:\n      tag_57\n      0x04\n      dup1\n      calldatasize\n      sub\n      dup2\n      add\n      swap1\n      tag_58\n      swap2\n      swap1\n      tag_36\n      jump\t// in\n    tag_58:\n      tag_59\n      jump\t// in\n    tag_57:\n      mload(0x40)\n      tag_60\n      swap2\n      swap1\n      tag_39\n      jump\t// in\n    tag_60:\n      mload(0x40)\n      dup1\n      swap2\n      sub\n      swap1\n      return\n        /* \"contracts/AlfaCoin.sol\":11117:11219  function viewRewardPerHour() external view returns (uint256) {... */\n    tag_10:\n      tag_61\n      tag_62\n      jump\t// in\n    tag_61:\n      mload(0x40)\n      tag_63\n      swap2\n      swap1\n      tag_43\n      jump\t// in\n    tag_63:\n      mload(0x40)\n      dup1\n      swap2\n      sub\n      swap1\n      return\n        /* \"contracts/AlfaCoin.sol\":3088:3198  function balanceOf(address account) external view returns (uint256) {... */\n    tag_11:\n      tag_64\n      0x04\n      dup1\n      calldatasize\n      sub\n      dup2\n      add\n      swap1\n      tag_65\n      swap2\n      swap1\n      tag_66\n      jump\t// in\n    tag_65:\n      tag_67\n      jump\t// in\n    tag_64:\n      mload(0x40)\n      tag_68\n      swap2\n      swap1\n      tag_43\n      jump\t// in\n    tag_68:\n      mload(0x40)\n      dup1\n      swap2\n      sub\n      swap1\n      return\n        /* \"contracts/Ownable.sol\":1461:1598  function renounceOwnership() public onlyOwner {... */\n    tag_12:\n      tag_69\n      tag_70\n      jump\t// in\n    tag_69:\n      stop\n        /* \"contracts/AlfaCoin.sol\":10941:11110  function withdrawAll()public  {... */\n    tag_13:\n      tag_71\n      tag_72\n      jump\t// in\n    tag_71:\n      stop\n        /* \"contracts/AlfaCoin.sol\":11225:11360  function setRewardPerHour(uint256 amount) public onlyOwner returns (bool) {... */\n    tag_14:\n      tag_73\n      0x04\n      dup1\n      calldatasize\n      sub\n      dup2\n      add\n      swap1\n      tag_74\n      swap2\n      swap1\n      tag_75\n      jump\t// in\n    tag_74:\n      tag_76\n      jump\t// in\n    tag_73:\n      mload(0x40)\n      tag_77\n      swap2\n      swap1\n      tag_39\n      jump\t// in\n    tag_77:\n      mload(0x40)\n      dup1\n      swap2\n      sub\n      swap1\n      return\n        /* \"contracts/AlfaCoin.sol\":7047:7130  function getOwner() external view returns (address) {... */\n    tag_15:\n      tag_78\n      tag_79\n      jump\t// in\n    tag_78:\n      mload(0x40)\n      tag_80\n      swap2\n      swap1\n      tag_81\n      jump\t// in\n    tag_80:\n      mload(0x40)\n      dup1\n      swap2\n      sub\n      swap1\n      return\n        /* \"contracts/Ownable.sol\":1137:1214  function owner() public view returns(address) {... */\n    tag_16:\n      tag_82\n      tag_83\n      jump\t// in\n    tag_82:\n      mload(0x40)\n      tag_84\n      swap2\n      swap1\n      tag_81\n      jump\t// in\n    tag_84:\n      mload(0x40)\n      dup1\n      swap2\n      sub\n      swap1\n      return\n        /* \"contracts/Stakeable.sol\":8176:8867  function viewAll(address _staker) public view returns (uint256) {... */\n    tag_17:\n      tag_85\n      0x04\n      dup1\n      calldatasize\n      sub\n      dup2\n      add\n      swap1\n      tag_86\n      swap2\n      swap1\n      tag_66\n      jump\t// in\n    tag_86:\n      tag_87\n      jump\t// in\n    tag_85:\n      mload(0x40)\n      tag_88\n      swap2\n      swap1\n      tag_43\n      jump\t// in\n    tag_88:\n      mload(0x40)\n      dup1\n      swap2\n      sub\n      swap1\n      return\n        /* \"contracts/AlfaCoin.sol\":2558:2645  function symbol() external view returns (string memory) {... */\n    tag_18:\n      tag_89\n      tag_90\n      jump\t// in\n    tag_89:\n      mload(0x40)\n      tag_91\n      swap2\n      swap1\n      tag_33\n      jump\t// in\n    tag_91:\n      mload(0x40)\n      dup1\n      swap2\n      sub\n      swap1\n      return\n        /* \"contracts/AlfaCoin.sol\":5047:5214  function burn(address account, uint256 amount)... */\n    tag_19:\n      tag_92\n      0x04\n      dup1\n      calldatasize\n      sub\n      dup2\n      add\n      swap1\n      tag_93\n      swap2\n      swap1\n      tag_36\n      jump\t// in\n    tag_93:\n      tag_94\n      jump\t// in\n    tag_92:\n      mload(0x40)\n      tag_95\n      swap2\n      swap1\n      tag_39\n      jump\t// in\n    tag_95:\n      mload(0x40)\n      dup1\n      swap2\n      sub\n      swap1\n      return\n        /* \"contracts/AlfaCoin.sol\":9829:10087  function decreaseAllowance(address spender, uint256 amount)... */\n    tag_20:\n      tag_96\n      0x04\n      dup1\n      calldatasize\n      sub\n      dup2\n      add\n      swap1\n      tag_97\n      swap2\n      swap1\n      tag_36\n      jump\t// in\n    tag_97:\n      tag_98\n      jump\t// in\n    tag_96:\n      mload(0x40)\n      tag_99\n      swap2\n      swap1\n      tag_39\n      jump\t// in\n    tag_99:\n      mload(0x40)\n      dup1\n      swap2\n      sub\n      swap1\n      return\n        /* \"contracts/AlfaCoin.sol\":10175:10607  function stake(uint256 _amount) public {... */\n    tag_21:\n      tag_100\n      0x04\n      dup1\n      calldatasize\n      sub\n      dup2\n      add\n      swap1\n      tag_101\n      swap2\n      swap1\n      tag_75\n      jump\t// in\n    tag_101:\n      tag_102\n      jump\t// in\n    tag_100:\n      stop\n        /* \"contracts/AlfaCoin.sol\":5904:6079  function transfer(address recipient, uint256 amount)... */\n    tag_22:\n      tag_103\n      0x04\n      dup1\n      calldatasize\n      sub\n      dup2\n      add\n      swap1\n      tag_104\n      swap2\n      swap1\n      tag_36\n      jump\t// in\n    tag_104:\n      tag_105\n      jump\t// in\n    tag_103:\n      mload(0x40)\n      tag_106\n      swap2\n      swap1\n      tag_39\n      jump\t// in\n    tag_106:\n      mload(0x40)\n      dup1\n      swap2\n      sub\n      swap1\n      return\n        /* \"contracts/AlfaCoin.sol\":7224:7386  function allowance(address owner, address spender)... */\n    tag_23:\n      tag_107\n      0x04\n      dup1\n      calldatasize\n      sub\n      dup2\n      add\n      swap1\n      tag_108\n      swap2\n      swap1\n      tag_109\n      jump\t// in\n    tag_108:\n      tag_110\n      jump\t// in\n    tag_107:\n      mload(0x40)\n      tag_111\n      swap2\n      swap1\n      tag_43\n      jump\t// in\n    tag_111:\n      mload(0x40)\n      dup1\n      swap2\n      sub\n      swap1\n      return\n        /* \"contracts/Stakeable.sol\":7270:8170  function hasStake(address _staker)... */\n    tag_24:\n      tag_112\n      0x04\n      dup1\n      calldatasize\n      sub\n      dup2\n      add\n      swap1\n      tag_113\n      swap2\n      swap1\n      tag_66\n      jump\t// in\n    tag_113:\n      tag_114\n      jump\t// in\n    tag_112:\n      mload(0x40)\n      tag_115\n      swap2\n      swap1\n      tag_116\n      jump\t// in\n    tag_115:\n      mload(0x40)\n      dup1\n      swap2\n      sub\n      swap1\n      return\n        /* \"contracts/AlfaCoin.sol\":10709:10936  function withdrawStake(uint256 amount, uint256 stake_index) public {... */\n    tag_25:\n      tag_117\n      0x04\n      dup1\n      calldatasize\n      sub\n      dup2\n      add\n      swap1\n      tag_118\n      swap2\n      swap1\n      tag_119\n      jump\t// in\n    tag_118:\n      tag_120\n      jump\t// in\n    tag_117:\n      stop\n        /* \"contracts/Ownable.sol\":1694:1801  function transferOwnership(address newOwner) public onlyOwner {... */\n    tag_26:\n      tag_121\n      0x04\n      dup1\n      calldatasize\n      sub\n      dup2\n      add\n      swap1\n      tag_122\n      swap2\n      swap1\n      tag_66\n      jump\t// in\n    tag_122:\n      tag_123\n      jump\t// in\n    tag_121:\n      stop\n        /* \"contracts/AlfaCoin.sol\":2718:2801  function name() external view returns (string memory) {... */\n    tag_31:\n        /* \"contracts/AlfaCoin.sol\":2757:2770  string memory */\n      0x60\n        /* \"contracts/AlfaCoin.sol\":2789:2794  _name */\n      0x07\n        /* \"contracts/AlfaCoin.sol\":2782:2794  return _name */\n      dup1\n      sload\n      tag_125\n      swap1\n      tag_126\n      jump\t// in\n    tag_125:\n      dup1\n      0x1f\n      add\n      0x20\n      dup1\n      swap2\n      div\n      mul\n      0x20\n      add\n      mload(0x40)\n      swap1\n      dup2\n      add\n      0x40\n      mstore\n      dup1\n      swap3\n      swap2\n      swap1\n      dup2\n      dup2\n      mstore\n      0x20\n      add\n      dup3\n      dup1\n      sload\n      tag_127\n      swap1\n      tag_126\n      jump\t// in\n    tag_127:\n      dup1\n      iszero\n      tag_128\n      jumpi\n      dup1\n      0x1f\n      lt\n      tag_129\n      jumpi\n      0x0100\n      dup1\n      dup4\n      sload\n      div\n      mul\n      dup4\n      mstore\n      swap2\n      0x20\n      add\n      swap2\n      jump(tag_128)\n    tag_129:\n      dup3\n      add\n      swap2\n      swap1\n      0x00\n      mstore\n      keccak256(0x00, 0x20)\n      swap1\n    tag_130:\n      dup2\n      sload\n      dup2\n      mstore\n      swap1\n      0x01\n      add\n      swap1\n      0x20\n      add\n      dup1\n      dup4\n      gt\n      tag_130\n      jumpi\n      dup3\n      swap1\n      sub\n      0x1f\n      and\n      dup3\n      add\n      swap2\n    tag_128:\n      pop\n      pop\n      pop\n      pop\n      pop\n      swap1\n      pop\n        /* \"contracts/AlfaCoin.sol\":2718:2801  function name() external view returns (string memory) {... */\n      swap1\n      jump\t// out\n        /* \"contracts/AlfaCoin.sol\":7522:7671  function approve(address spender, uint256 amount) external returns (bool) {... */\n    tag_37:\n        /* \"contracts/AlfaCoin.sol\":7590:7594  bool */\n      0x00\n        /* \"contracts/AlfaCoin.sol\":7606:7643  _approve(msg.sender, spender, amount) */\n      tag_132\n        /* \"contracts/AlfaCoin.sol\":7615:7625  msg.sender */\n      caller\n        /* \"contracts/AlfaCoin.sol\":7627:7634  spender */\n      dup5\n        /* \"contracts/AlfaCoin.sol\":7636:7642  amount */\n      dup5\n        /* \"contracts/AlfaCoin.sol\":7606:7614  _approve */\n      tag_133\n        /* \"contracts/AlfaCoin.sol\":7606:7643  _approve(msg.sender, spender, amount) */\n      jump\t// in\n    tag_132:\n        /* \"contracts/AlfaCoin.sol\":7660:7664  true */\n      0x01\n        /* \"contracts/AlfaCoin.sol\":7653:7664  return true */\n      swap1\n      pop\n        /* \"contracts/AlfaCoin.sol\":7522:7671  function approve(address spender, uint256 amount) external returns (bool) {... */\n      swap3\n      swap2\n      pop\n      pop\n      jump\t// out\n        /* \"contracts/AlfaCoin.sol\":2896:2987  function totalSupply() external view returns (uint256) {... */\n    tag_41:\n        /* \"contracts/AlfaCoin.sol\":2942:2949  uint256 */\n      0x00\n        /* \"contracts/AlfaCoin.sol\":2968:2980  _totalSupply */\n      sload(0x04)\n        /* \"contracts/AlfaCoin.sol\":2961:2980  return _totalSupply */\n      swap1\n      pop\n        /* \"contracts/AlfaCoin.sol\":2896:2987  function totalSupply() external view returns (uint256) {... */\n      swap1\n      jump\t// out\n        /* \"contracts/AlfaCoin.sol\":8695:9315  function transferFrom(... */\n    tag_47:\n        /* \"contracts/AlfaCoin.sol\":8817:8821  bool */\n      0x00\n        /* \"contracts/AlfaCoin.sol\":8941:8947  amount */\n      dup2\n        /* \"contracts/AlfaCoin.sol\":8905:8916  _allowances */\n      0x09\n        /* \"contracts/AlfaCoin.sol\":8905:8925  _allowances[spender] */\n      0x00\n        /* \"contracts/AlfaCoin.sol\":8917:8924  spender */\n      dup7\n        /* \"contracts/AlfaCoin.sol\":8905:8925  _allowances[spender] */\n      0xffffffffffffffffffffffffffffffffffffffff\n      and\n      0xffffffffffffffffffffffffffffffffffffffff\n      and\n      dup2\n      mstore\n      0x20\n      add\n      swap1\n      dup2\n      mstore\n      0x20\n      add\n      0x00\n      keccak256\n        /* \"contracts/AlfaCoin.sol\":8905:8937  _allowances[spender][msg.sender] */\n      0x00\n        /* \"contracts/AlfaCoin.sol\":8926:8936  msg.sender */\n      caller\n        /* \"contracts/AlfaCoin.sol\":8905:8937  _allowances[spender][msg.sender] */\n      0xffffffffffffffffffffffffffffffffffffffff\n      and\n      0xffffffffffffffffffffffffffffffffffffffff\n      and\n      dup2\n      mstore\n      0x20\n      add\n      swap1\n      dup2\n      mstore\n      0x20\n      add\n      0x00\n      keccak256\n      sload\n        /* \"contracts/AlfaCoin.sol\":8905:8947  _allowances[spender][msg.sender] >= amount */\n      lt\n      iszero\n        /* \"contracts/AlfaCoin.sol\":8884:9025  require(... */\n      tag_136\n      jumpi\n      mload(0x40)\n      0x08c379a000000000000000000000000000000000000000000000000000000000\n      dup2\n      mstore\n      0x04\n      add\n      tag_137\n      swap1\n      tag_138\n      jump\t// in\n    tag_137:\n      mload(0x40)\n      dup1\n      swap2\n      sub\n      swap1\n      revert\n    tag_136:\n        /* \"contracts/AlfaCoin.sol\":9061:9098  _transfer(spender, recipient, amount) */\n      tag_139\n        /* \"contracts/AlfaCoin.sol\":9071:9078  spender */\n      dup5\n        /* \"contracts/AlfaCoin.sol\":9080:9089  recipient */\n      dup5\n        /* \"contracts/AlfaCoin.sol\":9091:9097  amount */\n      dup5\n        /* \"contracts/AlfaCoin.sol\":9061:9070  _transfer */\n      tag_140\n        /* \"contracts/AlfaCoin.sol\":9061:9098  _transfer(spender, recipient, amount) */\n      jump\t// in\n    tag_139:\n        /* \"contracts/AlfaCoin.sol\":9169:9287  _approve(... */\n      tag_141\n        /* \"contracts/AlfaCoin.sol\":9191:9198  spender */\n      dup5\n        /* \"contracts/AlfaCoin.sol\":9212:9222  msg.sender */\n      caller\n        /* \"contracts/AlfaCoin.sol\":9271:9277  amount */\n      dup5\n        /* \"contracts/AlfaCoin.sol\":9236:9247  _allowances */\n      0x09\n        /* \"contracts/AlfaCoin.sol\":9236:9256  _allowances[spender] */\n      0x00\n        /* \"contracts/AlfaCoin.sol\":9248:9255  spender */\n      dup10\n        /* \"contracts/AlfaCoin.sol\":9236:9256  _allowances[spender] */\n      0xffffffffffffffffffffffffffffffffffffffff\n      and\n      0xffffffffffffffffffffffffffffffffffffffff\n      and\n      dup2\n      mstore\n      0x20\n      add\n      swap1\n      dup2\n      mstore\n      0x20\n      add\n      0x00\n      keccak256\n        /* \"contracts/AlfaCoin.sol\":9236:9268  _allowances[spender][msg.sender] */\n      0x00\n        /* \"contracts/AlfaCoin.sol\":9257:9267  msg.sender */\n      caller\n        /* \"contracts/AlfaCoin.sol\":9236:9268  _allowances[spender][msg.sender] */\n      0xffffffffffffffffffffffffffffffffffffffff\n      and\n      0xffffffffffffffffffffffffffffffffffffffff\n      and\n      dup2\n      mstore\n      0x20\n      add\n      swap1\n      dup2\n      mstore\n      0x20\n      add\n      0x00\n      keccak256\n      sload\n        /* \"contracts/AlfaCoin.sol\":9236:9277  _allowances[spender][msg.sender] - amount */\n      tag_142\n      swap2\n      swap1\n      tag_143\n      jump\t// in\n    tag_142:\n        /* \"contracts/AlfaCoin.sol\":9169:9177  _approve */\n      tag_133\n        /* \"contracts/AlfaCoin.sol\":9169:9287  _approve(... */\n      jump\t// in\n    tag_141:\n        /* \"contracts/AlfaCoin.sol\":9304:9308  true */\n      0x01\n        /* \"contracts/AlfaCoin.sol\":9297:9308  return true */\n      swap1\n      pop\n        /* \"contracts/AlfaCoin.sol\":8695:9315  function transferFrom(... */\n      swap4\n      swap3\n      pop\n      pop\n      pop\n      jump\t// out\n        /* \"contracts/AlfaCoin.sol\":2400:2483  function decimals() external view returns (uint8) {... */\n    tag_50:\n        /* \"contracts/AlfaCoin.sol\":2443:2448  uint8 */\n      0x00\n        /* \"contracts/AlfaCoin.sol\":2467:2476  _decimals */\n      0x05\n      0x00\n      swap1\n      sload\n      swap1\n      0x0100\n      exp\n      swap1\n      div\n      0xff\n      and\n        /* \"contracts/AlfaCoin.sol\":2460:2476  return _decimals */\n      swap1\n      pop\n        /* \"contracts/AlfaCoin.sol\":2400:2483  function decimals() external view returns (uint8) {... */\n      swap1\n      jump\t// out\n        /* \"contracts/AlfaCoin.sol\":9438:9696  function increaseAllowance(address spender, uint256 amount)... */\n    tag_55:\n        /* \"contracts/AlfaCoin.sol\":9530:9534  bool */\n      0x00\n        /* \"contracts/AlfaCoin.sol\":9550:9668  _approve(... */\n      tag_146\n        /* \"contracts/AlfaCoin.sol\":9572:9582  msg.sender */\n      caller\n        /* \"contracts/AlfaCoin.sol\":9596:9603  spender */\n      dup5\n        /* \"contracts/AlfaCoin.sol\":9652:9658  amount */\n      dup5\n        /* \"contracts/AlfaCoin.sol\":9617:9628  _allowances */\n      0x09\n        /* \"contracts/AlfaCoin.sol\":9617:9640  _allowances[msg.sender] */\n      0x00\n        /* \"contracts/AlfaCoin.sol\":9629:9639  msg.sender */\n      caller\n        /* \"contracts/AlfaCoin.sol\":9617:9640  _allowances[msg.sender] */\n      0xffffffffffffffffffffffffffffffffffffffff\n      and\n      0xffffffffffffffffffffffffffffffffffffffff\n      and\n      dup2\n      mstore\n      0x20\n      add\n      swap1\n      dup2\n      mstore\n      0x20\n      add\n      0x00\n      keccak256\n        /* \"contracts/AlfaCoin.sol\":9617:9649  _allowances[msg.sender][spender] */\n      0x00\n        /* \"contracts/AlfaCoin.sol\":9641:9648  spender */\n      dup9\n        /* \"contracts/AlfaCoin.sol\":9617:9649  _allowances[msg.sender][spender] */\n      0xffffffffffffffffffffffffffffffffffffffff\n      and\n      0xffffffffffffffffffffffffffffffffffffffff\n      and\n      dup2\n      mstore\n      0x20\n      add\n      swap1\n      dup2\n      mstore\n      0x20\n      add\n      0x00\n      keccak256\n      sload\n        /* \"contracts/AlfaCoin.sol\":9617:9658  _allowances[msg.sender][spender] + amount */\n      tag_147\n      swap2\n      swap1\n      tag_148\n      jump\t// in\n    tag_147:\n        /* \"contracts/AlfaCoin.sol\":9550:9558  _approve */\n      tag_133\n        /* \"contracts/AlfaCoin.sol\":9550:9668  _approve(... */\n      jump\t// in\n    tag_146:\n        /* \"contracts/AlfaCoin.sol\":9685:9689  true */\n      0x01\n        /* \"contracts/AlfaCoin.sol\":9678:9689  return true */\n      swap1\n      pop\n        /* \"contracts/AlfaCoin.sol\":9438:9696  function increaseAllowance(address spender, uint256 amount)... */\n      swap3\n      swap2\n      pop\n      pop\n      jump\t// out\n        /* \"contracts/AlfaCoin.sol\":5406:5573  function mint(address account, uint256 amount)... */\n    tag_59:\n        /* \"contracts/AlfaCoin.sol\":5503:5507  bool */\n      0x00\n        /* \"contracts/Ownable.sol\":783:793  msg.sender */\n      caller\n        /* \"contracts/Ownable.sol\":773:793  _owner == msg.sender */\n      0xffffffffffffffffffffffffffffffffffffffff\n      and\n        /* \"contracts/Ownable.sol\":773:779  _owner */\n      0x00\n      dup1\n      sload\n      swap1\n      0x0100\n      exp\n      swap1\n      div\n      0xffffffffffffffffffffffffffffffffffffffff\n      and\n        /* \"contracts/Ownable.sol\":773:793  _owner == msg.sender */\n      0xffffffffffffffffffffffffffffffffffffffff\n      and\n      eq\n        /* \"contracts/Ownable.sol\":765:840  require(_owner == msg.sender, \"Ownable: only owner can call this function\") */\n      tag_150\n      jumpi\n      mload(0x40)\n      0x08c379a000000000000000000000000000000000000000000000000000000000\n      dup2\n      mstore\n      0x04\n      add\n      tag_151\n      swap1\n      tag_152\n      jump\t// in\n    tag_151:\n      mload(0x40)\n      dup1\n      swap2\n      sub\n      swap1\n      revert\n    tag_150:\n        /* \"contracts/AlfaCoin.sol\":5523:5545  _mint(account, amount) */\n      tag_154\n        /* \"contracts/AlfaCoin.sol\":5529:5536  account */\n      dup4\n        /* \"contracts/AlfaCoin.sol\":5538:5544  amount */\n      dup4\n        /* \"contracts/AlfaCoin.sol\":5523:5528  _mint */\n      tag_155\n        /* \"contracts/AlfaCoin.sol\":5523:5545  _mint(account, amount) */\n      jump\t// in\n    tag_154:\n        /* \"contracts/AlfaCoin.sol\":5562:5566  true */\n      0x01\n        /* \"contracts/AlfaCoin.sol\":5555:5566  return true */\n      swap1\n      pop\n        /* \"contracts/AlfaCoin.sol\":5406:5573  function mint(address account, uint256 amount)... */\n      swap3\n      swap2\n      pop\n      pop\n      jump\t// out\n        /* \"contracts/AlfaCoin.sol\":11117:11219  function viewRewardPerHour() external view returns (uint256) {... */\n    tag_62:\n        /* \"contracts/AlfaCoin.sol\":11169:11176  uint256 */\n      0x00\n        /* \"contracts/AlfaCoin.sol\":11195:11212  _getRewardValue() */\n      tag_157\n        /* \"contracts/AlfaCoin.sol\":11195:11210  _getRewardValue */\n      tag_158\n        /* \"contracts/AlfaCoin.sol\":11195:11212  _getRewardValue() */\n      jump\t// in\n    tag_157:\n        /* \"contracts/AlfaCoin.sol\":11188:11212  return _getRewardValue() */\n      swap1\n      pop\n        /* \"contracts/AlfaCoin.sol\":11117:11219  function viewRewardPerHour() external view returns (uint256) {... */\n      swap1\n      jump\t// out\n        /* \"contracts/AlfaCoin.sol\":3088:3198  function balanceOf(address account) external view returns (uint256) {... */\n    tag_67:\n        /* \"contracts/AlfaCoin.sol\":3147:3154  uint256 */\n      0x00\n        /* \"contracts/AlfaCoin.sol\":3173:3182  _balances */\n      0x08\n        /* \"contracts/AlfaCoin.sol\":3173:3191  _balances[account] */\n      0x00\n        /* \"contracts/AlfaCoin.sol\":3183:3190  account */\n      dup4\n        /* \"contracts/AlfaCoin.sol\":3173:3191  _balances[account] */\n      0xffffffffffffffffffffffffffffffffffffffff\n      and\n      0xffffffffffffffffffffffffffffffffffffffff\n      and\n      dup2\n      mstore\n      0x20\n      add\n      swap1\n      dup2\n      mstore\n      0x20\n      add\n      0x00\n      keccak256\n      sload\n        /* \"contracts/AlfaCoin.sol\":3166:3191  return _balances[account] */\n      swap1\n      pop\n        /* \"contracts/AlfaCoin.sol\":3088:3198  function balanceOf(address account) external view returns (uint256) {... */\n      swap2\n      swap1\n      pop\n      jump\t// out\n        /* \"contracts/Ownable.sol\":1461:1598  function renounceOwnership() public onlyOwner {... */\n    tag_70:\n        /* \"contracts/Ownable.sol\":783:793  msg.sender */\n      caller\n        /* \"contracts/Ownable.sol\":773:793  _owner == msg.sender */\n      0xffffffffffffffffffffffffffffffffffffffff\n      and\n        /* \"contracts/Ownable.sol\":773:779  _owner */\n      0x00\n      dup1\n      sload\n      swap1\n      0x0100\n      exp\n      swap1\n      div\n      0xffffffffffffffffffffffffffffffffffffffff\n      and\n        /* \"contracts/Ownable.sol\":773:793  _owner == msg.sender */\n      0xffffffffffffffffffffffffffffffffffffffff\n      and\n      eq\n        /* \"contracts/Ownable.sol\":765:840  require(_owner == msg.sender, \"Ownable: only owner can call this function\") */\n      tag_161\n      jumpi\n      mload(0x40)\n      0x08c379a000000000000000000000000000000000000000000000000000000000\n      dup2\n      mstore\n      0x04\n      add\n      tag_162\n      swap1\n      tag_152\n      jump\t// in\n    tag_162:\n      mload(0x40)\n      dup1\n      swap2\n      sub\n      swap1\n      revert\n    tag_161:\n        /* \"contracts/Ownable.sol\":1559:1560  0 */\n      0x00\n        /* \"contracts/Ownable.sol\":1522:1562  OwnershipTransferred(_owner, address(0)) */\n      0xffffffffffffffffffffffffffffffffffffffff\n      and\n        /* \"contracts/Ownable.sol\":1543:1549  _owner */\n      0x00\n      dup1\n      sload\n      swap1\n      0x0100\n      exp\n      swap1\n      div\n      0xffffffffffffffffffffffffffffffffffffffff\n      and\n        /* \"contracts/Ownable.sol\":1522:1562  OwnershipTransferred(_owner, address(0)) */\n      0xffffffffffffffffffffffffffffffffffffffff\n      and\n      0x8be0079c531659141344cd1fd0a4f28419497f9722a3daafe3b4186f6b6457e0\n      mload(0x40)\n      mload(0x40)\n      dup1\n      swap2\n      sub\n      swap1\n      log3\n        /* \"contracts/Ownable.sol\":1589:1590  0 */\n      0x00\n        /* \"contracts/Ownable.sol\":1572:1578  _owner */\n      dup1\n      0x00\n        /* \"contracts/Ownable.sol\":1572:1591  _owner = address(0) */\n      0x0100\n      exp\n      dup2\n      sload\n      dup2\n      0xffffffffffffffffffffffffffffffffffffffff\n      mul\n      not\n      and\n      swap1\n      dup4\n      0xffffffffffffffffffffffffffffffffffffffff\n      and\n      mul\n      or\n      swap1\n      sstore\n      pop\n        /* \"contracts/Ownable.sol\":1461:1598  function renounceOwnership() public onlyOwner {... */\n      jump\t// out\n        /* \"contracts/AlfaCoin.sol\":10941:11110  function withdrawAll()public  {... */\n    tag_72:\n        /* \"contracts/AlfaCoin.sol\":10981:11003  uint256 amount_to_mint */\n      0x00\n        /* \"contracts/AlfaCoin.sol\":11006:11020  _withdrawAll() */\n      tag_165\n        /* \"contracts/AlfaCoin.sol\":11006:11018  _withdrawAll */\n      tag_166\n        /* \"contracts/AlfaCoin.sol\":11006:11020  _withdrawAll() */\n      jump\t// in\n    tag_165:\n        /* \"contracts/AlfaCoin.sol\":10981:11020  uint256 amount_to_mint = _withdrawAll() */\n      swap1\n      pop\n        /* \"contracts/AlfaCoin.sol\":11070:11103  _mint(msg.sender, amount_to_mint) */\n      tag_167\n        /* \"contracts/AlfaCoin.sol\":11076:11086  msg.sender */\n      caller\n        /* \"contracts/AlfaCoin.sol\":11088:11102  amount_to_mint */\n      dup3\n        /* \"contracts/AlfaCoin.sol\":11070:11075  _mint */\n      tag_155\n        /* \"contracts/AlfaCoin.sol\":11070:11103  _mint(msg.sender, amount_to_mint) */\n      jump\t// in\n    tag_167:\n        /* \"contracts/AlfaCoin.sol\":10971:11110  {... */\n      pop\n        /* \"contracts/AlfaCoin.sol\":10941:11110  function withdrawAll()public  {... */\n      jump\t// out\n        /* \"contracts/AlfaCoin.sol\":11225:11360  function setRewardPerHour(uint256 amount) public onlyOwner returns (bool) {... */\n    tag_76:\n        /* \"contracts/AlfaCoin.sol\":11293:11297  bool */\n      0x00\n        /* \"contracts/Ownable.sol\":783:793  msg.sender */\n      caller\n        /* \"contracts/Ownable.sol\":773:793  _owner == msg.sender */\n      0xffffffffffffffffffffffffffffffffffffffff\n      and\n        /* \"contracts/Ownable.sol\":773:779  _owner */\n      0x00\n      dup1\n      sload\n      swap1\n      0x0100\n      exp\n      swap1\n      div\n      0xffffffffffffffffffffffffffffffffffffffff\n      and\n        /* \"contracts/Ownable.sol\":773:793  _owner == msg.sender */\n      0xffffffffffffffffffffffffffffffffffffffff\n      and\n      eq\n        /* \"contracts/Ownable.sol\":765:840  require(_owner == msg.sender, \"Ownable: only owner can call this function\") */\n      tag_169\n      jumpi\n      mload(0x40)\n      0x08c379a000000000000000000000000000000000000000000000000000000000\n      dup2\n      mstore\n      0x04\n      add\n      tag_170\n      swap1\n      tag_152\n      jump\t// in\n    tag_170:\n      mload(0x40)\n      dup1\n      swap2\n      sub\n      swap1\n      revert\n    tag_169:\n        /* \"contracts/AlfaCoin.sol\":11309:11332  _setRewardValue(amount) */\n      tag_172\n        /* \"contracts/AlfaCoin.sol\":11325:11331  amount */\n      dup3\n        /* \"contracts/AlfaCoin.sol\":11309:11324  _setRewardValue */\n      tag_173\n        /* \"contracts/AlfaCoin.sol\":11309:11332  _setRewardValue(amount) */\n      jump\t// in\n    tag_172:\n        /* \"contracts/AlfaCoin.sol\":11349:11353  true */\n      0x01\n        /* \"contracts/AlfaCoin.sol\":11342:11353  return true */\n      swap1\n      pop\n        /* \"contracts/AlfaCoin.sol\":11225:11360  function setRewardPerHour(uint256 amount) public onlyOwner returns (bool) {... */\n      swap2\n      swap1\n      pop\n      jump\t// out\n        /* \"contracts/AlfaCoin.sol\":7047:7130  function getOwner() external view returns (address) {... */\n    tag_79:\n        /* \"contracts/AlfaCoin.sol\":7090:7097  address */\n      0x00\n        /* \"contracts/AlfaCoin.sol\":7116:7123  owner() */\n      tag_175\n        /* \"contracts/AlfaCoin.sol\":7116:7121  owner */\n      tag_83\n        /* \"contracts/AlfaCoin.sol\":7116:7123  owner() */\n      jump\t// in\n    tag_175:\n        /* \"contracts/AlfaCoin.sol\":7109:7123  return owner() */\n      swap1\n      pop\n        /* \"contracts/AlfaCoin.sol\":7047:7130  function getOwner() external view returns (address) {... */\n      swap1\n      jump\t// out\n        /* \"contracts/Ownable.sol\":1137:1214  function owner() public view returns(address) {... */\n    tag_83:\n        /* \"contracts/Ownable.sol\":1174:1181  address */\n      0x00\n        /* \"contracts/Ownable.sol\":1200:1206  _owner */\n      dup1\n      0x00\n      swap1\n      sload\n      swap1\n      0x0100\n      exp\n      swap1\n      div\n      0xffffffffffffffffffffffffffffffffffffffff\n      and\n        /* \"contracts/Ownable.sol\":1193:1206  return _owner */\n      swap1\n      pop\n        /* \"contracts/Ownable.sol\":1137:1214  function owner() public view returns(address) {... */\n      swap1\n      jump\t// out\n        /* \"contracts/Stakeable.sol\":8176:8867  function viewAll(address _staker) public view returns (uint256) {... */\n    tag_87:\n        /* \"contracts/Stakeable.sol\":8231:8238  uint256 */\n      0x00\n        /* \"contracts/Stakeable.sol\":8250:8269  uint256 totalAmount */\n      dup1\n        /* \"contracts/Stakeable.sol\":8279:8297  uint256 user_index */\n      0x00\n        /* \"contracts/Stakeable.sol\":8300:8306  stakes */\n      0x03\n        /* \"contracts/Stakeable.sol\":8300:8315  stakes[_staker] */\n      0x00\n        /* \"contracts/Stakeable.sol\":8307:8314  _staker */\n      dup6\n        /* \"contracts/Stakeable.sol\":8300:8315  stakes[_staker] */\n      0xffffffffffffffffffffffffffffffffffffffff\n      and\n      0xffffffffffffffffffffffffffffffffffffffff\n      and\n      dup2\n      mstore\n      0x20\n      add\n      swap1\n      dup2\n      mstore\n      0x20\n      add\n      0x00\n      keccak256\n      sload\n        /* \"contracts/Stakeable.sol\":8279:8315  uint256 user_index = stakes[_staker] */\n      swap1\n      pop\n        /* \"contracts/Stakeable.sol\":8326:8355  StakingSummary memory summary */\n      0x00\n        /* \"contracts/Stakeable.sol\":8358:8455  StakingSummary(... */\n      mload(0x40)\n      dup1\n      0x40\n      add\n      0x40\n      mstore\n      dup1\n        /* \"contracts/Stakeable.sol\":8386:8387  0 */\n      0x00\n        /* \"contracts/Stakeable.sol\":8358:8455  StakingSummary(... */\n      dup2\n      mstore\n      0x20\n      add\n        /* \"contracts/Stakeable.sol\":8401:8413  stakeholders */\n      0x02\n        /* \"contracts/Stakeable.sol\":8414:8420  stakes */\n      0x03\n        /* \"contracts/Stakeable.sol\":8414:8429  stakes[_staker] */\n      0x00\n        /* \"contracts/Stakeable.sol\":8421:8428  _staker */\n      dup10\n        /* \"contracts/Stakeable.sol\":8414:8429  stakes[_staker] */\n      0xffffffffffffffffffffffffffffffffffffffff\n      and\n      0xffffffffffffffffffffffffffffffffffffffff\n      and\n      dup2\n      mstore\n      0x20\n      add\n      swap1\n      dup2\n      mstore\n      0x20\n      add\n      0x00\n      keccak256\n      sload\n        /* \"contracts/Stakeable.sol\":8401:8430  stakeholders[stakes[_staker]] */\n      dup2\n      sload\n      dup2\n      lt\n      tag_178\n      jumpi\n      tag_179\n      tag_180\n      jump\t// in\n    tag_179:\n    tag_178:\n      swap1\n      0x00\n      mstore\n      keccak256(0x00, 0x20)\n      swap1\n      0x02\n      mul\n      add\n        /* \"contracts/Stakeable.sol\":8401:8445  stakeholders[stakes[_staker]].address_stakes */\n      0x01\n      add\n        /* \"contracts/Stakeable.sol\":8358:8455  StakingSummary(... */\n      dup1\n      sload\n      dup1\n      0x20\n      mul\n      0x20\n      add\n      mload(0x40)\n      swap1\n      dup2\n      add\n      0x40\n      mstore\n      dup1\n      swap3\n      swap2\n      swap1\n      dup2\n      dup2\n      mstore\n      0x20\n      add\n      0x00\n      swap1\n    tag_182:\n      dup3\n      dup3\n      lt\n      iszero\n      tag_183\n      jumpi\n      dup4\n      dup3\n      swap1\n      0x00\n      mstore\n      keccak256(0x00, 0x20)\n      swap1\n      0x04\n      mul\n      add\n      mload(0x40)\n      dup1\n      0x80\n      add\n      0x40\n      mstore\n      swap1\n      dup2\n      0x00\n      dup3\n      add\n      0x00\n      swap1\n      sload\n      swap1\n      0x0100\n      exp\n      swap1\n      div\n      0xffffffffffffffffffffffffffffffffffffffff\n      and\n      0xffffffffffffffffffffffffffffffffffffffff\n      and\n      0xffffffffffffffffffffffffffffffffffffffff\n      and\n      dup2\n      mstore\n      0x20\n      add\n      0x01\n      dup3\n      add\n      sload\n      dup2\n      mstore\n      0x20\n      add\n      0x02\n      dup3\n      add\n      sload\n      dup2\n      mstore\n      0x20\n      add\n      0x03\n      dup3\n      add\n      sload\n      dup2\n      mstore\n      pop\n      pop\n      dup2\n      mstore\n      0x20\n      add\n      swap1\n      0x01\n      add\n      swap1\n      jump(tag_182)\n    tag_183:\n      pop\n      pop\n      pop\n      pop\n      dup2\n      mstore\n      pop\n        /* \"contracts/Stakeable.sol\":8326:8455  StakingSummary memory summary = StakingSummary(... */\n      swap1\n      pop\n        /* \"contracts/Stakeable.sol\":8528:8537  uint256 s */\n      0x00\n        /* \"contracts/Stakeable.sol\":8523:8832  for (uint256 s = 0; s < summary.stakes.length; s += 1) {... */\n    tag_185:\n        /* \"contracts/Stakeable.sol\":8547:8554  summary */\n      dup2\n        /* \"contracts/Stakeable.sol\":8547:8561  summary.stakes */\n      0x20\n      add\n      mload\n        /* \"contracts/Stakeable.sol\":8547:8568  summary.stakes.length */\n      mload\n        /* \"contracts/Stakeable.sol\":8543:8544  s */\n      dup2\n        /* \"contracts/Stakeable.sol\":8543:8568  s < summary.stakes.length */\n      lt\n        /* \"contracts/Stakeable.sol\":8523:8832  for (uint256 s = 0; s < summary.stakes.length; s += 1) {... */\n      iszero\n      tag_186\n      jumpi\n        /* \"contracts/Stakeable.sol\":8592:8618  Stake memory current_stake */\n      0x00\n        /* \"contracts/Stakeable.sol\":8621:8633  stakeholders */\n      0x02\n        /* \"contracts/Stakeable.sol\":8634:8644  user_index */\n      dup5\n        /* \"contracts/Stakeable.sol\":8621:8645  stakeholders[user_index] */\n      dup2\n      sload\n      dup2\n      lt\n      tag_188\n      jumpi\n      tag_189\n      tag_180\n      jump\t// in\n    tag_189:\n    tag_188:\n      swap1\n      0x00\n      mstore\n      keccak256(0x00, 0x20)\n      swap1\n      0x02\n      mul\n      add\n        /* \"contracts/Stakeable.sol\":8621:8677  stakeholders[user_index]... */\n      0x01\n      add\n        /* \"contracts/Stakeable.sol\":8678:8679  s */\n      dup3\n        /* \"contracts/Stakeable.sol\":8621:8680  stakeholders[user_index]... */\n      dup2\n      sload\n      dup2\n      lt\n      tag_191\n      jumpi\n      tag_192\n      tag_180\n      jump\t// in\n    tag_192:\n    tag_191:\n      swap1\n      0x00\n      mstore\n      keccak256(0x00, 0x20)\n      swap1\n      0x04\n      mul\n      add\n        /* \"contracts/Stakeable.sol\":8592:8680  Stake memory current_stake = stakeholders[user_index]... */\n      mload(0x40)\n      dup1\n      0x80\n      add\n      0x40\n      mstore\n      swap1\n      dup2\n      0x00\n      dup3\n      add\n      0x00\n      swap1\n      sload\n      swap1\n      0x0100\n      exp\n      swap1\n      div\n      0xffffffffffffffffffffffffffffffffffffffff\n      and\n      0xffffffffffffffffffffffffffffffffffffffff\n      and\n      0xffffffffffffffffffffffffffffffffffffffff\n      and\n      dup2\n      mstore\n      0x20\n      add\n      0x01\n      dup3\n      add\n      sload\n      dup2\n      mstore\n      0x20\n      add\n      0x02\n      dup3\n      add\n      sload\n      dup2\n      mstore\n      0x20\n      add\n      0x03\n      dup3\n      add\n      sload\n      dup2\n      mstore\n      pop\n      pop\n      swap1\n      pop\n        /* \"contracts/Stakeable.sol\":8694:8717  uint256 availableReward */\n      0x00\n        /* \"contracts/Stakeable.sol\":8720:8755  calculateStakeReward(current_stake) */\n      tag_194\n        /* \"contracts/Stakeable.sol\":8741:8754  current_stake */\n      dup3\n        /* \"contracts/Stakeable.sol\":8720:8740  calculateStakeReward */\n      tag_195\n        /* \"contracts/Stakeable.sol\":8720:8755  calculateStakeReward(current_stake) */\n      jump\t// in\n    tag_194:\n        /* \"contracts/Stakeable.sol\":8694:8755  uint256 availableReward = calculateStakeReward(current_stake) */\n      swap1\n      pop\n        /* \"contracts/Stakeable.sol\":8806:8821  availableReward */\n      dup1\n        /* \"contracts/Stakeable.sol\":8783:8796  current_stake */\n      dup3\n        /* \"contracts/Stakeable.sol\":8783:8803  current_stake.amount */\n      0x20\n      add\n      mload\n        /* \"contracts/Stakeable.sol\":8783:8821  current_stake.amount + availableReward */\n      tag_196\n      swap2\n      swap1\n      tag_148\n      jump\t// in\n    tag_196:\n        /* \"contracts/Stakeable.sol\":8769:8821  totalAmount = current_stake.amount + availableReward */\n      swap6\n      pop\n        /* \"contracts/Stakeable.sol\":8578:8832  {... */\n      pop\n      pop\n        /* \"contracts/Stakeable.sol\":8575:8576  1 */\n      0x01\n        /* \"contracts/Stakeable.sol\":8570:8576  s += 1 */\n      dup2\n      tag_197\n      swap2\n      swap1\n      tag_148\n      jump\t// in\n    tag_197:\n      swap1\n      pop\n        /* \"contracts/Stakeable.sol\":8523:8832  for (uint256 s = 0; s < summary.stakes.length; s += 1) {... */\n      jump(tag_185)\n    tag_186:\n      pop\n        /* \"contracts/Stakeable.sol\":8849:8860  totalAmount */\n      dup3\n        /* \"contracts/Stakeable.sol\":8842:8860  return totalAmount */\n      swap4\n      pop\n      pop\n      pop\n      pop\n        /* \"contracts/Stakeable.sol\":8176:8867  function viewAll(address _staker) public view returns (uint256) {... */\n      swap2\n      swap1\n      pop\n      jump\t// out\n        /* \"contracts/AlfaCoin.sol\":2558:2645  function symbol() external view returns (string memory) {... */\n    tag_90:\n        /* \"contracts/AlfaCoin.sol\":2599:2612  string memory */\n      0x60\n        /* \"contracts/AlfaCoin.sol\":2631:2638  _symbol */\n      0x06\n        /* \"contracts/AlfaCoin.sol\":2624:2638  return _symbol */\n      dup1\n      sload\n      tag_199\n      swap1\n      tag_126\n      jump\t// in\n    tag_199:\n      dup1\n      0x1f\n      add\n      0x20\n      dup1\n      swap2\n      div\n      mul\n      0x20\n      add\n      mload(0x40)\n      swap1\n      dup2\n      add\n      0x40\n      mstore\n      dup1\n      swap3\n      swap2\n      swap1\n      dup2\n      dup2\n      mstore\n      0x20\n      add\n      dup3\n      dup1\n      sload\n      tag_200\n      swap1\n      tag_126\n      jump\t// in\n    tag_200:\n      dup1\n      iszero\n      tag_201\n      jumpi\n      dup1\n      0x1f\n      lt\n      tag_202\n      jumpi\n      0x0100\n      dup1\n      dup4\n      sload\n      div\n      mul\n      dup4\n      mstore\n      swap2\n      0x20\n      add\n      swap2\n      jump(tag_201)\n    tag_202:\n      dup3\n      add\n      swap2\n      swap1\n      0x00\n      mstore\n      keccak256(0x00, 0x20)\n      swap1\n    tag_203:\n      dup2\n      sload\n      dup2\n      mstore\n      swap1\n      0x01\n      add\n      swap1\n      0x20\n      add\n      dup1\n      dup4\n      gt\n      tag_203\n      jumpi\n      dup3\n      swap1\n      sub\n      0x1f\n      and\n      dup3\n      add\n      swap2\n    tag_201:\n      pop\n      pop\n      pop\n      pop\n      pop\n      swap1\n      pop\n        /* \"contracts/AlfaCoin.sol\":2558:2645  function symbol() external view returns (string memory) {... */\n      swap1\n      jump\t// out\n        /* \"contracts/AlfaCoin.sol\":5047:5214  function burn(address account, uint256 amount)... */\n    tag_94:\n        /* \"contracts/AlfaCoin.sol\":5144:5148  bool */\n      0x00\n        /* \"contracts/Ownable.sol\":783:793  msg.sender */\n      caller\n        /* \"contracts/Ownable.sol\":773:793  _owner == msg.sender */\n      0xffffffffffffffffffffffffffffffffffffffff\n      and\n        /* \"contracts/Ownable.sol\":773:779  _owner */\n      0x00\n      dup1\n      sload\n      swap1\n      0x0100\n      exp\n      swap1\n      div\n      0xffffffffffffffffffffffffffffffffffffffff\n      and\n        /* \"contracts/Ownable.sol\":773:793  _owner == msg.sender */\n      0xffffffffffffffffffffffffffffffffffffffff\n      and\n      eq\n        /* \"contracts/Ownable.sol\":765:840  require(_owner == msg.sender, \"Ownable: only owner can call this function\") */\n      tag_205\n      jumpi\n      mload(0x40)\n      0x08c379a000000000000000000000000000000000000000000000000000000000\n      dup2\n      mstore\n      0x04\n      add\n      tag_206\n      swap1\n      tag_152\n      jump\t// in\n    tag_206:\n      mload(0x40)\n      dup1\n      swap2\n      sub\n      swap1\n      revert\n    tag_205:\n        /* \"contracts/AlfaCoin.sol\":5164:5186  _burn(account, amount) */\n      tag_208\n        /* \"contracts/AlfaCoin.sol\":5170:5177  account */\n      dup4\n        /* \"contracts/AlfaCoin.sol\":5179:5185  amount */\n      dup4\n        /* \"contracts/AlfaCoin.sol\":5164:5169  _burn */\n      tag_209\n        /* \"contracts/AlfaCoin.sol\":5164:5186  _burn(account, amount) */\n      jump\t// in\n    tag_208:\n        /* \"contracts/AlfaCoin.sol\":5203:5207  true */\n      0x01\n        /* \"contracts/AlfaCoin.sol\":5196:5207  return true */\n      swap1\n      pop\n        /* \"contracts/AlfaCoin.sol\":5047:5214  function burn(address account, uint256 amount)... */\n      swap3\n      swap2\n      pop\n      pop\n      jump\t// out\n        /* \"contracts/AlfaCoin.sol\":9829:10087  function decreaseAllowance(address spender, uint256 amount)... */\n    tag_98:\n        /* \"contracts/AlfaCoin.sol\":9921:9925  bool */\n      0x00\n        /* \"contracts/AlfaCoin.sol\":9941:10059  _approve(... */\n      tag_211\n        /* \"contracts/AlfaCoin.sol\":9963:9973  msg.sender */\n      caller\n        /* \"contracts/AlfaCoin.sol\":9987:9994  spender */\n      dup5\n        /* \"contracts/AlfaCoin.sol\":10043:10049  amount */\n      dup5\n        /* \"contracts/AlfaCoin.sol\":10008:10019  _allowances */\n      0x09\n        /* \"contracts/AlfaCoin.sol\":10008:10031  _allowances[msg.sender] */\n      0x00\n        /* \"contracts/AlfaCoin.sol\":10020:10030  msg.sender */\n      caller\n        /* \"contracts/AlfaCoin.sol\":10008:10031  _allowances[msg.sender] */\n      0xffffffffffffffffffffffffffffffffffffffff\n      and\n      0xffffffffffffffffffffffffffffffffffffffff\n      and\n      dup2\n      mstore\n      0x20\n      add\n      swap1\n      dup2\n      mstore\n      0x20\n      add\n      0x00\n      keccak256\n        /* \"contracts/AlfaCoin.sol\":10008:10040  _allowances[msg.sender][spender] */\n      0x00\n        /* \"contracts/AlfaCoin.sol\":10032:10039  spender */\n      dup9\n        /* \"contracts/AlfaCoin.sol\":10008:10040  _allowances[msg.sender][spender] */\n      0xffffffffffffffffffffffffffffffffffffffff\n      and\n      0xffffffffffffffffffffffffffffffffffffffff\n      and\n      dup2\n      mstore\n      0x20\n      add\n      swap1\n      dup2\n      mstore\n      0x20\n      add\n      0x00\n      keccak256\n      sload\n        /* \"contracts/AlfaCoin.sol\":10008:10049  _allowances[msg.sender][spender] - amount */\n      tag_212\n      swap2\n      swap1\n      tag_143\n      jump\t// in\n    tag_212:\n        /* \"contracts/AlfaCoin.sol\":9941:9949  _approve */\n      tag_133\n        /* \"contracts/AlfaCoin.sol\":9941:10059  _approve(... */\n      jump\t// in\n    tag_211:\n        /* \"contracts/AlfaCoin.sol\":10076:10080  true */\n      0x01\n        /* \"contracts/AlfaCoin.sol\":10069:10080  return true */\n      swap1\n      pop\n        /* \"contracts/AlfaCoin.sol\":9829:10087  function decreaseAllowance(address spender, uint256 amount)... */\n      swap3\n      swap2\n      pop\n      pop\n      jump\t// out\n        /* \"contracts/AlfaCoin.sol\":10175:10607  function stake(uint256 _amount) public {... */\n    tag_102:\n        /* \"contracts/AlfaCoin.sol\":10299:10326  108000000000000000000000000 */\n      0x5955e3bb3e743fec000000\n        /* \"contracts/AlfaCoin.sol\":10284:10296  _totalSupply */\n      sload(0x04)\n        /* \"contracts/AlfaCoin.sol\":10284:10326  _totalSupply < 108000000000000000000000000 */\n      lt\n        /* \"contracts/AlfaCoin.sol\":10276:10358  require(_totalSupply < 108000000000000000000000000, \"AlfaCoin: Cannot stake more\") */\n      tag_214\n      jumpi\n      mload(0x40)\n      0x08c379a000000000000000000000000000000000000000000000000000000000\n      dup2\n      mstore\n      0x04\n      add\n      tag_215\n      swap1\n      tag_216\n      jump\t// in\n    tag_215:\n      mload(0x40)\n      dup1\n      swap2\n      sub\n      swap1\n      revert\n    tag_214:\n        /* \"contracts/AlfaCoin.sol\":10400:10409  _balances */\n      0x08\n        /* \"contracts/AlfaCoin.sol\":10400:10421  _balances[msg.sender] */\n      0x00\n        /* \"contracts/AlfaCoin.sol\":10410:10420  msg.sender */\n      caller\n        /* \"contracts/AlfaCoin.sol\":10400:10421  _balances[msg.sender] */\n      0xffffffffffffffffffffffffffffffffffffffff\n      and\n      0xffffffffffffffffffffffffffffffffffffffff\n      and\n      dup2\n      mstore\n      0x20\n      add\n      swap1\n      dup2\n      mstore\n      0x20\n      add\n      0x00\n      keccak256\n      sload\n        /* \"contracts/AlfaCoin.sol\":10389:10396  _amount */\n      dup2\n        /* \"contracts/AlfaCoin.sol\":10389:10421  _amount <= _balances[msg.sender] */\n      gt\n      iszero\n        /* \"contracts/AlfaCoin.sol\":10368:10487  require(... */\n      tag_217\n      jumpi\n      mload(0x40)\n      0x08c379a000000000000000000000000000000000000000000000000000000000\n      dup2\n      mstore\n      0x04\n      add\n      tag_218\n      swap1\n      tag_219\n      jump\t// in\n    tag_218:\n      mload(0x40)\n      dup1\n      swap2\n      sub\n      swap1\n      revert\n    tag_217:\n        /* \"contracts/AlfaCoin.sol\":10498:10513  _stake(_amount) */\n      tag_220\n        /* \"contracts/AlfaCoin.sol\":10505:10512  _amount */\n      dup2\n        /* \"contracts/AlfaCoin.sol\":10498:10504  _stake */\n      tag_221\n        /* \"contracts/AlfaCoin.sol\":10498:10513  _stake(_amount) */\n      jump\t// in\n    tag_220:\n        /* \"contracts/AlfaCoin.sol\":10574:10600  _burn(msg.sender, _amount) */\n      tag_222\n        /* \"contracts/AlfaCoin.sol\":10580:10590  msg.sender */\n      caller\n        /* \"contracts/AlfaCoin.sol\":10592:10599  _amount */\n      dup3\n        /* \"contracts/AlfaCoin.sol\":10574:10579  _burn */\n      tag_209\n        /* \"contracts/AlfaCoin.sol\":10574:10600  _burn(msg.sender, _amount) */\n      jump\t// in\n    tag_222:\n        /* \"contracts/AlfaCoin.sol\":10175:10607  function stake(uint256 _amount) public {... */\n      pop\n      jump\t// out\n        /* \"contracts/AlfaCoin.sol\":5904:6079  function transfer(address recipient, uint256 amount)... */\n    tag_105:\n        /* \"contracts/AlfaCoin.sol\":5991:5995  bool */\n      0x00\n        /* \"contracts/AlfaCoin.sol\":6011:6051  _transfer(msg.sender, recipient, amount) */\n      tag_224\n        /* \"contracts/AlfaCoin.sol\":6021:6031  msg.sender */\n      caller\n        /* \"contracts/AlfaCoin.sol\":6033:6042  recipient */\n      dup5\n        /* \"contracts/AlfaCoin.sol\":6044:6050  amount */\n      dup5\n        /* \"contracts/AlfaCoin.sol\":6011:6020  _transfer */\n      tag_140\n        /* \"contracts/AlfaCoin.sol\":6011:6051  _transfer(msg.sender, recipient, amount) */\n      jump\t// in\n    tag_224:\n        /* \"contracts/AlfaCoin.sol\":6068:6072  true */\n      0x01\n        /* \"contracts/AlfaCoin.sol\":6061:6072  return true */\n      swap1\n      pop\n        /* \"contracts/AlfaCoin.sol\":5904:6079  function transfer(address recipient, uint256 amount)... */\n      swap3\n      swap2\n      pop\n      pop\n      jump\t// out\n        /* \"contracts/AlfaCoin.sol\":7224:7386  function allowance(address owner, address spender)... */\n    tag_110:\n        /* \"contracts/AlfaCoin.sol\":7322:7329  uint256 */\n      0x00\n        /* \"contracts/AlfaCoin.sol\":7352:7363  _allowances */\n      0x09\n        /* \"contracts/AlfaCoin.sol\":7352:7370  _allowances[owner] */\n      0x00\n        /* \"contracts/AlfaCoin.sol\":7364:7369  owner */\n      dup5\n        /* \"contracts/AlfaCoin.sol\":7352:7370  _allowances[owner] */\n      0xffffffffffffffffffffffffffffffffffffffff\n      and\n      0xffffffffffffffffffffffffffffffffffffffff\n      and\n      dup2\n      mstore\n      0x20\n      add\n      swap1\n      dup2\n      mstore\n      0x20\n      add\n      0x00\n      keccak256\n        /* \"contracts/AlfaCoin.sol\":7352:7379  _allowances[owner][spender] */\n      0x00\n        /* \"contracts/AlfaCoin.sol\":7371:7378  spender */\n      dup4\n        /* \"contracts/AlfaCoin.sol\":7352:7379  _allowances[owner][spender] */\n      0xffffffffffffffffffffffffffffffffffffffff\n      and\n      0xffffffffffffffffffffffffffffffffffffffff\n      and\n      dup2\n      mstore\n      0x20\n      add\n      swap1\n      dup2\n      mstore\n      0x20\n      add\n      0x00\n      keccak256\n      sload\n        /* \"contracts/AlfaCoin.sol\":7345:7379  return _allowances[owner][spender] */\n      swap1\n      pop\n        /* \"contracts/AlfaCoin.sol\":7224:7386  function allowance(address owner, address spender)... */\n      swap3\n      swap2\n      pop\n      pop\n      jump\t// out\n        /* \"contracts/Stakeable.sol\":7270:8170  function hasStake(address _staker)... */\n    tag_114:\n        /* \"contracts/Stakeable.sol\":7350:7371  StakingSummary memory */\n      tag_226\n      tag_227\n      jump\t// in\n    tag_226:\n        /* \"contracts/Stakeable.sol\":7467:7491  uint256 totalStakeAmount */\n      0x00\n        /* \"contracts/Stakeable.sol\":7569:7598  StakingSummary memory summary */\n      dup1\n        /* \"contracts/Stakeable.sol\":7601:7698  StakingSummary(... */\n      mload(0x40)\n      dup1\n      0x40\n      add\n      0x40\n      mstore\n      dup1\n        /* \"contracts/Stakeable.sol\":7629:7630  0 */\n      0x00\n        /* \"contracts/Stakeable.sol\":7601:7698  StakingSummary(... */\n      dup2\n      mstore\n      0x20\n      add\n        /* \"contracts/Stakeable.sol\":7644:7656  stakeholders */\n      0x02\n        /* \"contracts/Stakeable.sol\":7657:7663  stakes */\n      0x03\n        /* \"contracts/Stakeable.sol\":7657:7672  stakes[_staker] */\n      0x00\n        /* \"contracts/Stakeable.sol\":7664:7671  _staker */\n      dup9\n        /* \"contracts/Stakeable.sol\":7657:7672  stakes[_staker] */\n      0xffffffffffffffffffffffffffffffffffffffff\n      and\n      0xffffffffffffffffffffffffffffffffffffffff\n      and\n      dup2\n      mstore\n      0x20\n      add\n      swap1\n      dup2\n      mstore\n      0x20\n      add\n      0x00\n      keccak256\n      sload\n        /* \"contracts/Stakeable.sol\":7644:7673  stakeholders[stakes[_staker]] */\n      dup2\n      sload\n      dup2\n      lt\n      tag_229\n      jumpi\n      tag_230\n      tag_180\n      jump\t// in\n    tag_230:\n    tag_229:\n      swap1\n      0x00\n      mstore\n      keccak256(0x00, 0x20)\n      swap1\n      0x02\n      mul\n      add\n        /* \"contracts/Stakeable.sol\":7644:7688  stakeholders[stakes[_staker]].address_stakes */\n      0x01\n      add\n        /* \"contracts/Stakeable.sol\":7601:7698  StakingSummary(... */\n      dup1\n      sload\n      dup1\n      0x20\n      mul\n      0x20\n      add\n      mload(0x40)\n      swap1\n      dup2\n      add\n      0x40\n      mstore\n      dup1\n      swap3\n      swap2\n      swap1\n      dup2\n      dup2\n      mstore\n      0x20\n      add\n      0x00\n      swap1\n    tag_232:\n      dup3\n      dup3\n      lt\n      iszero\n      tag_233\n      jumpi\n      dup4\n      dup3\n      swap1\n      0x00\n      mstore\n      keccak256(0x00, 0x20)\n      swap1\n      0x04\n      mul\n      add\n      mload(0x40)\n      dup1\n      0x80\n      add\n      0x40\n      mstore\n      swap1\n      dup2\n      0x00\n      dup3\n      add\n      0x00\n      swap1\n      sload\n      swap1\n      0x0100\n      exp\n      swap1\n      div\n      0xffffffffffffffffffffffffffffffffffffffff\n      and\n      0xffffffffffffffffffffffffffffffffffffffff\n      and\n      0xffffffffffffffffffffffffffffffffffffffff\n      and\n      dup2\n      mstore\n      0x20\n      add\n      0x01\n      dup3\n      add\n      sload\n      dup2\n      mstore\n      0x20\n      add\n      0x02\n      dup3\n      add\n      sload\n      dup2\n      mstore\n      0x20\n      add\n      0x03\n      dup3\n      add\n      sload\n      dup2\n      mstore\n      pop\n      pop\n      dup2\n      mstore\n      0x20\n      add\n      swap1\n      0x01\n      add\n      swap1\n      jump(tag_232)\n    tag_233:\n      pop\n      pop\n      pop\n      pop\n      dup2\n      mstore\n      pop\n        /* \"contracts/Stakeable.sol\":7569:7698  StakingSummary memory summary = StakingSummary(... */\n      swap1\n      pop\n        /* \"contracts/Stakeable.sol\":7770:7779  uint256 s */\n      0x00\n        /* \"contracts/Stakeable.sol\":7765:8045  for (uint256 s = 0; s < summary.stakes.length; s += 1) {... */\n    tag_235:\n        /* \"contracts/Stakeable.sol\":7789:7796  summary */\n      dup2\n        /* \"contracts/Stakeable.sol\":7789:7803  summary.stakes */\n      0x20\n      add\n      mload\n        /* \"contracts/Stakeable.sol\":7789:7810  summary.stakes.length */\n      mload\n        /* \"contracts/Stakeable.sol\":7785:7786  s */\n      dup2\n        /* \"contracts/Stakeable.sol\":7785:7810  s < summary.stakes.length */\n      lt\n        /* \"contracts/Stakeable.sol\":7765:8045  for (uint256 s = 0; s < summary.stakes.length; s += 1) {... */\n      iszero\n      tag_236\n      jumpi\n        /* \"contracts/Stakeable.sol\":7834:7857  uint256 availableReward */\n      0x00\n        /* \"contracts/Stakeable.sol\":7860:7899  calculateStakeReward(summary.stakes[s]) */\n      tag_238\n        /* \"contracts/Stakeable.sol\":7881:7888  summary */\n      dup4\n        /* \"contracts/Stakeable.sol\":7881:7895  summary.stakes */\n      0x20\n      add\n      mload\n        /* \"contracts/Stakeable.sol\":7896:7897  s */\n      dup4\n        /* \"contracts/Stakeable.sol\":7881:7898  summary.stakes[s] */\n      dup2\n      mload\n      dup2\n      lt\n      tag_239\n      jumpi\n      tag_240\n      tag_180\n      jump\t// in\n    tag_240:\n    tag_239:\n      0x20\n      mul\n      0x20\n      add\n      add\n      mload\n        /* \"contracts/Stakeable.sol\":7860:7880  calculateStakeReward */\n      tag_195\n        /* \"contracts/Stakeable.sol\":7860:7899  calculateStakeReward(summary.stakes[s]) */\n      jump\t// in\n    tag_238:\n        /* \"contracts/Stakeable.sol\":7834:7899  uint256 availableReward = calculateStakeReward(summary.stakes[s]) */\n      swap1\n      pop\n        /* \"contracts/Stakeable.sol\":7943:7958  availableReward */\n      dup1\n        /* \"contracts/Stakeable.sol\":7913:7920  summary */\n      dup4\n        /* \"contracts/Stakeable.sol\":7913:7927  summary.stakes */\n      0x20\n      add\n      mload\n        /* \"contracts/Stakeable.sol\":7928:7929  s */\n      dup4\n        /* \"contracts/Stakeable.sol\":7913:7930  summary.stakes[s] */\n      dup2\n      mload\n      dup2\n      lt\n      tag_241\n      jumpi\n      tag_242\n      tag_180\n      jump\t// in\n    tag_242:\n    tag_241:\n      0x20\n      mul\n      0x20\n      add\n      add\n      mload\n        /* \"contracts/Stakeable.sol\":7913:7940  summary.stakes[s].claimable */\n      0x60\n      add\n        /* \"contracts/Stakeable.sol\":7913:7958  summary.stakes[s].claimable = availableReward */\n      dup2\n      dup2\n      mstore\n      pop\n      pop\n        /* \"contracts/Stakeable.sol\":8010:8017  summary */\n      dup3\n        /* \"contracts/Stakeable.sol\":8010:8024  summary.stakes */\n      0x20\n      add\n      mload\n        /* \"contracts/Stakeable.sol\":8025:8026  s */\n      dup3\n        /* \"contracts/Stakeable.sol\":8010:8027  summary.stakes[s] */\n      dup2\n      mload\n      dup2\n      lt\n      tag_243\n      jumpi\n      tag_244\n      tag_180\n      jump\t// in\n    tag_244:\n    tag_243:\n      0x20\n      mul\n      0x20\n      add\n      add\n      mload\n        /* \"contracts/Stakeable.sol\":8010:8034  summary.stakes[s].amount */\n      0x20\n      add\n      mload\n        /* \"contracts/Stakeable.sol\":7991:8007  totalStakeAmount */\n      dup5\n        /* \"contracts/Stakeable.sol\":7991:8034  totalStakeAmount + summary.stakes[s].amount */\n      tag_245\n      swap2\n      swap1\n      tag_148\n      jump\t// in\n    tag_245:\n        /* \"contracts/Stakeable.sol\":7972:8034  totalStakeAmount = totalStakeAmount + summary.stakes[s].amount */\n      swap4\n      pop\n        /* \"contracts/Stakeable.sol\":7820:8045  {... */\n      pop\n        /* \"contracts/Stakeable.sol\":7817:7818  1 */\n      0x01\n        /* \"contracts/Stakeable.sol\":7812:7818  s += 1 */\n      dup2\n      tag_246\n      swap2\n      swap1\n      tag_148\n      jump\t// in\n    tag_246:\n      swap1\n      pop\n        /* \"contracts/Stakeable.sol\":7765:8045  for (uint256 s = 0; s < summary.stakes.length; s += 1) {... */\n      jump(tag_235)\n    tag_236:\n      pop\n        /* \"contracts/Stakeable.sol\":8123:8139  totalStakeAmount */\n      dup2\n        /* \"contracts/Stakeable.sol\":8100:8107  summary */\n      dup2\n        /* \"contracts/Stakeable.sol\":8100:8120  summary.total_amount */\n      0x00\n      add\n        /* \"contracts/Stakeable.sol\":8100:8139  summary.total_amount = totalStakeAmount */\n      dup2\n      dup2\n      mstore\n      pop\n      pop\n        /* \"contracts/Stakeable.sol\":8156:8163  summary */\n      dup1\n        /* \"contracts/Stakeable.sol\":8149:8163  return summary */\n      swap3\n      pop\n      pop\n      pop\n        /* \"contracts/Stakeable.sol\":7270:8170  function hasStake(address _staker)... */\n      swap2\n      swap1\n      pop\n      jump\t// out\n        /* \"contracts/AlfaCoin.sol\":10709:10936  function withdrawStake(uint256 amount, uint256 stake_index) public {... */\n    tag_120:\n        /* \"contracts/AlfaCoin.sol\":10786:10808  uint256 amount_to_mint */\n      0x00\n        /* \"contracts/AlfaCoin.sol\":10811:10846  _withdrawStake(amount, stake_index) */\n      tag_248\n        /* \"contracts/AlfaCoin.sol\":10826:10832  amount */\n      dup4\n        /* \"contracts/AlfaCoin.sol\":10834:10845  stake_index */\n      dup4\n        /* \"contracts/AlfaCoin.sol\":10811:10825  _withdrawStake */\n      tag_249\n        /* \"contracts/AlfaCoin.sol\":10811:10846  _withdrawStake(amount, stake_index) */\n      jump\t// in\n    tag_248:\n        /* \"contracts/AlfaCoin.sol\":10786:10846  uint256 amount_to_mint = _withdrawStake(amount, stake_index) */\n      swap1\n      pop\n        /* \"contracts/AlfaCoin.sol\":10896:10929  _mint(msg.sender, amount_to_mint) */\n      tag_250\n        /* \"contracts/AlfaCoin.sol\":10902:10912  msg.sender */\n      caller\n        /* \"contracts/AlfaCoin.sol\":10914:10928  amount_to_mint */\n      dup3\n        /* \"contracts/AlfaCoin.sol\":10896:10901  _mint */\n      tag_155\n        /* \"contracts/AlfaCoin.sol\":10896:10929  _mint(msg.sender, amount_to_mint) */\n      jump\t// in\n    tag_250:\n        /* \"contracts/AlfaCoin.sol\":10776:10936  {... */\n      pop\n        /* \"contracts/AlfaCoin.sol\":10709:10936  function withdrawStake(uint256 amount, uint256 stake_index) public {... */\n      pop\n      pop\n      jump\t// out\n        /* \"contracts/Ownable.sol\":1694:1801  function transferOwnership(address newOwner) public onlyOwner {... */\n    tag_123:\n        /* \"contracts/Ownable.sol\":783:793  msg.sender */\n      caller\n        /* \"contracts/Ownable.sol\":773:793  _owner == msg.sender */\n      0xffffffffffffffffffffffffffffffffffffffff\n      and\n        /* \"contracts/Ownable.sol\":773:779  _owner */\n      0x00\n      dup1\n      sload\n      swap1\n      0x0100\n      exp\n      swap1\n      div\n      0xffffffffffffffffffffffffffffffffffffffff\n      and\n        /* \"contracts/Ownable.sol\":773:793  _owner == msg.sender */\n      0xffffffffffffffffffffffffffffffffffffffff\n      and\n      eq\n        /* \"contracts/Ownable.sol\":765:840  require(_owner == msg.sender, \"Ownable: only owner can call this function\") */\n      tag_252\n      jumpi\n      mload(0x40)\n      0x08c379a000000000000000000000000000000000000000000000000000000000\n      dup2\n      mstore\n      0x04\n      add\n      tag_253\n      swap1\n      tag_152\n      jump\t// in\n    tag_253:\n      mload(0x40)\n      dup1\n      swap2\n      sub\n      swap1\n      revert\n    tag_252:\n        /* \"contracts/Ownable.sol\":1766:1794  _transferOwnership(newOwner) */\n      tag_255\n        /* \"contracts/Ownable.sol\":1785:1793  newOwner */\n      dup2\n        /* \"contracts/Ownable.sol\":1766:1784  _transferOwnership */\n      tag_256\n        /* \"contracts/Ownable.sol\":1766:1794  _transferOwnership(newOwner) */\n      jump\t// in\n    tag_255:\n        /* \"contracts/Ownable.sol\":1694:1801  function transferOwnership(address newOwner) public onlyOwner {... */\n      pop\n      jump\t// out\n        /* \"contracts/AlfaCoin.sol\":7884:8438  function _approve(... */\n    tag_133:\n        /* \"contracts/AlfaCoin.sol\":8037:8038  0 */\n      0x00\n        /* \"contracts/AlfaCoin.sol\":8020:8039  owner != address(0) */\n      0xffffffffffffffffffffffffffffffffffffffff\n      and\n        /* \"contracts/AlfaCoin.sol\":8020:8025  owner */\n      dup4\n        /* \"contracts/AlfaCoin.sol\":8020:8039  owner != address(0) */\n      0xffffffffffffffffffffffffffffffffffffffff\n      and\n      sub\n        /* \"contracts/AlfaCoin.sol\":7999:8115  require(... */\n      tag_258\n      jumpi\n      mload(0x40)\n      0x08c379a000000000000000000000000000000000000000000000000000000000\n      dup2\n      mstore\n      0x04\n      add\n      tag_259\n      swap1\n      tag_260\n      jump\t// in\n    tag_259:\n      mload(0x40)\n      dup1\n      swap2\n      sub\n      swap1\n      revert\n    tag_258:\n        /* \"contracts/AlfaCoin.sol\":8165:8166  0 */\n      0x00\n        /* \"contracts/AlfaCoin.sol\":8146:8167  spender != address(0) */\n      0xffffffffffffffffffffffffffffffffffffffff\n      and\n        /* \"contracts/AlfaCoin.sol\":8146:8153  spender */\n      dup3\n        /* \"contracts/AlfaCoin.sol\":8146:8167  spender != address(0) */\n      0xffffffffffffffffffffffffffffffffffffffff\n      and\n      sub\n        /* \"contracts/AlfaCoin.sol\":8125:8236  require(... */\n      tag_261\n      jumpi\n      mload(0x40)\n      0x08c379a000000000000000000000000000000000000000000000000000000000\n      dup2\n      mstore\n      0x04\n      add\n      tag_262\n      swap1\n      tag_263\n      jump\t// in\n    tag_262:\n      mload(0x40)\n      dup1\n      swap2\n      sub\n      swap1\n      revert\n    tag_261:\n        /* \"contracts/AlfaCoin.sol\":8377:8383  amount */\n      dup1\n        /* \"contracts/AlfaCoin.sol\":8347:8358  _allowances */\n      0x09\n        /* \"contracts/AlfaCoin.sol\":8347:8365  _allowances[owner] */\n      0x00\n        /* \"contracts/AlfaCoin.sol\":8359:8364  owner */\n      dup6\n        /* \"contracts/AlfaCoin.sol\":8347:8365  _allowances[owner] */\n      0xffffffffffffffffffffffffffffffffffffffff\n      and\n      0xffffffffffffffffffffffffffffffffffffffff\n      and\n      dup2\n      mstore\n      0x20\n      add\n      swap1\n      dup2\n      mstore\n      0x20\n      add\n      0x00\n      keccak256\n        /* \"contracts/AlfaCoin.sol\":8347:8374  _allowances[owner][spender] */\n      0x00\n        /* \"contracts/AlfaCoin.sol\":8366:8373  spender */\n      dup5\n        /* \"contracts/AlfaCoin.sol\":8347:8374  _allowances[owner][spender] */\n      0xffffffffffffffffffffffffffffffffffffffff\n      and\n      0xffffffffffffffffffffffffffffffffffffffff\n      and\n      dup2\n      mstore\n      0x20\n      add\n      swap1\n      dup2\n      mstore\n      0x20\n      add\n      0x00\n      keccak256\n        /* \"contracts/AlfaCoin.sol\":8347:8383  _allowances[owner][spender] = amount */\n      dup2\n      swap1\n      sstore\n      pop\n        /* \"contracts/AlfaCoin.sol\":8415:8422  spender */\n      dup2\n        /* \"contracts/AlfaCoin.sol\":8399:8431  Approval(owner, spender, amount) */\n      0xffffffffffffffffffffffffffffffffffffffff\n      and\n        /* \"contracts/AlfaCoin.sol\":8408:8413  owner */\n      dup4\n        /* \"contracts/AlfaCoin.sol\":8399:8431  Approval(owner, spender, amount) */\n      0xffffffffffffffffffffffffffffffffffffffff\n      and\n      0x8c5be1e5ebec7d5bd14f71427d1e84f3dd0314c0f7b2291e5b200ac8c7c3b925\n        /* \"contracts/AlfaCoin.sol\":8424:8430  amount */\n      dup4\n        /* \"contracts/AlfaCoin.sol\":8399:8431  Approval(owner, spender, amount) */\n      mload(0x40)\n      tag_264\n      swap2\n      swap1\n      tag_43\n      jump\t// in\n    tag_264:\n      mload(0x40)\n      dup1\n      swap2\n      sub\n      swap1\n      log3\n        /* \"contracts/AlfaCoin.sol\":7884:8438  function _approve(... */\n      pop\n      pop\n      pop\n      jump\t// out\n        /* \"contracts/AlfaCoin.sol\":6343:6924  function _transfer(... */\n    tag_140:\n        /* \"contracts/AlfaCoin.sol\":6488:6489  0 */\n      0x00\n        /* \"contracts/AlfaCoin.sol\":6470:6490  sender != address(0) */\n      0xffffffffffffffffffffffffffffffffffffffff\n      and\n        /* \"contracts/AlfaCoin.sol\":6470:6476  sender */\n      dup4\n        /* \"contracts/AlfaCoin.sol\":6470:6490  sender != address(0) */\n      0xffffffffffffffffffffffffffffffffffffffff\n      and\n      sub\n        /* \"contracts/AlfaCoin.sol\":6462:6531  require(sender != address(0), \"AlfaCoin: transfer from zero address\") */\n      tag_266\n      jumpi\n      mload(0x40)\n      0x08c379a000000000000000000000000000000000000000000000000000000000\n      dup2\n      mstore\n      0x04\n      add\n      tag_267\n      swap1\n      tag_268\n      jump\t// in\n    tag_267:\n      mload(0x40)\n      dup1\n      swap2\n      sub\n      swap1\n      revert\n    tag_266:\n        /* \"contracts/AlfaCoin.sol\":6570:6571  0 */\n      0x00\n        /* \"contracts/AlfaCoin.sol\":6549:6572  recipient != address(0) */\n      0xffffffffffffffffffffffffffffffffffffffff\n      and\n        /* \"contracts/AlfaCoin.sol\":6549:6558  recipient */\n      dup3\n        /* \"contracts/AlfaCoin.sol\":6549:6572  recipient != address(0) */\n      0xffffffffffffffffffffffffffffffffffffffff\n      and\n      sub\n        /* \"contracts/AlfaCoin.sol\":6541:6611  require(recipient != address(0), \"AlfaCoin: transfer to zero address\") */\n      tag_269\n      jumpi\n      mload(0x40)\n      0x08c379a000000000000000000000000000000000000000000000000000000000\n      dup2\n      mstore\n      0x04\n      add\n      tag_270\n      swap1\n      tag_271\n      jump\t// in\n    tag_270:\n      mload(0x40)\n      dup1\n      swap2\n      sub\n      swap1\n      revert\n    tag_269:\n        /* \"contracts/AlfaCoin.sol\":6663:6669  amount */\n      dup1\n        /* \"contracts/AlfaCoin.sol\":6642:6651  _balances */\n      0x08\n        /* \"contracts/AlfaCoin.sol\":6642:6659  _balances[sender] */\n      0x00\n        /* \"contracts/AlfaCoin.sol\":6652:6658  sender */\n      dup6\n        /* \"contracts/AlfaCoin.sol\":6642:6659  _balances[sender] */\n      0xffffffffffffffffffffffffffffffffffffffff\n      and\n      0xffffffffffffffffffffffffffffffffffffffff\n      and\n      dup2\n      mstore\n      0x20\n      add\n      swap1\n      dup2\n      mstore\n      0x20\n      add\n      0x00\n      keccak256\n      sload\n        /* \"contracts/AlfaCoin.sol\":6642:6669  _balances[sender] >= amount */\n      lt\n      iszero\n        /* \"contracts/AlfaCoin.sol\":6621:6747  require(... */\n      tag_272\n      jumpi\n      mload(0x40)\n      0x08c379a000000000000000000000000000000000000000000000000000000000\n      dup2\n      mstore\n      0x04\n      add\n      tag_273\n      swap1\n      tag_274\n      jump\t// in\n    tag_273:\n      mload(0x40)\n      dup1\n      swap2\n      sub\n      swap1\n      revert\n    tag_272:\n        /* \"contracts/AlfaCoin.sol\":6798:6804  amount */\n      dup1\n        /* \"contracts/AlfaCoin.sol\":6778:6787  _balances */\n      0x08\n        /* \"contracts/AlfaCoin.sol\":6778:6795  _balances[sender] */\n      0x00\n        /* \"contracts/AlfaCoin.sol\":6788:6794  sender */\n      dup6\n        /* \"contracts/AlfaCoin.sol\":6778:6795  _balances[sender] */\n      0xffffffffffffffffffffffffffffffffffffffff\n      and\n      0xffffffffffffffffffffffffffffffffffffffff\n      and\n      dup2\n      mstore\n      0x20\n      add\n      swap1\n      dup2\n      mstore\n      0x20\n      add\n      0x00\n      keccak256\n      sload\n        /* \"contracts/AlfaCoin.sol\":6778:6804  _balances[sender] - amount */\n      tag_275\n      swap2\n      swap1\n      tag_143\n      jump\t// in\n    tag_275:\n        /* \"contracts/AlfaCoin.sol\":6758:6767  _balances */\n      0x08\n        /* \"contracts/AlfaCoin.sol\":6758:6775  _balances[sender] */\n      0x00\n        /* \"contracts/AlfaCoin.sol\":6768:6774  sender */\n      dup6\n        /* \"contracts/AlfaCoin.sol\":6758:6775  _balances[sender] */\n      0xffffffffffffffffffffffffffffffffffffffff\n      and\n      0xffffffffffffffffffffffffffffffffffffffff\n      and\n      dup2\n      mstore\n      0x20\n      add\n      swap1\n      dup2\n      mstore\n      0x20\n      add\n      0x00\n      keccak256\n        /* \"contracts/AlfaCoin.sol\":6758:6804  _balances[sender] = _balances[sender] - amount */\n      dup2\n      swap1\n      sstore\n      pop\n        /* \"contracts/AlfaCoin.sol\":6860:6866  amount */\n      dup1\n        /* \"contracts/AlfaCoin.sol\":6837:6846  _balances */\n      0x08\n        /* \"contracts/AlfaCoin.sol\":6837:6857  _balances[recipient] */\n      0x00\n        /* \"contracts/AlfaCoin.sol\":6847:6856  recipient */\n      dup5\n        /* \"contracts/AlfaCoin.sol\":6837:6857  _balances[recipient] */\n      0xffffffffffffffffffffffffffffffffffffffff\n      and\n      0xffffffffffffffffffffffffffffffffffffffff\n      and\n      dup2\n      mstore\n      0x20\n      add\n      swap1\n      dup2\n      mstore\n      0x20\n      add\n      0x00\n      keccak256\n      sload\n        /* \"contracts/AlfaCoin.sol\":6837:6866  _balances[recipient] + amount */\n      tag_276\n      swap2\n      swap1\n      tag_148\n      jump\t// in\n    tag_276:\n        /* \"contracts/AlfaCoin.sol\":6814:6823  _balances */\n      0x08\n        /* \"contracts/AlfaCoin.sol\":6814:6834  _balances[recipient] */\n      0x00\n        /* \"contracts/AlfaCoin.sol\":6824:6833  recipient */\n      dup5\n        /* \"contracts/AlfaCoin.sol\":6814:6834  _balances[recipient] */\n      0xffffffffffffffffffffffffffffffffffffffff\n      and\n      0xffffffffffffffffffffffffffffffffffffffff\n      and\n      dup2\n      mstore\n      0x20\n      add\n      swap1\n      dup2\n      mstore\n      0x20\n      add\n      0x00\n      keccak256\n        /* \"contracts/AlfaCoin.sol\":6814:6866  _balances[recipient] = _balances[recipient] + amount */\n      dup2\n      swap1\n      sstore\n      pop\n        /* \"contracts/AlfaCoin.sol\":6899:6908  recipient */\n      dup2\n        /* \"contracts/AlfaCoin.sol\":6882:6917  Transfer(sender, recipient, amount) */\n      0xffffffffffffffffffffffffffffffffffffffff\n      and\n        /* \"contracts/AlfaCoin.sol\":6891:6897  sender */\n      dup4\n        /* \"contracts/AlfaCoin.sol\":6882:6917  Transfer(sender, recipient, amount) */\n      0xffffffffffffffffffffffffffffffffffffffff\n      and\n      0xddf252ad1be2c89b69c2b068fc378daa952ba7f163c4a11628f55a4df523b3ef\n        /* \"contracts/AlfaCoin.sol\":6910:6916  amount */\n      dup4\n        /* \"contracts/AlfaCoin.sol\":6882:6917  Transfer(sender, recipient, amount) */\n      mload(0x40)\n      tag_277\n      swap2\n      swap1\n      tag_43\n      jump\t// in\n    tag_277:\n      mload(0x40)\n      dup1\n      swap2\n      sub\n      swap1\n      log3\n        /* \"contracts/AlfaCoin.sol\":6343:6924  function _transfer(... */\n      pop\n      pop\n      pop\n      jump\t// out\n        /* \"contracts/AlfaCoin.sol\":3504:3956  function _mint(address account, uint256 amount) internal {... */\n    tag_155:\n        /* \"contracts/AlfaCoin.sol\":3598:3599  0 */\n      0x00\n        /* \"contracts/AlfaCoin.sol\":3579:3600  account != address(0) */\n      0xffffffffffffffffffffffffffffffffffffffff\n      and\n        /* \"contracts/AlfaCoin.sol\":3579:3586  account */\n      dup3\n        /* \"contracts/AlfaCoin.sol\":3579:3600  account != address(0) */\n      0xffffffffffffffffffffffffffffffffffffffff\n      and\n      sub\n        /* \"contracts/AlfaCoin.sol\":3571:3642  require(account != address(0), \"AlfaCoin: cannot mint to zero address\") */\n      tag_279\n      jumpi\n      mload(0x40)\n      0x08c379a000000000000000000000000000000000000000000000000000000000\n      dup2\n      mstore\n      0x04\n      add\n      tag_280\n      swap1\n      tag_281\n      jump\t// in\n    tag_280:\n      mload(0x40)\n      dup1\n      swap2\n      sub\n      swap1\n      revert\n    tag_279:\n        /* \"contracts/AlfaCoin.sol\":3717:3723  amount */\n      dup1\n        /* \"contracts/AlfaCoin.sol\":3701:3713  _totalSupply */\n      sload(0x04)\n        /* \"contracts/AlfaCoin.sol\":3701:3724  _totalSupply + (amount) */\n      tag_282\n      swap2\n      swap1\n      tag_148\n      jump\t// in\n    tag_282:\n        /* \"contracts/AlfaCoin.sol\":3686:3698  _totalSupply */\n      0x04\n        /* \"contracts/AlfaCoin.sol\":3686:3724  _totalSupply = _totalSupply + (amount) */\n      dup2\n      swap1\n      sstore\n      pop\n        /* \"contracts/AlfaCoin.sol\":3847:3853  amount */\n      dup1\n        /* \"contracts/AlfaCoin.sol\":3826:3835  _balances */\n      0x08\n        /* \"contracts/AlfaCoin.sol\":3826:3844  _balances[account] */\n      0x00\n        /* \"contracts/AlfaCoin.sol\":3836:3843  account */\n      dup5\n        /* \"contracts/AlfaCoin.sol\":3826:3844  _balances[account] */\n      0xffffffffffffffffffffffffffffffffffffffff\n      and\n      0xffffffffffffffffffffffffffffffffffffffff\n      and\n      dup2\n      mstore\n      0x20\n      add\n      swap1\n      dup2\n      mstore\n      0x20\n      add\n      0x00\n      keccak256\n      sload\n        /* \"contracts/AlfaCoin.sol\":3826:3853  _balances[account] + amount */\n      tag_283\n      swap2\n      swap1\n      tag_148\n      jump\t// in\n    tag_283:\n        /* \"contracts/AlfaCoin.sol\":3805:3814  _balances */\n      0x08\n        /* \"contracts/AlfaCoin.sol\":3805:3823  _balances[account] */\n      0x00\n        /* \"contracts/AlfaCoin.sol\":3815:3822  account */\n      dup5\n        /* \"contracts/AlfaCoin.sol\":3805:3823  _balances[account] */\n      0xffffffffffffffffffffffffffffffffffffffff\n      and\n      0xffffffffffffffffffffffffffffffffffffffff\n      and\n      dup2\n      mstore\n      0x20\n      add\n      swap1\n      dup2\n      mstore\n      0x20\n      add\n      0x00\n      keccak256\n        /* \"contracts/AlfaCoin.sol\":3805:3853  _balances[account] = _balances[account] + amount */\n      dup2\n      swap1\n      sstore\n      pop\n        /* \"contracts/AlfaCoin.sol\":3933:3940  account */\n      dup2\n        /* \"contracts/AlfaCoin.sol\":3912:3949  Transfer(address(0), account, amount) */\n      0xffffffffffffffffffffffffffffffffffffffff\n      and\n        /* \"contracts/AlfaCoin.sol\":3929:3930  0 */\n      0x00\n        /* \"contracts/AlfaCoin.sol\":3912:3949  Transfer(address(0), account, amount) */\n      0xffffffffffffffffffffffffffffffffffffffff\n      and\n      0xddf252ad1be2c89b69c2b068fc378daa952ba7f163c4a11628f55a4df523b3ef\n        /* \"contracts/AlfaCoin.sol\":3942:3948  amount */\n      dup4\n        /* \"contracts/AlfaCoin.sol\":3912:3949  Transfer(address(0), account, amount) */\n      mload(0x40)\n      tag_284\n      swap2\n      swap1\n      tag_43\n      jump\t// in\n    tag_284:\n      mload(0x40)\n      dup1\n      swap2\n      sub\n      swap1\n      log3\n        /* \"contracts/AlfaCoin.sol\":3504:3956  function _mint(address account, uint256 amount) internal {... */\n      pop\n      pop\n      jump\t// out\n        /* \"contracts/Stakeable.sol\":9632:9729  function _getRewardValue() internal view returns (uint256) {... */\n    tag_158:\n        /* \"contracts/Stakeable.sol\":9682:9689  uint256 */\n      0x00\n        /* \"contracts/Stakeable.sol\":9708:9722  _rewardPerHour */\n      sload(0x01)\n        /* \"contracts/Stakeable.sol\":9701:9722  return _rewardPerHour */\n      swap1\n      pop\n        /* \"contracts/Stakeable.sol\":9632:9729  function _getRewardValue() internal view returns (uint256) {... */\n      swap1\n      jump\t// out\n        /* \"contracts/Stakeable.sol\":8873:9626  function _withdrawAll() internal returns (uint256) {... */\n    tag_166:\n        /* \"contracts/Stakeable.sol\":8915:8922  uint256 */\n      0x00\n        /* \"contracts/Stakeable.sol\":8934:8955  uint256 totalWithdraw */\n      dup1\n        /* \"contracts/Stakeable.sol\":8965:8983  uint256 user_index */\n      0x00\n        /* \"contracts/Stakeable.sol\":8986:8992  stakes */\n      0x03\n        /* \"contracts/Stakeable.sol\":8986:9004  stakes[msg.sender] */\n      0x00\n        /* \"contracts/Stakeable.sol\":8993:9003  msg.sender */\n      caller\n        /* \"contracts/Stakeable.sol\":8986:9004  stakes[msg.sender] */\n      0xffffffffffffffffffffffffffffffffffffffff\n      and\n      0xffffffffffffffffffffffffffffffffffffffff\n      and\n      dup2\n      mstore\n      0x20\n      add\n      swap1\n      dup2\n      mstore\n      0x20\n      add\n      0x00\n      keccak256\n      sload\n        /* \"contracts/Stakeable.sol\":8965:9004  uint256 user_index = stakes[msg.sender] */\n      swap1\n      pop\n        /* \"contracts/Stakeable.sol\":9015:9044  StakingSummary memory summary */\n      0x00\n        /* \"contracts/Stakeable.sol\":9047:9147  StakingSummary(... */\n      mload(0x40)\n      dup1\n      0x40\n      add\n      0x40\n      mstore\n      dup1\n        /* \"contracts/Stakeable.sol\":9075:9076  0 */\n      0x00\n        /* \"contracts/Stakeable.sol\":9047:9147  StakingSummary(... */\n      dup2\n      mstore\n      0x20\n      add\n        /* \"contracts/Stakeable.sol\":9090:9102  stakeholders */\n      0x02\n        /* \"contracts/Stakeable.sol\":9103:9109  stakes */\n      0x03\n        /* \"contracts/Stakeable.sol\":9103:9121  stakes[msg.sender] */\n      0x00\n        /* \"contracts/Stakeable.sol\":9110:9120  msg.sender */\n      caller\n        /* \"contracts/Stakeable.sol\":9103:9121  stakes[msg.sender] */\n      0xffffffffffffffffffffffffffffffffffffffff\n      and\n      0xffffffffffffffffffffffffffffffffffffffff\n      and\n      dup2\n      mstore\n      0x20\n      add\n      swap1\n      dup2\n      mstore\n      0x20\n      add\n      0x00\n      keccak256\n      sload\n        /* \"contracts/Stakeable.sol\":9090:9122  stakeholders[stakes[msg.sender]] */\n      dup2\n      sload\n      dup2\n      lt\n      tag_287\n      jumpi\n      tag_288\n      tag_180\n      jump\t// in\n    tag_288:\n    tag_287:\n      swap1\n      0x00\n      mstore\n      keccak256(0x00, 0x20)\n      swap1\n      0x02\n      mul\n      add\n        /* \"contracts/Stakeable.sol\":9090:9137  stakeholders[stakes[msg.sender]].address_stakes */\n      0x01\n      add\n        /* \"contracts/Stakeable.sol\":9047:9147  StakingSummary(... */\n      dup1\n      sload\n      dup1\n      0x20\n      mul\n      0x20\n      add\n      mload(0x40)\n      swap1\n      dup2\n      add\n      0x40\n      mstore\n      dup1\n      swap3\n      swap2\n      swap1\n      dup2\n      dup2\n      mstore\n      0x20\n      add\n      0x00\n      swap1\n    tag_290:\n      dup3\n      dup3\n      lt\n      iszero\n      tag_291\n      jumpi\n      dup4\n      dup3\n      swap1\n      0x00\n      mstore\n      keccak256(0x00, 0x20)\n      swap1\n      0x04\n      mul\n      add\n      mload(0x40)\n      dup1\n      0x80\n      add\n      0x40\n      mstore\n      swap1\n      dup2\n      0x00\n      dup3\n      add\n      0x00\n      swap1\n      sload\n      swap1\n      0x0100\n      exp\n      swap1\n      div\n      0xffffffffffffffffffffffffffffffffffffffff\n      and\n      0xffffffffffffffffffffffffffffffffffffffff\n      and\n      0xffffffffffffffffffffffffffffffffffffffff\n      and\n      dup2\n      mstore\n      0x20\n      add\n      0x01\n      dup3\n      add\n      sload\n      dup2\n      mstore\n      0x20\n      add\n      0x02\n      dup3\n      add\n      sload\n      dup2\n      mstore\n      0x20\n      add\n      0x03\n      dup3\n      add\n      sload\n      dup2\n      mstore\n      pop\n      pop\n      dup2\n      mstore\n      0x20\n      add\n      swap1\n      0x01\n      add\n      swap1\n      jump(tag_290)\n    tag_291:\n      pop\n      pop\n      pop\n      pop\n      dup2\n      mstore\n      pop\n        /* \"contracts/Stakeable.sol\":9015:9147  StakingSummary memory summary = StakingSummary(... */\n      swap1\n      pop\n        /* \"contracts/Stakeable.sol\":9220:9229  uint256 s */\n      0x00\n        /* \"contracts/Stakeable.sol\":9215:9589  for (uint256 s = 0; s < summary.stakes.length; s += 1) {... */\n    tag_293:\n        /* \"contracts/Stakeable.sol\":9239:9246  summary */\n      dup2\n        /* \"contracts/Stakeable.sol\":9239:9253  summary.stakes */\n      0x20\n      add\n      mload\n        /* \"contracts/Stakeable.sol\":9239:9260  summary.stakes.length */\n      mload\n        /* \"contracts/Stakeable.sol\":9235:9236  s */\n      dup2\n        /* \"contracts/Stakeable.sol\":9235:9260  s < summary.stakes.length */\n      lt\n        /* \"contracts/Stakeable.sol\":9215:9589  for (uint256 s = 0; s < summary.stakes.length; s += 1) {... */\n      iszero\n      tag_294\n      jumpi\n        /* \"contracts/Stakeable.sol\":9284:9310  Stake memory current_stake */\n      0x00\n        /* \"contracts/Stakeable.sol\":9313:9325  stakeholders */\n      0x02\n        /* \"contracts/Stakeable.sol\":9326:9336  user_index */\n      dup5\n        /* \"contracts/Stakeable.sol\":9313:9337  stakeholders[user_index] */\n      dup2\n      sload\n      dup2\n      lt\n      tag_296\n      jumpi\n      tag_297\n      tag_180\n      jump\t// in\n    tag_297:\n    tag_296:\n      swap1\n      0x00\n      mstore\n      keccak256(0x00, 0x20)\n      swap1\n      0x02\n      mul\n      add\n        /* \"contracts/Stakeable.sol\":9313:9369  stakeholders[user_index]... */\n      0x01\n      add\n        /* \"contracts/Stakeable.sol\":9370:9371  s */\n      dup3\n        /* \"contracts/Stakeable.sol\":9313:9372  stakeholders[user_index]... */\n      dup2\n      sload\n      dup2\n      lt\n      tag_299\n      jumpi\n      tag_300\n      tag_180\n      jump\t// in\n    tag_300:\n    tag_299:\n      swap1\n      0x00\n      mstore\n      keccak256(0x00, 0x20)\n      swap1\n      0x04\n      mul\n      add\n        /* \"contracts/Stakeable.sol\":9284:9372  Stake memory current_stake = stakeholders[user_index]... */\n      mload(0x40)\n      dup1\n      0x80\n      add\n      0x40\n      mstore\n      swap1\n      dup2\n      0x00\n      dup3\n      add\n      0x00\n      swap1\n      sload\n      swap1\n      0x0100\n      exp\n      swap1\n      div\n      0xffffffffffffffffffffffffffffffffffffffff\n      and\n      0xffffffffffffffffffffffffffffffffffffffff\n      and\n      0xffffffffffffffffffffffffffffffffffffffff\n      and\n      dup2\n      mstore\n      0x20\n      add\n      0x01\n      dup3\n      add\n      sload\n      dup2\n      mstore\n      0x20\n      add\n      0x02\n      dup3\n      add\n      sload\n      dup2\n      mstore\n      0x20\n      add\n      0x03\n      dup3\n      add\n      sload\n      dup2\n      mstore\n      pop\n      pop\n      swap1\n      pop\n        /* \"contracts/Stakeable.sol\":9386:9409  uint256 availableReward */\n      0x00\n        /* \"contracts/Stakeable.sol\":9412:9447  calculateStakeReward(current_stake) */\n      tag_302\n        /* \"contracts/Stakeable.sol\":9433:9446  current_stake */\n      dup3\n        /* \"contracts/Stakeable.sol\":9412:9432  calculateStakeReward */\n      tag_195\n        /* \"contracts/Stakeable.sol\":9412:9447  calculateStakeReward(current_stake) */\n      jump\t// in\n    tag_302:\n        /* \"contracts/Stakeable.sol\":9386:9447  uint256 availableReward = calculateStakeReward(current_stake) */\n      swap1\n      pop\n        /* \"contracts/Stakeable.sol\":9500:9515  availableReward */\n      dup1\n        /* \"contracts/Stakeable.sol\":9477:9490  current_stake */\n      dup3\n        /* \"contracts/Stakeable.sol\":9477:9497  current_stake.amount */\n      0x20\n      add\n      mload\n        /* \"contracts/Stakeable.sol\":9477:9515  current_stake.amount + availableReward */\n      tag_303\n      swap2\n      swap1\n      tag_148\n      jump\t// in\n    tag_303:\n        /* \"contracts/Stakeable.sol\":9461:9515  totalWithdraw = current_stake.amount + availableReward */\n      swap6\n      pop\n        /* \"contracts/Stakeable.sol\":9536:9548  stakeholders */\n      0x02\n        /* \"contracts/Stakeable.sol\":9549:9559  user_index */\n      dup6\n        /* \"contracts/Stakeable.sol\":9536:9560  stakeholders[user_index] */\n      dup2\n      sload\n      dup2\n      lt\n      tag_304\n      jumpi\n      tag_305\n      tag_180\n      jump\t// in\n    tag_305:\n    tag_304:\n      swap1\n      0x00\n      mstore\n      keccak256(0x00, 0x20)\n      swap1\n      0x02\n      mul\n      add\n        /* \"contracts/Stakeable.sol\":9536:9575  stakeholders[user_index].address_stakes */\n      0x01\n      add\n        /* \"contracts/Stakeable.sol\":9576:9577  s */\n      dup4\n        /* \"contracts/Stakeable.sol\":9536:9578  stakeholders[user_index].address_stakes[s] */\n      dup2\n      sload\n      dup2\n      lt\n      tag_307\n      jumpi\n      tag_308\n      tag_180\n      jump\t// in\n    tag_308:\n    tag_307:\n      swap1\n      0x00\n      mstore\n      keccak256(0x00, 0x20)\n      swap1\n      0x04\n      mul\n      add\n      0x00\n        /* \"contracts/Stakeable.sol\":9529:9578  delete stakeholders[user_index].address_stakes[s] */\n      dup1\n      dup3\n      add\n      exp(0x0100, 0x00)\n      dup2\n      sload\n      swap1\n      0xffffffffffffffffffffffffffffffffffffffff\n      mul\n      not\n      and\n      swap1\n      sstore\n      0x01\n      dup3\n      add\n      0x00\n      swap1\n      sstore\n      0x02\n      dup3\n      add\n      0x00\n      swap1\n      sstore\n      0x03\n      dup3\n      add\n      0x00\n      swap1\n      sstore\n      pop\n      pop\n        /* \"contracts/Stakeable.sol\":9270:9589  {... */\n      pop\n      pop\n        /* \"contracts/Stakeable.sol\":9267:9268  1 */\n      0x01\n        /* \"contracts/Stakeable.sol\":9262:9268  s += 1 */\n      dup2\n      tag_310\n      swap2\n      swap1\n      tag_148\n      jump\t// in\n    tag_310:\n      swap1\n      pop\n        /* \"contracts/Stakeable.sol\":9215:9589  for (uint256 s = 0; s < summary.stakes.length; s += 1) {... */\n      jump(tag_293)\n    tag_294:\n      pop\n        /* \"contracts/Stakeable.sol\":9606:9619  totalWithdraw */\n      dup3\n        /* \"contracts/Stakeable.sol\":9599:9619  return totalWithdraw */\n      swap4\n      pop\n      pop\n      pop\n      pop\n        /* \"contracts/Stakeable.sol\":8873:9626  function _withdrawAll() internal returns (uint256) {... */\n      swap1\n      jump\t// out\n        /* \"contracts/Stakeable.sol\":9735:9870  function _setRewardValue(uint256 amount) internal {... */\n    tag_173:\n        /* \"contracts/Stakeable.sol\":9812:9813  0 */\n      0x00\n        /* \"contracts/Stakeable.sol\":9803:9809  amount */\n      dup2\n        /* \"contracts/Stakeable.sol\":9803:9813  amount > 0 */\n      gt\n        /* \"contracts/Stakeable.sol\":9795:9830  require(amount > 0, \"Cannot be 0%\") */\n      tag_312\n      jumpi\n      mload(0x40)\n      0x08c379a000000000000000000000000000000000000000000000000000000000\n      dup2\n      mstore\n      0x04\n      add\n      tag_313\n      swap1\n      tag_314\n      jump\t// in\n    tag_313:\n      mload(0x40)\n      dup1\n      swap2\n      sub\n      swap1\n      revert\n    tag_312:\n        /* \"contracts/Stakeable.sol\":9857:9863  amount */\n      dup1\n        /* \"contracts/Stakeable.sol\":9840:9854  _rewardPerHour */\n      0x01\n        /* \"contracts/Stakeable.sol\":9840:9863  _rewardPerHour = amount */\n      dup2\n      swap1\n      sstore\n      pop\n        /* \"contracts/Stakeable.sol\":9735:9870  function _setRewardValue(uint256 amount) internal {... */\n      pop\n      jump\t// out\n        /* \"contracts/Stakeable.sol\":4645:5490  function calculateStakeReward(Stake memory _current_stake)... */\n    tag_195:\n        /* \"contracts/Stakeable.sol\":4751:4758  uint256 */\n      0x00\n        /* \"contracts/Stakeable.sol\":5469:5483  _rewardPerHour */\n      sload(0x01)\n        /* \"contracts/Stakeable.sol\":5444:5458  _current_stake */\n      dup3\n        /* \"contracts/Stakeable.sol\":5444:5465  _current_stake.amount */\n      0x20\n      add\n      mload\n        /* \"contracts/Stakeable.sol\":5417:5424  1 hours */\n      0x0e10\n        /* \"contracts/Stakeable.sol\":5393:5407  _current_stake */\n      dup5\n        /* \"contracts/Stakeable.sol\":5393:5413  _current_stake.since */\n      0x40\n      add\n      mload\n        /* \"contracts/Stakeable.sol\":5375:5390  block.timestamp */\n      timestamp\n        /* \"contracts/Stakeable.sol\":5375:5413  block.timestamp - _current_stake.since */\n      tag_316\n      swap2\n      swap1\n      tag_143\n      jump\t// in\n    tag_316:\n        /* \"contracts/Stakeable.sol\":5374:5424  (block.timestamp - _current_stake.since) / 1 hours */\n      tag_317\n      swap2\n      swap1\n      tag_318\n      jump\t// in\n    tag_317:\n        /* \"contracts/Stakeable.sol\":5373:5465  ((block.timestamp - _current_stake.since) / 1 hours) *... */\n      tag_319\n      swap2\n      swap1\n      tag_320\n      jump\t// in\n    tag_319:\n        /* \"contracts/Stakeable.sol\":5372:5483  (((block.timestamp - _current_stake.since) / 1 hours) *... */\n      tag_321\n      swap2\n      swap1\n      tag_318\n      jump\t// in\n    tag_321:\n        /* \"contracts/Stakeable.sol\":5353:5483  return... */\n      swap1\n      pop\n        /* \"contracts/Stakeable.sol\":4645:5490  function calculateStakeReward(Stake memory _current_stake)... */\n      swap2\n      swap1\n      pop\n      jump\t// out\n        /* \"contracts/AlfaCoin.sol\":4261:4870  function _burn(address account, uint256 amount) internal {... */\n    tag_209:\n        /* \"contracts/AlfaCoin.sol\":4368:4369  0 */\n      0x00\n        /* \"contracts/AlfaCoin.sol\":4349:4370  account != address(0) */\n      0xffffffffffffffffffffffffffffffffffffffff\n      and\n        /* \"contracts/AlfaCoin.sol\":4349:4356  account */\n      dup3\n        /* \"contracts/AlfaCoin.sol\":4349:4370  account != address(0) */\n      0xffffffffffffffffffffffffffffffffffffffff\n      and\n      sub\n        /* \"contracts/AlfaCoin.sol\":4328:4435  require(... */\n      tag_323\n      jumpi\n      mload(0x40)\n      0x08c379a000000000000000000000000000000000000000000000000000000000\n      dup2\n      mstore\n      0x04\n      add\n      tag_324\n      swap1\n      tag_325\n      jump\t// in\n    tag_324:\n      mload(0x40)\n      dup1\n      swap2\n      sub\n      swap1\n      revert\n    tag_323:\n        /* \"contracts/AlfaCoin.sol\":4488:4494  amount */\n      dup1\n        /* \"contracts/AlfaCoin.sol\":4466:4475  _balances */\n      0x08\n        /* \"contracts/AlfaCoin.sol\":4466:4484  _balances[account] */\n      0x00\n        /* \"contracts/AlfaCoin.sol\":4476:4483  account */\n      dup5\n        /* \"contracts/AlfaCoin.sol\":4466:4484  _balances[account] */\n      0xffffffffffffffffffffffffffffffffffffffff\n      and\n      0xffffffffffffffffffffffffffffffffffffffff\n      and\n      dup2\n      mstore\n      0x20\n      add\n      swap1\n      dup2\n      mstore\n      0x20\n      add\n      0x00\n      keccak256\n      sload\n        /* \"contracts/AlfaCoin.sol\":4466:4494  _balances[account] >= amount */\n      lt\n      iszero\n        /* \"contracts/AlfaCoin.sol\":4445:4568  require(... */\n      tag_326\n      jumpi\n      mload(0x40)\n      0x08c379a000000000000000000000000000000000000000000000000000000000\n      dup2\n      mstore\n      0x04\n      add\n      tag_327\n      swap1\n      tag_328\n      jump\t// in\n    tag_327:\n      mload(0x40)\n      dup1\n      swap2\n      sub\n      swap1\n      revert\n    tag_326:\n        /* \"contracts/AlfaCoin.sol\":4675:4681  amount */\n      dup1\n        /* \"contracts/AlfaCoin.sol\":4654:4663  _balances */\n      0x08\n        /* \"contracts/AlfaCoin.sol\":4654:4672  _balances[account] */\n      0x00\n        /* \"contracts/AlfaCoin.sol\":4664:4671  account */\n      dup5\n        /* \"contracts/AlfaCoin.sol\":4654:4672  _balances[account] */\n      0xffffffffffffffffffffffffffffffffffffffff\n      and\n      0xffffffffffffffffffffffffffffffffffffffff\n      and\n      dup2\n      mstore\n      0x20\n      add\n      swap1\n      dup2\n      mstore\n      0x20\n      add\n      0x00\n      keccak256\n      sload\n        /* \"contracts/AlfaCoin.sol\":4654:4681  _balances[account] - amount */\n      tag_329\n      swap2\n      swap1\n      tag_143\n      jump\t// in\n    tag_329:\n        /* \"contracts/AlfaCoin.sol\":4633:4642  _balances */\n      0x08\n        /* \"contracts/AlfaCoin.sol\":4633:4651  _balances[account] */\n      0x00\n        /* \"contracts/AlfaCoin.sol\":4643:4650  account */\n      dup5\n        /* \"contracts/AlfaCoin.sol\":4633:4651  _balances[account] */\n      0xffffffffffffffffffffffffffffffffffffffff\n      and\n      0xffffffffffffffffffffffffffffffffffffffff\n      and\n      dup2\n      mstore\n      0x20\n      add\n      swap1\n      dup2\n      mstore\n      0x20\n      add\n      0x00\n      keccak256\n        /* \"contracts/AlfaCoin.sol\":4633:4681  _balances[account] = _balances[account] - amount */\n      dup2\n      swap1\n      sstore\n      pop\n        /* \"contracts/AlfaCoin.sol\":4753:4759  amount */\n      dup1\n        /* \"contracts/AlfaCoin.sol\":4738:4750  _totalSupply */\n      sload(0x04)\n        /* \"contracts/AlfaCoin.sol\":4738:4759  _totalSupply - amount */\n      tag_330\n      swap2\n      swap1\n      tag_143\n      jump\t// in\n    tag_330:\n        /* \"contracts/AlfaCoin.sol\":4723:4735  _totalSupply */\n      0x04\n        /* \"contracts/AlfaCoin.sol\":4723:4759  _totalSupply = _totalSupply - amount */\n      dup2\n      swap1\n      sstore\n      pop\n        /* \"contracts/AlfaCoin.sol\":4852:4853  0 */\n      0x00\n        /* \"contracts/AlfaCoin.sol\":4826:4863  Transfer(account, address(0), amount) */\n      0xffffffffffffffffffffffffffffffffffffffff\n      and\n        /* \"contracts/AlfaCoin.sol\":4835:4842  account */\n      dup3\n        /* \"contracts/AlfaCoin.sol\":4826:4863  Transfer(account, address(0), amount) */\n      0xffffffffffffffffffffffffffffffffffffffff\n      and\n      0xddf252ad1be2c89b69c2b068fc378daa952ba7f163c4a11628f55a4df523b3ef\n        /* \"contracts/AlfaCoin.sol\":4856:4862  amount */\n      dup4\n        /* \"contracts/AlfaCoin.sol\":4826:4863  Transfer(account, address(0), amount) */\n      mload(0x40)\n      tag_331\n      swap2\n      swap1\n      tag_43\n      jump\t// in\n    tag_331:\n      mload(0x40)\n      dup1\n      swap2\n      sub\n      swap1\n      log3\n        /* \"contracts/AlfaCoin.sol\":4261:4870  function _burn(address account, uint256 amount) internal {... */\n      pop\n      pop\n      jump\t// out\n        /* \"contracts/Stakeable.sol\":3255:4457  function _stake(uint256 _amount) internal {... */\n    tag_221:\n        /* \"contracts/Stakeable.sol\":3388:3389  0 */\n      0x00\n        /* \"contracts/Stakeable.sol\":3378:3385  _amount */\n      dup2\n        /* \"contracts/Stakeable.sol\":3378:3389  _amount > 0 */\n      gt\n        /* \"contracts/Stakeable.sol\":3370:3414  require(_amount > 0, \"Cannot stake nothing\") */\n      tag_333\n      jumpi\n      mload(0x40)\n      0x08c379a000000000000000000000000000000000000000000000000000000000\n      dup2\n      mstore\n      0x04\n      add\n      tag_334\n      swap1\n      tag_335\n      jump\t// in\n    tag_334:\n      mload(0x40)\n      dup1\n      swap2\n      sub\n      swap1\n      revert\n    tag_333:\n        /* \"contracts/Stakeable.sol\":3521:3534  uint256 index */\n      0x00\n        /* \"contracts/Stakeable.sol\":3537:3543  stakes */\n      0x03\n        /* \"contracts/Stakeable.sol\":3537:3555  stakes[msg.sender] */\n      0x00\n        /* \"contracts/Stakeable.sol\":3544:3554  msg.sender */\n      caller\n        /* \"contracts/Stakeable.sol\":3537:3555  stakes[msg.sender] */\n      0xffffffffffffffffffffffffffffffffffffffff\n      and\n      0xffffffffffffffffffffffffffffffffffffffff\n      and\n      dup2\n      mstore\n      0x20\n      add\n      swap1\n      dup2\n      mstore\n      0x20\n      add\n      0x00\n      keccak256\n      sload\n        /* \"contracts/Stakeable.sol\":3521:3555  uint256 index = stakes[msg.sender] */\n      swap1\n      pop\n        /* \"contracts/Stakeable.sol\":3652:3669  uint256 timestamp */\n      0x00\n        /* \"contracts/Stakeable.sol\":3672:3687  block.timestamp */\n      timestamp\n        /* \"contracts/Stakeable.sol\":3652:3687  uint256 timestamp = block.timestamp */\n      swap1\n      pop\n        /* \"contracts/Stakeable.sol\":3791:3792  0 */\n      0x00\n        /* \"contracts/Stakeable.sol\":3782:3787  index */\n      dup3\n        /* \"contracts/Stakeable.sol\":3782:3792  index == 0 */\n      sub\n        /* \"contracts/Stakeable.sol\":3778:4108  if (index == 0) {... */\n      tag_336\n      jumpi\n        /* \"contracts/Stakeable.sol\":4070:4097  _addStakeholder(msg.sender) */\n      tag_337\n        /* \"contracts/Stakeable.sol\":4086:4096  msg.sender */\n      caller\n        /* \"contracts/Stakeable.sol\":4070:4085  _addStakeholder */\n      tag_338\n        /* \"contracts/Stakeable.sol\":4070:4097  _addStakeholder(msg.sender) */\n      jump\t// in\n    tag_337:\n        /* \"contracts/Stakeable.sol\":4062:4097  index = _addStakeholder(msg.sender) */\n      swap2\n      pop\n        /* \"contracts/Stakeable.sol\":3778:4108  if (index == 0) {... */\n    tag_336:\n        /* \"contracts/Stakeable.sol\":4235:4247  stakeholders */\n      0x02\n        /* \"contracts/Stakeable.sol\":4248:4253  index */\n      dup3\n        /* \"contracts/Stakeable.sol\":4235:4254  stakeholders[index] */\n      dup2\n      sload\n      dup2\n      lt\n      tag_339\n      jumpi\n      tag_340\n      tag_180\n      jump\t// in\n    tag_340:\n    tag_339:\n      swap1\n      0x00\n      mstore\n      keccak256(0x00, 0x20)\n      swap1\n      0x02\n      mul\n      add\n        /* \"contracts/Stakeable.sol\":4235:4269  stakeholders[index].address_stakes */\n      0x01\n      add\n        /* \"contracts/Stakeable.sol\":4288:4328  Stake(msg.sender, _amount, timestamp, 0) */\n      mload(0x40)\n      dup1\n      0x80\n      add\n      0x40\n      mstore\n      dup1\n        /* \"contracts/Stakeable.sol\":4294:4304  msg.sender */\n      caller\n        /* \"contracts/Stakeable.sol\":4288:4328  Stake(msg.sender, _amount, timestamp, 0) */\n      0xffffffffffffffffffffffffffffffffffffffff\n      and\n      dup2\n      mstore\n      0x20\n      add\n        /* \"contracts/Stakeable.sol\":4306:4313  _amount */\n      dup6\n        /* \"contracts/Stakeable.sol\":4288:4328  Stake(msg.sender, _amount, timestamp, 0) */\n      dup2\n      mstore\n      0x20\n      add\n        /* \"contracts/Stakeable.sol\":4315:4324  timestamp */\n      dup4\n        /* \"contracts/Stakeable.sol\":4288:4328  Stake(msg.sender, _amount, timestamp, 0) */\n      dup2\n      mstore\n      0x20\n      add\n        /* \"contracts/Stakeable.sol\":4326:4327  0 */\n      0x00\n        /* \"contracts/Stakeable.sol\":4288:4328  Stake(msg.sender, _amount, timestamp, 0) */\n      dup2\n      mstore\n      pop\n        /* \"contracts/Stakeable.sol\":4235:4338  stakeholders[index].address_stakes.push(... */\n      swap1\n      dup1\n      0x01\n      dup2\n      sload\n      add\n      dup1\n      dup3\n      sstore\n      dup1\n      swap2\n      pop\n      pop\n      0x01\n      swap1\n      sub\n      swap1\n      0x00\n      mstore\n      keccak256(0x00, 0x20)\n      swap1\n      0x04\n      mul\n      add\n      0x00\n      swap1\n      swap2\n      swap1\n      swap2\n      swap1\n      swap2\n      pop\n      0x00\n      dup3\n      add\n      mload\n      dup2\n      0x00\n      add\n      exp(0x0100, 0x00)\n      dup2\n      sload\n      dup2\n      0xffffffffffffffffffffffffffffffffffffffff\n      mul\n      not\n      and\n      swap1\n      dup4\n      0xffffffffffffffffffffffffffffffffffffffff\n      and\n      mul\n      or\n      swap1\n      sstore\n      pop\n      0x20\n      dup3\n      add\n      mload\n      dup2\n      0x01\n      add\n      sstore\n      0x40\n      dup3\n      add\n      mload\n      dup2\n      0x02\n      add\n      sstore\n      0x60\n      dup3\n      add\n      mload\n      dup2\n      0x03\n      add\n      sstore\n      pop\n      pop\n        /* \"contracts/Stakeable.sol\":4412:4422  msg.sender */\n      caller\n        /* \"contracts/Stakeable.sol\":4405:4450  Staked(msg.sender, _amount, index, timestamp) */\n      0xffffffffffffffffffffffffffffffffffffffff\n      and\n      0xb4caaf29adda3eefee3ad552a8e85058589bf834c7466cae4ee58787f70589ed\n        /* \"contracts/Stakeable.sol\":4424:4431  _amount */\n      dup5\n        /* \"contracts/Stakeable.sol\":4433:4438  index */\n      dup5\n        /* \"contracts/Stakeable.sol\":4440:4449  timestamp */\n      dup5\n        /* \"contracts/Stakeable.sol\":4405:4450  Staked(msg.sender, _amount, index, timestamp) */\n      mload(0x40)\n      tag_343\n      swap4\n      swap3\n      swap2\n      swap1\n      tag_344\n      jump\t// in\n    tag_343:\n      mload(0x40)\n      dup1\n      swap2\n      sub\n      swap1\n      log2\n        /* \"contracts/Stakeable.sol\":3297:4457  {... */\n      pop\n      pop\n        /* \"contracts/Stakeable.sol\":3255:4457  function _stake(uint256 _amount) internal {... */\n      pop\n      jump\t// out\n        /* \"contracts/Stakeable.sol\":5834:7120  function _withdrawStake(uint256 amount, uint256 index)... */\n    tag_249:\n        /* \"contracts/Stakeable.sol\":5923:5930  uint256 */\n      0x00\n        /* \"contracts/Stakeable.sol\":6019:6037  uint256 user_index */\n      dup1\n        /* \"contracts/Stakeable.sol\":6040:6046  stakes */\n      0x03\n        /* \"contracts/Stakeable.sol\":6040:6058  stakes[msg.sender] */\n      0x00\n        /* \"contracts/Stakeable.sol\":6047:6057  msg.sender */\n      caller\n        /* \"contracts/Stakeable.sol\":6040:6058  stakes[msg.sender] */\n      0xffffffffffffffffffffffffffffffffffffffff\n      and\n      0xffffffffffffffffffffffffffffffffffffffff\n      and\n      dup2\n      mstore\n      0x20\n      add\n      swap1\n      dup2\n      mstore\n      0x20\n      add\n      0x00\n      keccak256\n      sload\n        /* \"contracts/Stakeable.sol\":6019:6058  uint256 user_index = stakes[msg.sender] */\n      swap1\n      pop\n        /* \"contracts/Stakeable.sol\":6068:6094  Stake memory current_stake */\n      0x00\n        /* \"contracts/Stakeable.sol\":6097:6109  stakeholders */\n      0x02\n        /* \"contracts/Stakeable.sol\":6110:6120  user_index */\n      dup3\n        /* \"contracts/Stakeable.sol\":6097:6121  stakeholders[user_index] */\n      dup2\n      sload\n      dup2\n      lt\n      tag_346\n      jumpi\n      tag_347\n      tag_180\n      jump\t// in\n    tag_347:\n    tag_346:\n      swap1\n      0x00\n      mstore\n      keccak256(0x00, 0x20)\n      swap1\n      0x02\n      mul\n      add\n        /* \"contracts/Stakeable.sol\":6097:6136  stakeholders[user_index].address_stakes */\n      0x01\n      add\n        /* \"contracts/Stakeable.sol\":6150:6155  index */\n      dup5\n        /* \"contracts/Stakeable.sol\":6097:6165  stakeholders[user_index].address_stakes[... */\n      dup2\n      sload\n      dup2\n      lt\n      tag_349\n      jumpi\n      tag_350\n      tag_180\n      jump\t// in\n    tag_350:\n    tag_349:\n      swap1\n      0x00\n      mstore\n      keccak256(0x00, 0x20)\n      swap1\n      0x04\n      mul\n      add\n        /* \"contracts/Stakeable.sol\":6068:6165  Stake memory current_stake = stakeholders[user_index].address_stakes[... */\n      mload(0x40)\n      dup1\n      0x80\n      add\n      0x40\n      mstore\n      swap1\n      dup2\n      0x00\n      dup3\n      add\n      0x00\n      swap1\n      sload\n      swap1\n      0x0100\n      exp\n      swap1\n      div\n      0xffffffffffffffffffffffffffffffffffffffff\n      and\n      0xffffffffffffffffffffffffffffffffffffffff\n      and\n      0xffffffffffffffffffffffffffffffffffffffff\n      and\n      dup2\n      mstore\n      0x20\n      add\n      0x01\n      dup3\n      add\n      sload\n      dup2\n      mstore\n      0x20\n      add\n      0x02\n      dup3\n      add\n      sload\n      dup2\n      mstore\n      0x20\n      add\n      0x03\n      dup3\n      add\n      sload\n      dup2\n      mstore\n      pop\n      pop\n      swap1\n      pop\n        /* \"contracts/Stakeable.sol\":6220:6226  amount */\n      dup5\n        /* \"contracts/Stakeable.sol\":6196:6209  current_stake */\n      dup2\n        /* \"contracts/Stakeable.sol\":6196:6216  current_stake.amount */\n      0x20\n      add\n      mload\n        /* \"contracts/Stakeable.sol\":6196:6226  current_stake.amount >= amount */\n      lt\n      iszero\n        /* \"contracts/Stakeable.sol\":6175:6302  require(... */\n      tag_352\n      jumpi\n      mload(0x40)\n      0x08c379a000000000000000000000000000000000000000000000000000000000\n      dup2\n      mstore\n      0x04\n      add\n      tag_353\n      swap1\n      tag_354\n      jump\t// in\n    tag_353:\n      mload(0x40)\n      dup1\n      swap2\n      sub\n      swap1\n      revert\n    tag_352:\n        /* \"contracts/Stakeable.sol\":6388:6402  uint256 reward */\n      0x00\n        /* \"contracts/Stakeable.sol\":6405:6440  calculateStakeReward(current_stake) */\n      tag_355\n        /* \"contracts/Stakeable.sol\":6426:6439  current_stake */\n      dup3\n        /* \"contracts/Stakeable.sol\":6405:6425  calculateStakeReward */\n      tag_195\n        /* \"contracts/Stakeable.sol\":6405:6440  calculateStakeReward(current_stake) */\n      jump\t// in\n    tag_355:\n        /* \"contracts/Stakeable.sol\":6388:6440  uint256 reward = calculateStakeReward(current_stake) */\n      swap1\n      pop\n        /* \"contracts/Stakeable.sol\":6548:6554  amount */\n      dup6\n        /* \"contracts/Stakeable.sol\":6525:6538  current_stake */\n      dup3\n        /* \"contracts/Stakeable.sol\":6525:6545  current_stake.amount */\n      0x20\n      add\n      mload\n        /* \"contracts/Stakeable.sol\":6525:6554  current_stake.amount - amount */\n      tag_356\n      swap2\n      swap1\n      tag_143\n      jump\t// in\n    tag_356:\n        /* \"contracts/Stakeable.sol\":6502:6515  current_stake */\n      dup3\n        /* \"contracts/Stakeable.sol\":6502:6522  current_stake.amount */\n      0x20\n      add\n        /* \"contracts/Stakeable.sol\":6502:6554  current_stake.amount = current_stake.amount - amount */\n      dup2\n      dup2\n      mstore\n      pop\n      pop\n        /* \"contracts/Stakeable.sol\":6665:6666  0 */\n      0x00\n        /* \"contracts/Stakeable.sol\":6641:6654  current_stake */\n      dup3\n        /* \"contracts/Stakeable.sol\":6641:6661  current_stake.amount */\n      0x20\n      add\n      mload\n        /* \"contracts/Stakeable.sol\":6641:6666  current_stake.amount == 0 */\n      sub\n        /* \"contracts/Stakeable.sol\":6637:7081  if (current_stake.amount == 0) {... */\n      tag_357\n      jumpi\n        /* \"contracts/Stakeable.sol\":6689:6701  stakeholders */\n      0x02\n        /* \"contracts/Stakeable.sol\":6702:6712  user_index */\n      dup4\n        /* \"contracts/Stakeable.sol\":6689:6713  stakeholders[user_index] */\n      dup2\n      sload\n      dup2\n      lt\n      tag_358\n      jumpi\n      tag_359\n      tag_180\n      jump\t// in\n    tag_359:\n    tag_358:\n      swap1\n      0x00\n      mstore\n      keccak256(0x00, 0x20)\n      swap1\n      0x02\n      mul\n      add\n        /* \"contracts/Stakeable.sol\":6689:6728  stakeholders[user_index].address_stakes */\n      0x01\n      add\n        /* \"contracts/Stakeable.sol\":6729:6734  index */\n      dup6\n        /* \"contracts/Stakeable.sol\":6689:6735  stakeholders[user_index].address_stakes[index] */\n      dup2\n      sload\n      dup2\n      lt\n      tag_361\n      jumpi\n      tag_362\n      tag_180\n      jump\t// in\n    tag_362:\n    tag_361:\n      swap1\n      0x00\n      mstore\n      keccak256(0x00, 0x20)\n      swap1\n      0x04\n      mul\n      add\n      0x00\n        /* \"contracts/Stakeable.sol\":6682:6735  delete stakeholders[user_index].address_stakes[index] */\n      dup1\n      dup3\n      add\n      exp(0x0100, 0x00)\n      dup2\n      sload\n      swap1\n      0xffffffffffffffffffffffffffffffffffffffff\n      mul\n      not\n      and\n      swap1\n      sstore\n      0x01\n      dup3\n      add\n      0x00\n      swap1\n      sstore\n      0x02\n      dup3\n      add\n      0x00\n      swap1\n      sstore\n      0x03\n      dup3\n      add\n      0x00\n      swap1\n      sstore\n      pop\n      pop\n        /* \"contracts/Stakeable.sol\":6637:7081  if (current_stake.amount == 0) {... */\n      jump(tag_364)\n    tag_357:\n        /* \"contracts/Stakeable.sol\":6913:6926  current_stake */\n      dup2\n        /* \"contracts/Stakeable.sol\":6913:6933  current_stake.amount */\n      0x20\n      add\n      mload\n        /* \"contracts/Stakeable.sol\":6823:6835  stakeholders */\n      0x02\n        /* \"contracts/Stakeable.sol\":6836:6846  user_index */\n      dup5\n        /* \"contracts/Stakeable.sol\":6823:6847  stakeholders[user_index] */\n      dup2\n      sload\n      dup2\n      lt\n      tag_365\n      jumpi\n      tag_366\n      tag_180\n      jump\t// in\n    tag_366:\n    tag_365:\n      swap1\n      0x00\n      mstore\n      keccak256(0x00, 0x20)\n      swap1\n      0x02\n      mul\n      add\n        /* \"contracts/Stakeable.sol\":6823:6879  stakeholders[user_index]... */\n      0x01\n      add\n        /* \"contracts/Stakeable.sol\":6880:6885  index */\n      dup7\n        /* \"contracts/Stakeable.sol\":6823:6886  stakeholders[user_index]... */\n      dup2\n      sload\n      dup2\n      lt\n      tag_368\n      jumpi\n      tag_369\n      tag_180\n      jump\t// in\n    tag_369:\n    tag_368:\n      swap1\n      0x00\n      mstore\n      keccak256(0x00, 0x20)\n      swap1\n      0x04\n      mul\n      add\n        /* \"contracts/Stakeable.sol\":6823:6910  stakeholders[user_index]... */\n      0x01\n      add\n        /* \"contracts/Stakeable.sol\":6823:6933  stakeholders[user_index]... */\n      dup2\n      swap1\n      sstore\n      pop\n        /* \"contracts/Stakeable.sol\":7038:7070  block... */\n      timestamp\n        /* \"contracts/Stakeable.sol\":6983:6995  stakeholders */\n      0x02\n        /* \"contracts/Stakeable.sol\":6996:7006  user_index */\n      dup5\n        /* \"contracts/Stakeable.sol\":6983:7007  stakeholders[user_index] */\n      dup2\n      sload\n      dup2\n      lt\n      tag_371\n      jumpi\n      tag_372\n      tag_180\n      jump\t// in\n    tag_372:\n    tag_371:\n      swap1\n      0x00\n      mstore\n      keccak256(0x00, 0x20)\n      swap1\n      0x02\n      mul\n      add\n        /* \"contracts/Stakeable.sol\":6983:7022  stakeholders[user_index].address_stakes */\n      0x01\n      add\n        /* \"contracts/Stakeable.sol\":7023:7028  index */\n      dup7\n        /* \"contracts/Stakeable.sol\":6983:7029  stakeholders[user_index].address_stakes[index] */\n      dup2\n      sload\n      dup2\n      lt\n      tag_374\n      jumpi\n      tag_375\n      tag_180\n      jump\t// in\n    tag_375:\n    tag_374:\n      swap1\n      0x00\n      mstore\n      keccak256(0x00, 0x20)\n      swap1\n      0x04\n      mul\n      add\n        /* \"contracts/Stakeable.sol\":6983:7035  stakeholders[user_index].address_stakes[index].since */\n      0x02\n      add\n        /* \"contracts/Stakeable.sol\":6983:7070  stakeholders[user_index].address_stakes[index].since = block... */\n      dup2\n      swap1\n      sstore\n      pop\n        /* \"contracts/Stakeable.sol\":6637:7081  if (current_stake.amount == 0) {... */\n    tag_364:\n        /* \"contracts/Stakeable.sol\":7107:7113  reward */\n      dup1\n        /* \"contracts/Stakeable.sol\":7098:7104  amount */\n      dup7\n        /* \"contracts/Stakeable.sol\":7098:7113  amount + reward */\n      tag_377\n      swap2\n      swap1\n      tag_148\n      jump\t// in\n    tag_377:\n        /* \"contracts/Stakeable.sol\":7091:7113  return amount + reward */\n      swap4\n      pop\n      pop\n      pop\n      pop\n        /* \"contracts/Stakeable.sol\":5834:7120  function _withdrawStake(uint256 amount, uint256 index)... */\n      swap3\n      swap2\n      pop\n      pop\n      jump\t// out\n        /* \"contracts/Ownable.sol\":1897:2122  function _transferOwnership(address newOwner) internal {... */\n    tag_256:\n        /* \"contracts/Ownable.sol\":1990:1991  0 */\n      0x00\n        /* \"contracts/Ownable.sol\":1970:1992  newOwner != address(0) */\n      0xffffffffffffffffffffffffffffffffffffffff\n      and\n        /* \"contracts/Ownable.sol\":1970:1978  newOwner */\n      dup2\n        /* \"contracts/Ownable.sol\":1970:1992  newOwner != address(0) */\n      0xffffffffffffffffffffffffffffffffffffffff\n      and\n      sub\n        /* \"contracts/Ownable.sol\":1962:2035  require(newOwner != address(0), \"Ownable: new owner is the zero address\") */\n      tag_379\n      jumpi\n      mload(0x40)\n      0x08c379a000000000000000000000000000000000000000000000000000000000\n      dup2\n      mstore\n      0x04\n      add\n      tag_380\n      swap1\n      tag_381\n      jump\t// in\n    tag_380:\n      mload(0x40)\n      dup1\n      swap2\n      sub\n      swap1\n      revert\n    tag_379:\n        /* \"contracts/Ownable.sol\":2079:2087  newOwner */\n      dup1\n        /* \"contracts/Ownable.sol\":2050:2088  OwnershipTransferred(_owner, newOwner) */\n      0xffffffffffffffffffffffffffffffffffffffff\n      and\n        /* \"contracts/Ownable.sol\":2071:2077  _owner */\n      0x00\n      dup1\n      sload\n      swap1\n      0x0100\n      exp\n      swap1\n      div\n      0xffffffffffffffffffffffffffffffffffffffff\n      and\n        /* \"contracts/Ownable.sol\":2050:2088  OwnershipTransferred(_owner, newOwner) */\n      0xffffffffffffffffffffffffffffffffffffffff\n      and\n      0x8be0079c531659141344cd1fd0a4f28419497f9722a3daafe3b4186f6b6457e0\n      mload(0x40)\n      mload(0x40)\n      dup1\n      swap2\n      sub\n      swap1\n      log3\n        /* \"contracts/Ownable.sol\":2107:2115  newOwner */\n      dup1\n        /* \"contracts/Ownable.sol\":2098:2104  _owner */\n      0x00\n      dup1\n        /* \"contracts/Ownable.sol\":2098:2115  _owner = newOwner */\n      0x0100\n      exp\n      dup2\n      sload\n      dup2\n      0xffffffffffffffffffffffffffffffffffffffff\n      mul\n      not\n      and\n      swap1\n      dup4\n      0xffffffffffffffffffffffffffffffffffffffff\n      and\n      mul\n      or\n      swap1\n      sstore\n      pop\n        /* \"contracts/Ownable.sol\":1897:2122  function _transferOwnership(address newOwner) internal {... */\n      pop\n      jump\t// out\n        /* \"contracts/Stakeable.sol\":2540:3044  function _addStakeholder(address staker) internal returns (uint256) {... */\n    tag_338:\n        /* \"contracts/Stakeable.sol\":2599:2606  uint256 */\n      0x00\n        /* \"contracts/Stakeable.sol\":2698:2710  stakeholders */\n      0x02\n        /* \"contracts/Stakeable.sol\":2698:2717  stakeholders.push() */\n      0x01\n      dup2\n      0x01\n      dup2\n      sload\n      add\n      dup1\n      dup3\n      sstore\n      dup1\n      swap2\n      pop\n      pop\n      sub\n      swap1\n      0x00\n      mstore\n      keccak256(0x00, 0x20)\n      swap1\n      pop\n      pop\n        /* \"contracts/Stakeable.sol\":2797:2814  uint256 userIndex */\n      0x00\n        /* \"contracts/Stakeable.sol\":2839:2840  1 */\n      0x01\n        /* \"contracts/Stakeable.sol\":2817:2829  stakeholders */\n      0x02\n        /* \"contracts/Stakeable.sol\":2817:2836  stakeholders.length */\n      dup1\n      sload\n      swap1\n      pop\n        /* \"contracts/Stakeable.sol\":2817:2840  stakeholders.length - 1 */\n      tag_384\n      swap2\n      swap1\n      tag_143\n      jump\t// in\n    tag_384:\n        /* \"contracts/Stakeable.sol\":2797:2840  uint256 userIndex = stakeholders.length - 1 */\n      swap1\n      pop\n        /* \"contracts/Stakeable.sol\":2928:2934  staker */\n      dup3\n        /* \"contracts/Stakeable.sol\":2897:2909  stakeholders */\n      0x02\n        /* \"contracts/Stakeable.sol\":2910:2919  userIndex */\n      dup3\n        /* \"contracts/Stakeable.sol\":2897:2920  stakeholders[userIndex] */\n      dup2\n      sload\n      dup2\n      lt\n      tag_385\n      jumpi\n      tag_386\n      tag_180\n      jump\t// in\n    tag_386:\n    tag_385:\n      swap1\n      0x00\n      mstore\n      keccak256(0x00, 0x20)\n      swap1\n      0x02\n      mul\n      add\n        /* \"contracts/Stakeable.sol\":2897:2925  stakeholders[userIndex].user */\n      0x00\n      add\n      0x00\n        /* \"contracts/Stakeable.sol\":2897:2934  stakeholders[userIndex].user = staker */\n      0x0100\n      exp\n      dup2\n      sload\n      dup2\n      0xffffffffffffffffffffffffffffffffffffffff\n      mul\n      not\n      and\n      swap1\n      dup4\n      0xffffffffffffffffffffffffffffffffffffffff\n      and\n      mul\n      or\n      swap1\n      sstore\n      pop\n        /* \"contracts/Stakeable.sol\":3002:3011  userIndex */\n      dup1\n        /* \"contracts/Stakeable.sol\":2985:2991  stakes */\n      0x03\n        /* \"contracts/Stakeable.sol\":2985:2999  stakes[staker] */\n      0x00\n        /* \"contracts/Stakeable.sol\":2992:2998  staker */\n      dup6\n        /* \"contracts/Stakeable.sol\":2985:2999  stakes[staker] */\n      0xffffffffffffffffffffffffffffffffffffffff\n      and\n      0xffffffffffffffffffffffffffffffffffffffff\n      and\n      dup2\n      mstore\n      0x20\n      add\n      swap1\n      dup2\n      mstore\n      0x20\n      add\n      0x00\n      keccak256\n        /* \"contracts/Stakeable.sol\":2985:3011  stakes[staker] = userIndex */\n      dup2\n      swap1\n      sstore\n      pop\n        /* \"contracts/Stakeable.sol\":3028:3037  userIndex */\n      dup1\n        /* \"contracts/Stakeable.sol\":3021:3037  return userIndex */\n      swap2\n      pop\n      pop\n        /* \"contracts/Stakeable.sol\":2540:3044  function _addStakeholder(address staker) internal returns (uint256) {... */\n      swap2\n      swap1\n      pop\n      jump\t// out\n    tag_227:\n      mload(0x40)\n      dup1\n      0x40\n      add\n      0x40\n      mstore\n      dup1\n      0x00\n      dup2\n      mstore\n      0x20\n      add\n      0x60\n      dup2\n      mstore\n      pop\n      swap1\n      jump\t// out\n        /* \"#utility.yul\":7:106   */\n    tag_388:\n        /* \"#utility.yul\":59:65   */\n      0x00\n        /* \"#utility.yul\":93:98   */\n      dup2\n        /* \"#utility.yul\":87:99   */\n      mload\n        /* \"#utility.yul\":77:99   */\n      swap1\n      pop\n        /* \"#utility.yul\":7:106   */\n      swap2\n      swap1\n      pop\n      jump\t// out\n        /* \"#utility.yul\":112:281   */\n    tag_389:\n        /* \"#utility.yul\":196:207   */\n      0x00\n        /* \"#utility.yul\":230:236   */\n      dup3\n        /* \"#utility.yul\":225:228   */\n      dup3\n        /* \"#utility.yul\":218:237   */\n      mstore\n        /* \"#utility.yul\":270:274   */\n      0x20\n        /* \"#utility.yul\":265:268   */\n      dup3\n        /* \"#utility.yul\":261:275   */\n      add\n        /* \"#utility.yul\":246:275   */\n      swap1\n      pop\n        /* \"#utility.yul\":112:281   */\n      swap3\n      swap2\n      pop\n      pop\n      jump\t// out\n        /* \"#utility.yul\":287:533   */\n    tag_390:\n        /* \"#utility.yul\":368:369   */\n      0x00\n        /* \"#utility.yul\":378:491   */\n    tag_458:\n        /* \"#utility.yul\":392:398   */\n      dup4\n        /* \"#utility.yul\":389:390   */\n      dup2\n        /* \"#utility.yul\":386:399   */\n      lt\n        /* \"#utility.yul\":378:491   */\n      iszero\n      tag_460\n      jumpi\n        /* \"#utility.yul\":477:478   */\n      dup1\n        /* \"#utility.yul\":472:475   */\n      dup3\n        /* \"#utility.yul\":468:479   */\n      add\n        /* \"#utility.yul\":462:480   */\n      mload\n        /* \"#utility.yul\":458:459   */\n      dup2\n        /* \"#utility.yul\":453:456   */\n      dup5\n        /* \"#utility.yul\":449:460   */\n      add\n        /* \"#utility.yul\":442:481   */\n      mstore\n        /* \"#utility.yul\":414:416   */\n      0x20\n        /* \"#utility.yul\":411:412   */\n      dup2\n        /* \"#utility.yul\":407:417   */\n      add\n        /* \"#utility.yul\":402:417   */\n      swap1\n      pop\n        /* \"#utility.yul\":378:491   */\n      jump(tag_458)\n    tag_460:\n        /* \"#utility.yul\":525:526   */\n      0x00\n        /* \"#utility.yul\":516:522   */\n      dup5\n        /* \"#utility.yul\":511:514   */\n      dup5\n        /* \"#utility.yul\":507:523   */\n      add\n        /* \"#utility.yul\":500:527   */\n      mstore\n        /* \"#utility.yul\":349:533   */\n      pop\n        /* \"#utility.yul\":287:533   */\n      pop\n      pop\n      pop\n      jump\t// out\n        /* \"#utility.yul\":539:641   */\n    tag_391:\n        /* \"#utility.yul\":580:586   */\n      0x00\n        /* \"#utility.yul\":631:633   */\n      0x1f\n        /* \"#utility.yul\":627:634   */\n      not\n        /* \"#utility.yul\":622:624   */\n      0x1f\n        /* \"#utility.yul\":615:620   */\n      dup4\n        /* \"#utility.yul\":611:625   */\n      add\n        /* \"#utility.yul\":607:635   */\n      and\n        /* \"#utility.yul\":597:635   */\n      swap1\n      pop\n        /* \"#utility.yul\":539:641   */\n      swap2\n      swap1\n      pop\n      jump\t// out\n        /* \"#utility.yul\":647:1024   */\n    tag_392:\n        /* \"#utility.yul\":735:738   */\n      0x00\n        /* \"#utility.yul\":763:802   */\n      tag_463\n        /* \"#utility.yul\":796:801   */\n      dup3\n        /* \"#utility.yul\":763:802   */\n      tag_388\n      jump\t// in\n    tag_463:\n        /* \"#utility.yul\":818:889   */\n      tag_464\n        /* \"#utility.yul\":882:888   */\n      dup2\n        /* \"#utility.yul\":877:880   */\n      dup6\n        /* \"#utility.yul\":818:889   */\n      tag_389\n      jump\t// in\n    tag_464:\n        /* \"#utility.yul\":811:889   */\n      swap4\n      pop\n        /* \"#utility.yul\":898:963   */\n      tag_465\n        /* \"#utility.yul\":956:962   */\n      dup2\n        /* \"#utility.yul\":951:954   */\n      dup6\n        /* \"#utility.yul\":944:948   */\n      0x20\n        /* \"#utility.yul\":937:942   */\n      dup7\n        /* \"#utility.yul\":933:949   */\n      add\n        /* \"#utility.yul\":898:963   */\n      tag_390\n      jump\t// in\n    tag_465:\n        /* \"#utility.yul\":988:1017   */\n      tag_466\n        /* \"#utility.yul\":1010:1016   */\n      dup2\n        /* \"#utility.yul\":988:1017   */\n      tag_391\n      jump\t// in\n    tag_466:\n        /* \"#utility.yul\":983:986   */\n      dup5\n        /* \"#utility.yul\":979:1018   */\n      add\n        /* \"#utility.yul\":972:1018   */\n      swap2\n      pop\n        /* \"#utility.yul\":739:1024   */\n      pop\n        /* \"#utility.yul\":647:1024   */\n      swap3\n      swap2\n      pop\n      pop\n      jump\t// out\n        /* \"#utility.yul\":1030:1343   */\n    tag_33:\n        /* \"#utility.yul\":1143:1147   */\n      0x00\n        /* \"#utility.yul\":1181:1183   */\n      0x20\n        /* \"#utility.yul\":1170:1179   */\n      dup3\n        /* \"#utility.yul\":1166:1184   */\n      add\n        /* \"#utility.yul\":1158:1184   */\n      swap1\n      pop\n        /* \"#utility.yul\":1230:1239   */\n      dup2\n        /* \"#utility.yul\":1224:1228   */\n      dup2\n        /* \"#utility.yul\":1220:1240   */\n      sub\n        /* \"#utility.yul\":1216:1217   */\n      0x00\n        /* \"#utility.yul\":1205:1214   */\n      dup4\n        /* \"#utility.yul\":1201:1218   */\n      add\n        /* \"#utility.yul\":1194:1241   */\n      mstore\n        /* \"#utility.yul\":1258:1336   */\n      tag_468\n        /* \"#utility.yul\":1331:1335   */\n      dup2\n        /* \"#utility.yul\":1322:1328   */\n      dup5\n        /* \"#utility.yul\":1258:1336   */\n      tag_392\n      jump\t// in\n    tag_468:\n        /* \"#utility.yul\":1250:1336   */\n      swap1\n      pop\n        /* \"#utility.yul\":1030:1343   */\n      swap3\n      swap2\n      pop\n      pop\n      jump\t// out\n        /* \"#utility.yul\":1430:1547   */\n    tag_394:\n        /* \"#utility.yul\":1539:1540   */\n      0x00\n        /* \"#utility.yul\":1536:1537   */\n      dup1\n        /* \"#utility.yul\":1529:1541   */\n      revert\n        /* \"#utility.yul\":1676:1802   */\n    tag_396:\n        /* \"#utility.yul\":1713:1720   */\n      0x00\n        /* \"#utility.yul\":1753:1795   */\n      0xffffffffffffffffffffffffffffffffffffffff\n        /* \"#utility.yul\":1746:1751   */\n      dup3\n        /* \"#utility.yul\":1742:1796   */\n      and\n        /* \"#utility.yul\":1731:1796   */\n      swap1\n      pop\n        /* \"#utility.yul\":1676:1802   */\n      swap2\n      swap1\n      pop\n      jump\t// out\n        /* \"#utility.yul\":1808:1904   */\n    tag_397:\n        /* \"#utility.yul\":1845:1852   */\n      0x00\n        /* \"#utility.yul\":1874:1898   */\n      tag_474\n        /* \"#utility.yul\":1892:1897   */\n      dup3\n        /* \"#utility.yul\":1874:1898   */\n      tag_396\n      jump\t// in\n    tag_474:\n        /* \"#utility.yul\":1863:1898   */\n      swap1\n      pop\n        /* \"#utility.yul\":1808:1904   */\n      swap2\n      swap1\n      pop\n      jump\t// out\n        /* \"#utility.yul\":1910:2032   */\n    tag_398:\n        /* \"#utility.yul\":1983:2007   */\n      tag_476\n        /* \"#utility.yul\":2001:2006   */\n      dup2\n        /* \"#utility.yul\":1983:2007   */\n      tag_397\n      jump\t// in\n    tag_476:\n        /* \"#utility.yul\":1976:1981   */\n      dup2\n        /* \"#utility.yul\":1973:2008   */\n      eq\n        /* \"#utility.yul\":1963:2026   */\n      tag_477\n      jumpi\n        /* \"#utility.yul\":2022:2023   */\n      0x00\n        /* \"#utility.yul\":2019:2020   */\n      dup1\n        /* \"#utility.yul\":2012:2024   */\n      revert\n        /* \"#utility.yul\":1963:2026   */\n    tag_477:\n        /* \"#utility.yul\":1910:2032   */\n      pop\n      jump\t// out\n        /* \"#utility.yul\":2038:2177   */\n    tag_399:\n        /* \"#utility.yul\":2084:2089   */\n      0x00\n        /* \"#utility.yul\":2122:2128   */\n      dup2\n        /* \"#utility.yul\":2109:2129   */\n      calldataload\n        /* \"#utility.yul\":2100:2129   */\n      swap1\n      pop\n        /* \"#utility.yul\":2138:2171   */\n      tag_479\n        /* \"#utility.yul\":2165:2170   */\n      dup2\n        /* \"#utility.yul\":2138:2171   */\n      tag_398\n      jump\t// in\n    tag_479:\n        /* \"#utility.yul\":2038:2177   */\n      swap3\n      swap2\n      pop\n      pop\n      jump\t// out\n        /* \"#utility.yul\":2183:2260   */\n    tag_400:\n        /* \"#utility.yul\":2220:2227   */\n      0x00\n        /* \"#utility.yul\":2249:2254   */\n      dup2\n        /* \"#utility.yul\":2238:2254   */\n      swap1\n      pop\n        /* \"#utility.yul\":2183:2260   */\n      swap2\n      swap1\n      pop\n      jump\t// out\n        /* \"#utility.yul\":2266:2388   */\n    tag_401:\n        /* \"#utility.yul\":2339:2363   */\n      tag_482\n        /* \"#utility.yul\":2357:2362   */\n      dup2\n        /* \"#utility.yul\":2339:2363   */\n      tag_400\n      jump\t// in\n    tag_482:\n        /* \"#utility.yul\":2332:2337   */\n      dup2\n        /* \"#utility.yul\":2329:2364   */\n      eq\n        /* \"#utility.yul\":2319:2382   */\n      tag_483\n      jumpi\n        /* \"#utility.yul\":2378:2379   */\n      0x00\n        /* \"#utility.yul\":2375:2376   */\n      dup1\n        /* \"#utility.yul\":2368:2380   */\n      revert\n        /* \"#utility.yul\":2319:2382   */\n    tag_483:\n        /* \"#utility.yul\":2266:2388   */\n      pop\n      jump\t// out\n        /* \"#utility.yul\":2394:2533   */\n    tag_402:\n        /* \"#utility.yul\":2440:2445   */\n      0x00\n        /* \"#utility.yul\":2478:2484   */\n      dup2\n        /* \"#utility.yul\":2465:2485   */\n      calldataload\n        /* \"#utility.yul\":2456:2485   */\n      swap1\n      pop\n        /* \"#utility.yul\":2494:2527   */\n      tag_485\n        /* \"#utility.yul\":2521:2526   */\n      dup2\n        /* \"#utility.yul\":2494:2527   */\n      tag_401\n      jump\t// in\n    tag_485:\n        /* \"#utility.yul\":2394:2533   */\n      swap3\n      swap2\n      pop\n      pop\n      jump\t// out\n        /* \"#utility.yul\":2539:3013   */\n    tag_36:\n        /* \"#utility.yul\":2607:2613   */\n      0x00\n        /* \"#utility.yul\":2615:2621   */\n      dup1\n        /* \"#utility.yul\":2664:2666   */\n      0x40\n        /* \"#utility.yul\":2652:2661   */\n      dup4\n        /* \"#utility.yul\":2643:2650   */\n      dup6\n        /* \"#utility.yul\":2639:2662   */\n      sub\n        /* \"#utility.yul\":2635:2667   */\n      slt\n        /* \"#utility.yul\":2632:2751   */\n      iszero\n      tag_487\n      jumpi\n        /* \"#utility.yul\":2670:2749   */\n      tag_488\n      tag_394\n      jump\t// in\n    tag_488:\n        /* \"#utility.yul\":2632:2751   */\n    tag_487:\n        /* \"#utility.yul\":2790:2791   */\n      0x00\n        /* \"#utility.yul\":2815:2868   */\n      tag_489\n        /* \"#utility.yul\":2860:2867   */\n      dup6\n        /* \"#utility.yul\":2851:2857   */\n      dup3\n        /* \"#utility.yul\":2840:2849   */\n      dup7\n        /* \"#utility.yul\":2836:2858   */\n      add\n        /* \"#utility.yul\":2815:2868   */\n      tag_399\n      jump\t// in\n    tag_489:\n        /* \"#utility.yul\":2805:2868   */\n      swap3\n      pop\n        /* \"#utility.yul\":2761:2878   */\n      pop\n        /* \"#utility.yul\":2917:2919   */\n      0x20\n        /* \"#utility.yul\":2943:2996   */\n      tag_490\n        /* \"#utility.yul\":2988:2995   */\n      dup6\n        /* \"#utility.yul\":2979:2985   */\n      dup3\n        /* \"#utility.yul\":2968:2977   */\n      dup7\n        /* \"#utility.yul\":2964:2986   */\n      add\n        /* \"#utility.yul\":2943:2996   */\n      tag_402\n      jump\t// in\n    tag_490:\n        /* \"#utility.yul\":2933:2996   */\n      swap2\n      pop\n        /* \"#utility.yul\":2888:3006   */\n      pop\n        /* \"#utility.yul\":2539:3013   */\n      swap3\n      pop\n      swap3\n      swap1\n      pop\n      jump\t// out\n        /* \"#utility.yul\":3019:3109   */\n    tag_403:\n        /* \"#utility.yul\":3053:3060   */\n      0x00\n        /* \"#utility.yul\":3096:3101   */\n      dup2\n        /* \"#utility.yul\":3089:3102   */\n      iszero\n        /* \"#utility.yul\":3082:3103   */\n      iszero\n        /* \"#utility.yul\":3071:3103   */\n      swap1\n      pop\n        /* \"#utility.yul\":3019:3109   */\n      swap2\n      swap1\n      pop\n      jump\t// out\n        /* \"#utility.yul\":3115:3224   */\n    tag_404:\n        /* \"#utility.yul\":3196:3217   */\n      tag_493\n        /* \"#utility.yul\":3211:3216   */\n      dup2\n        /* \"#utility.yul\":3196:3217   */\n      tag_403\n      jump\t// in\n    tag_493:\n        /* \"#utility.yul\":3191:3194   */\n      dup3\n        /* \"#utility.yul\":3184:3218   */\n      mstore\n        /* \"#utility.yul\":3115:3224   */\n      pop\n      pop\n      jump\t// out\n        /* \"#utility.yul\":3230:3440   */\n    tag_39:\n        /* \"#utility.yul\":3317:3321   */\n      0x00\n        /* \"#utility.yul\":3355:3357   */\n      0x20\n        /* \"#utility.yul\":3344:3353   */\n      dup3\n        /* \"#utility.yul\":3340:3358   */\n      add\n        /* \"#utility.yul\":3332:3358   */\n      swap1\n      pop\n        /* \"#utility.yul\":3368:3433   */\n      tag_495\n        /* \"#utility.yul\":3430:3431   */\n      0x00\n        /* \"#utility.yul\":3419:3428   */\n      dup4\n        /* \"#utility.yul\":3415:3432   */\n      add\n        /* \"#utility.yul\":3406:3412   */\n      dup5\n        /* \"#utility.yul\":3368:3433   */\n      tag_404\n      jump\t// in\n    tag_495:\n        /* \"#utility.yul\":3230:3440   */\n      swap3\n      swap2\n      pop\n      pop\n      jump\t// out\n        /* \"#utility.yul\":3446:3564   */\n    tag_405:\n        /* \"#utility.yul\":3533:3557   */\n      tag_497\n        /* \"#utility.yul\":3551:3556   */\n      dup2\n        /* \"#utility.yul\":3533:3557   */\n      tag_400\n      jump\t// in\n    tag_497:\n        /* \"#utility.yul\":3528:3531   */\n      dup3\n        /* \"#utility.yul\":3521:3558   */\n      mstore\n        /* \"#utility.yul\":3446:3564   */\n      pop\n      pop\n      jump\t// out\n        /* \"#utility.yul\":3570:3792   */\n    tag_43:\n        /* \"#utility.yul\":3663:3667   */\n      0x00\n        /* \"#utility.yul\":3701:3703   */\n      0x20\n        /* \"#utility.yul\":3690:3699   */\n      dup3\n        /* \"#utility.yul\":3686:3704   */\n      add\n        /* \"#utility.yul\":3678:3704   */\n      swap1\n      pop\n        /* \"#utility.yul\":3714:3785   */\n      tag_499\n        /* \"#utility.yul\":3782:3783   */\n      0x00\n        /* \"#utility.yul\":3771:3780   */\n      dup4\n        /* \"#utility.yul\":3767:3784   */\n      add\n        /* \"#utility.yul\":3758:3764   */\n      dup5\n        /* \"#utility.yul\":3714:3785   */\n      tag_405\n      jump\t// in\n    tag_499:\n        /* \"#utility.yul\":3570:3792   */\n      swap3\n      swap2\n      pop\n      pop\n      jump\t// out\n        /* \"#utility.yul\":3798:4417   */\n    tag_46:\n        /* \"#utility.yul\":3875:3881   */\n      0x00\n        /* \"#utility.yul\":3883:3889   */\n      dup1\n        /* \"#utility.yul\":3891:3897   */\n      0x00\n        /* \"#utility.yul\":3940:3942   */\n      0x60\n        /* \"#utility.yul\":3928:3937   */\n      dup5\n        /* \"#utility.yul\":3919:3926   */\n      dup7\n        /* \"#utility.yul\":3915:3938   */\n      sub\n        /* \"#utility.yul\":3911:3943   */\n      slt\n        /* \"#utility.yul\":3908:4027   */\n      iszero\n      tag_501\n      jumpi\n        /* \"#utility.yul\":3946:4025   */\n      tag_502\n      tag_394\n      jump\t// in\n    tag_502:\n        /* \"#utility.yul\":3908:4027   */\n    tag_501:\n        /* \"#utility.yul\":4066:4067   */\n      0x00\n        /* \"#utility.yul\":4091:4144   */\n      tag_503\n        /* \"#utility.yul\":4136:4143   */\n      dup7\n        /* \"#utility.yul\":4127:4133   */\n      dup3\n        /* \"#utility.yul\":4116:4125   */\n      dup8\n        /* \"#utility.yul\":4112:4134   */\n      add\n        /* \"#utility.yul\":4091:4144   */\n      tag_399\n      jump\t// in\n    tag_503:\n        /* \"#utility.yul\":4081:4144   */\n      swap4\n      pop\n        /* \"#utility.yul\":4037:4154   */\n      pop\n        /* \"#utility.yul\":4193:4195   */\n      0x20\n        /* \"#utility.yul\":4219:4272   */\n      tag_504\n        /* \"#utility.yul\":4264:4271   */\n      dup7\n        /* \"#utility.yul\":4255:4261   */\n      dup3\n        /* \"#utility.yul\":4244:4253   */\n      dup8\n        /* \"#utility.yul\":4240:4262   */\n      add\n        /* \"#utility.yul\":4219:4272   */\n      tag_399\n      jump\t// in\n    tag_504:\n        /* \"#utility.yul\":4209:4272   */\n      swap3\n      pop\n        /* \"#utility.yul\":4164:4282   */\n      pop\n        /* \"#utility.yul\":4321:4323   */\n      0x40\n        /* \"#utility.yul\":4347:4400   */\n      tag_505\n        /* \"#utility.yul\":4392:4399   */\n      dup7\n        /* \"#utility.yul\":4383:4389   */\n      dup3\n        /* \"#utility.yul\":4372:4381   */\n      dup8\n        /* \"#utility.yul\":4368:4390   */\n      add\n        /* \"#utility.yul\":4347:4400   */\n      tag_402\n      jump\t// in\n    tag_505:\n        /* \"#utility.yul\":4337:4400   */\n      swap2\n      pop\n        /* \"#utility.yul\":4292:4410   */\n      pop\n        /* \"#utility.yul\":3798:4417   */\n      swap3\n      pop\n      swap3\n      pop\n      swap3\n      jump\t// out\n        /* \"#utility.yul\":4423:4509   */\n    tag_406:\n        /* \"#utility.yul\":4458:4465   */\n      0x00\n        /* \"#utility.yul\":4498:4502   */\n      0xff\n        /* \"#utility.yul\":4491:4496   */\n      dup3\n        /* \"#utility.yul\":4487:4503   */\n      and\n        /* \"#utility.yul\":4476:4503   */\n      swap1\n      pop\n        /* \"#utility.yul\":4423:4509   */\n      swap2\n      swap1\n      pop\n      jump\t// out\n        /* \"#utility.yul\":4515:4627   */\n    tag_407:\n        /* \"#utility.yul\":4598:4620   */\n      tag_508\n        /* \"#utility.yul\":4614:4619   */\n      dup2\n        /* \"#utility.yul\":4598:4620   */\n      tag_406\n      jump\t// in\n    tag_508:\n        /* \"#utility.yul\":4593:4596   */\n      dup3\n        /* \"#utility.yul\":4586:4621   */\n      mstore\n        /* \"#utility.yul\":4515:4627   */\n      pop\n      pop\n      jump\t// out\n        /* \"#utility.yul\":4633:4847   */\n    tag_52:\n        /* \"#utility.yul\":4722:4726   */\n      0x00\n        /* \"#utility.yul\":4760:4762   */\n      0x20\n        /* \"#utility.yul\":4749:4758   */\n      dup3\n        /* \"#utility.yul\":4745:4763   */\n      add\n        /* \"#utility.yul\":4737:4763   */\n      swap1\n      pop\n        /* \"#utility.yul\":4773:4840   */\n      tag_510\n        /* \"#utility.yul\":4837:4838   */\n      0x00\n        /* \"#utility.yul\":4826:4835   */\n      dup4\n        /* \"#utility.yul\":4822:4839   */\n      add\n        /* \"#utility.yul\":4813:4819   */\n      dup5\n        /* \"#utility.yul\":4773:4840   */\n      tag_407\n      jump\t// in\n    tag_510:\n        /* \"#utility.yul\":4633:4847   */\n      swap3\n      swap2\n      pop\n      pop\n      jump\t// out\n        /* \"#utility.yul\":4853:5182   */\n    tag_66:\n        /* \"#utility.yul\":4912:4918   */\n      0x00\n        /* \"#utility.yul\":4961:4963   */\n      0x20\n        /* \"#utility.yul\":4949:4958   */\n      dup3\n        /* \"#utility.yul\":4940:4947   */\n      dup5\n        /* \"#utility.yul\":4936:4959   */\n      sub\n        /* \"#utility.yul\":4932:4964   */\n      slt\n        /* \"#utility.yul\":4929:5048   */\n      iszero\n      tag_512\n      jumpi\n        /* \"#utility.yul\":4967:5046   */\n      tag_513\n      tag_394\n      jump\t// in\n    tag_513:\n        /* \"#utility.yul\":4929:5048   */\n    tag_512:\n        /* \"#utility.yul\":5087:5088   */\n      0x00\n        /* \"#utility.yul\":5112:5165   */\n      tag_514\n        /* \"#utility.yul\":5157:5164   */\n      dup5\n        /* \"#utility.yul\":5148:5154   */\n      dup3\n        /* \"#utility.yul\":5137:5146   */\n      dup6\n        /* \"#utility.yul\":5133:5155   */\n      add\n        /* \"#utility.yul\":5112:5165   */\n      tag_399\n      jump\t// in\n    tag_514:\n        /* \"#utility.yul\":5102:5165   */\n      swap2\n      pop\n        /* \"#utility.yul\":5058:5175   */\n      pop\n        /* \"#utility.yul\":4853:5182   */\n      swap3\n      swap2\n      pop\n      pop\n      jump\t// out\n        /* \"#utility.yul\":5188:5517   */\n    tag_75:\n        /* \"#utility.yul\":5247:5253   */\n      0x00\n        /* \"#utility.yul\":5296:5298   */\n      0x20\n        /* \"#utility.yul\":5284:5293   */\n      dup3\n        /* \"#utility.yul\":5275:5282   */\n      dup5\n        /* \"#utility.yul\":5271:5294   */\n      sub\n        /* \"#utility.yul\":5267:5299   */\n      slt\n        /* \"#utility.yul\":5264:5383   */\n      iszero\n      tag_516\n      jumpi\n        /* \"#utility.yul\":5302:5381   */\n      tag_517\n      tag_394\n      jump\t// in\n    tag_517:\n        /* \"#utility.yul\":5264:5383   */\n    tag_516:\n        /* \"#utility.yul\":5422:5423   */\n      0x00\n        /* \"#utility.yul\":5447:5500   */\n      tag_518\n        /* \"#utility.yul\":5492:5499   */\n      dup5\n        /* \"#utility.yul\":5483:5489   */\n      dup3\n        /* \"#utility.yul\":5472:5481   */\n      dup6\n        /* \"#utility.yul\":5468:5490   */\n      add\n        /* \"#utility.yul\":5447:5500   */\n      tag_402\n      jump\t// in\n    tag_518:\n        /* \"#utility.yul\":5437:5500   */\n      swap2\n      pop\n        /* \"#utility.yul\":5393:5510   */\n      pop\n        /* \"#utility.yul\":5188:5517   */\n      swap3\n      swap2\n      pop\n      pop\n      jump\t// out\n        /* \"#utility.yul\":5523:5641   */\n    tag_408:\n        /* \"#utility.yul\":5610:5634   */\n      tag_520\n        /* \"#utility.yul\":5628:5633   */\n      dup2\n        /* \"#utility.yul\":5610:5634   */\n      tag_397\n      jump\t// in\n    tag_520:\n        /* \"#utility.yul\":5605:5608   */\n      dup3\n        /* \"#utility.yul\":5598:5635   */\n      mstore\n        /* \"#utility.yul\":5523:5641   */\n      pop\n      pop\n      jump\t// out\n        /* \"#utility.yul\":5647:5869   */\n    tag_81:\n        /* \"#utility.yul\":5740:5744   */\n      0x00\n        /* \"#utility.yul\":5778:5780   */\n      0x20\n        /* \"#utility.yul\":5767:5776   */\n      dup3\n        /* \"#utility.yul\":5763:5781   */\n      add\n        /* \"#utility.yul\":5755:5781   */\n      swap1\n      pop\n        /* \"#utility.yul\":5791:5862   */\n      tag_522\n        /* \"#utility.yul\":5859:5860   */\n      0x00\n        /* \"#utility.yul\":5848:5857   */\n      dup4\n        /* \"#utility.yul\":5844:5861   */\n      add\n        /* \"#utility.yul\":5835:5841   */\n      dup5\n        /* \"#utility.yul\":5791:5862   */\n      tag_408\n      jump\t// in\n    tag_522:\n        /* \"#utility.yul\":5647:5869   */\n      swap3\n      swap2\n      pop\n      pop\n      jump\t// out\n        /* \"#utility.yul\":5875:6349   */\n    tag_109:\n        /* \"#utility.yul\":5943:5949   */\n      0x00\n        /* \"#utility.yul\":5951:5957   */\n      dup1\n        /* \"#utility.yul\":6000:6002   */\n      0x40\n        /* \"#utility.yul\":5988:5997   */\n      dup4\n        /* \"#utility.yul\":5979:5986   */\n      dup6\n        /* \"#utility.yul\":5975:5998   */\n      sub\n        /* \"#utility.yul\":5971:6003   */\n      slt\n        /* \"#utility.yul\":5968:6087   */\n      iszero\n      tag_524\n      jumpi\n        /* \"#utility.yul\":6006:6085   */\n      tag_525\n      tag_394\n      jump\t// in\n    tag_525:\n        /* \"#utility.yul\":5968:6087   */\n    tag_524:\n        /* \"#utility.yul\":6126:6127   */\n      0x00\n        /* \"#utility.yul\":6151:6204   */\n      tag_526\n        /* \"#utility.yul\":6196:6203   */\n      dup6\n        /* \"#utility.yul\":6187:6193   */\n      dup3\n        /* \"#utility.yul\":6176:6185   */\n      dup7\n        /* \"#utility.yul\":6172:6194   */\n      add\n        /* \"#utility.yul\":6151:6204   */\n      tag_399\n      jump\t// in\n    tag_526:\n        /* \"#utility.yul\":6141:6204   */\n      swap3\n      pop\n        /* \"#utility.yul\":6097:6214   */\n      pop\n        /* \"#utility.yul\":6253:6255   */\n      0x20\n        /* \"#utility.yul\":6279:6332   */\n      tag_527\n        /* \"#utility.yul\":6324:6331   */\n      dup6\n        /* \"#utility.yul\":6315:6321   */\n      dup3\n        /* \"#utility.yul\":6304:6313   */\n      dup7\n        /* \"#utility.yul\":6300:6322   */\n      add\n        /* \"#utility.yul\":6279:6332   */\n      tag_399\n      jump\t// in\n    tag_527:\n        /* \"#utility.yul\":6269:6332   */\n      swap2\n      pop\n        /* \"#utility.yul\":6224:6342   */\n      pop\n        /* \"#utility.yul\":5875:6349   */\n      swap3\n      pop\n      swap3\n      swap1\n      pop\n      jump\t// out\n        /* \"#utility.yul\":6355:6463   */\n    tag_409:\n        /* \"#utility.yul\":6432:6456   */\n      tag_529\n        /* \"#utility.yul\":6450:6455   */\n      dup2\n        /* \"#utility.yul\":6432:6456   */\n      tag_400\n      jump\t// in\n    tag_529:\n        /* \"#utility.yul\":6427:6430   */\n      dup3\n        /* \"#utility.yul\":6420:6457   */\n      mstore\n        /* \"#utility.yul\":6355:6463   */\n      pop\n      pop\n      jump\t// out\n        /* \"#utility.yul\":6469:6605   */\n    tag_410:\n        /* \"#utility.yul\":6558:6564   */\n      0x00\n        /* \"#utility.yul\":6592:6597   */\n      dup2\n        /* \"#utility.yul\":6586:6598   */\n      mload\n        /* \"#utility.yul\":6576:6598   */\n      swap1\n      pop\n        /* \"#utility.yul\":6469:6605   */\n      swap2\n      swap1\n      pop\n      jump\t// out\n        /* \"#utility.yul\":6611:6807   */\n    tag_411:\n        /* \"#utility.yul\":6722:6733   */\n      0x00\n        /* \"#utility.yul\":6756:6762   */\n      dup3\n        /* \"#utility.yul\":6751:6754   */\n      dup3\n        /* \"#utility.yul\":6744:6763   */\n      mstore\n        /* \"#utility.yul\":6796:6800   */\n      0x20\n        /* \"#utility.yul\":6791:6794   */\n      dup3\n        /* \"#utility.yul\":6787:6801   */\n      add\n        /* \"#utility.yul\":6772:6801   */\n      swap1\n      pop\n        /* \"#utility.yul\":6611:6807   */\n      swap3\n      swap2\n      pop\n      pop\n      jump\t// out\n        /* \"#utility.yul\":6813:6967   */\n    tag_412:\n        /* \"#utility.yul\":6902:6906   */\n      0x00\n        /* \"#utility.yul\":6925:6928   */\n      dup2\n        /* \"#utility.yul\":6917:6928   */\n      swap1\n      pop\n        /* \"#utility.yul\":6955:6959   */\n      0x20\n        /* \"#utility.yul\":6950:6953   */\n      dup3\n        /* \"#utility.yul\":6946:6960   */\n      add\n        /* \"#utility.yul\":6938:6960   */\n      swap1\n      pop\n        /* \"#utility.yul\":6813:6967   */\n      swap2\n      swap1\n      pop\n      jump\t// out\n        /* \"#utility.yul\":6973:7081   */\n    tag_413:\n        /* \"#utility.yul\":7050:7074   */\n      tag_534\n        /* \"#utility.yul\":7068:7073   */\n      dup2\n        /* \"#utility.yul\":7050:7074   */\n      tag_397\n      jump\t// in\n    tag_534:\n        /* \"#utility.yul\":7045:7048   */\n      dup3\n        /* \"#utility.yul\":7038:7075   */\n      mstore\n        /* \"#utility.yul\":6973:7081   */\n      pop\n      pop\n      jump\t// out\n        /* \"#utility.yul\":7143:7990   */\n    tag_414:\n        /* \"#utility.yul\":7274:7278   */\n      0x80\n        /* \"#utility.yul\":7269:7272   */\n      dup3\n        /* \"#utility.yul\":7265:7279   */\n      add\n        /* \"#utility.yul\":7361:7365   */\n      0x00\n        /* \"#utility.yul\":7354:7359   */\n      dup3\n        /* \"#utility.yul\":7350:7366   */\n      add\n        /* \"#utility.yul\":7344:7367   */\n      mload\n        /* \"#utility.yul\":7380:7443   */\n      tag_536\n        /* \"#utility.yul\":7437:7441   */\n      0x00\n        /* \"#utility.yul\":7432:7435   */\n      dup6\n        /* \"#utility.yul\":7428:7442   */\n      add\n        /* \"#utility.yul\":7414:7426   */\n      dup3\n        /* \"#utility.yul\":7380:7443   */\n      tag_413\n      jump\t// in\n    tag_536:\n        /* \"#utility.yul\":7289:7453   */\n      pop\n        /* \"#utility.yul\":7537:7541   */\n      0x20\n        /* \"#utility.yul\":7530:7535   */\n      dup3\n        /* \"#utility.yul\":7526:7542   */\n      add\n        /* \"#utility.yul\":7520:7543   */\n      mload\n        /* \"#utility.yul\":7556:7619   */\n      tag_537\n        /* \"#utility.yul\":7613:7617   */\n      0x20\n        /* \"#utility.yul\":7608:7611   */\n      dup6\n        /* \"#utility.yul\":7604:7618   */\n      add\n        /* \"#utility.yul\":7590:7602   */\n      dup3\n        /* \"#utility.yul\":7556:7619   */\n      tag_409\n      jump\t// in\n    tag_537:\n        /* \"#utility.yul\":7463:7629   */\n      pop\n        /* \"#utility.yul\":7712:7716   */\n      0x40\n        /* \"#utility.yul\":7705:7710   */\n      dup3\n        /* \"#utility.yul\":7701:7717   */\n      add\n        /* \"#utility.yul\":7695:7718   */\n      mload\n        /* \"#utility.yul\":7731:7794   */\n      tag_538\n        /* \"#utility.yul\":7788:7792   */\n      0x40\n        /* \"#utility.yul\":7783:7786   */\n      dup6\n        /* \"#utility.yul\":7779:7793   */\n      add\n        /* \"#utility.yul\":7765:7777   */\n      dup3\n        /* \"#utility.yul\":7731:7794   */\n      tag_409\n      jump\t// in\n    tag_538:\n        /* \"#utility.yul\":7639:7804   */\n      pop\n        /* \"#utility.yul\":7891:7895   */\n      0x60\n        /* \"#utility.yul\":7884:7889   */\n      dup3\n        /* \"#utility.yul\":7880:7896   */\n      add\n        /* \"#utility.yul\":7874:7897   */\n      mload\n        /* \"#utility.yul\":7910:7973   */\n      tag_539\n        /* \"#utility.yul\":7967:7971   */\n      0x60\n        /* \"#utility.yul\":7962:7965   */\n      dup6\n        /* \"#utility.yul\":7958:7972   */\n      add\n        /* \"#utility.yul\":7944:7956   */\n      dup3\n        /* \"#utility.yul\":7910:7973   */\n      tag_409\n      jump\t// in\n    tag_539:\n        /* \"#utility.yul\":7814:7983   */\n      pop\n        /* \"#utility.yul\":7243:7990   */\n      pop\n        /* \"#utility.yul\":7143:7990   */\n      pop\n      pop\n      jump\t// out\n        /* \"#utility.yul\":7996:8263   */\n    tag_415:\n        /* \"#utility.yul\":8109:8119   */\n      0x00\n        /* \"#utility.yul\":8130:8220   */\n      tag_541\n        /* \"#utility.yul\":8216:8219   */\n      dup4\n        /* \"#utility.yul\":8208:8214   */\n      dup4\n        /* \"#utility.yul\":8130:8220   */\n      tag_414\n      jump\t// in\n    tag_541:\n        /* \"#utility.yul\":8252:8256   */\n      0x80\n        /* \"#utility.yul\":8247:8250   */\n      dup4\n        /* \"#utility.yul\":8243:8257   */\n      add\n        /* \"#utility.yul\":8229:8257   */\n      swap1\n      pop\n        /* \"#utility.yul\":7996:8263   */\n      swap3\n      swap2\n      pop\n      pop\n      jump\t// out\n        /* \"#utility.yul\":8269:8404   */\n    tag_416:\n        /* \"#utility.yul\":8361:8365   */\n      0x00\n        /* \"#utility.yul\":8393:8397   */\n      0x20\n        /* \"#utility.yul\":8388:8391   */\n      dup3\n        /* \"#utility.yul\":8384:8398   */\n      add\n        /* \"#utility.yul\":8376:8398   */\n      swap1\n      pop\n        /* \"#utility.yul\":8269:8404   */\n      swap2\n      swap1\n      pop\n      jump\t// out\n        /* \"#utility.yul\":8470:9358   */\n    tag_417:\n        /* \"#utility.yul\":8623:8626   */\n      0x00\n        /* \"#utility.yul\":8652:8728   */\n      tag_544\n        /* \"#utility.yul\":8722:8727   */\n      dup3\n        /* \"#utility.yul\":8652:8728   */\n      tag_410\n      jump\t// in\n    tag_544:\n        /* \"#utility.yul\":8744:8842   */\n      tag_545\n        /* \"#utility.yul\":8835:8841   */\n      dup2\n        /* \"#utility.yul\":8830:8833   */\n      dup6\n        /* \"#utility.yul\":8744:8842   */\n      tag_411\n      jump\t// in\n    tag_545:\n        /* \"#utility.yul\":8737:8842   */\n      swap4\n      pop\n        /* \"#utility.yul\":8866:8944   */\n      tag_546\n        /* \"#utility.yul\":8938:8943   */\n      dup4\n        /* \"#utility.yul\":8866:8944   */\n      tag_412\n      jump\t// in\n    tag_546:\n        /* \"#utility.yul\":8967:8974   */\n      dup1\n        /* \"#utility.yul\":8998:8999   */\n      0x00\n        /* \"#utility.yul\":8983:9333   */\n    tag_547:\n        /* \"#utility.yul\":9008:9014   */\n      dup4\n        /* \"#utility.yul\":9005:9006   */\n      dup2\n        /* \"#utility.yul\":9002:9015   */\n      lt\n        /* \"#utility.yul\":8983:9333   */\n      iszero\n      tag_549\n      jumpi\n        /* \"#utility.yul\":9084:9090   */\n      dup2\n        /* \"#utility.yul\":9078:9091   */\n      mload\n        /* \"#utility.yul\":9111:9218   */\n      tag_550\n        /* \"#utility.yul\":9214:9217   */\n      dup9\n        /* \"#utility.yul\":9199:9212   */\n      dup3\n        /* \"#utility.yul\":9111:9218   */\n      tag_415\n      jump\t// in\n    tag_550:\n        /* \"#utility.yul\":9104:9218   */\n      swap8\n      pop\n        /* \"#utility.yul\":9241:9323   */\n      tag_551\n        /* \"#utility.yul\":9316:9322   */\n      dup4\n        /* \"#utility.yul\":9241:9323   */\n      tag_416\n      jump\t// in\n    tag_551:\n        /* \"#utility.yul\":9231:9323   */\n      swap3\n      pop\n        /* \"#utility.yul\":9043:9333   */\n      pop\n        /* \"#utility.yul\":9030:9031   */\n      0x01\n        /* \"#utility.yul\":9027:9028   */\n      dup2\n        /* \"#utility.yul\":9023:9032   */\n      add\n        /* \"#utility.yul\":9018:9032   */\n      swap1\n      pop\n        /* \"#utility.yul\":8983:9333   */\n      jump(tag_547)\n    tag_549:\n        /* \"#utility.yul\":8987:9001   */\n      pop\n        /* \"#utility.yul\":9349:9352   */\n      dup6\n        /* \"#utility.yul\":9342:9352   */\n      swap4\n      pop\n        /* \"#utility.yul\":8628:9358   */\n      pop\n      pop\n      pop\n        /* \"#utility.yul\":8470:9358   */\n      swap3\n      swap2\n      pop\n      pop\n      jump\t// out\n        /* \"#utility.yul\":9438:10140   */\n    tag_418:\n        /* \"#utility.yul\":9569:9572   */\n      0x00\n        /* \"#utility.yul\":9605:9609   */\n      0x40\n        /* \"#utility.yul\":9600:9603   */\n      dup4\n        /* \"#utility.yul\":9596:9610   */\n      add\n        /* \"#utility.yul\":9700:9704   */\n      0x00\n        /* \"#utility.yul\":9693:9698   */\n      dup4\n        /* \"#utility.yul\":9689:9705   */\n      add\n        /* \"#utility.yul\":9683:9706   */\n      mload\n        /* \"#utility.yul\":9719:9782   */\n      tag_553\n        /* \"#utility.yul\":9776:9780   */\n      0x00\n        /* \"#utility.yul\":9771:9774   */\n      dup7\n        /* \"#utility.yul\":9767:9781   */\n      add\n        /* \"#utility.yul\":9753:9765   */\n      dup3\n        /* \"#utility.yul\":9719:9782   */\n      tag_409\n      jump\t// in\n    tag_553:\n        /* \"#utility.yul\":9620:9792   */\n      pop\n        /* \"#utility.yul\":9876:9880   */\n      0x20\n        /* \"#utility.yul\":9869:9874   */\n      dup4\n        /* \"#utility.yul\":9865:9881   */\n      add\n        /* \"#utility.yul\":9859:9882   */\n      mload\n        /* \"#utility.yul\":9929:9932   */\n      dup5\n        /* \"#utility.yul\":9923:9927   */\n      dup3\n        /* \"#utility.yul\":9919:9933   */\n      sub\n        /* \"#utility.yul\":9912:9916   */\n      0x20\n        /* \"#utility.yul\":9907:9910   */\n      dup7\n        /* \"#utility.yul\":9903:9917   */\n      add\n        /* \"#utility.yul\":9896:9934   */\n      mstore\n        /* \"#utility.yul\":9955:10102   */\n      tag_554\n        /* \"#utility.yul\":10097:10101   */\n      dup3\n        /* \"#utility.yul\":10083:10095   */\n      dup3\n        /* \"#utility.yul\":9955:10102   */\n      tag_417\n      jump\t// in\n    tag_554:\n        /* \"#utility.yul\":9947:10102   */\n      swap2\n      pop\n        /* \"#utility.yul\":9802:10113   */\n      pop\n        /* \"#utility.yul\":10130:10134   */\n      dup1\n        /* \"#utility.yul\":10123:10134   */\n      swap2\n      pop\n        /* \"#utility.yul\":9574:10140   */\n      pop\n        /* \"#utility.yul\":9438:10140   */\n      swap3\n      swap2\n      pop\n      pop\n      jump\t// out\n        /* \"#utility.yul\":10146:10543   */\n    tag_116:\n        /* \"#utility.yul\":10301:10305   */\n      0x00\n        /* \"#utility.yul\":10339:10341   */\n      0x20\n        /* \"#utility.yul\":10328:10337   */\n      dup3\n        /* \"#utility.yul\":10324:10342   */\n      add\n        /* \"#utility.yul\":10316:10342   */\n      swap1\n      pop\n        /* \"#utility.yul\":10388:10397   */\n      dup2\n        /* \"#utility.yul\":10382:10386   */\n      dup2\n        /* \"#utility.yul\":10378:10398   */\n      sub\n        /* \"#utility.yul\":10374:10375   */\n      0x00\n        /* \"#utility.yul\":10363:10372   */\n      dup4\n        /* \"#utility.yul\":10359:10376   */\n      add\n        /* \"#utility.yul\":10352:10399   */\n      mstore\n        /* \"#utility.yul\":10416:10536   */\n      tag_556\n        /* \"#utility.yul\":10531:10535   */\n      dup2\n        /* \"#utility.yul\":10522:10528   */\n      dup5\n        /* \"#utility.yul\":10416:10536   */\n      tag_418\n      jump\t// in\n    tag_556:\n        /* \"#utility.yul\":10408:10536   */\n      swap1\n      pop\n        /* \"#utility.yul\":10146:10543   */\n      swap3\n      swap2\n      pop\n      pop\n      jump\t// out\n        /* \"#utility.yul\":10549:11023   */\n    tag_119:\n        /* \"#utility.yul\":10617:10623   */\n      0x00\n        /* \"#utility.yul\":10625:10631   */\n      dup1\n        /* \"#utility.yul\":10674:10676   */\n      0x40\n        /* \"#utility.yul\":10662:10671   */\n      dup4\n        /* \"#utility.yul\":10653:10660   */\n      dup6\n        /* \"#utility.yul\":10649:10672   */\n      sub\n        /* \"#utility.yul\":10645:10677   */\n      slt\n        /* \"#utility.yul\":10642:10761   */\n      iszero\n      tag_558\n      jumpi\n        /* \"#utility.yul\":10680:10759   */\n      tag_559\n      tag_394\n      jump\t// in\n    tag_559:\n        /* \"#utility.yul\":10642:10761   */\n    tag_558:\n        /* \"#utility.yul\":10800:10801   */\n      0x00\n        /* \"#utility.yul\":10825:10878   */\n      tag_560\n        /* \"#utility.yul\":10870:10877   */\n      dup6\n        /* \"#utility.yul\":10861:10867   */\n      dup3\n        /* \"#utility.yul\":10850:10859   */\n      dup7\n        /* \"#utility.yul\":10846:10868   */\n      add\n        /* \"#utility.yul\":10825:10878   */\n      tag_402\n      jump\t// in\n    tag_560:\n        /* \"#utility.yul\":10815:10878   */\n      swap3\n      pop\n        /* \"#utility.yul\":10771:10888   */\n      pop\n        /* \"#utility.yul\":10927:10929   */\n      0x20\n        /* \"#utility.yul\":10953:11006   */\n      tag_561\n        /* \"#utility.yul\":10998:11005   */\n      dup6\n        /* \"#utility.yul\":10989:10995   */\n      dup3\n        /* \"#utility.yul\":10978:10987   */\n      dup7\n        /* \"#utility.yul\":10974:10996   */\n      add\n        /* \"#utility.yul\":10953:11006   */\n      tag_402\n      jump\t// in\n    tag_561:\n        /* \"#utility.yul\":10943:11006   */\n      swap2\n      pop\n        /* \"#utility.yul\":10898:11016   */\n      pop\n        /* \"#utility.yul\":10549:11023   */\n      swap3\n      pop\n      swap3\n      swap1\n      pop\n      jump\t// out\n        /* \"#utility.yul\":11029:11209   */\n    tag_419:\n        /* \"#utility.yul\":11077:11154   */\n      0x4e487b7100000000000000000000000000000000000000000000000000000000\n        /* \"#utility.yul\":11074:11075   */\n      0x00\n        /* \"#utility.yul\":11067:11155   */\n      mstore\n        /* \"#utility.yul\":11174:11178   */\n      0x22\n        /* \"#utility.yul\":11171:11172   */\n      0x04\n        /* \"#utility.yul\":11164:11179   */\n      mstore\n        /* \"#utility.yul\":11198:11202   */\n      0x24\n        /* \"#utility.yul\":11195:11196   */\n      0x00\n        /* \"#utility.yul\":11188:11203   */\n      revert\n        /* \"#utility.yul\":11215:11535   */\n    tag_126:\n        /* \"#utility.yul\":11259:11265   */\n      0x00\n        /* \"#utility.yul\":11296:11297   */\n      0x02\n        /* \"#utility.yul\":11290:11294   */\n      dup3\n        /* \"#utility.yul\":11286:11298   */\n      div\n        /* \"#utility.yul\":11276:11298   */\n      swap1\n      pop\n        /* \"#utility.yul\":11343:11344   */\n      0x01\n        /* \"#utility.yul\":11337:11341   */\n      dup3\n        /* \"#utility.yul\":11333:11345   */\n      and\n        /* \"#utility.yul\":11364:11382   */\n      dup1\n        /* \"#utility.yul\":11354:11435   */\n      tag_564\n      jumpi\n        /* \"#utility.yul\":11420:11424   */\n      0x7f\n        /* \"#utility.yul\":11412:11418   */\n      dup3\n        /* \"#utility.yul\":11408:11425   */\n      and\n        /* \"#utility.yul\":11398:11425   */\n      swap2\n      pop\n        /* \"#utility.yul\":11354:11435   */\n    tag_564:\n        /* \"#utility.yul\":11482:11484   */\n      0x20\n        /* \"#utility.yul\":11474:11480   */\n      dup3\n        /* \"#utility.yul\":11471:11485   */\n      lt\n        /* \"#utility.yul\":11451:11469   */\n      dup2\n        /* \"#utility.yul\":11448:11486   */\n      sub\n        /* \"#utility.yul\":11445:11529   */\n      tag_565\n      jumpi\n        /* \"#utility.yul\":11501:11519   */\n      tag_566\n      tag_419\n      jump\t// in\n    tag_566:\n        /* \"#utility.yul\":11445:11529   */\n    tag_565:\n        /* \"#utility.yul\":11266:11535   */\n      pop\n        /* \"#utility.yul\":11215:11535   */\n      swap2\n      swap1\n      pop\n      jump\t// out\n        /* \"#utility.yul\":11541:11780   */\n    tag_420:\n        /* \"#utility.yul\":11681:11715   */\n      0x416c6661436f696e3a20596f752063616e6e6f74207370656e64207468617420\n        /* \"#utility.yul\":11677:11678   */\n      0x00\n        /* \"#utility.yul\":11669:11675   */\n      dup3\n        /* \"#utility.yul\":11665:11679   */\n      add\n        /* \"#utility.yul\":11658:11716   */\n      mstore\n        /* \"#utility.yul\":11750:11772   */\n      0x6d756368206f6e2074686973206163636f756e74000000000000000000000000\n        /* \"#utility.yul\":11745:11747   */\n      0x20\n        /* \"#utility.yul\":11737:11743   */\n      dup3\n        /* \"#utility.yul\":11733:11748   */\n      add\n        /* \"#utility.yul\":11726:11773   */\n      mstore\n        /* \"#utility.yul\":11541:11780   */\n      pop\n      jump\t// out\n        /* \"#utility.yul\":11786:12152   */\n    tag_421:\n        /* \"#utility.yul\":11928:11931   */\n      0x00\n        /* \"#utility.yul\":11949:12016   */\n      tag_569\n        /* \"#utility.yul\":12013:12015   */\n      0x34\n        /* \"#utility.yul\":12008:12011   */\n      dup4\n        /* \"#utility.yul\":11949:12016   */\n      tag_389\n      jump\t// in\n    tag_569:\n        /* \"#utility.yul\":11942:12016   */\n      swap2\n      pop\n        /* \"#utility.yul\":12025:12118   */\n      tag_570\n        /* \"#utility.yul\":12114:12117   */\n      dup3\n        /* \"#utility.yul\":12025:12118   */\n      tag_420\n      jump\t// in\n    tag_570:\n        /* \"#utility.yul\":12143:12145   */\n      0x40\n        /* \"#utility.yul\":12138:12141   */\n      dup3\n        /* \"#utility.yul\":12134:12146   */\n      add\n        /* \"#utility.yul\":12127:12146   */\n      swap1\n      pop\n        /* \"#utility.yul\":11786:12152   */\n      swap2\n      swap1\n      pop\n      jump\t// out\n        /* \"#utility.yul\":12158:12577   */\n    tag_138:\n        /* \"#utility.yul\":12324:12328   */\n      0x00\n        /* \"#utility.yul\":12362:12364   */\n      0x20\n        /* \"#utility.yul\":12351:12360   */\n      dup3\n        /* \"#utility.yul\":12347:12365   */\n      add\n        /* \"#utility.yul\":12339:12365   */\n      swap1\n      pop\n        /* \"#utility.yul\":12411:12420   */\n      dup2\n        /* \"#utility.yul\":12405:12409   */\n      dup2\n        /* \"#utility.yul\":12401:12421   */\n      sub\n        /* \"#utility.yul\":12397:12398   */\n      0x00\n        /* \"#utility.yul\":12386:12395   */\n      dup4\n        /* \"#utility.yul\":12382:12399   */\n      add\n        /* \"#utility.yul\":12375:12422   */\n      mstore\n        /* \"#utility.yul\":12439:12570   */\n      tag_572\n        /* \"#utility.yul\":12565:12569   */\n      dup2\n        /* \"#utility.yul\":12439:12570   */\n      tag_421\n      jump\t// in\n    tag_572:\n        /* \"#utility.yul\":12431:12570   */\n      swap1\n      pop\n        /* \"#utility.yul\":12158:12577   */\n      swap2\n      swap1\n      pop\n      jump\t// out\n        /* \"#utility.yul\":12583:12763   */\n    tag_422:\n        /* \"#utility.yul\":12631:12708   */\n      0x4e487b7100000000000000000000000000000000000000000000000000000000\n        /* \"#utility.yul\":12628:12629   */\n      0x00\n        /* \"#utility.yul\":12621:12709   */\n      mstore\n        /* \"#utility.yul\":12728:12732   */\n      0x11\n        /* \"#utility.yul\":12725:12726   */\n      0x04\n        /* \"#utility.yul\":12718:12733   */\n      mstore\n        /* \"#utility.yul\":12752:12756   */\n      0x24\n        /* \"#utility.yul\":12749:12750   */\n      0x00\n        /* \"#utility.yul\":12742:12757   */\n      revert\n        /* \"#utility.yul\":12769:12963   */\n    tag_143:\n        /* \"#utility.yul\":12809:12813   */\n      0x00\n        /* \"#utility.yul\":12829:12849   */\n      tag_575\n        /* \"#utility.yul\":12847:12848   */\n      dup3\n        /* \"#utility.yul\":12829:12849   */\n      tag_400\n      jump\t// in\n    tag_575:\n        /* \"#utility.yul\":12824:12849   */\n      swap2\n      pop\n        /* \"#utility.yul\":12863:12883   */\n      tag_576\n        /* \"#utility.yul\":12881:12882   */\n      dup4\n        /* \"#utility.yul\":12863:12883   */\n      tag_400\n      jump\t// in\n    tag_576:\n        /* \"#utility.yul\":12858:12883   */\n      swap3\n      pop\n        /* \"#utility.yul\":12907:12908   */\n      dup3\n        /* \"#utility.yul\":12904:12905   */\n      dup3\n        /* \"#utility.yul\":12900:12909   */\n      sub\n        /* \"#utility.yul\":12892:12909   */\n      swap1\n      pop\n        /* \"#utility.yul\":12931:12932   */\n      dup2\n        /* \"#utility.yul\":12925:12929   */\n      dup2\n        /* \"#utility.yul\":12922:12933   */\n      gt\n        /* \"#utility.yul\":12919:12956   */\n      iszero\n      tag_577\n      jumpi\n        /* \"#utility.yul\":12936:12954   */\n      tag_578\n      tag_422\n      jump\t// in\n    tag_578:\n        /* \"#utility.yul\":12919:12956   */\n    tag_577:\n        /* \"#utility.yul\":12769:12963   */\n      swap3\n      swap2\n      pop\n      pop\n      jump\t// out\n        /* \"#utility.yul\":12969:13160   */\n    tag_148:\n        /* \"#utility.yul\":13009:13012   */\n      0x00\n        /* \"#utility.yul\":13028:13048   */\n      tag_580\n        /* \"#utility.yul\":13046:13047   */\n      dup3\n        /* \"#utility.yul\":13028:13048   */\n      tag_400\n      jump\t// in\n    tag_580:\n        /* \"#utility.yul\":13023:13048   */\n      swap2\n      pop\n        /* \"#utility.yul\":13062:13082   */\n      tag_581\n        /* \"#utility.yul\":13080:13081   */\n      dup4\n        /* \"#utility.yul\":13062:13082   */\n      tag_400\n      jump\t// in\n    tag_581:\n        /* \"#utility.yul\":13057:13082   */\n      swap3\n      pop\n        /* \"#utility.yul\":13105:13106   */\n      dup3\n        /* \"#utility.yul\":13102:13103   */\n      dup3\n        /* \"#utility.yul\":13098:13107   */\n      add\n        /* \"#utility.yul\":13091:13107   */\n      swap1\n      pop\n        /* \"#utility.yul\":13126:13129   */\n      dup1\n        /* \"#utility.yul\":13123:13124   */\n      dup3\n        /* \"#utility.yul\":13120:13130   */\n      gt\n        /* \"#utility.yul\":13117:13153   */\n      iszero\n      tag_582\n      jumpi\n        /* \"#utility.yul\":13133:13151   */\n      tag_583\n      tag_422\n      jump\t// in\n    tag_583:\n        /* \"#utility.yul\":13117:13153   */\n    tag_582:\n        /* \"#utility.yul\":12969:13160   */\n      swap3\n      swap2\n      pop\n      pop\n      jump\t// out\n        /* \"#utility.yul\":13166:13395   */\n    tag_423:\n        /* \"#utility.yul\":13306:13340   */\n      0x4f776e61626c653a206f6e6c79206f776e65722063616e2063616c6c20746869\n        /* \"#utility.yul\":13302:13303   */\n      0x00\n        /* \"#utility.yul\":13294:13300   */\n      dup3\n        /* \"#utility.yul\":13290:13304   */\n      add\n        /* \"#utility.yul\":13283:13341   */\n      mstore\n        /* \"#utility.yul\":13375:13387   */\n      0x732066756e6374696f6e00000000000000000000000000000000000000000000\n        /* \"#utility.yul\":13370:13372   */\n      0x20\n        /* \"#utility.yul\":13362:13368   */\n      dup3\n        /* \"#utility.yul\":13358:13373   */\n      add\n        /* \"#utility.yul\":13351:13388   */\n      mstore\n        /* \"#utility.yul\":13166:13395   */\n      pop\n      jump\t// out\n        /* \"#utility.yul\":13401:13767   */\n    tag_424:\n        /* \"#utility.yul\":13543:13546   */\n      0x00\n        /* \"#utility.yul\":13564:13631   */\n      tag_586\n        /* \"#utility.yul\":13628:13630   */\n      0x2a\n        /* \"#utility.yul\":13623:13626   */\n      dup4\n        /* \"#utility.yul\":13564:13631   */\n      tag_389\n      jump\t// in\n    tag_586:\n        /* \"#utility.yul\":13557:13631   */\n      swap2\n      pop\n        /* \"#utility.yul\":13640:13733   */\n      tag_587\n        /* \"#utility.yul\":13729:13732   */\n      dup3\n        /* \"#utility.yul\":13640:13733   */\n      tag_423\n      jump\t// in\n    tag_587:\n        /* \"#utility.yul\":13758:13760   */\n      0x40\n        /* \"#utility.yul\":13753:13756   */\n      dup3\n        /* \"#utility.yul\":13749:13761   */\n      add\n        /* \"#utility.yul\":13742:13761   */\n      swap1\n      pop\n        /* \"#utility.yul\":13401:13767   */\n      swap2\n      swap1\n      pop\n      jump\t// out\n        /* \"#utility.yul\":13773:14192   */\n    tag_152:\n        /* \"#utility.yul\":13939:13943   */\n      0x00\n        /* \"#utility.yul\":13977:13979   */\n      0x20\n        /* \"#utility.yul\":13966:13975   */\n      dup3\n        /* \"#utility.yul\":13962:13980   */\n      add\n        /* \"#utility.yul\":13954:13980   */\n      swap1\n      pop\n        /* \"#utility.yul\":14026:14035   */\n      dup2\n        /* \"#utility.yul\":14020:14024   */\n      dup2\n        /* \"#utility.yul\":14016:14036   */\n      sub\n        /* \"#utility.yul\":14012:14013   */\n      0x00\n        /* \"#utility.yul\":14001:14010   */\n      dup4\n        /* \"#utility.yul\":13997:14014   */\n      add\n        /* \"#utility.yul\":13990:14037   */\n      mstore\n        /* \"#utility.yul\":14054:14185   */\n      tag_589\n        /* \"#utility.yul\":14180:14184   */\n      dup2\n        /* \"#utility.yul\":14054:14185   */\n      tag_424\n      jump\t// in\n    tag_589:\n        /* \"#utility.yul\":14046:14185   */\n      swap1\n      pop\n        /* \"#utility.yul\":13773:14192   */\n      swap2\n      swap1\n      pop\n      jump\t// out\n        /* \"#utility.yul\":14198:14378   */\n    tag_180:\n        /* \"#utility.yul\":14246:14323   */\n      0x4e487b7100000000000000000000000000000000000000000000000000000000\n        /* \"#utility.yul\":14243:14244   */\n      0x00\n        /* \"#utility.yul\":14236:14324   */\n      mstore\n        /* \"#utility.yul\":14343:14347   */\n      0x32\n        /* \"#utility.yul\":14340:14341   */\n      0x04\n        /* \"#utility.yul\":14333:14348   */\n      mstore\n        /* \"#utility.yul\":14367:14371   */\n      0x24\n        /* \"#utility.yul\":14364:14365   */\n      0x00\n        /* \"#utility.yul\":14357:14372   */\n      revert\n        /* \"#utility.yul\":14384:14561   */\n    tag_425:\n        /* \"#utility.yul\":14524:14553   */\n      0x416c6661436f696e3a2043616e6e6f74207374616b65206d6f72650000000000\n        /* \"#utility.yul\":14520:14521   */\n      0x00\n        /* \"#utility.yul\":14512:14518   */\n      dup3\n        /* \"#utility.yul\":14508:14522   */\n      add\n        /* \"#utility.yul\":14501:14554   */\n      mstore\n        /* \"#utility.yul\":14384:14561   */\n      pop\n      jump\t// out\n        /* \"#utility.yul\":14567:14933   */\n    tag_426:\n        /* \"#utility.yul\":14709:14712   */\n      0x00\n        /* \"#utility.yul\":14730:14797   */\n      tag_593\n        /* \"#utility.yul\":14794:14796   */\n      0x1b\n        /* \"#utility.yul\":14789:14792   */\n      dup4\n        /* \"#utility.yul\":14730:14797   */\n      tag_389\n      jump\t// in\n    tag_593:\n        /* \"#utility.yul\":14723:14797   */\n      swap2\n      pop\n        /* \"#utility.yul\":14806:14899   */\n      tag_594\n        /* \"#utility.yul\":14895:14898   */\n      dup3\n        /* \"#utility.yul\":14806:14899   */\n      tag_425\n      jump\t// in\n    tag_594:\n        /* \"#utility.yul\":14924:14926   */\n      0x20\n        /* \"#utility.yul\":14919:14922   */\n      dup3\n        /* \"#utility.yul\":14915:14927   */\n      add\n        /* \"#utility.yul\":14908:14927   */\n      swap1\n      pop\n        /* \"#utility.yul\":14567:14933   */\n      swap2\n      swap1\n      pop\n      jump\t// out\n        /* \"#utility.yul\":14939:15358   */\n    tag_216:\n        /* \"#utility.yul\":15105:15109   */\n      0x00\n        /* \"#utility.yul\":15143:15145   */\n      0x20\n        /* \"#utility.yul\":15132:15141   */\n      dup3\n        /* \"#utility.yul\":15128:15146   */\n      add\n        /* \"#utility.yul\":15120:15146   */\n      swap1\n      pop\n        /* \"#utility.yul\":15192:15201   */\n      dup2\n        /* \"#utility.yul\":15186:15190   */\n      dup2\n        /* \"#utility.yul\":15182:15202   */\n      sub\n        /* \"#utility.yul\":15178:15179   */\n      0x00\n        /* \"#utility.yul\":15167:15176   */\n      dup4\n        /* \"#utility.yul\":15163:15180   */\n      add\n        /* \"#utility.yul\":15156:15203   */\n      mstore\n        /* \"#utility.yul\":15220:15351   */\n      tag_596\n        /* \"#utility.yul\":15346:15350   */\n      dup2\n        /* \"#utility.yul\":15220:15351   */\n      tag_426\n      jump\t// in\n    tag_596:\n        /* \"#utility.yul\":15212:15351   */\n      swap1\n      pop\n        /* \"#utility.yul\":14939:15358   */\n      swap2\n      swap1\n      pop\n      jump\t// out\n        /* \"#utility.yul\":15364:15591   */\n    tag_427:\n        /* \"#utility.yul\":15504:15538   */\n      0x416c6661436f696e3a2043616e6e6f74207374616b65206d6f7265207468616e\n        /* \"#utility.yul\":15500:15501   */\n      0x00\n        /* \"#utility.yul\":15492:15498   */\n      dup3\n        /* \"#utility.yul\":15488:15502   */\n      add\n        /* \"#utility.yul\":15481:15539   */\n      mstore\n        /* \"#utility.yul\":15573:15583   */\n      0x20796f75206f776e000000000000000000000000000000000000000000000000\n        /* \"#utility.yul\":15568:15570   */\n      0x20\n        /* \"#utility.yul\":15560:15566   */\n      dup3\n        /* \"#utility.yul\":15556:15571   */\n      add\n        /* \"#utility.yul\":15549:15584   */\n      mstore\n        /* \"#utility.yul\":15364:15591   */\n      pop\n      jump\t// out\n        /* \"#utility.yul\":15597:15963   */\n    tag_428:\n        /* \"#utility.yul\":15739:15742   */\n      0x00\n        /* \"#utility.yul\":15760:15827   */\n      tag_599\n        /* \"#utility.yul\":15824:15826   */\n      0x28\n        /* \"#utility.yul\":15819:15822   */\n      dup4\n        /* \"#utility.yul\":15760:15827   */\n      tag_389\n      jump\t// in\n    tag_599:\n        /* \"#utility.yul\":15753:15827   */\n      swap2\n      pop\n        /* \"#utility.yul\":15836:15929   */\n      tag_600\n        /* \"#utility.yul\":15925:15928   */\n      dup3\n        /* \"#utility.yul\":15836:15929   */\n      tag_427\n      jump\t// in\n    tag_600:\n        /* \"#utility.yul\":15954:15956   */\n      0x40\n        /* \"#utility.yul\":15949:15952   */\n      dup3\n        /* \"#utility.yul\":15945:15957   */\n      add\n        /* \"#utility.yul\":15938:15957   */\n      swap1\n      pop\n        /* \"#utility.yul\":15597:15963   */\n      swap2\n      swap1\n      pop\n      jump\t// out\n        /* \"#utility.yul\":15969:16388   */\n    tag_219:\n        /* \"#utility.yul\":16135:16139   */\n      0x00\n        /* \"#utility.yul\":16173:16175   */\n      0x20\n        /* \"#utility.yul\":16162:16171   */\n      dup3\n        /* \"#utility.yul\":16158:16176   */\n      add\n        /* \"#utility.yul\":16150:16176   */\n      swap1\n      pop\n        /* \"#utility.yul\":16222:16231   */\n      dup2\n        /* \"#utility.yul\":16216:16220   */\n      dup2\n        /* \"#utility.yul\":16212:16232   */\n      sub\n        /* \"#utility.yul\":16208:16209   */\n      0x00\n        /* \"#utility.yul\":16197:16206   */\n      dup4\n        /* \"#utility.yul\":16193:16210   */\n      add\n        /* \"#utility.yul\":16186:16233   */\n      mstore\n        /* \"#utility.yul\":16250:16381   */\n      tag_602\n        /* \"#utility.yul\":16376:16380   */\n      dup2\n        /* \"#utility.yul\":16250:16381   */\n      tag_428\n      jump\t// in\n    tag_602:\n        /* \"#utility.yul\":16242:16381   */\n      swap1\n      pop\n        /* \"#utility.yul\":15969:16388   */\n      swap2\n      swap1\n      pop\n      jump\t// out\n        /* \"#utility.yul\":16394:16631   */\n    tag_429:\n        /* \"#utility.yul\":16534:16568   */\n      0x416c6661436f696e3a20617070726f76652063616e6e6f7420626520646f6e65\n        /* \"#utility.yul\":16530:16531   */\n      0x00\n        /* \"#utility.yul\":16522:16528   */\n      dup3\n        /* \"#utility.yul\":16518:16532   */\n      add\n        /* \"#utility.yul\":16511:16569   */\n      mstore\n        /* \"#utility.yul\":16603:16623   */\n      0x2066726f6d207a65726f20616464726573730000000000000000000000000000\n        /* \"#utility.yul\":16598:16600   */\n      0x20\n        /* \"#utility.yul\":16590:16596   */\n      dup3\n        /* \"#utility.yul\":16586:16601   */\n      add\n        /* \"#utility.yul\":16579:16624   */\n      mstore\n        /* \"#utility.yul\":16394:16631   */\n      pop\n      jump\t// out\n        /* \"#utility.yul\":16637:17003   */\n    tag_430:\n        /* \"#utility.yul\":16779:16782   */\n      0x00\n        /* \"#utility.yul\":16800:16867   */\n      tag_605\n        /* \"#utility.yul\":16864:16866   */\n      0x32\n        /* \"#utility.yul\":16859:16862   */\n      dup4\n        /* \"#utility.yul\":16800:16867   */\n      tag_389\n      jump\t// in\n    tag_605:\n        /* \"#utility.yul\":16793:16867   */\n      swap2\n      pop\n        /* \"#utility.yul\":16876:16969   */\n      tag_606\n        /* \"#utility.yul\":16965:16968   */\n      dup3\n        /* \"#utility.yul\":16876:16969   */\n      tag_429\n      jump\t// in\n    tag_606:\n        /* \"#utility.yul\":16994:16996   */\n      0x40\n        /* \"#utility.yul\":16989:16992   */\n      dup3\n        /* \"#utility.yul\":16985:16997   */\n      add\n        /* \"#utility.yul\":16978:16997   */\n      swap1\n      pop\n        /* \"#utility.yul\":16637:17003   */\n      swap2\n      swap1\n      pop\n      jump\t// out\n        /* \"#utility.yul\":17009:17428   */\n    tag_260:\n        /* \"#utility.yul\":17175:17179   */\n      0x00\n        /* \"#utility.yul\":17213:17215   */\n      0x20\n        /* \"#utility.yul\":17202:17211   */\n      dup3\n        /* \"#utility.yul\":17198:17216   */\n      add\n        /* \"#utility.yul\":17190:17216   */\n      swap1\n      pop\n        /* \"#utility.yul\":17262:17271   */\n      dup2\n        /* \"#utility.yul\":17256:17260   */\n      dup2\n        /* \"#utility.yul\":17252:17272   */\n      sub\n        /* \"#utility.yul\":17248:17249   */\n      0x00\n        /* \"#utility.yul\":17237:17246   */\n      dup4\n        /* \"#utility.yul\":17233:17250   */\n      add\n        /* \"#utility.yul\":17226:17273   */\n      mstore\n        /* \"#utility.yul\":17290:17421   */\n      tag_608\n        /* \"#utility.yul\":17416:17420   */\n      dup2\n        /* \"#utility.yul\":17290:17421   */\n      tag_430\n      jump\t// in\n    tag_608:\n        /* \"#utility.yul\":17282:17421   */\n      swap1\n      pop\n        /* \"#utility.yul\":17009:17428   */\n      swap2\n      swap1\n      pop\n      jump\t// out\n        /* \"#utility.yul\":17434:17664   */\n    tag_431:\n        /* \"#utility.yul\":17574:17608   */\n      0x416c6661436f696e3a20617070726f76652063616e6e6f7420626520746f207a\n        /* \"#utility.yul\":17570:17571   */\n      0x00\n        /* \"#utility.yul\":17562:17568   */\n      dup3\n        /* \"#utility.yul\":17558:17572   */\n      add\n        /* \"#utility.yul\":17551:17609   */\n      mstore\n        /* \"#utility.yul\":17643:17656   */\n      0x65726f2061646472657373000000000000000000000000000000000000000000\n        /* \"#utility.yul\":17638:17640   */\n      0x20\n        /* \"#utility.yul\":17630:17636   */\n      dup3\n        /* \"#utility.yul\":17626:17641   */\n      add\n        /* \"#utility.yul\":17619:17657   */\n      mstore\n        /* \"#utility.yul\":17434:17664   */\n      pop\n      jump\t// out\n        /* \"#utility.yul\":17670:18036   */\n    tag_432:\n        /* \"#utility.yul\":17812:17815   */\n      0x00\n        /* \"#utility.yul\":17833:17900   */\n      tag_611\n        /* \"#utility.yul\":17897:17899   */\n      0x2b\n        /* \"#utility.yul\":17892:17895   */\n      dup4\n        /* \"#utility.yul\":17833:17900   */\n      tag_389\n      jump\t// in\n    tag_611:\n        /* \"#utility.yul\":17826:17900   */\n      swap2\n      pop\n        /* \"#utility.yul\":17909:18002   */\n      tag_612\n        /* \"#utility.yul\":17998:18001   */\n      dup3\n        /* \"#utility.yul\":17909:18002   */\n      tag_431\n      jump\t// in\n    tag_612:\n        /* \"#utility.yul\":18027:18029   */\n      0x40\n        /* \"#utility.yul\":18022:18025   */\n      dup3\n        /* \"#utility.yul\":18018:18030   */\n      add\n        /* \"#utility.yul\":18011:18030   */\n      swap1\n      pop\n        /* \"#utility.yul\":17670:18036   */\n      swap2\n      swap1\n      pop\n      jump\t// out\n        /* \"#utility.yul\":18042:18461   */\n    tag_263:\n        /* \"#utility.yul\":18208:18212   */\n      0x00\n        /* \"#utility.yul\":18246:18248   */\n      0x20\n        /* \"#utility.yul\":18235:18244   */\n      dup3\n        /* \"#utility.yul\":18231:18249   */\n      add\n        /* \"#utility.yul\":18223:18249   */\n      swap1\n      pop\n        /* \"#utility.yul\":18295:18304   */\n      dup2\n        /* \"#utility.yul\":18289:18293   */\n      dup2\n        /* \"#utility.yul\":18285:18305   */\n      sub\n        /* \"#utility.yul\":18281:18282   */\n      0x00\n        /* \"#utility.yul\":18270:18279   */\n      dup4\n        /* \"#utility.yul\":18266:18283   */\n      add\n        /* \"#utility.yul\":18259:18306   */\n      mstore\n        /* \"#utility.yul\":18323:18454   */\n      tag_614\n        /* \"#utility.yul\":18449:18453   */\n      dup2\n        /* \"#utility.yul\":18323:18454   */\n      tag_432\n      jump\t// in\n    tag_614:\n        /* \"#utility.yul\":18315:18454   */\n      swap1\n      pop\n        /* \"#utility.yul\":18042:18461   */\n      swap2\n      swap1\n      pop\n      jump\t// out\n        /* \"#utility.yul\":18467:18690   */\n    tag_433:\n        /* \"#utility.yul\":18607:18641   */\n      0x416c6661436f696e3a207472616e736665722066726f6d207a65726f20616464\n        /* \"#utility.yul\":18603:18604   */\n      0x00\n        /* \"#utility.yul\":18595:18601   */\n      dup3\n        /* \"#utility.yul\":18591:18605   */\n      add\n        /* \"#utility.yul\":18584:18642   */\n      mstore\n        /* \"#utility.yul\":18676:18682   */\n      0x7265737300000000000000000000000000000000000000000000000000000000\n        /* \"#utility.yul\":18671:18673   */\n      0x20\n        /* \"#utility.yul\":18663:18669   */\n      dup3\n        /* \"#utility.yul\":18659:18674   */\n      add\n        /* \"#utility.yul\":18652:18683   */\n      mstore\n        /* \"#utility.yul\":18467:18690   */\n      pop\n      jump\t// out\n        /* \"#utility.yul\":18696:19062   */\n    tag_434:\n        /* \"#utility.yul\":18838:18841   */\n      0x00\n        /* \"#utility.yul\":18859:18926   */\n      tag_617\n        /* \"#utility.yul\":18923:18925   */\n      0x24\n        /* \"#utility.yul\":18918:18921   */\n      dup4\n        /* \"#utility.yul\":18859:18926   */\n      tag_389\n      jump\t// in\n    tag_617:\n        /* \"#utility.yul\":18852:18926   */\n      swap2\n      pop\n        /* \"#utility.yul\":18935:19028   */\n      tag_618\n        /* \"#utility.yul\":19024:19027   */\n      dup3\n        /* \"#utility.yul\":18935:19028   */\n      tag_433\n      jump\t// in\n    tag_618:\n        /* \"#utility.yul\":19053:19055   */\n      0x40\n        /* \"#utility.yul\":19048:19051   */\n      dup3\n        /* \"#utility.yul\":19044:19056   */\n      add\n        /* \"#utility.yul\":19037:19056   */\n      swap1\n      pop\n        /* \"#utility.yul\":18696:19062   */\n      swap2\n      swap1\n      pop\n      jump\t// out\n        /* \"#utility.yul\":19068:19487   */\n    tag_268:\n        /* \"#utility.yul\":19234:19238   */\n      0x00\n        /* \"#utility.yul\":19272:19274   */\n      0x20\n        /* \"#utility.yul\":19261:19270   */\n      dup3\n        /* \"#utility.yul\":19257:19275   */\n      add\n        /* \"#utility.yul\":19249:19275   */\n      swap1\n      pop\n        /* \"#utility.yul\":19321:19330   */\n      dup2\n        /* \"#utility.yul\":19315:19319   */\n      dup2\n        /* \"#utility.yul\":19311:19331   */\n      sub\n        /* \"#utility.yul\":19307:19308   */\n      0x00\n        /* \"#utility.yul\":19296:19305   */\n      dup4\n        /* \"#utility.yul\":19292:19309   */\n      add\n        /* \"#utility.yul\":19285:19332   */\n      mstore\n        /* \"#utility.yul\":19349:19480   */\n      tag_620\n        /* \"#utility.yul\":19475:19479   */\n      dup2\n        /* \"#utility.yul\":19349:19480   */\n      tag_434\n      jump\t// in\n    tag_620:\n        /* \"#utility.yul\":19341:19480   */\n      swap1\n      pop\n        /* \"#utility.yul\":19068:19487   */\n      swap2\n      swap1\n      pop\n      jump\t// out\n        /* \"#utility.yul\":19493:19714   */\n    tag_435:\n        /* \"#utility.yul\":19633:19667   */\n      0x416c6661436f696e3a207472616e7366657220746f207a65726f206164647265\n        /* \"#utility.yul\":19629:19630   */\n      0x00\n        /* \"#utility.yul\":19621:19627   */\n      dup3\n        /* \"#utility.yul\":19617:19631   */\n      add\n        /* \"#utility.yul\":19610:19668   */\n      mstore\n        /* \"#utility.yul\":19702:19706   */\n      0x7373000000000000000000000000000000000000000000000000000000000000\n        /* \"#utility.yul\":19697:19699   */\n      0x20\n        /* \"#utility.yul\":19689:19695   */\n      dup3\n        /* \"#utility.yul\":19685:19700   */\n      add\n        /* \"#utility.yul\":19678:19707   */\n      mstore\n        /* \"#utility.yul\":19493:19714   */\n      pop\n      jump\t// out\n        /* \"#utility.yul\":19720:20086   */\n    tag_436:\n        /* \"#utility.yul\":19862:19865   */\n      0x00\n        /* \"#utility.yul\":19883:19950   */\n      tag_623\n        /* \"#utility.yul\":19947:19949   */\n      0x22\n        /* \"#utility.yul\":19942:19945   */\n      dup4\n        /* \"#utility.yul\":19883:19950   */\n      tag_389\n      jump\t// in\n    tag_623:\n        /* \"#utility.yul\":19876:19950   */\n      swap2\n      pop\n        /* \"#utility.yul\":19959:20052   */\n      tag_624\n        /* \"#utility.yul\":20048:20051   */\n      dup3\n        /* \"#utility.yul\":19959:20052   */\n      tag_435\n      jump\t// in\n    tag_624:\n        /* \"#utility.yul\":20077:20079   */\n      0x40\n        /* \"#utility.yul\":20072:20075   */\n      dup3\n        /* \"#utility.yul\":20068:20080   */\n      add\n        /* \"#utility.yul\":20061:20080   */\n      swap1\n      pop\n        /* \"#utility.yul\":19720:20086   */\n      swap2\n      swap1\n      pop\n      jump\t// out\n        /* \"#utility.yul\":20092:20511   */\n    tag_271:\n        /* \"#utility.yul\":20258:20262   */\n      0x00\n        /* \"#utility.yul\":20296:20298   */\n      0x20\n        /* \"#utility.yul\":20285:20294   */\n      dup3\n        /* \"#utility.yul\":20281:20299   */\n      add\n        /* \"#utility.yul\":20273:20299   */\n      swap1\n      pop\n        /* \"#utility.yul\":20345:20354   */\n      dup2\n        /* \"#utility.yul\":20339:20343   */\n      dup2\n        /* \"#utility.yul\":20335:20355   */\n      sub\n        /* \"#utility.yul\":20331:20332   */\n      0x00\n        /* \"#utility.yul\":20320:20329   */\n      dup4\n        /* \"#utility.yul\":20316:20333   */\n      add\n        /* \"#utility.yul\":20309:20356   */\n      mstore\n        /* \"#utility.yul\":20373:20504   */\n      tag_626\n        /* \"#utility.yul\":20499:20503   */\n      dup2\n        /* \"#utility.yul\":20373:20504   */\n      tag_436\n      jump\t// in\n    tag_626:\n        /* \"#utility.yul\":20365:20504   */\n      swap1\n      pop\n        /* \"#utility.yul\":20092:20511   */\n      swap2\n      swap1\n      pop\n      jump\t// out\n        /* \"#utility.yul\":20517:20756   */\n    tag_437:\n        /* \"#utility.yul\":20657:20691   */\n      0x416c6661436f696e3a2063616e74207472616e73666572206d6f726520746861\n        /* \"#utility.yul\":20653:20654   */\n      0x00\n        /* \"#utility.yul\":20645:20651   */\n      dup3\n        /* \"#utility.yul\":20641:20655   */\n      add\n        /* \"#utility.yul\":20634:20692   */\n      mstore\n        /* \"#utility.yul\":20726:20748   */\n      0x6e20796f7572206163636f756e7420686f6c6473000000000000000000000000\n        /* \"#utility.yul\":20721:20723   */\n      0x20\n        /* \"#utility.yul\":20713:20719   */\n      dup3\n        /* \"#utility.yul\":20709:20724   */\n      add\n        /* \"#utility.yul\":20702:20749   */\n      mstore\n        /* \"#utility.yul\":20517:20756   */\n      pop\n      jump\t// out\n        /* \"#utility.yul\":20762:21128   */\n    tag_438:\n        /* \"#utility.yul\":20904:20907   */\n      0x00\n        /* \"#utility.yul\":20925:20992   */\n      tag_629\n        /* \"#utility.yul\":20989:20991   */\n      0x34\n        /* \"#utility.yul\":20984:20987   */\n      dup4\n        /* \"#utility.yul\":20925:20992   */\n      tag_389\n      jump\t// in\n    tag_629:\n        /* \"#utility.yul\":20918:20992   */\n      swap2\n      pop\n        /* \"#utility.yul\":21001:21094   */\n      tag_630\n        /* \"#utility.yul\":21090:21093   */\n      dup3\n        /* \"#utility.yul\":21001:21094   */\n      tag_437\n      jump\t// in\n    tag_630:\n        /* \"#utility.yul\":21119:21121   */\n      0x40\n        /* \"#utility.yul\":21114:21117   */\n      dup3\n        /* \"#utility.yul\":21110:21122   */\n      add\n        /* \"#utility.yul\":21103:21122   */\n      swap1\n      pop\n        /* \"#utility.yul\":20762:21128   */\n      swap2\n      swap1\n      pop\n      jump\t// out\n        /* \"#utility.yul\":21134:21553   */\n    tag_274:\n        /* \"#utility.yul\":21300:21304   */\n      0x00\n        /* \"#utility.yul\":21338:21340   */\n      0x20\n        /* \"#utility.yul\":21327:21336   */\n      dup3\n        /* \"#utility.yul\":21323:21341   */\n      add\n        /* \"#utility.yul\":21315:21341   */\n      swap1\n      pop\n        /* \"#utility.yul\":21387:21396   */\n      dup2\n        /* \"#utility.yul\":21381:21385   */\n      dup2\n        /* \"#utility.yul\":21377:21397   */\n      sub\n        /* \"#utility.yul\":21373:21374   */\n      0x00\n        /* \"#utility.yul\":21362:21371   */\n      dup4\n        /* \"#utility.yul\":21358:21375   */\n      add\n        /* \"#utility.yul\":21351:21398   */\n      mstore\n        /* \"#utility.yul\":21415:21546   */\n      tag_632\n        /* \"#utility.yul\":21541:21545   */\n      dup2\n        /* \"#utility.yul\":21415:21546   */\n      tag_438\n      jump\t// in\n    tag_632:\n        /* \"#utility.yul\":21407:21546   */\n      swap1\n      pop\n        /* \"#utility.yul\":21134:21553   */\n      swap2\n      swap1\n      pop\n      jump\t// out\n        /* \"#utility.yul\":21559:21783   */\n    tag_439:\n        /* \"#utility.yul\":21699:21733   */\n      0x416c6661436f696e3a2063616e6e6f74206d696e7420746f207a65726f206164\n        /* \"#utility.yul\":21695:21696   */\n      0x00\n        /* \"#utility.yul\":21687:21693   */\n      dup3\n        /* \"#utility.yul\":21683:21697   */\n      add\n        /* \"#utility.yul\":21676:21734   */\n      mstore\n        /* \"#utility.yul\":21768:21775   */\n      0x6472657373000000000000000000000000000000000000000000000000000000\n        /* \"#utility.yul\":21763:21765   */\n      0x20\n        /* \"#utility.yul\":21755:21761   */\n      dup3\n        /* \"#utility.yul\":21751:21766   */\n      add\n        /* \"#utility.yul\":21744:21776   */\n      mstore\n        /* \"#utility.yul\":21559:21783   */\n      pop\n      jump\t// out\n        /* \"#utility.yul\":21789:22155   */\n    tag_440:\n        /* \"#utility.yul\":21931:21934   */\n      0x00\n        /* \"#utility.yul\":21952:22019   */\n      tag_635\n        /* \"#utility.yul\":22016:22018   */\n      0x25\n        /* \"#utility.yul\":22011:22014   */\n      dup4\n        /* \"#utility.yul\":21952:22019   */\n      tag_389\n      jump\t// in\n    tag_635:\n        /* \"#utility.yul\":21945:22019   */\n      swap2\n      pop\n        /* \"#utility.yul\":22028:22121   */\n      tag_636\n        /* \"#utility.yul\":22117:22120   */\n      dup3\n        /* \"#utility.yul\":22028:22121   */\n      tag_439\n      jump\t// in\n    tag_636:\n        /* \"#utility.yul\":22146:22148   */\n      0x40\n        /* \"#utility.yul\":22141:22144   */\n      dup3\n        /* \"#utility.yul\":22137:22149   */\n      add\n        /* \"#utility.yul\":22130:22149   */\n      swap1\n      pop\n        /* \"#utility.yul\":21789:22155   */\n      swap2\n      swap1\n      pop\n      jump\t// out\n        /* \"#utility.yul\":22161:22580   */\n    tag_281:\n        /* \"#utility.yul\":22327:22331   */\n      0x00\n        /* \"#utility.yul\":22365:22367   */\n      0x20\n        /* \"#utility.yul\":22354:22363   */\n      dup3\n        /* \"#utility.yul\":22350:22368   */\n      add\n        /* \"#utility.yul\":22342:22368   */\n      swap1\n      pop\n        /* \"#utility.yul\":22414:22423   */\n      dup2\n        /* \"#utility.yul\":22408:22412   */\n      dup2\n        /* \"#utility.yul\":22404:22424   */\n      sub\n        /* \"#utility.yul\":22400:22401   */\n      0x00\n        /* \"#utility.yul\":22389:22398   */\n      dup4\n        /* \"#utility.yul\":22385:22402   */\n      add\n        /* \"#utility.yul\":22378:22425   */\n      mstore\n        /* \"#utility.yul\":22442:22573   */\n      tag_638\n        /* \"#utility.yul\":22568:22572   */\n      dup2\n        /* \"#utility.yul\":22442:22573   */\n      tag_440\n      jump\t// in\n    tag_638:\n        /* \"#utility.yul\":22434:22573   */\n      swap1\n      pop\n        /* \"#utility.yul\":22161:22580   */\n      swap2\n      swap1\n      pop\n      jump\t// out\n        /* \"#utility.yul\":22586:22748   */\n    tag_441:\n        /* \"#utility.yul\":22726:22740   */\n      0x43616e6e6f742062652030250000000000000000000000000000000000000000\n        /* \"#utility.yul\":22722:22723   */\n      0x00\n        /* \"#utility.yul\":22714:22720   */\n      dup3\n        /* \"#utility.yul\":22710:22724   */\n      add\n        /* \"#utility.yul\":22703:22741   */\n      mstore\n        /* \"#utility.yul\":22586:22748   */\n      pop\n      jump\t// out\n        /* \"#utility.yul\":22754:23120   */\n    tag_442:\n        /* \"#utility.yul\":22896:22899   */\n      0x00\n        /* \"#utility.yul\":22917:22984   */\n      tag_641\n        /* \"#utility.yul\":22981:22983   */\n      0x0c\n        /* \"#utility.yul\":22976:22979   */\n      dup4\n        /* \"#utility.yul\":22917:22984   */\n      tag_389\n      jump\t// in\n    tag_641:\n        /* \"#utility.yul\":22910:22984   */\n      swap2\n      pop\n        /* \"#utility.yul\":22993:23086   */\n      tag_642\n        /* \"#utility.yul\":23082:23085   */\n      dup3\n        /* \"#utility.yul\":22993:23086   */\n      tag_441\n      jump\t// in\n    tag_642:\n        /* \"#utility.yul\":23111:23113   */\n      0x20\n        /* \"#utility.yul\":23106:23109   */\n      dup3\n        /* \"#utility.yul\":23102:23114   */\n      add\n        /* \"#utility.yul\":23095:23114   */\n      swap1\n      pop\n        /* \"#utility.yul\":22754:23120   */\n      swap2\n      swap1\n      pop\n      jump\t// out\n        /* \"#utility.yul\":23126:23545   */\n    tag_314:\n        /* \"#utility.yul\":23292:23296   */\n      0x00\n        /* \"#utility.yul\":23330:23332   */\n      0x20\n        /* \"#utility.yul\":23319:23328   */\n      dup3\n        /* \"#utility.yul\":23315:23333   */\n      add\n        /* \"#utility.yul\":23307:23333   */\n      swap1\n      pop\n        /* \"#utility.yul\":23379:23388   */\n      dup2\n        /* \"#utility.yul\":23373:23377   */\n      dup2\n        /* \"#utility.yul\":23369:23389   */\n      sub\n        /* \"#utility.yul\":23365:23366   */\n      0x00\n        /* \"#utility.yul\":23354:23363   */\n      dup4\n        /* \"#utility.yul\":23350:23367   */\n      add\n        /* \"#utility.yul\":23343:23390   */\n      mstore\n        /* \"#utility.yul\":23407:23538   */\n      tag_644\n        /* \"#utility.yul\":23533:23537   */\n      dup2\n        /* \"#utility.yul\":23407:23538   */\n      tag_442\n      jump\t// in\n    tag_644:\n        /* \"#utility.yul\":23399:23538   */\n      swap1\n      pop\n        /* \"#utility.yul\":23126:23545   */\n      swap2\n      swap1\n      pop\n      jump\t// out\n        /* \"#utility.yul\":23551:23731   */\n    tag_443:\n        /* \"#utility.yul\":23599:23676   */\n      0x4e487b7100000000000000000000000000000000000000000000000000000000\n        /* \"#utility.yul\":23596:23597   */\n      0x00\n        /* \"#utility.yul\":23589:23677   */\n      mstore\n        /* \"#utility.yul\":23696:23700   */\n      0x12\n        /* \"#utility.yul\":23693:23694   */\n      0x04\n        /* \"#utility.yul\":23686:23701   */\n      mstore\n        /* \"#utility.yul\":23720:23724   */\n      0x24\n        /* \"#utility.yul\":23717:23718   */\n      0x00\n        /* \"#utility.yul\":23710:23725   */\n      revert\n        /* \"#utility.yul\":23737:23922   */\n    tag_318:\n        /* \"#utility.yul\":23777:23778   */\n      0x00\n        /* \"#utility.yul\":23794:23814   */\n      tag_647\n        /* \"#utility.yul\":23812:23813   */\n      dup3\n        /* \"#utility.yul\":23794:23814   */\n      tag_400\n      jump\t// in\n    tag_647:\n        /* \"#utility.yul\":23789:23814   */\n      swap2\n      pop\n        /* \"#utility.yul\":23828:23848   */\n      tag_648\n        /* \"#utility.yul\":23846:23847   */\n      dup4\n        /* \"#utility.yul\":23828:23848   */\n      tag_400\n      jump\t// in\n    tag_648:\n        /* \"#utility.yul\":23823:23848   */\n      swap3\n      pop\n        /* \"#utility.yul\":23867:23868   */\n      dup3\n        /* \"#utility.yul\":23857:23892   */\n      tag_649\n      jumpi\n        /* \"#utility.yul\":23872:23890   */\n      tag_650\n      tag_443\n      jump\t// in\n    tag_650:\n        /* \"#utility.yul\":23857:23892   */\n    tag_649:\n        /* \"#utility.yul\":23914:23915   */\n      dup3\n        /* \"#utility.yul\":23911:23912   */\n      dup3\n        /* \"#utility.yul\":23907:23916   */\n      div\n        /* \"#utility.yul\":23902:23916   */\n      swap1\n      pop\n        /* \"#utility.yul\":23737:23922   */\n      swap3\n      swap2\n      pop\n      pop\n      jump\t// out\n        /* \"#utility.yul\":23928:24338   */\n    tag_320:\n        /* \"#utility.yul\":23968:23975   */\n      0x00\n        /* \"#utility.yul\":23991:24011   */\n      tag_652\n        /* \"#utility.yul\":24009:24010   */\n      dup3\n        /* \"#utility.yul\":23991:24011   */\n      tag_400\n      jump\t// in\n    tag_652:\n        /* \"#utility.yul\":23986:24011   */\n      swap2\n      pop\n        /* \"#utility.yul\":24025:24045   */\n      tag_653\n        /* \"#utility.yul\":24043:24044   */\n      dup4\n        /* \"#utility.yul\":24025:24045   */\n      tag_400\n      jump\t// in\n    tag_653:\n        /* \"#utility.yul\":24020:24045   */\n      swap3\n      pop\n        /* \"#utility.yul\":24080:24081   */\n      dup3\n        /* \"#utility.yul\":24077:24078   */\n      dup3\n        /* \"#utility.yul\":24073:24082   */\n      mul\n        /* \"#utility.yul\":24102:24132   */\n      tag_654\n        /* \"#utility.yul\":24120:24131   */\n      dup2\n        /* \"#utility.yul\":24102:24132   */\n      tag_400\n      jump\t// in\n    tag_654:\n        /* \"#utility.yul\":24091:24132   */\n      swap2\n      pop\n        /* \"#utility.yul\":24281:24282   */\n      dup3\n        /* \"#utility.yul\":24272:24279   */\n      dup3\n        /* \"#utility.yul\":24268:24283   */\n      div\n        /* \"#utility.yul\":24265:24266   */\n      dup5\n        /* \"#utility.yul\":24262:24284   */\n      eq\n        /* \"#utility.yul\":24242:24243   */\n      dup4\n        /* \"#utility.yul\":24235:24244   */\n      iszero\n        /* \"#utility.yul\":24215:24298   */\n      or\n        /* \"#utility.yul\":24192:24331   */\n      tag_655\n      jumpi\n        /* \"#utility.yul\":24311:24329   */\n      tag_656\n      tag_422\n      jump\t// in\n    tag_656:\n        /* \"#utility.yul\":24192:24331   */\n    tag_655:\n        /* \"#utility.yul\":23976:24338   */\n      pop\n        /* \"#utility.yul\":23928:24338   */\n      swap3\n      swap2\n      pop\n      pop\n      jump\t// out\n        /* \"#utility.yul\":24344:24570   */\n    tag_444:\n        /* \"#utility.yul\":24484:24518   */\n      0x416c6661436f696e3a2063616e6e6f74206275726e2066726f6d207a65726f20\n        /* \"#utility.yul\":24480:24481   */\n      0x00\n        /* \"#utility.yul\":24472:24478   */\n      dup3\n        /* \"#utility.yul\":24468:24482   */\n      add\n        /* \"#utility.yul\":24461:24519   */\n      mstore\n        /* \"#utility.yul\":24553:24562   */\n      0x6164647265737300000000000000000000000000000000000000000000000000\n        /* \"#utility.yul\":24548:24550   */\n      0x20\n        /* \"#utility.yul\":24540:24546   */\n      dup3\n        /* \"#utility.yul\":24536:24551   */\n      add\n        /* \"#utility.yul\":24529:24563   */\n      mstore\n        /* \"#utility.yul\":24344:24570   */\n      pop\n      jump\t// out\n        /* \"#utility.yul\":24576:24942   */\n    tag_445:\n        /* \"#utility.yul\":24718:24721   */\n      0x00\n        /* \"#utility.yul\":24739:24806   */\n      tag_659\n        /* \"#utility.yul\":24803:24805   */\n      0x27\n        /* \"#utility.yul\":24798:24801   */\n      dup4\n        /* \"#utility.yul\":24739:24806   */\n      tag_389\n      jump\t// in\n    tag_659:\n        /* \"#utility.yul\":24732:24806   */\n      swap2\n      pop\n        /* \"#utility.yul\":24815:24908   */\n      tag_660\n        /* \"#utility.yul\":24904:24907   */\n      dup3\n        /* \"#utility.yul\":24815:24908   */\n      tag_444\n      jump\t// in\n    tag_660:\n        /* \"#utility.yul\":24933:24935   */\n      0x40\n        /* \"#utility.yul\":24928:24931   */\n      dup3\n        /* \"#utility.yul\":24924:24936   */\n      add\n        /* \"#utility.yul\":24917:24936   */\n      swap1\n      pop\n        /* \"#utility.yul\":24576:24942   */\n      swap2\n      swap1\n      pop\n      jump\t// out\n        /* \"#utility.yul\":24948:25367   */\n    tag_325:\n        /* \"#utility.yul\":25114:25118   */\n      0x00\n        /* \"#utility.yul\":25152:25154   */\n      0x20\n        /* \"#utility.yul\":25141:25150   */\n      dup3\n        /* \"#utility.yul\":25137:25155   */\n      add\n        /* \"#utility.yul\":25129:25155   */\n      swap1\n      pop\n        /* \"#utility.yul\":25201:25210   */\n      dup2\n        /* \"#utility.yul\":25195:25199   */\n      dup2\n        /* \"#utility.yul\":25191:25211   */\n      sub\n        /* \"#utility.yul\":25187:25188   */\n      0x00\n        /* \"#utility.yul\":25176:25185   */\n      dup4\n        /* \"#utility.yul\":25172:25189   */\n      add\n        /* \"#utility.yul\":25165:25212   */\n      mstore\n        /* \"#utility.yul\":25229:25360   */\n      tag_662\n        /* \"#utility.yul\":25355:25359   */\n      dup2\n        /* \"#utility.yul\":25229:25360   */\n      tag_445\n      jump\t// in\n    tag_662:\n        /* \"#utility.yul\":25221:25360   */\n      swap1\n      pop\n        /* \"#utility.yul\":24948:25367   */\n      swap2\n      swap1\n      pop\n      jump\t// out\n        /* \"#utility.yul\":25373:25608   */\n    tag_446:\n        /* \"#utility.yul\":25513:25547   */\n      0x416c6661436f696e3a2043616e6e6f74206275726e206d6f7265207468616e20\n        /* \"#utility.yul\":25509:25510   */\n      0x00\n        /* \"#utility.yul\":25501:25507   */\n      dup3\n        /* \"#utility.yul\":25497:25511   */\n      add\n        /* \"#utility.yul\":25490:25548   */\n      mstore\n        /* \"#utility.yul\":25582:25600   */\n      0x746865206163636f756e74206f776e7300000000000000000000000000000000\n        /* \"#utility.yul\":25577:25579   */\n      0x20\n        /* \"#utility.yul\":25569:25575   */\n      dup3\n        /* \"#utility.yul\":25565:25580   */\n      add\n        /* \"#utility.yul\":25558:25601   */\n      mstore\n        /* \"#utility.yul\":25373:25608   */\n      pop\n      jump\t// out\n        /* \"#utility.yul\":25614:25980   */\n    tag_447:\n        /* \"#utility.yul\":25756:25759   */\n      0x00\n        /* \"#utility.yul\":25777:25844   */\n      tag_665\n        /* \"#utility.yul\":25841:25843   */\n      0x30\n        /* \"#utility.yul\":25836:25839   */\n      dup4\n        /* \"#utility.yul\":25777:25844   */\n      tag_389\n      jump\t// in\n    tag_665:\n        /* \"#utility.yul\":25770:25844   */\n      swap2\n      pop\n        /* \"#utility.yul\":25853:25946   */\n      tag_666\n        /* \"#utility.yul\":25942:25945   */\n      dup3\n        /* \"#utility.yul\":25853:25946   */\n      tag_446\n      jump\t// in\n    tag_666:\n        /* \"#utility.yul\":25971:25973   */\n      0x40\n        /* \"#utility.yul\":25966:25969   */\n      dup3\n        /* \"#utility.yul\":25962:25974   */\n      add\n        /* \"#utility.yul\":25955:25974   */\n      swap1\n      pop\n        /* \"#utility.yul\":25614:25980   */\n      swap2\n      swap1\n      pop\n      jump\t// out\n        /* \"#utility.yul\":25986:26405   */\n    tag_328:\n        /* \"#utility.yul\":26152:26156   */\n      0x00\n        /* \"#utility.yul\":26190:26192   */\n      0x20\n        /* \"#utility.yul\":26179:26188   */\n      dup3\n        /* \"#utility.yul\":26175:26193   */\n      add\n        /* \"#utility.yul\":26167:26193   */\n      swap1\n      pop\n        /* \"#utility.yul\":26239:26248   */\n      dup2\n        /* \"#utility.yul\":26233:26237   */\n      dup2\n        /* \"#utility.yul\":26229:26249   */\n      sub\n        /* \"#utility.yul\":26225:26226   */\n      0x00\n        /* \"#utility.yul\":26214:26223   */\n      dup4\n        /* \"#utility.yul\":26210:26227   */\n      add\n        /* \"#utility.yul\":26203:26250   */\n      mstore\n        /* \"#utility.yul\":26267:26398   */\n      tag_668\n        /* \"#utility.yul\":26393:26397   */\n      dup2\n        /* \"#utility.yul\":26267:26398   */\n      tag_447\n      jump\t// in\n    tag_668:\n        /* \"#utility.yul\":26259:26398   */\n      swap1\n      pop\n        /* \"#utility.yul\":25986:26405   */\n      swap2\n      swap1\n      pop\n      jump\t// out\n        /* \"#utility.yul\":26411:26581   */\n    tag_448:\n        /* \"#utility.yul\":26551:26573   */\n      0x43616e6e6f74207374616b65206e6f7468696e67000000000000000000000000\n        /* \"#utility.yul\":26547:26548   */\n      0x00\n        /* \"#utility.yul\":26539:26545   */\n      dup3\n        /* \"#utility.yul\":26535:26549   */\n      add\n        /* \"#utility.yul\":26528:26574   */\n      mstore\n        /* \"#utility.yul\":26411:26581   */\n      pop\n      jump\t// out\n        /* \"#utility.yul\":26587:26953   */\n    tag_449:\n        /* \"#utility.yul\":26729:26732   */\n      0x00\n        /* \"#utility.yul\":26750:26817   */\n      tag_671\n        /* \"#utility.yul\":26814:26816   */\n      0x14\n        /* \"#utility.yul\":26809:26812   */\n      dup4\n        /* \"#utility.yul\":26750:26817   */\n      tag_389\n      jump\t// in\n    tag_671:\n        /* \"#utility.yul\":26743:26817   */\n      swap2\n      pop\n        /* \"#utility.yul\":26826:26919   */\n      tag_672\n        /* \"#utility.yul\":26915:26918   */\n      dup3\n        /* \"#utility.yul\":26826:26919   */\n      tag_448\n      jump\t// in\n    tag_672:\n        /* \"#utility.yul\":26944:26946   */\n      0x20\n        /* \"#utility.yul\":26939:26942   */\n      dup3\n        /* \"#utility.yul\":26935:26947   */\n      add\n        /* \"#utility.yul\":26928:26947   */\n      swap1\n      pop\n        /* \"#utility.yul\":26587:26953   */\n      swap2\n      swap1\n      pop\n      jump\t// out\n        /* \"#utility.yul\":26959:27378   */\n    tag_335:\n        /* \"#utility.yul\":27125:27129   */\n      0x00\n        /* \"#utility.yul\":27163:27165   */\n      0x20\n        /* \"#utility.yul\":27152:27161   */\n      dup3\n        /* \"#utility.yul\":27148:27166   */\n      add\n        /* \"#utility.yul\":27140:27166   */\n      swap1\n      pop\n        /* \"#utility.yul\":27212:27221   */\n      dup2\n        /* \"#utility.yul\":27206:27210   */\n      dup2\n        /* \"#utility.yul\":27202:27222   */\n      sub\n        /* \"#utility.yul\":27198:27199   */\n      0x00\n        /* \"#utility.yul\":27187:27196   */\n      dup4\n        /* \"#utility.yul\":27183:27200   */\n      add\n        /* \"#utility.yul\":27176:27223   */\n      mstore\n        /* \"#utility.yul\":27240:27371   */\n      tag_674\n        /* \"#utility.yul\":27366:27370   */\n      dup2\n        /* \"#utility.yul\":27240:27371   */\n      tag_449\n      jump\t// in\n    tag_674:\n        /* \"#utility.yul\":27232:27371   */\n      swap1\n      pop\n        /* \"#utility.yul\":26959:27378   */\n      swap2\n      swap1\n      pop\n      jump\t// out\n        /* \"#utility.yul\":27384:27826   */\n    tag_344:\n        /* \"#utility.yul\":27533:27537   */\n      0x00\n        /* \"#utility.yul\":27571:27573   */\n      0x60\n        /* \"#utility.yul\":27560:27569   */\n      dup3\n        /* \"#utility.yul\":27556:27574   */\n      add\n        /* \"#utility.yul\":27548:27574   */\n      swap1\n      pop\n        /* \"#utility.yul\":27584:27655   */\n      tag_676\n        /* \"#utility.yul\":27652:27653   */\n      0x00\n        /* \"#utility.yul\":27641:27650   */\n      dup4\n        /* \"#utility.yul\":27637:27654   */\n      add\n        /* \"#utility.yul\":27628:27634   */\n      dup7\n        /* \"#utility.yul\":27584:27655   */\n      tag_405\n      jump\t// in\n    tag_676:\n        /* \"#utility.yul\":27665:27737   */\n      tag_677\n        /* \"#utility.yul\":27733:27735   */\n      0x20\n        /* \"#utility.yul\":27722:27731   */\n      dup4\n        /* \"#utility.yul\":27718:27736   */\n      add\n        /* \"#utility.yul\":27709:27715   */\n      dup6\n        /* \"#utility.yul\":27665:27737   */\n      tag_405\n      jump\t// in\n    tag_677:\n        /* \"#utility.yul\":27747:27819   */\n      tag_678\n        /* \"#utility.yul\":27815:27817   */\n      0x40\n        /* \"#utility.yul\":27804:27813   */\n      dup4\n        /* \"#utility.yul\":27800:27818   */\n      add\n        /* \"#utility.yul\":27791:27797   */\n      dup5\n        /* \"#utility.yul\":27747:27819   */\n      tag_405\n      jump\t// in\n    tag_678:\n        /* \"#utility.yul\":27384:27826   */\n      swap5\n      swap4\n      pop\n      pop\n      pop\n      pop\n      jump\t// out\n        /* \"#utility.yul\":27832:28069   */\n    tag_450:\n        /* \"#utility.yul\":27972:28006   */\n      0x5374616b696e673a2043616e6e6f74207769746864726177206d6f7265207468\n        /* \"#utility.yul\":27968:27969   */\n      0x00\n        /* \"#utility.yul\":27960:27966   */\n      dup3\n        /* \"#utility.yul\":27956:27970   */\n      add\n        /* \"#utility.yul\":27949:28007   */\n      mstore\n        /* \"#utility.yul\":28041:28061   */\n      0x616e20796f752068617665207374616b65640000000000000000000000000000\n        /* \"#utility.yul\":28036:28038   */\n      0x20\n        /* \"#utility.yul\":28028:28034   */\n      dup3\n        /* \"#utility.yul\":28024:28039   */\n      add\n        /* \"#utility.yul\":28017:28062   */\n      mstore\n        /* \"#utility.yul\":27832:28069   */\n      pop\n      jump\t// out\n        /* \"#utility.yul\":28075:28441   */\n    tag_451:\n        /* \"#utility.yul\":28217:28220   */\n      0x00\n        /* \"#utility.yul\":28238:28305   */\n      tag_681\n        /* \"#utility.yul\":28302:28304   */\n      0x32\n        /* \"#utility.yul\":28297:28300   */\n      dup4\n        /* \"#utility.yul\":28238:28305   */\n      tag_389\n      jump\t// in\n    tag_681:\n        /* \"#utility.yul\":28231:28305   */\n      swap2\n      pop\n        /* \"#utility.yul\":28314:28407   */\n      tag_682\n        /* \"#utility.yul\":28403:28406   */\n      dup3\n        /* \"#utility.yul\":28314:28407   */\n      tag_450\n      jump\t// in\n    tag_682:\n        /* \"#utility.yul\":28432:28434   */\n      0x40\n        /* \"#utility.yul\":28427:28430   */\n      dup3\n        /* \"#utility.yul\":28423:28435   */\n      add\n        /* \"#utility.yul\":28416:28435   */\n      swap1\n      pop\n        /* \"#utility.yul\":28075:28441   */\n      swap2\n      swap1\n      pop\n      jump\t// out\n        /* \"#utility.yul\":28447:28866   */\n    tag_354:\n        /* \"#utility.yul\":28613:28617   */\n      0x00\n        /* \"#utility.yul\":28651:28653   */\n      0x20\n        /* \"#utility.yul\":28640:28649   */\n      dup3\n        /* \"#utility.yul\":28636:28654   */\n      add\n        /* \"#utility.yul\":28628:28654   */\n      swap1\n      pop\n        /* \"#utility.yul\":28700:28709   */\n      dup2\n        /* \"#utility.yul\":28694:28698   */\n      dup2\n        /* \"#utility.yul\":28690:28710   */\n      sub\n        /* \"#utility.yul\":28686:28687   */\n      0x00\n        /* \"#utility.yul\":28675:28684   */\n      dup4\n        /* \"#utility.yul\":28671:28688   */\n      add\n        /* \"#utility.yul\":28664:28711   */\n      mstore\n        /* \"#utility.yul\":28728:28859   */\n      tag_684\n        /* \"#utility.yul\":28854:28858   */\n      dup2\n        /* \"#utility.yul\":28728:28859   */\n      tag_451\n      jump\t// in\n    tag_684:\n        /* \"#utility.yul\":28720:28859   */\n      swap1\n      pop\n        /* \"#utility.yul\":28447:28866   */\n      swap2\n      swap1\n      pop\n      jump\t// out\n        /* \"#utility.yul\":28872:29097   */\n    tag_452:\n        /* \"#utility.yul\":29012:29046   */\n      0x4f776e61626c653a206e6577206f776e657220697320746865207a65726f2061\n        /* \"#utility.yul\":29008:29009   */\n      0x00\n        /* \"#utility.yul\":29000:29006   */\n      dup3\n        /* \"#utility.yul\":28996:29010   */\n      add\n        /* \"#utility.yul\":28989:29047   */\n      mstore\n        /* \"#utility.yul\":29081:29089   */\n      0x6464726573730000000000000000000000000000000000000000000000000000\n        /* \"#utility.yul\":29076:29078   */\n      0x20\n        /* \"#utility.yul\":29068:29074   */\n      dup3\n        /* \"#utility.yul\":29064:29079   */\n      add\n        /* \"#utility.yul\":29057:29090   */\n      mstore\n        /* \"#utility.yul\":28872:29097   */\n      pop\n      jump\t// out\n        /* \"#utility.yul\":29103:29469   */\n    tag_453:\n        /* \"#utility.yul\":29245:29248   */\n      0x00\n        /* \"#utility.yul\":29266:29333   */\n      tag_687\n        /* \"#utility.yul\":29330:29332   */\n      0x26\n        /* \"#utility.yul\":29325:29328   */\n      dup4\n        /* \"#utility.yul\":29266:29333   */\n      tag_389\n      jump\t// in\n    tag_687:\n        /* \"#utility.yul\":29259:29333   */\n      swap2\n      pop\n        /* \"#utility.yul\":29342:29435   */\n      tag_688\n        /* \"#utility.yul\":29431:29434   */\n      dup3\n        /* \"#utility.yul\":29342:29435   */\n      tag_452\n      jump\t// in\n    tag_688:\n        /* \"#utility.yul\":29460:29462   */\n      0x40\n        /* \"#utility.yul\":29455:29458   */\n      dup3\n        /* \"#utility.yul\":29451:29463   */\n      add\n        /* \"#utility.yul\":29444:29463   */\n      swap1\n      pop\n        /* \"#utility.yul\":29103:29469   */\n      swap2\n      swap1\n      pop\n      jump\t// out\n        /* \"#utility.yul\":29475:29894   */\n    tag_381:\n        /* \"#utility.yul\":29641:29645   */\n      0x00\n        /* \"#utility.yul\":29679:29681   */\n      0x20\n        /* \"#utility.yul\":29668:29677   */\n      dup3\n        /* \"#utility.yul\":29664:29682   */\n      add\n        /* \"#utility.yul\":29656:29682   */\n      swap1\n      pop\n        /* \"#utility.yul\":29728:29737   */\n      dup2\n        /* \"#utility.yul\":29722:29726   */\n      dup2\n        /* \"#utility.yul\":29718:29738   */\n      sub\n        /* \"#utility.yul\":29714:29715   */\n      0x00\n        /* \"#utility.yul\":29703:29712   */\n      dup4\n        /* \"#utility.yul\":29699:29716   */\n      add\n        /* \"#utility.yul\":29692:29739   */\n      mstore\n        /* \"#utility.yul\":29756:29887   */\n      tag_690\n        /* \"#utility.yul\":29882:29886   */\n      dup2\n        /* \"#utility.yul\":29756:29887   */\n      tag_453\n      jump\t// in\n    tag_690:\n        /* \"#utility.yul\":29748:29887   */\n      swap1\n      pop\n        /* \"#utility.yul\":29475:29894   */\n      swap2\n      swap1\n      pop\n      jump\t// out\n\n    auxdata: 0xa264697066735822122099d9160d23a2d29b6f374a1654f7cbfb96697bf44b733fe25e160221371c569664736f6c63430008110033\n}\n",
				"bytecode": {
					"linkReferences": {},
					"object": "60806040523480156200001157600080fd5b5060405162003e8538038062003e85833981810160405281019062000037919062000426565b336000806101000a81548173ffffffffffffffffffffffffffffffffffffffff021916908373ffffffffffffffffffffffffffffffffffffffff16021790555060008054906101000a900473ffffffffffffffffffffffffffffffffffffffff1673ffffffffffffffffffffffffffffffffffffffff16600073ffffffffffffffffffffffffffffffffffffffff167f8be0079c531659141344cd1fd0a4f28419497f9722a3daafe3b4186f6b6457e060405160405180910390a36002600181600181540180825580915050039060005260206000209050506201abbc60018190555083600790816200012b919062000717565b5082600690816200013d919062000717565b5081600560006101000a81548160ff021916908360ff16021790555080600481905550600454600860003373ffffffffffffffffffffffffffffffffffffffff1673ffffffffffffffffffffffffffffffffffffffff168152602001908152602001600020819055503373ffffffffffffffffffffffffffffffffffffffff16600073ffffffffffffffffffffffffffffffffffffffff167fddf252ad1be2c89b69c2b068fc378daa952ba7f163c4a11628f55a4df523b3ef6004546040516200020891906200080f565b60405180910390a3505050506200082c565b6000604051905090565b600080fd5b600080fd5b600080fd5b600080fd5b6000601f19601f8301169050919050565b7f4e487b7100000000000000000000000000000000000000000000000000000000600052604160045260246000fd5b620002838262000238565b810181811067ffffffffffffffff82111715620002a557620002a462000249565b5b80604052505050565b6000620002ba6200021a565b9050620002c8828262000278565b919050565b600067ffffffffffffffff821115620002eb57620002ea62000249565b5b620002f68262000238565b9050602081019050919050565b60005b838110156200032357808201518184015260208101905062000306565b60008484015250505050565b6000620003466200034084620002cd565b620002ae565b90508281526020810184848401111562000365576200036462000233565b5b6200037284828562000303565b509392505050565b600082601f8301126200039257620003916200022e565b5b8151620003a48482602086016200032f565b91505092915050565b600060ff82169050919050565b620003c581620003ad565b8114620003d157600080fd5b50565b600081519050620003e581620003ba565b92915050565b6000819050919050565b6200040081620003eb565b81146200040c57600080fd5b50565b6000815190506200042081620003f5565b92915050565b6000806000806080858703121562000443576200044262000224565b5b600085015167ffffffffffffffff81111562000464576200046362000229565b5b62000472878288016200037a565b945050602085015167ffffffffffffffff81111562000496576200049562000229565b5b620004a4878288016200037a565b9350506040620004b787828801620003d4565b9250506060620004ca878288016200040f565b91505092959194509250565b600081519050919050565b7f4e487b7100000000000000000000000000000000000000000000000000000000600052602260045260246000fd5b600060028204905060018216806200052957607f821691505b6020821081036200053f576200053e620004e1565b5b50919050565b60008190508160005260206000209050919050565b60006020601f8301049050919050565b600082821b905092915050565b600060088302620005a97fffffffffffffffffffffffffffffffffffffffffffffffffffffffffffffffff826200056a565b620005b586836200056a565b95508019841693508086168417925050509392505050565b6000819050919050565b6000620005f8620005f2620005ec84620003eb565b620005cd565b620003eb565b9050919050565b6000819050919050565b6200061483620005d7565b6200062c6200062382620005ff565b84845462000577565b825550505050565b600090565b6200064362000634565b6200065081848462000609565b505050565b5b8181101562000678576200066c60008262000639565b60018101905062000656565b5050565b601f821115620006c757620006918162000545565b6200069c846200055a565b81016020851015620006ac578190505b620006c4620006bb856200055a565b83018262000655565b50505b505050565b600082821c905092915050565b6000620006ec60001984600802620006cc565b1980831691505092915050565b6000620007078383620006d9565b9150826002028217905092915050565b6200072282620004d6565b67ffffffffffffffff8111156200073e576200073d62000249565b5b6200074a825462000510565b620007578282856200067c565b600060209050601f8311600181146200078f57600084156200077a578287015190505b620007868582620006f9565b865550620007f6565b601f1984166200079f8662000545565b60005b82811015620007c957848901518255600182019150602085019450602081019050620007a2565b86831015620007e95784890151620007e5601f891682620006d9565b8355505b6001600288020188555050505b505050505050565b6200080981620003eb565b82525050565b6000602082019050620008266000830184620007fe565b92915050565b613649806200083c6000396000f3fe608060405234801561001057600080fd5b50600436106101585760003560e01c8063893d20e8116100c3578063a694fc3a1161007c578063a694fc3a146103f3578063a9059cbb1461040f578063dd62ed3e1461043f578063e73e14bf1461046f578063f1fdf4691461049f578063f2fde38b146104bb57610158565b8063893d20e8146103095780638da5cb5b1461032757806393eb26da1461034557806395d89b41146103755780639dc29fac14610393578063a457c2d7146103c357610158565b806340c10f191161011557806340c10f19146102475780634f9a9caa1461027757806370a0823114610295578063715018a6146102c5578063853828b6146102cf5780638761dc5f146102d957610158565b806306fdde031461015d578063095ea7b31461017b57806318160ddd146101ab57806323b872dd146101c9578063313ce567146101f95780633950935114610217575b600080fd5b6101656104d7565b60405161017291906126fc565b60405180910390f35b610195600480360381019061019091906127b7565b610569565b6040516101a29190612812565b60405180910390f35b6101b3610580565b6040516101c0919061283c565b60405180910390f35b6101e360048036038101906101de9190612857565b61058a565b6040516101f09190612812565b60405180910390f35b6102016106f3565b60405161020e91906128c6565b60405180910390f35b610231600480360381019061022c91906127b7565b61070a565b60405161023e9190612812565b60405180910390f35b610261600480360381019061025c91906127b7565b6107a8565b60405161026e9190612812565b60405180910390f35b61027f61084c565b60405161028c919061283c565b60405180910390f35b6102af60048036038101906102aa91906128e1565b61085b565b6040516102bc919061283c565b60405180910390f35b6102cd6108a4565b005b6102d76109f0565b005b6102f360048036038101906102ee919061290e565b610a09565b6040516103009190612812565b60405180910390f35b610311610aab565b60405161031e919061294a565b60405180910390f35b61032f610aba565b60405161033c919061294a565b60405180910390f35b61035f600480360381019061035a91906128e1565b610ae3565b60405161036c919061283c565b60405180910390f35b61037d610d8a565b60405161038a91906126fc565b60405180910390f35b6103ad60048036038101906103a891906127b7565b610e1c565b6040516103ba9190612812565b60405180910390f35b6103dd60048036038101906103d891906127b7565b610ec0565b6040516103ea9190612812565b60405180910390f35b61040d6004803603810190610408919061290e565b610f5e565b005b610429600480360381019061042491906127b7565b611045565b6040516104369190612812565b60405180910390f35b61045960048036038101906104549190612965565b61105c565b604051610466919061283c565b60405180910390f35b610489600480360381019061048491906128e1565b6110e3565b6040516104969190612b04565b60405180910390f35b6104b960048036038101906104b49190612b26565b6112f0565b005b6104d560048036038101906104d091906128e1565b61130d565b005b6060600780546104e690612b95565b80601f016020809104026020016040519081016040528092919081815260200182805461051290612b95565b801561055f5780601f106105345761010080835404028352916020019161055f565b820191906000526020600020905b81548152906001019060200180831161054257829003601f168201915b5050505050905090565b60006105763384846113a7565b6001905092915050565b6000600454905090565b600081600960008673ffffffffffffffffffffffffffffffffffffffff1673ffffffffffffffffffffffffffffffffffffffff16815260200190815260200160002060003373ffffffffffffffffffffffffffffffffffffffff1673ffffffffffffffffffffffffffffffffffffffff16815260200190815260200160002054101561064b576040517f08c379a000000000000000000000000000000000000000000000000000000000815260040161064290612c38565b60405180910390fd5b610656848484611570565b6106e8843384600960008973ffffffffffffffffffffffffffffffffffffffff1673ffffffffffffffffffffffffffffffffffffffff16815260200190815260200160002060003373ffffffffffffffffffffffffffffffffffffffff1673ffffffffffffffffffffffffffffffffffffffff168152602001908152602001600020546106e39190612c87565b6113a7565b600190509392505050565b6000600560009054906101000a900460ff16905090565b600061079e338484600960003373ffffffffffffffffffffffffffffffffffffffff1673ffffffffffffffffffffffffffffffffffffffff16815260200190815260200160002060008873ffffffffffffffffffffffffffffffffffffffff1673ffffffffffffffffffffffffffffffffffffffff168152602001908152602001600020546107999190612cbb565b6113a7565b6001905092915050565b60003373ffffffffffffffffffffffffffffffffffffffff1660008054906101000a900473ffffffffffffffffffffffffffffffffffffffff1673ffffffffffffffffffffffffffffffffffffffff1614610838576040517f08c379a000000000000000000000000000000000000000000000000000000000815260040161082f90612d61565b60405180910390fd5b6108428383611856565b6001905092915050565b60006108566119d1565b905090565b6000600860008373ffffffffffffffffffffffffffffffffffffffff1673ffffffffffffffffffffffffffffffffffffffff168152602001908152602001600020549050919050565b3373ffffffffffffffffffffffffffffffffffffffff1660008054906101000a900473ffffffffffffffffffffffffffffffffffffffff1673ffffffffffffffffffffffffffffffffffffffff1614610932576040517f08c379a000000000000000000000000000000000000000000000000000000000815260040161092990612d61565b60405180910390fd5b600073ffffffffffffffffffffffffffffffffffffffff1660008054906101000a900473ffffffffffffffffffffffffffffffffffffffff1673ffffffffffffffffffffffffffffffffffffffff167f8be0079c531659141344cd1fd0a4f28419497f9722a3daafe3b4186f6b6457e060405160405180910390a360008060006101000a81548173ffffffffffffffffffffffffffffffffffffffff021916908373ffffffffffffffffffffffffffffffffffffffff160217905550565b60006109fa6119db565b9050610a063382611856565b50565b60003373ffffffffffffffffffffffffffffffffffffffff1660008054906101000a900473ffffffffffffffffffffffffffffffffffffffff1673ffffffffffffffffffffffffffffffffffffffff1614610a99576040517f08c379a0000000000000000000000000000000000000000000000000000000008152600401610a9090612d61565b60405180910390fd5b610aa282611d07565b60019050919050565b6000610ab5610aba565b905090565b60008060009054906101000a900473ffffffffffffffffffffffffffffffffffffffff16905090565b6000806000600360008573ffffffffffffffffffffffffffffffffffffffff1673ffffffffffffffffffffffffffffffffffffffff16815260200190815260200160002054905060006040518060400160405280600081526020016002600360008973ffffffffffffffffffffffffffffffffffffffff1673ffffffffffffffffffffffffffffffffffffffff1681526020019081526020016000205481548110610b9157610b90612d81565b5b9060005260206000209060020201600101805480602002602001604051908101604052809291908181526020016000905b82821015610c6857838290600052602060002090600402016040518060800160405290816000820160009054906101000a900473ffffffffffffffffffffffffffffffffffffffff1673ffffffffffffffffffffffffffffffffffffffff1673ffffffffffffffffffffffffffffffffffffffff168152602001600182015481526020016002820154815260200160038201548152505081526020019060010190610bc2565b50505050815250905060005b816020015151811015610d7e57600060028481548110610c9757610c96612d81565b5b90600052602060002090600202016001018281548110610cba57610cb9612d81565b5b90600052602060002090600402016040518060800160405290816000820160009054906101000a900473ffffffffffffffffffffffffffffffffffffffff1673ffffffffffffffffffffffffffffffffffffffff1673ffffffffffffffffffffffffffffffffffffffff168152602001600182015481526020016002820154815260200160038201548152505090506000610d5482611d54565b9050808260200151610d669190612cbb565b95505050600181610d779190612cbb565b9050610c74565b50829350505050919050565b606060068054610d9990612b95565b80601f0160208091040260200160405190810160405280929190818152602001828054610dc590612b95565b8015610e125780601f10610de757610100808354040283529160200191610e12565b820191906000526020600020905b815481529060010190602001808311610df557829003601f168201915b5050505050905090565b60003373ffffffffffffffffffffffffffffffffffffffff1660008054906101000a900473ffffffffffffffffffffffffffffffffffffffff1673ffffffffffffffffffffffffffffffffffffffff1614610eac576040517f08c379a0000000000000000000000000000000000000000000000000000000008152600401610ea390612d61565b60405180910390fd5b610eb68383611d96565b6001905092915050565b6000610f54338484600960003373ffffffffffffffffffffffffffffffffffffffff1673ffffffffffffffffffffffffffffffffffffffff16815260200190815260200160002060008873ffffffffffffffffffffffffffffffffffffffff1673ffffffffffffffffffffffffffffffffffffffff16815260200190815260200160002054610f4f9190612c87565b6113a7565b6001905092915050565b6a5955e3bb3e743fec00000060045410610fad576040517f08c379a0000000000000000000000000000000000000000000000000000000008152600401610fa490612dfc565b60405180910390fd5b600860003373ffffffffffffffffffffffffffffffffffffffff1673ffffffffffffffffffffffffffffffffffffffff1681526020019081526020016000205481111561102f576040517f08c379a000000000000000000000000000000000000000000000000000000000815260040161102690612e8e565b60405180910390fd5b61103881611f93565b6110423382611d96565b50565b6000611052338484611570565b6001905092915050565b6000600960008473ffffffffffffffffffffffffffffffffffffffff1673ffffffffffffffffffffffffffffffffffffffff16815260200190815260200160002060008373ffffffffffffffffffffffffffffffffffffffff1673ffffffffffffffffffffffffffffffffffffffff16815260200190815260200160002054905092915050565b6110eb612652565b6000806040518060400160405280600081526020016002600360008873ffffffffffffffffffffffffffffffffffffffff1673ffffffffffffffffffffffffffffffffffffffff168152602001908152602001600020548154811061115357611152612d81565b5b9060005260206000209060020201600101805480602002602001604051908101604052809291908181526020016000905b8282101561122a57838290600052602060002090600402016040518060800160405290816000820160009054906101000a900473ffffffffffffffffffffffffffffffffffffffff1673ffffffffffffffffffffffffffffffffffffffff1673ffffffffffffffffffffffffffffffffffffffff168152602001600182015481526020016002820154815260200160038201548152505081526020019060010190611184565b50505050815250905060005b8160200151518110156112db57600061126c8360200151838151811061125f5761125e612d81565b5b6020026020010151611d54565b9050808360200151838151811061128657611285612d81565b5b60200260200101516060018181525050826020015182815181106112ad576112ac612d81565b5b602002602001015160200151846112c49190612cbb565b9350506001816112d49190612cbb565b9050611236565b50818160000181815250508092505050919050565b60006112fc8383612177565b90506113083382611856565b505050565b3373ffffffffffffffffffffffffffffffffffffffff1660008054906101000a900473ffffffffffffffffffffffffffffffffffffffff1673ffffffffffffffffffffffffffffffffffffffff161461139b576040517f08c379a000000000000000000000000000000000000000000000000000000000815260040161139290612d61565b60405180910390fd5b6113a48161243f565b50565b600073ffffffffffffffffffffffffffffffffffffffff168373ffffffffffffffffffffffffffffffffffffffff1603611416576040517f08c379a000000000000000000000000000000000000000000000000000000000815260040161140d90612f20565b60405180910390fd5b600073ffffffffffffffffffffffffffffffffffffffff168273ffffffffffffffffffffffffffffffffffffffff1603611485576040517f08c379a000000000000000000000000000000000000000000000000000000000815260040161147c90612fb2565b60405180910390fd5b80600960008573ffffffffffffffffffffffffffffffffffffffff1673ffffffffffffffffffffffffffffffffffffffff16815260200190815260200160002060008473ffffffffffffffffffffffffffffffffffffffff1673ffffffffffffffffffffffffffffffffffffffff168152602001908152602001600020819055508173ffffffffffffffffffffffffffffffffffffffff168373ffffffffffffffffffffffffffffffffffffffff167f8c5be1e5ebec7d5bd14f71427d1e84f3dd0314c0f7b2291e5b200ac8c7c3b92583604051611563919061283c565b60405180910390a3505050565b600073ffffffffffffffffffffffffffffffffffffffff168373ffffffffffffffffffffffffffffffffffffffff16036115df576040517f08c379a00000000000000000000000000000000000000000000000000000000081526004016115d690613044565b60405180910390fd5b600073ffffffffffffffffffffffffffffffffffffffff168273ffffffffffffffffffffffffffffffffffffffff160361164e576040517f08c379a0000000000000000000000000000000000000000000000000000000008152600401611645906130d6565b60405180910390fd5b80600860008573ffffffffffffffffffffffffffffffffffffffff1673ffffffffffffffffffffffffffffffffffffffff1681526020019081526020016000205410156116d0576040517f08c379a00000000000000000000000000000000000000000000000000000000081526004016116c790613168565b60405180910390fd5b80600860008573ffffffffffffffffffffffffffffffffffffffff1673ffffffffffffffffffffffffffffffffffffffff1681526020019081526020016000205461171b9190612c87565b600860008573ffffffffffffffffffffffffffffffffffffffff1673ffffffffffffffffffffffffffffffffffffffff1681526020019081526020016000208190555080600860008473ffffffffffffffffffffffffffffffffffffffff1673ffffffffffffffffffffffffffffffffffffffff168152602001908152602001600020546117a99190612cbb565b600860008473ffffffffffffffffffffffffffffffffffffffff1673ffffffffffffffffffffffffffffffffffffffff168152602001908152602001600020819055508173ffffffffffffffffffffffffffffffffffffffff168373ffffffffffffffffffffffffffffffffffffffff167fddf252ad1be2c89b69c2b068fc378daa952ba7f163c4a11628f55a4df523b3ef83604051611849919061283c565b60405180910390a3505050565b600073ffffffffffffffffffffffffffffffffffffffff168273ffffffffffffffffffffffffffffffffffffffff16036118c5576040517f08c379a00000000000000000000000000000000000000000000000000000000081526004016118bc906131fa565b60405180910390fd5b806004546118d39190612cbb565b60048190555080600860008473ffffffffffffffffffffffffffffffffffffffff1673ffffffffffffffffffffffffffffffffffffffff168152602001908152602001600020546119249190612cbb565b600860008473ffffffffffffffffffffffffffffffffffffffff1673ffffffffffffffffffffffffffffffffffffffff168152602001908152602001600020819055508173ffffffffffffffffffffffffffffffffffffffff16600073ffffffffffffffffffffffffffffffffffffffff167fddf252ad1be2c89b69c2b068fc378daa952ba7f163c4a11628f55a4df523b3ef836040516119c5919061283c565b60405180910390a35050565b6000600154905090565b6000806000600360003373ffffffffffffffffffffffffffffffffffffffff1673ffffffffffffffffffffffffffffffffffffffff16815260200190815260200160002054905060006040518060400160405280600081526020016002600360003373ffffffffffffffffffffffffffffffffffffffff1673ffffffffffffffffffffffffffffffffffffffff1681526020019081526020016000205481548110611a8957611a88612d81565b5b9060005260206000209060020201600101805480602002602001604051908101604052809291908181526020016000905b82821015611b6057838290600052602060002090600402016040518060800160405290816000820160009054906101000a900473ffffffffffffffffffffffffffffffffffffffff1673ffffffffffffffffffffffffffffffffffffffff1673ffffffffffffffffffffffffffffffffffffffff168152602001600182015481526020016002820154815260200160038201548152505081526020019060010190611aba565b50505050815250905060005b816020015151811015611cfd57600060028481548110611b8f57611b8e612d81565b5b90600052602060002090600202016001018281548110611bb257611bb1612d81565b5b90600052602060002090600402016040518060800160405290816000820160009054906101000a900473ffffffffffffffffffffffffffffffffffffffff1673ffffffffffffffffffffffffffffffffffffffff1673ffffffffffffffffffffffffffffffffffffffff168152602001600182015481526020016002820154815260200160038201548152505090506000611c4c82611d54565b9050808260200151611c5e9190612cbb565b955060028581548110611c7457611c73612d81565b5b90600052602060002090600202016001018381548110611c9757611c96612d81565b5b9060005260206000209060040201600080820160006101000a81549073ffffffffffffffffffffffffffffffffffffffff021916905560018201600090556002820160009055600382016000905550505050600181611cf69190612cbb565b9050611b6c565b5082935050505090565b60008111611d4a576040517f08c379a0000000000000000000000000000000000000000000000000000000008152600401611d4190613266565b60405180910390fd5b8060018190555050565b60006001548260200151610e10846040015142611d719190612c87565b611d7b91906132b5565b611d8591906132e6565b611d8f91906132b5565b9050919050565b600073ffffffffffffffffffffffffffffffffffffffff168273ffffffffffffffffffffffffffffffffffffffff1603611e05576040517f08c379a0000000000000000000000000000000000000000000000000000000008152600401611dfc9061339a565b60405180910390fd5b80600860008473ffffffffffffffffffffffffffffffffffffffff1673ffffffffffffffffffffffffffffffffffffffff168152602001908152602001600020541015611e87576040517f08c379a0000000000000000000000000000000000000000000000000000000008152600401611e7e9061342c565b60405180910390fd5b80600860008473ffffffffffffffffffffffffffffffffffffffff1673ffffffffffffffffffffffffffffffffffffffff16815260200190815260200160002054611ed29190612c87565b600860008473ffffffffffffffffffffffffffffffffffffffff1673ffffffffffffffffffffffffffffffffffffffff1681526020019081526020016000208190555080600454611f239190612c87565b600481905550600073ffffffffffffffffffffffffffffffffffffffff168273ffffffffffffffffffffffffffffffffffffffff167fddf252ad1be2c89b69c2b068fc378daa952ba7f163c4a11628f55a4df523b3ef83604051611f87919061283c565b60405180910390a35050565b60008111611fd6576040517f08c379a0000000000000000000000000000000000000000000000000000000008152600401611fcd90613498565b60405180910390fd5b6000600360003373ffffffffffffffffffffffffffffffffffffffff1673ffffffffffffffffffffffffffffffffffffffff168152602001908152602001600020549050600042905060008203612033576120303361256b565b91505b6002828154811061204757612046612d81565b5b906000526020600020906002020160010160405180608001604052803373ffffffffffffffffffffffffffffffffffffffff1681526020018581526020018381526020016000815250908060018154018082558091505060019003906000526020600020906004020160009091909190915060008201518160000160006101000a81548173ffffffffffffffffffffffffffffffffffffffff021916908373ffffffffffffffffffffffffffffffffffffffff16021790555060208201518160010155604082015181600201556060820151816003015550503373ffffffffffffffffffffffffffffffffffffffff167fb4caaf29adda3eefee3ad552a8e85058589bf834c7466cae4ee58787f70589ed84848460405161216a939291906134b8565b60405180910390a2505050565b600080600360003373ffffffffffffffffffffffffffffffffffffffff1673ffffffffffffffffffffffffffffffffffffffff1681526020019081526020016000205490506000600282815481106121d2576121d1612d81565b5b906000526020600020906002020160010184815481106121f5576121f4612d81565b5b90600052602060002090600402016040518060800160405290816000820160009054906101000a900473ffffffffffffffffffffffffffffffffffffffff1673ffffffffffffffffffffffffffffffffffffffff1673ffffffffffffffffffffffffffffffffffffffff1681526020016001820154815260200160028201548152602001600382015481525050905084816020015110156122cb576040517f08c379a00000000000000000000000000000000000000000000000000000000081526004016122c290613561565b60405180910390fd5b60006122d682611d54565b90508582602001516122e89190612c87565b8260200181815250506000826020015103612389576002838154811061231157612310612d81565b5b9060005260206000209060020201600101858154811061233457612333612d81565b5b9060005260206000209060040201600080820160006101000a81549073ffffffffffffffffffffffffffffffffffffffff02191690556001820160009055600282016000905560038201600090555050612428565b8160200151600284815481106123a2576123a1612d81565b5b906000526020600020906002020160010186815481106123c5576123c4612d81565b5b90600052602060002090600402016001018190555042600284815481106123ef576123ee612d81565b5b9060005260206000209060020201600101868154811061241257612411612d81565b5b9060005260206000209060040201600201819055505b80866124349190612cbb565b935050505092915050565b600073ffffffffffffffffffffffffffffffffffffffff168173ffffffffffffffffffffffffffffffffffffffff16036124ae576040517f08c379a00000000000000000000000000000000000000000000000000000000081526004016124a5906135f3565b60405180910390fd5b8073ffffffffffffffffffffffffffffffffffffffff1660008054906101000a900473ffffffffffffffffffffffffffffffffffffffff1673ffffffffffffffffffffffffffffffffffffffff167f8be0079c531659141344cd1fd0a4f28419497f9722a3daafe3b4186f6b6457e060405160405180910390a3806000806101000a81548173ffffffffffffffffffffffffffffffffffffffff021916908373ffffffffffffffffffffffffffffffffffffffff16021790555050565b60006002600181600181540180825580915050039060005260206000209050506000600160028054905061259f9190612c87565b905082600282815481106125b6576125b5612d81565b5b906000526020600020906002020160000160006101000a81548173ffffffffffffffffffffffffffffffffffffffff021916908373ffffffffffffffffffffffffffffffffffffffff16021790555080600360008573ffffffffffffffffffffffffffffffffffffffff1673ffffffffffffffffffffffffffffffffffffffff1681526020019081526020016000208190555080915050919050565b604051806040016040528060008152602001606081525090565b600081519050919050565b600082825260208201905092915050565b60005b838110156126a657808201518184015260208101905061268b565b60008484015250505050565b6000601f19601f8301169050919050565b60006126ce8261266c565b6126d88185612677565b93506126e8818560208601612688565b6126f1816126b2565b840191505092915050565b6000602082019050818103600083015261271681846126c3565b905092915050565b600080fd5b600073ffffffffffffffffffffffffffffffffffffffff82169050919050565b600061274e82612723565b9050919050565b61275e81612743565b811461276957600080fd5b50565b60008135905061277b81612755565b92915050565b6000819050919050565b61279481612781565b811461279f57600080fd5b50565b6000813590506127b18161278b565b92915050565b600080604083850312156127ce576127cd61271e565b5b60006127dc8582860161276c565b92505060206127ed858286016127a2565b9150509250929050565b60008115159050919050565b61280c816127f7565b82525050565b60006020820190506128276000830184612803565b92915050565b61283681612781565b82525050565b6000602082019050612851600083018461282d565b92915050565b6000806000606084860312156128705761286f61271e565b5b600061287e8682870161276c565b935050602061288f8682870161276c565b92505060406128a0868287016127a2565b9150509250925092565b600060ff82169050919050565b6128c0816128aa565b82525050565b60006020820190506128db60008301846128b7565b92915050565b6000602082840312156128f7576128f661271e565b5b60006129058482850161276c565b91505092915050565b6000602082840312156129245761292361271e565b5b6000612932848285016127a2565b91505092915050565b61294481612743565b82525050565b600060208201905061295f600083018461293b565b92915050565b6000806040838503121561297c5761297b61271e565b5b600061298a8582860161276c565b925050602061299b8582860161276c565b9150509250929050565b6129ae81612781565b82525050565b600081519050919050565b600082825260208201905092915050565b6000819050602082019050919050565b6129e981612743565b82525050565b608082016000820151612a0560008501826129e0565b506020820151612a1860208501826129a5565b506040820151612a2b60408501826129a5565b506060820151612a3e60608501826129a5565b50505050565b6000612a5083836129ef565b60808301905092915050565b6000602082019050919050565b6000612a74826129b4565b612a7e81856129bf565b9350612a89836129d0565b8060005b83811015612aba578151612aa18882612a44565b9750612aac83612a5c565b925050600181019050612a8d565b5085935050505092915050565b6000604083016000830151612adf60008601826129a5565b5060208301518482036020860152612af78282612a69565b9150508091505092915050565b60006020820190508181036000830152612b1e8184612ac7565b905092915050565b60008060408385031215612b3d57612b3c61271e565b5b6000612b4b858286016127a2565b9250506020612b5c858286016127a2565b9150509250929050565b7f4e487b7100000000000000000000000000000000000000000000000000000000600052602260045260246000fd5b60006002820490506001821680612bad57607f821691505b602082108103612bc057612bbf612b66565b5b50919050565b7f416c6661436f696e3a20596f752063616e6e6f74207370656e6420746861742060008201527f6d756368206f6e2074686973206163636f756e74000000000000000000000000602082015250565b6000612c22603483612677565b9150612c2d82612bc6565b604082019050919050565b60006020820190508181036000830152612c5181612c15565b9050919050565b7f4e487b7100000000000000000000000000000000000000000000000000000000600052601160045260246000fd5b6000612c9282612781565b9150612c9d83612781565b9250828203905081811115612cb557612cb4612c58565b5b92915050565b6000612cc682612781565b9150612cd183612781565b9250828201905080821115612ce957612ce8612c58565b5b92915050565b7f4f776e61626c653a206f6e6c79206f776e65722063616e2063616c6c2074686960008201527f732066756e6374696f6e00000000000000000000000000000000000000000000602082015250565b6000612d4b602a83612677565b9150612d5682612cef565b604082019050919050565b60006020820190508181036000830152612d7a81612d3e565b9050919050565b7f4e487b7100000000000000000000000000000000000000000000000000000000600052603260045260246000fd5b7f416c6661436f696e3a2043616e6e6f74207374616b65206d6f72650000000000600082015250565b6000612de6601b83612677565b9150612df182612db0565b602082019050919050565b60006020820190508181036000830152612e1581612dd9565b9050919050565b7f416c6661436f696e3a2043616e6e6f74207374616b65206d6f7265207468616e60008201527f20796f75206f776e000000000000000000000000000000000000000000000000602082015250565b6000612e78602883612677565b9150612e8382612e1c565b604082019050919050565b60006020820190508181036000830152612ea781612e6b565b9050919050565b7f416c6661436f696e3a20617070726f76652063616e6e6f7420626520646f6e6560008201527f2066726f6d207a65726f20616464726573730000000000000000000000000000602082015250565b6000612f0a603283612677565b9150612f1582612eae565b604082019050919050565b60006020820190508181036000830152612f3981612efd565b9050919050565b7f416c6661436f696e3a20617070726f76652063616e6e6f7420626520746f207a60008201527f65726f2061646472657373000000000000000000000000000000000000000000602082015250565b6000612f9c602b83612677565b9150612fa782612f40565b604082019050919050565b60006020820190508181036000830152612fcb81612f8f565b9050919050565b7f416c6661436f696e3a207472616e736665722066726f6d207a65726f2061646460008201527f7265737300000000000000000000000000000000000000000000000000000000602082015250565b600061302e602483612677565b915061303982612fd2565b604082019050919050565b6000602082019050818103600083015261305d81613021565b9050919050565b7f416c6661436f696e3a207472616e7366657220746f207a65726f20616464726560008201527f7373000000000000000000000000000000000000000000000000000000000000602082015250565b60006130c0602283612677565b91506130cb82613064565b604082019050919050565b600060208201905081810360008301526130ef816130b3565b9050919050565b7f416c6661436f696e3a2063616e74207472616e73666572206d6f72652074686160008201527f6e20796f7572206163636f756e7420686f6c6473000000000000000000000000602082015250565b6000613152603483612677565b915061315d826130f6565b604082019050919050565b6000602082019050818103600083015261318181613145565b9050919050565b7f416c6661436f696e3a2063616e6e6f74206d696e7420746f207a65726f20616460008201527f6472657373000000000000000000000000000000000000000000000000000000602082015250565b60006131e4602583612677565b91506131ef82613188565b604082019050919050565b60006020820190508181036000830152613213816131d7565b9050919050565b7f43616e6e6f742062652030250000000000000000000000000000000000000000600082015250565b6000613250600c83612677565b915061325b8261321a565b602082019050919050565b6000602082019050818103600083015261327f81613243565b9050919050565b7f4e487b7100000000000000000000000000000000000000000000000000000000600052601260045260246000fd5b60006132c082612781565b91506132cb83612781565b9250826132db576132da613286565b5b828204905092915050565b60006132f182612781565b91506132fc83612781565b925082820261330a81612781565b9150828204841483151761332157613320612c58565b5b5092915050565b7f416c6661436f696e3a2063616e6e6f74206275726e2066726f6d207a65726f2060008201527f6164647265737300000000000000000000000000000000000000000000000000602082015250565b6000613384602783612677565b915061338f82613328565b604082019050919050565b600060208201905081810360008301526133b381613377565b9050919050565b7f416c6661436f696e3a2043616e6e6f74206275726e206d6f7265207468616e2060008201527f746865206163636f756e74206f776e7300000000000000000000000000000000602082015250565b6000613416603083612677565b9150613421826133ba565b604082019050919050565b6000602082019050818103600083015261344581613409565b9050919050565b7f43616e6e6f74207374616b65206e6f7468696e67000000000000000000000000600082015250565b6000613482601483612677565b915061348d8261344c565b602082019050919050565b600060208201905081810360008301526134b181613475565b9050919050565b60006060820190506134cd600083018661282d565b6134da602083018561282d565b6134e7604083018461282d565b949350505050565b7f5374616b696e673a2043616e6e6f74207769746864726177206d6f726520746860008201527f616e20796f752068617665207374616b65640000000000000000000000000000602082015250565b600061354b603283612677565b9150613556826134ef565b604082019050919050565b6000602082019050818103600083015261357a8161353e565b9050919050565b7f4f776e61626c653a206e6577206f776e657220697320746865207a65726f206160008201527f6464726573730000000000000000000000000000000000000000000000000000602082015250565b60006135dd602683612677565b91506135e882613581565b604082019050919050565b6000602082019050818103600083015261360c816135d0565b905091905056fea264697066735822122099d9160d23a2d29b6f374a1654f7cbfb96697bf44b733fe25e160221371c569664736f6c63430008110033",
					"opcodes": "PUSH1 0x80 PUSH1 0x40 MSTORE CALLVALUE DUP1 ISZERO PUSH3 0x11 JUMPI PUSH1 0x0 DUP1 REVERT JUMPDEST POP PUSH1 0x40 MLOAD PUSH3 0x3E85 CODESIZE SUB DUP1 PUSH3 0x3E85 DUP4 CODECOPY DUP2 DUP2 ADD PUSH1 0x40 MSTORE DUP2 ADD SWAP1 PUSH3 0x37 SWAP2 SWAP1 PUSH3 0x426 JUMP JUMPDEST CALLER PUSH1 0x0 DUP1 PUSH2 0x100 EXP DUP2 SLOAD DUP2 PUSH20 0xFFFFFFFFFFFFFFFFFFFFFFFFFFFFFFFFFFFFFFFF MUL NOT AND SWAP1 DUP4 PUSH20 0xFFFFFFFFFFFFFFFFFFFFFFFFFFFFFFFFFFFFFFFF AND MUL OR SWAP1 SSTORE POP PUSH1 0x0 DUP1 SLOAD SWAP1 PUSH2 0x100 EXP SWAP1 DIV PUSH20 0xFFFFFFFFFFFFFFFFFFFFFFFFFFFFFFFFFFFFFFFF AND PUSH20 0xFFFFFFFFFFFFFFFFFFFFFFFFFFFFFFFFFFFFFFFF AND PUSH1 0x0 PUSH20 0xFFFFFFFFFFFFFFFFFFFFFFFFFFFFFFFFFFFFFFFF AND PUSH32 0x8BE0079C531659141344CD1FD0A4F28419497F9722A3DAAFE3B4186F6B6457E0 PUSH1 0x40 MLOAD PUSH1 0x40 MLOAD DUP1 SWAP2 SUB SWAP1 LOG3 PUSH1 0x2 PUSH1 0x1 DUP2 PUSH1 0x1 DUP2 SLOAD ADD DUP1 DUP3 SSTORE DUP1 SWAP2 POP POP SUB SWAP1 PUSH1 0x0 MSTORE PUSH1 0x20 PUSH1 0x0 KECCAK256 SWAP1 POP POP PUSH3 0x1ABBC PUSH1 0x1 DUP2 SWAP1 SSTORE POP DUP4 PUSH1 0x7 SWAP1 DUP2 PUSH3 0x12B SWAP2 SWAP1 PUSH3 0x717 JUMP JUMPDEST POP DUP3 PUSH1 0x6 SWAP1 DUP2 PUSH3 0x13D SWAP2 SWAP1 PUSH3 0x717 JUMP JUMPDEST POP DUP2 PUSH1 0x5 PUSH1 0x0 PUSH2 0x100 EXP DUP2 SLOAD DUP2 PUSH1 0xFF MUL NOT AND SWAP1 DUP4 PUSH1 0xFF AND MUL OR SWAP1 SSTORE POP DUP1 PUSH1 0x4 DUP2 SWAP1 SSTORE POP PUSH1 0x4 SLOAD PUSH1 0x8 PUSH1 0x0 CALLER PUSH20 0xFFFFFFFFFFFFFFFFFFFFFFFFFFFFFFFFFFFFFFFF AND PUSH20 0xFFFFFFFFFFFFFFFFFFFFFFFFFFFFFFFFFFFFFFFF AND DUP2 MSTORE PUSH1 0x20 ADD SWAP1 DUP2 MSTORE PUSH1 0x20 ADD PUSH1 0x0 KECCAK256 DUP2 SWAP1 SSTORE POP CALLER PUSH20 0xFFFFFFFFFFFFFFFFFFFFFFFFFFFFFFFFFFFFFFFF AND PUSH1 0x0 PUSH20 0xFFFFFFFFFFFFFFFFFFFFFFFFFFFFFFFFFFFFFFFF AND PUSH32 0xDDF252AD1BE2C89B69C2B068FC378DAA952BA7F163C4A11628F55A4DF523B3EF PUSH1 0x4 SLOAD PUSH1 0x40 MLOAD PUSH3 0x208 SWAP2 SWAP1 PUSH3 0x80F JUMP JUMPDEST PUSH1 0x40 MLOAD DUP1 SWAP2 SUB SWAP1 LOG3 POP POP POP POP PUSH3 0x82C JUMP JUMPDEST PUSH1 0x0 PUSH1 0x40 MLOAD SWAP1 POP SWAP1 JUMP JUMPDEST PUSH1 0x0 DUP1 REVERT JUMPDEST PUSH1 0x0 DUP1 REVERT JUMPDEST PUSH1 0x0 DUP1 REVERT JUMPDEST PUSH1 0x0 DUP1 REVERT JUMPDEST PUSH1 0x0 PUSH1 0x1F NOT PUSH1 0x1F DUP4 ADD AND SWAP1 POP SWAP2 SWAP1 POP JUMP JUMPDEST PUSH32 0x4E487B7100000000000000000000000000000000000000000000000000000000 PUSH1 0x0 MSTORE PUSH1 0x41 PUSH1 0x4 MSTORE PUSH1 0x24 PUSH1 0x0 REVERT JUMPDEST PUSH3 0x283 DUP3 PUSH3 0x238 JUMP JUMPDEST DUP2 ADD DUP2 DUP2 LT PUSH8 0xFFFFFFFFFFFFFFFF DUP3 GT OR ISZERO PUSH3 0x2A5 JUMPI PUSH3 0x2A4 PUSH3 0x249 JUMP JUMPDEST JUMPDEST DUP1 PUSH1 0x40 MSTORE POP POP POP JUMP JUMPDEST PUSH1 0x0 PUSH3 0x2BA PUSH3 0x21A JUMP JUMPDEST SWAP1 POP PUSH3 0x2C8 DUP3 DUP3 PUSH3 0x278 JUMP JUMPDEST SWAP2 SWAP1 POP JUMP JUMPDEST PUSH1 0x0 PUSH8 0xFFFFFFFFFFFFFFFF DUP3 GT ISZERO PUSH3 0x2EB JUMPI PUSH3 0x2EA PUSH3 0x249 JUMP JUMPDEST JUMPDEST PUSH3 0x2F6 DUP3 PUSH3 0x238 JUMP JUMPDEST SWAP1 POP PUSH1 0x20 DUP2 ADD SWAP1 POP SWAP2 SWAP1 POP JUMP JUMPDEST PUSH1 0x0 JUMPDEST DUP4 DUP2 LT ISZERO PUSH3 0x323 JUMPI DUP1 DUP3 ADD MLOAD DUP2 DUP5 ADD MSTORE PUSH1 0x20 DUP2 ADD SWAP1 POP PUSH3 0x306 JUMP JUMPDEST PUSH1 0x0 DUP5 DUP5 ADD MSTORE POP POP POP POP JUMP JUMPDEST PUSH1 0x0 PUSH3 0x346 PUSH3 0x340 DUP5 PUSH3 0x2CD JUMP JUMPDEST PUSH3 0x2AE JUMP JUMPDEST SWAP1 POP DUP3 DUP2 MSTORE PUSH1 0x20 DUP2 ADD DUP5 DUP5 DUP5 ADD GT ISZERO PUSH3 0x365 JUMPI PUSH3 0x364 PUSH3 0x233 JUMP JUMPDEST JUMPDEST PUSH3 0x372 DUP5 DUP3 DUP6 PUSH3 0x303 JUMP JUMPDEST POP SWAP4 SWAP3 POP POP POP JUMP JUMPDEST PUSH1 0x0 DUP3 PUSH1 0x1F DUP4 ADD SLT PUSH3 0x392 JUMPI PUSH3 0x391 PUSH3 0x22E JUMP JUMPDEST JUMPDEST DUP2 MLOAD PUSH3 0x3A4 DUP5 DUP3 PUSH1 0x20 DUP7 ADD PUSH3 0x32F JUMP JUMPDEST SWAP2 POP POP SWAP3 SWAP2 POP POP JUMP JUMPDEST PUSH1 0x0 PUSH1 0xFF DUP3 AND SWAP1 POP SWAP2 SWAP1 POP JUMP JUMPDEST PUSH3 0x3C5 DUP2 PUSH3 0x3AD JUMP JUMPDEST DUP2 EQ PUSH3 0x3D1 JUMPI PUSH1 0x0 DUP1 REVERT JUMPDEST POP JUMP JUMPDEST PUSH1 0x0 DUP2 MLOAD SWAP1 POP PUSH3 0x3E5 DUP2 PUSH3 0x3BA JUMP JUMPDEST SWAP3 SWAP2 POP POP JUMP JUMPDEST PUSH1 0x0 DUP2 SWAP1 POP SWAP2 SWAP1 POP JUMP JUMPDEST PUSH3 0x400 DUP2 PUSH3 0x3EB JUMP JUMPDEST DUP2 EQ PUSH3 0x40C JUMPI PUSH1 0x0 DUP1 REVERT JUMPDEST POP JUMP JUMPDEST PUSH1 0x0 DUP2 MLOAD SWAP1 POP PUSH3 0x420 DUP2 PUSH3 0x3F5 JUMP JUMPDEST SWAP3 SWAP2 POP POP JUMP JUMPDEST PUSH1 0x0 DUP1 PUSH1 0x0 DUP1 PUSH1 0x80 DUP6 DUP8 SUB SLT ISZERO PUSH3 0x443 JUMPI PUSH3 0x442 PUSH3 0x224 JUMP JUMPDEST JUMPDEST PUSH1 0x0 DUP6 ADD MLOAD PUSH8 0xFFFFFFFFFFFFFFFF DUP2 GT ISZERO PUSH3 0x464 JUMPI PUSH3 0x463 PUSH3 0x229 JUMP JUMPDEST JUMPDEST PUSH3 0x472 DUP8 DUP3 DUP9 ADD PUSH3 0x37A JUMP JUMPDEST SWAP5 POP POP PUSH1 0x20 DUP6 ADD MLOAD PUSH8 0xFFFFFFFFFFFFFFFF DUP2 GT ISZERO PUSH3 0x496 JUMPI PUSH3 0x495 PUSH3 0x229 JUMP JUMPDEST JUMPDEST PUSH3 0x4A4 DUP8 DUP3 DUP9 ADD PUSH3 0x37A JUMP JUMPDEST SWAP4 POP POP PUSH1 0x40 PUSH3 0x4B7 DUP8 DUP3 DUP9 ADD PUSH3 0x3D4 JUMP JUMPDEST SWAP3 POP POP PUSH1 0x60 PUSH3 0x4CA DUP8 DUP3 DUP9 ADD PUSH3 0x40F JUMP JUMPDEST SWAP2 POP POP SWAP3 SWAP6 SWAP2 SWAP5 POP SWAP3 POP JUMP JUMPDEST PUSH1 0x0 DUP2 MLOAD SWAP1 POP SWAP2 SWAP1 POP JUMP JUMPDEST PUSH32 0x4E487B7100000000000000000000000000000000000000000000000000000000 PUSH1 0x0 MSTORE PUSH1 0x22 PUSH1 0x4 MSTORE PUSH1 0x24 PUSH1 0x0 REVERT JUMPDEST PUSH1 0x0 PUSH1 0x2 DUP3 DIV SWAP1 POP PUSH1 0x1 DUP3 AND DUP1 PUSH3 0x529 JUMPI PUSH1 0x7F DUP3 AND SWAP2 POP JUMPDEST PUSH1 0x20 DUP3 LT DUP2 SUB PUSH3 0x53F JUMPI PUSH3 0x53E PUSH3 0x4E1 JUMP JUMPDEST JUMPDEST POP SWAP2 SWAP1 POP JUMP JUMPDEST PUSH1 0x0 DUP2 SWAP1 POP DUP2 PUSH1 0x0 MSTORE PUSH1 0x20 PUSH1 0x0 KECCAK256 SWAP1 POP SWAP2 SWAP1 POP JUMP JUMPDEST PUSH1 0x0 PUSH1 0x20 PUSH1 0x1F DUP4 ADD DIV SWAP1 POP SWAP2 SWAP1 POP JUMP JUMPDEST PUSH1 0x0 DUP3 DUP3 SHL SWAP1 POP SWAP3 SWAP2 POP POP JUMP JUMPDEST PUSH1 0x0 PUSH1 0x8 DUP4 MUL PUSH3 0x5A9 PUSH32 0xFFFFFFFFFFFFFFFFFFFFFFFFFFFFFFFFFFFFFFFFFFFFFFFFFFFFFFFFFFFFFFFF DUP3 PUSH3 0x56A JUMP JUMPDEST PUSH3 0x5B5 DUP7 DUP4 PUSH3 0x56A JUMP JUMPDEST SWAP6 POP DUP1 NOT DUP5 AND SWAP4 POP DUP1 DUP7 AND DUP5 OR SWAP3 POP POP POP SWAP4 SWAP3 POP POP POP JUMP JUMPDEST PUSH1 0x0 DUP2 SWAP1 POP SWAP2 SWAP1 POP JUMP JUMPDEST PUSH1 0x0 PUSH3 0x5F8 PUSH3 0x5F2 PUSH3 0x5EC DUP5 PUSH3 0x3EB JUMP JUMPDEST PUSH3 0x5CD JUMP JUMPDEST PUSH3 0x3EB JUMP JUMPDEST SWAP1 POP SWAP2 SWAP1 POP JUMP JUMPDEST PUSH1 0x0 DUP2 SWAP1 POP SWAP2 SWAP1 POP JUMP JUMPDEST PUSH3 0x614 DUP4 PUSH3 0x5D7 JUMP JUMPDEST PUSH3 0x62C PUSH3 0x623 DUP3 PUSH3 0x5FF JUMP JUMPDEST DUP5 DUP5 SLOAD PUSH3 0x577 JUMP JUMPDEST DUP3 SSTORE POP POP POP POP JUMP JUMPDEST PUSH1 0x0 SWAP1 JUMP JUMPDEST PUSH3 0x643 PUSH3 0x634 JUMP JUMPDEST PUSH3 0x650 DUP2 DUP5 DUP5 PUSH3 0x609 JUMP JUMPDEST POP POP POP JUMP JUMPDEST JUMPDEST DUP2 DUP2 LT ISZERO PUSH3 0x678 JUMPI PUSH3 0x66C PUSH1 0x0 DUP3 PUSH3 0x639 JUMP JUMPDEST PUSH1 0x1 DUP2 ADD SWAP1 POP PUSH3 0x656 JUMP JUMPDEST POP POP JUMP JUMPDEST PUSH1 0x1F DUP3 GT ISZERO PUSH3 0x6C7 JUMPI PUSH3 0x691 DUP2 PUSH3 0x545 JUMP JUMPDEST PUSH3 0x69C DUP5 PUSH3 0x55A JUMP JUMPDEST DUP2 ADD PUSH1 0x20 DUP6 LT ISZERO PUSH3 0x6AC JUMPI DUP2 SWAP1 POP JUMPDEST PUSH3 0x6C4 PUSH3 0x6BB DUP6 PUSH3 0x55A JUMP JUMPDEST DUP4 ADD DUP3 PUSH3 0x655 JUMP JUMPDEST POP POP JUMPDEST POP POP POP JUMP JUMPDEST PUSH1 0x0 DUP3 DUP3 SHR SWAP1 POP SWAP3 SWAP2 POP POP JUMP JUMPDEST PUSH1 0x0 PUSH3 0x6EC PUSH1 0x0 NOT DUP5 PUSH1 0x8 MUL PUSH3 0x6CC JUMP JUMPDEST NOT DUP1 DUP4 AND SWAP2 POP POP SWAP3 SWAP2 POP POP JUMP JUMPDEST PUSH1 0x0 PUSH3 0x707 DUP4 DUP4 PUSH3 0x6D9 JUMP JUMPDEST SWAP2 POP DUP3 PUSH1 0x2 MUL DUP3 OR SWAP1 POP SWAP3 SWAP2 POP POP JUMP JUMPDEST PUSH3 0x722 DUP3 PUSH3 0x4D6 JUMP JUMPDEST PUSH8 0xFFFFFFFFFFFFFFFF DUP2 GT ISZERO PUSH3 0x73E JUMPI PUSH3 0x73D PUSH3 0x249 JUMP JUMPDEST JUMPDEST PUSH3 0x74A DUP3 SLOAD PUSH3 0x510 JUMP JUMPDEST PUSH3 0x757 DUP3 DUP3 DUP6 PUSH3 0x67C JUMP JUMPDEST PUSH1 0x0 PUSH1 0x20 SWAP1 POP PUSH1 0x1F DUP4 GT PUSH1 0x1 DUP2 EQ PUSH3 0x78F JUMPI PUSH1 0x0 DUP5 ISZERO PUSH3 0x77A JUMPI DUP3 DUP8 ADD MLOAD SWAP1 POP JUMPDEST PUSH3 0x786 DUP6 DUP3 PUSH3 0x6F9 JUMP JUMPDEST DUP7 SSTORE POP PUSH3 0x7F6 JUMP JUMPDEST PUSH1 0x1F NOT DUP5 AND PUSH3 0x79F DUP7 PUSH3 0x545 JUMP JUMPDEST PUSH1 0x0 JUMPDEST DUP3 DUP2 LT ISZERO PUSH3 0x7C9 JUMPI DUP5 DUP10 ADD MLOAD DUP3 SSTORE PUSH1 0x1 DUP3 ADD SWAP2 POP PUSH1 0x20 DUP6 ADD SWAP5 POP PUSH1 0x20 DUP2 ADD SWAP1 POP PUSH3 0x7A2 JUMP JUMPDEST DUP7 DUP4 LT ISZERO PUSH3 0x7E9 JUMPI DUP5 DUP10 ADD MLOAD PUSH3 0x7E5 PUSH1 0x1F DUP10 AND DUP3 PUSH3 0x6D9 JUMP JUMPDEST DUP4 SSTORE POP JUMPDEST PUSH1 0x1 PUSH1 0x2 DUP9 MUL ADD DUP9 SSTORE POP POP POP JUMPDEST POP POP POP POP POP POP JUMP JUMPDEST PUSH3 0x809 DUP2 PUSH3 0x3EB JUMP JUMPDEST DUP3 MSTORE POP POP JUMP JUMPDEST PUSH1 0x0 PUSH1 0x20 DUP3 ADD SWAP1 POP PUSH3 0x826 PUSH1 0x0 DUP4 ADD DUP5 PUSH3 0x7FE JUMP JUMPDEST SWAP3 SWAP2 POP POP JUMP JUMPDEST PUSH2 0x3649 DUP1 PUSH3 0x83C PUSH1 0x0 CODECOPY PUSH1 0x0 RETURN INVALID PUSH1 0x80 PUSH1 0x40 MSTORE CALLVALUE DUP1 ISZERO PUSH2 0x10 JUMPI PUSH1 0x0 DUP1 REVERT JUMPDEST POP PUSH1 0x4 CALLDATASIZE LT PUSH2 0x158 JUMPI PUSH1 0x0 CALLDATALOAD PUSH1 0xE0 SHR DUP1 PUSH4 0x893D20E8 GT PUSH2 0xC3 JUMPI DUP1 PUSH4 0xA694FC3A GT PUSH2 0x7C JUMPI DUP1 PUSH4 0xA694FC3A EQ PUSH2 0x3F3 JUMPI DUP1 PUSH4 0xA9059CBB EQ PUSH2 0x40F JUMPI DUP1 PUSH4 0xDD62ED3E EQ PUSH2 0x43F JUMPI DUP1 PUSH4 0xE73E14BF EQ PUSH2 0x46F JUMPI DUP1 PUSH4 0xF1FDF469 EQ PUSH2 0x49F JUMPI DUP1 PUSH4 0xF2FDE38B EQ PUSH2 0x4BB JUMPI PUSH2 0x158 JUMP JUMPDEST DUP1 PUSH4 0x893D20E8 EQ PUSH2 0x309 JUMPI DUP1 PUSH4 0x8DA5CB5B EQ PUSH2 0x327 JUMPI DUP1 PUSH4 0x93EB26DA EQ PUSH2 0x345 JUMPI DUP1 PUSH4 0x95D89B41 EQ PUSH2 0x375 JUMPI DUP1 PUSH4 0x9DC29FAC EQ PUSH2 0x393 JUMPI DUP1 PUSH4 0xA457C2D7 EQ PUSH2 0x3C3 JUMPI PUSH2 0x158 JUMP JUMPDEST DUP1 PUSH4 0x40C10F19 GT PUSH2 0x115 JUMPI DUP1 PUSH4 0x40C10F19 EQ PUSH2 0x247 JUMPI DUP1 PUSH4 0x4F9A9CAA EQ PUSH2 0x277 JUMPI DUP1 PUSH4 0x70A08231 EQ PUSH2 0x295 JUMPI DUP1 PUSH4 0x715018A6 EQ PUSH2 0x2C5 JUMPI DUP1 PUSH4 0x853828B6 EQ PUSH2 0x2CF JUMPI DUP1 PUSH4 0x8761DC5F EQ PUSH2 0x2D9 JUMPI PUSH2 0x158 JUMP JUMPDEST DUP1 PUSH4 0x6FDDE03 EQ PUSH2 0x15D JUMPI DUP1 PUSH4 0x95EA7B3 EQ PUSH2 0x17B JUMPI DUP1 PUSH4 0x18160DDD EQ PUSH2 0x1AB JUMPI DUP1 PUSH4 0x23B872DD EQ PUSH2 0x1C9 JUMPI DUP1 PUSH4 0x313CE567 EQ PUSH2 0x1F9 JUMPI DUP1 PUSH4 0x39509351 EQ PUSH2 0x217 JUMPI JUMPDEST PUSH1 0x0 DUP1 REVERT JUMPDEST PUSH2 0x165 PUSH2 0x4D7 JUMP JUMPDEST PUSH1 0x40 MLOAD PUSH2 0x172 SWAP2 SWAP1 PUSH2 0x26FC JUMP JUMPDEST PUSH1 0x40 MLOAD DUP1 SWAP2 SUB SWAP1 RETURN JUMPDEST PUSH2 0x195 PUSH1 0x4 DUP1 CALLDATASIZE SUB DUP2 ADD SWAP1 PUSH2 0x190 SWAP2 SWAP1 PUSH2 0x27B7 JUMP JUMPDEST PUSH2 0x569 JUMP JUMPDEST PUSH1 0x40 MLOAD PUSH2 0x1A2 SWAP2 SWAP1 PUSH2 0x2812 JUMP JUMPDEST PUSH1 0x40 MLOAD DUP1 SWAP2 SUB SWAP1 RETURN JUMPDEST PUSH2 0x1B3 PUSH2 0x580 JUMP JUMPDEST PUSH1 0x40 MLOAD PUSH2 0x1C0 SWAP2 SWAP1 PUSH2 0x283C JUMP JUMPDEST PUSH1 0x40 MLOAD DUP1 SWAP2 SUB SWAP1 RETURN JUMPDEST PUSH2 0x1E3 PUSH1 0x4 DUP1 CALLDATASIZE SUB DUP2 ADD SWAP1 PUSH2 0x1DE SWAP2 SWAP1 PUSH2 0x2857 JUMP JUMPDEST PUSH2 0x58A JUMP JUMPDEST PUSH1 0x40 MLOAD PUSH2 0x1F0 SWAP2 SWAP1 PUSH2 0x2812 JUMP JUMPDEST PUSH1 0x40 MLOAD DUP1 SWAP2 SUB SWAP1 RETURN JUMPDEST PUSH2 0x201 PUSH2 0x6F3 JUMP JUMPDEST PUSH1 0x40 MLOAD PUSH2 0x20E SWAP2 SWAP1 PUSH2 0x28C6 JUMP JUMPDEST PUSH1 0x40 MLOAD DUP1 SWAP2 SUB SWAP1 RETURN JUMPDEST PUSH2 0x231 PUSH1 0x4 DUP1 CALLDATASIZE SUB DUP2 ADD SWAP1 PUSH2 0x22C SWAP2 SWAP1 PUSH2 0x27B7 JUMP JUMPDEST PUSH2 0x70A JUMP JUMPDEST PUSH1 0x40 MLOAD PUSH2 0x23E SWAP2 SWAP1 PUSH2 0x2812 JUMP JUMPDEST PUSH1 0x40 MLOAD DUP1 SWAP2 SUB SWAP1 RETURN JUMPDEST PUSH2 0x261 PUSH1 0x4 DUP1 CALLDATASIZE SUB DUP2 ADD SWAP1 PUSH2 0x25C SWAP2 SWAP1 PUSH2 0x27B7 JUMP JUMPDEST PUSH2 0x7A8 JUMP JUMPDEST PUSH1 0x40 MLOAD PUSH2 0x26E SWAP2 SWAP1 PUSH2 0x2812 JUMP JUMPDEST PUSH1 0x40 MLOAD DUP1 SWAP2 SUB SWAP1 RETURN JUMPDEST PUSH2 0x27F PUSH2 0x84C JUMP JUMPDEST PUSH1 0x40 MLOAD PUSH2 0x28C SWAP2 SWAP1 PUSH2 0x283C JUMP JUMPDEST PUSH1 0x40 MLOAD DUP1 SWAP2 SUB SWAP1 RETURN JUMPDEST PUSH2 0x2AF PUSH1 0x4 DUP1 CALLDATASIZE SUB DUP2 ADD SWAP1 PUSH2 0x2AA SWAP2 SWAP1 PUSH2 0x28E1 JUMP JUMPDEST PUSH2 0x85B JUMP JUMPDEST PUSH1 0x40 MLOAD PUSH2 0x2BC SWAP2 SWAP1 PUSH2 0x283C JUMP JUMPDEST PUSH1 0x40 MLOAD DUP1 SWAP2 SUB SWAP1 RETURN JUMPDEST PUSH2 0x2CD PUSH2 0x8A4 JUMP JUMPDEST STOP JUMPDEST PUSH2 0x2D7 PUSH2 0x9F0 JUMP JUMPDEST STOP JUMPDEST PUSH2 0x2F3 PUSH1 0x4 DUP1 CALLDATASIZE SUB DUP2 ADD SWAP1 PUSH2 0x2EE SWAP2 SWAP1 PUSH2 0x290E JUMP JUMPDEST PUSH2 0xA09 JUMP JUMPDEST PUSH1 0x40 MLOAD PUSH2 0x300 SWAP2 SWAP1 PUSH2 0x2812 JUMP JUMPDEST PUSH1 0x40 MLOAD DUP1 SWAP2 SUB SWAP1 RETURN JUMPDEST PUSH2 0x311 PUSH2 0xAAB JUMP JUMPDEST PUSH1 0x40 MLOAD PUSH2 0x31E SWAP2 SWAP1 PUSH2 0x294A JUMP JUMPDEST PUSH1 0x40 MLOAD DUP1 SWAP2 SUB SWAP1 RETURN JUMPDEST PUSH2 0x32F PUSH2 0xABA JUMP JUMPDEST PUSH1 0x40 MLOAD PUSH2 0x33C SWAP2 SWAP1 PUSH2 0x294A JUMP JUMPDEST PUSH1 0x40 MLOAD DUP1 SWAP2 SUB SWAP1 RETURN JUMPDEST PUSH2 0x35F PUSH1 0x4 DUP1 CALLDATASIZE SUB DUP2 ADD SWAP1 PUSH2 0x35A SWAP2 SWAP1 PUSH2 0x28E1 JUMP JUMPDEST PUSH2 0xAE3 JUMP JUMPDEST PUSH1 0x40 MLOAD PUSH2 0x36C SWAP2 SWAP1 PUSH2 0x283C JUMP JUMPDEST PUSH1 0x40 MLOAD DUP1 SWAP2 SUB SWAP1 RETURN JUMPDEST PUSH2 0x37D PUSH2 0xD8A JUMP JUMPDEST PUSH1 0x40 MLOAD PUSH2 0x38A SWAP2 SWAP1 PUSH2 0x26FC JUMP JUMPDEST PUSH1 0x40 MLOAD DUP1 SWAP2 SUB SWAP1 RETURN JUMPDEST PUSH2 0x3AD PUSH1 0x4 DUP1 CALLDATASIZE SUB DUP2 ADD SWAP1 PUSH2 0x3A8 SWAP2 SWAP1 PUSH2 0x27B7 JUMP JUMPDEST PUSH2 0xE1C JUMP JUMPDEST PUSH1 0x40 MLOAD PUSH2 0x3BA SWAP2 SWAP1 PUSH2 0x2812 JUMP JUMPDEST PUSH1 0x40 MLOAD DUP1 SWAP2 SUB SWAP1 RETURN JUMPDEST PUSH2 0x3DD PUSH1 0x4 DUP1 CALLDATASIZE SUB DUP2 ADD SWAP1 PUSH2 0x3D8 SWAP2 SWAP1 PUSH2 0x27B7 JUMP JUMPDEST PUSH2 0xEC0 JUMP JUMPDEST PUSH1 0x40 MLOAD PUSH2 0x3EA SWAP2 SWAP1 PUSH2 0x2812 JUMP JUMPDEST PUSH1 0x40 MLOAD DUP1 SWAP2 SUB SWAP1 RETURN JUMPDEST PUSH2 0x40D PUSH1 0x4 DUP1 CALLDATASIZE SUB DUP2 ADD SWAP1 PUSH2 0x408 SWAP2 SWAP1 PUSH2 0x290E JUMP JUMPDEST PUSH2 0xF5E JUMP JUMPDEST STOP JUMPDEST PUSH2 0x429 PUSH1 0x4 DUP1 CALLDATASIZE SUB DUP2 ADD SWAP1 PUSH2 0x424 SWAP2 SWAP1 PUSH2 0x27B7 JUMP JUMPDEST PUSH2 0x1045 JUMP JUMPDEST PUSH1 0x40 MLOAD PUSH2 0x436 SWAP2 SWAP1 PUSH2 0x2812 JUMP JUMPDEST PUSH1 0x40 MLOAD DUP1 SWAP2 SUB SWAP1 RETURN JUMPDEST PUSH2 0x459 PUSH1 0x4 DUP1 CALLDATASIZE SUB DUP2 ADD SWAP1 PUSH2 0x454 SWAP2 SWAP1 PUSH2 0x2965 JUMP JUMPDEST PUSH2 0x105C JUMP JUMPDEST PUSH1 0x40 MLOAD PUSH2 0x466 SWAP2 SWAP1 PUSH2 0x283C JUMP JUMPDEST PUSH1 0x40 MLOAD DUP1 SWAP2 SUB SWAP1 RETURN JUMPDEST PUSH2 0x489 PUSH1 0x4 DUP1 CALLDATASIZE SUB DUP2 ADD SWAP1 PUSH2 0x484 SWAP2 SWAP1 PUSH2 0x28E1 JUMP JUMPDEST PUSH2 0x10E3 JUMP JUMPDEST PUSH1 0x40 MLOAD PUSH2 0x496 SWAP2 SWAP1 PUSH2 0x2B04 JUMP JUMPDEST PUSH1 0x40 MLOAD DUP1 SWAP2 SUB SWAP1 RETURN JUMPDEST PUSH2 0x4B9 PUSH1 0x4 DUP1 CALLDATASIZE SUB DUP2 ADD SWAP1 PUSH2 0x4B4 SWAP2 SWAP1 PUSH2 0x2B26 JUMP JUMPDEST PUSH2 0x12F0 JUMP JUMPDEST STOP JUMPDEST PUSH2 0x4D5 PUSH1 0x4 DUP1 CALLDATASIZE SUB DUP2 ADD SWAP1 PUSH2 0x4D0 SWAP2 SWAP1 PUSH2 0x28E1 JUMP JUMPDEST PUSH2 0x130D JUMP JUMPDEST STOP JUMPDEST PUSH1 0x60 PUSH1 0x7 DUP1 SLOAD PUSH2 0x4E6 SWAP1 PUSH2 0x2B95 JUMP JUMPDEST DUP1 PUSH1 0x1F ADD PUSH1 0x20 DUP1 SWAP2 DIV MUL PUSH1 0x20 ADD PUSH1 0x40 MLOAD SWAP1 DUP2 ADD PUSH1 0x40 MSTORE DUP1 SWAP3 SWAP2 SWAP1 DUP2 DUP2 MSTORE PUSH1 0x20 ADD DUP3 DUP1 SLOAD PUSH2 0x512 SWAP1 PUSH2 0x2B95 JUMP JUMPDEST DUP1 ISZERO PUSH2 0x55F JUMPI DUP1 PUSH1 0x1F LT PUSH2 0x534 JUMPI PUSH2 0x100 DUP1 DUP4 SLOAD DIV MUL DUP4 MSTORE SWAP2 PUSH1 0x20 ADD SWAP2 PUSH2 0x55F JUMP JUMPDEST DUP3 ADD SWAP2 SWAP1 PUSH1 0x0 MSTORE PUSH1 0x20 PUSH1 0x0 KECCAK256 SWAP1 JUMPDEST DUP2 SLOAD DUP2 MSTORE SWAP1 PUSH1 0x1 ADD SWAP1 PUSH1 0x20 ADD DUP1 DUP4 GT PUSH2 0x542 JUMPI DUP3 SWAP1 SUB PUSH1 0x1F AND DUP3 ADD SWAP2 JUMPDEST POP POP POP POP POP SWAP1 POP SWAP1 JUMP JUMPDEST PUSH1 0x0 PUSH2 0x576 CALLER DUP5 DUP5 PUSH2 0x13A7 JUMP JUMPDEST PUSH1 0x1 SWAP1 POP SWAP3 SWAP2 POP POP JUMP JUMPDEST PUSH1 0x0 PUSH1 0x4 SLOAD SWAP1 POP SWAP1 JUMP JUMPDEST PUSH1 0x0 DUP2 PUSH1 0x9 PUSH1 0x0 DUP7 PUSH20 0xFFFFFFFFFFFFFFFFFFFFFFFFFFFFFFFFFFFFFFFF AND PUSH20 0xFFFFFFFFFFFFFFFFFFFFFFFFFFFFFFFFFFFFFFFF AND DUP2 MSTORE PUSH1 0x20 ADD SWAP1 DUP2 MSTORE PUSH1 0x20 ADD PUSH1 0x0 KECCAK256 PUSH1 0x0 CALLER PUSH20 0xFFFFFFFFFFFFFFFFFFFFFFFFFFFFFFFFFFFFFFFF AND PUSH20 0xFFFFFFFFFFFFFFFFFFFFFFFFFFFFFFFFFFFFFFFF AND DUP2 MSTORE PUSH1 0x20 ADD SWAP1 DUP2 MSTORE PUSH1 0x20 ADD PUSH1 0x0 KECCAK256 SLOAD LT ISZERO PUSH2 0x64B JUMPI PUSH1 0x40 MLOAD PUSH32 0x8C379A000000000000000000000000000000000000000000000000000000000 DUP2 MSTORE PUSH1 0x4 ADD PUSH2 0x642 SWAP1 PUSH2 0x2C38 JUMP JUMPDEST PUSH1 0x40 MLOAD DUP1 SWAP2 SUB SWAP1 REVERT JUMPDEST PUSH2 0x656 DUP5 DUP5 DUP5 PUSH2 0x1570 JUMP JUMPDEST PUSH2 0x6E8 DUP5 CALLER DUP5 PUSH1 0x9 PUSH1 0x0 DUP10 PUSH20 0xFFFFFFFFFFFFFFFFFFFFFFFFFFFFFFFFFFFFFFFF AND PUSH20 0xFFFFFFFFFFFFFFFFFFFFFFFFFFFFFFFFFFFFFFFF AND DUP2 MSTORE PUSH1 0x20 ADD SWAP1 DUP2 MSTORE PUSH1 0x20 ADD PUSH1 0x0 KECCAK256 PUSH1 0x0 CALLER PUSH20 0xFFFFFFFFFFFFFFFFFFFFFFFFFFFFFFFFFFFFFFFF AND PUSH20 0xFFFFFFFFFFFFFFFFFFFFFFFFFFFFFFFFFFFFFFFF AND DUP2 MSTORE PUSH1 0x20 ADD SWAP1 DUP2 MSTORE PUSH1 0x20 ADD PUSH1 0x0 KECCAK256 SLOAD PUSH2 0x6E3 SWAP2 SWAP1 PUSH2 0x2C87 JUMP JUMPDEST PUSH2 0x13A7 JUMP JUMPDEST PUSH1 0x1 SWAP1 POP SWAP4 SWAP3 POP POP POP JUMP JUMPDEST PUSH1 0x0 PUSH1 0x5 PUSH1 0x0 SWAP1 SLOAD SWAP1 PUSH2 0x100 EXP SWAP1 DIV PUSH1 0xFF AND SWAP1 POP SWAP1 JUMP JUMPDEST PUSH1 0x0 PUSH2 0x79E CALLER DUP5 DUP5 PUSH1 0x9 PUSH1 0x0 CALLER PUSH20 0xFFFFFFFFFFFFFFFFFFFFFFFFFFFFFFFFFFFFFFFF AND PUSH20 0xFFFFFFFFFFFFFFFFFFFFFFFFFFFFFFFFFFFFFFFF AND DUP2 MSTORE PUSH1 0x20 ADD SWAP1 DUP2 MSTORE PUSH1 0x20 ADD PUSH1 0x0 KECCAK256 PUSH1 0x0 DUP9 PUSH20 0xFFFFFFFFFFFFFFFFFFFFFFFFFFFFFFFFFFFFFFFF AND PUSH20 0xFFFFFFFFFFFFFFFFFFFFFFFFFFFFFFFFFFFFFFFF AND DUP2 MSTORE PUSH1 0x20 ADD SWAP1 DUP2 MSTORE PUSH1 0x20 ADD PUSH1 0x0 KECCAK256 SLOAD PUSH2 0x799 SWAP2 SWAP1 PUSH2 0x2CBB JUMP JUMPDEST PUSH2 0x13A7 JUMP JUMPDEST PUSH1 0x1 SWAP1 POP SWAP3 SWAP2 POP POP JUMP JUMPDEST PUSH1 0x0 CALLER PUSH20 0xFFFFFFFFFFFFFFFFFFFFFFFFFFFFFFFFFFFFFFFF AND PUSH1 0x0 DUP1 SLOAD SWAP1 PUSH2 0x100 EXP SWAP1 DIV PUSH20 0xFFFFFFFFFFFFFFFFFFFFFFFFFFFFFFFFFFFFFFFF AND PUSH20 0xFFFFFFFFFFFFFFFFFFFFFFFFFFFFFFFFFFFFFFFF AND EQ PUSH2 0x838 JUMPI PUSH1 0x40 MLOAD PUSH32 0x8C379A000000000000000000000000000000000000000000000000000000000 DUP2 MSTORE PUSH1 0x4 ADD PUSH2 0x82F SWAP1 PUSH2 0x2D61 JUMP JUMPDEST PUSH1 0x40 MLOAD DUP1 SWAP2 SUB SWAP1 REVERT JUMPDEST PUSH2 0x842 DUP4 DUP4 PUSH2 0x1856 JUMP JUMPDEST PUSH1 0x1 SWAP1 POP SWAP3 SWAP2 POP POP JUMP JUMPDEST PUSH1 0x0 PUSH2 0x856 PUSH2 0x19D1 JUMP JUMPDEST SWAP1 POP SWAP1 JUMP JUMPDEST PUSH1 0x0 PUSH1 0x8 PUSH1 0x0 DUP4 PUSH20 0xFFFFFFFFFFFFFFFFFFFFFFFFFFFFFFFFFFFFFFFF AND PUSH20 0xFFFFFFFFFFFFFFFFFFFFFFFFFFFFFFFFFFFFFFFF AND DUP2 MSTORE PUSH1 0x20 ADD SWAP1 DUP2 MSTORE PUSH1 0x20 ADD PUSH1 0x0 KECCAK256 SLOAD SWAP1 POP SWAP2 SWAP1 POP JUMP JUMPDEST CALLER PUSH20 0xFFFFFFFFFFFFFFFFFFFFFFFFFFFFFFFFFFFFFFFF AND PUSH1 0x0 DUP1 SLOAD SWAP1 PUSH2 0x100 EXP SWAP1 DIV PUSH20 0xFFFFFFFFFFFFFFFFFFFFFFFFFFFFFFFFFFFFFFFF AND PUSH20 0xFFFFFFFFFFFFFFFFFFFFFFFFFFFFFFFFFFFFFFFF AND EQ PUSH2 0x932 JUMPI PUSH1 0x40 MLOAD PUSH32 0x8C379A000000000000000000000000000000000000000000000000000000000 DUP2 MSTORE PUSH1 0x4 ADD PUSH2 0x929 SWAP1 PUSH2 0x2D61 JUMP JUMPDEST PUSH1 0x40 MLOAD DUP1 SWAP2 SUB SWAP1 REVERT JUMPDEST PUSH1 0x0 PUSH20 0xFFFFFFFFFFFFFFFFFFFFFFFFFFFFFFFFFFFFFFFF AND PUSH1 0x0 DUP1 SLOAD SWAP1 PUSH2 0x100 EXP SWAP1 DIV PUSH20 0xFFFFFFFFFFFFFFFFFFFFFFFFFFFFFFFFFFFFFFFF AND PUSH20 0xFFFFFFFFFFFFFFFFFFFFFFFFFFFFFFFFFFFFFFFF AND PUSH32 0x8BE0079C531659141344CD1FD0A4F28419497F9722A3DAAFE3B4186F6B6457E0 PUSH1 0x40 MLOAD PUSH1 0x40 MLOAD DUP1 SWAP2 SUB SWAP1 LOG3 PUSH1 0x0 DUP1 PUSH1 0x0 PUSH2 0x100 EXP DUP2 SLOAD DUP2 PUSH20 0xFFFFFFFFFFFFFFFFFFFFFFFFFFFFFFFFFFFFFFFF MUL NOT AND SWAP1 DUP4 PUSH20 0xFFFFFFFFFFFFFFFFFFFFFFFFFFFFFFFFFFFFFFFF AND MUL OR SWAP1 SSTORE POP JUMP JUMPDEST PUSH1 0x0 PUSH2 0x9FA PUSH2 0x19DB JUMP JUMPDEST SWAP1 POP PUSH2 0xA06 CALLER DUP3 PUSH2 0x1856 JUMP JUMPDEST POP JUMP JUMPDEST PUSH1 0x0 CALLER PUSH20 0xFFFFFFFFFFFFFFFFFFFFFFFFFFFFFFFFFFFFFFFF AND PUSH1 0x0 DUP1 SLOAD SWAP1 PUSH2 0x100 EXP SWAP1 DIV PUSH20 0xFFFFFFFFFFFFFFFFFFFFFFFFFFFFFFFFFFFFFFFF AND PUSH20 0xFFFFFFFFFFFFFFFFFFFFFFFFFFFFFFFFFFFFFFFF AND EQ PUSH2 0xA99 JUMPI PUSH1 0x40 MLOAD PUSH32 0x8C379A000000000000000000000000000000000000000000000000000000000 DUP2 MSTORE PUSH1 0x4 ADD PUSH2 0xA90 SWAP1 PUSH2 0x2D61 JUMP JUMPDEST PUSH1 0x40 MLOAD DUP1 SWAP2 SUB SWAP1 REVERT JUMPDEST PUSH2 0xAA2 DUP3 PUSH2 0x1D07 JUMP JUMPDEST PUSH1 0x1 SWAP1 POP SWAP2 SWAP1 POP JUMP JUMPDEST PUSH1 0x0 PUSH2 0xAB5 PUSH2 0xABA JUMP JUMPDEST SWAP1 POP SWAP1 JUMP JUMPDEST PUSH1 0x0 DUP1 PUSH1 0x0 SWAP1 SLOAD SWAP1 PUSH2 0x100 EXP SWAP1 DIV PUSH20 0xFFFFFFFFFFFFFFFFFFFFFFFFFFFFFFFFFFFFFFFF AND SWAP1 POP SWAP1 JUMP JUMPDEST PUSH1 0x0 DUP1 PUSH1 0x0 PUSH1 0x3 PUSH1 0x0 DUP6 PUSH20 0xFFFFFFFFFFFFFFFFFFFFFFFFFFFFFFFFFFFFFFFF AND PUSH20 0xFFFFFFFFFFFFFFFFFFFFFFFFFFFFFFFFFFFFFFFF AND DUP2 MSTORE PUSH1 0x20 ADD SWAP1 DUP2 MSTORE PUSH1 0x20 ADD PUSH1 0x0 KECCAK256 SLOAD SWAP1 POP PUSH1 0x0 PUSH1 0x40 MLOAD DUP1 PUSH1 0x40 ADD PUSH1 0x40 MSTORE DUP1 PUSH1 0x0 DUP2 MSTORE PUSH1 0x20 ADD PUSH1 0x2 PUSH1 0x3 PUSH1 0x0 DUP10 PUSH20 0xFFFFFFFFFFFFFFFFFFFFFFFFFFFFFFFFFFFFFFFF AND PUSH20 0xFFFFFFFFFFFFFFFFFFFFFFFFFFFFFFFFFFFFFFFF AND DUP2 MSTORE PUSH1 0x20 ADD SWAP1 DUP2 MSTORE PUSH1 0x20 ADD PUSH1 0x0 KECCAK256 SLOAD DUP2 SLOAD DUP2 LT PUSH2 0xB91 JUMPI PUSH2 0xB90 PUSH2 0x2D81 JUMP JUMPDEST JUMPDEST SWAP1 PUSH1 0x0 MSTORE PUSH1 0x20 PUSH1 0x0 KECCAK256 SWAP1 PUSH1 0x2 MUL ADD PUSH1 0x1 ADD DUP1 SLOAD DUP1 PUSH1 0x20 MUL PUSH1 0x20 ADD PUSH1 0x40 MLOAD SWAP1 DUP2 ADD PUSH1 0x40 MSTORE DUP1 SWAP3 SWAP2 SWAP1 DUP2 DUP2 MSTORE PUSH1 0x20 ADD PUSH1 0x0 SWAP1 JUMPDEST DUP3 DUP3 LT ISZERO PUSH2 0xC68 JUMPI DUP4 DUP3 SWAP1 PUSH1 0x0 MSTORE PUSH1 0x20 PUSH1 0x0 KECCAK256 SWAP1 PUSH1 0x4 MUL ADD PUSH1 0x40 MLOAD DUP1 PUSH1 0x80 ADD PUSH1 0x40 MSTORE SWAP1 DUP2 PUSH1 0x0 DUP3 ADD PUSH1 0x0 SWAP1 SLOAD SWAP1 PUSH2 0x100 EXP SWAP1 DIV PUSH20 0xFFFFFFFFFFFFFFFFFFFFFFFFFFFFFFFFFFFFFFFF AND PUSH20 0xFFFFFFFFFFFFFFFFFFFFFFFFFFFFFFFFFFFFFFFF AND PUSH20 0xFFFFFFFFFFFFFFFFFFFFFFFFFFFFFFFFFFFFFFFF AND DUP2 MSTORE PUSH1 0x20 ADD PUSH1 0x1 DUP3 ADD SLOAD DUP2 MSTORE PUSH1 0x20 ADD PUSH1 0x2 DUP3 ADD SLOAD DUP2 MSTORE PUSH1 0x20 ADD PUSH1 0x3 DUP3 ADD SLOAD DUP2 MSTORE POP POP DUP2 MSTORE PUSH1 0x20 ADD SWAP1 PUSH1 0x1 ADD SWAP1 PUSH2 0xBC2 JUMP JUMPDEST POP POP POP POP DUP2 MSTORE POP SWAP1 POP PUSH1 0x0 JUMPDEST DUP2 PUSH1 0x20 ADD MLOAD MLOAD DUP2 LT ISZERO PUSH2 0xD7E JUMPI PUSH1 0x0 PUSH1 0x2 DUP5 DUP2 SLOAD DUP2 LT PUSH2 0xC97 JUMPI PUSH2 0xC96 PUSH2 0x2D81 JUMP JUMPDEST JUMPDEST SWAP1 PUSH1 0x0 MSTORE PUSH1 0x20 PUSH1 0x0 KECCAK256 SWAP1 PUSH1 0x2 MUL ADD PUSH1 0x1 ADD DUP3 DUP2 SLOAD DUP2 LT PUSH2 0xCBA JUMPI PUSH2 0xCB9 PUSH2 0x2D81 JUMP JUMPDEST JUMPDEST SWAP1 PUSH1 0x0 MSTORE PUSH1 0x20 PUSH1 0x0 KECCAK256 SWAP1 PUSH1 0x4 MUL ADD PUSH1 0x40 MLOAD DUP1 PUSH1 0x80 ADD PUSH1 0x40 MSTORE SWAP1 DUP2 PUSH1 0x0 DUP3 ADD PUSH1 0x0 SWAP1 SLOAD SWAP1 PUSH2 0x100 EXP SWAP1 DIV PUSH20 0xFFFFFFFFFFFFFFFFFFFFFFFFFFFFFFFFFFFFFFFF AND PUSH20 0xFFFFFFFFFFFFFFFFFFFFFFFFFFFFFFFFFFFFFFFF AND PUSH20 0xFFFFFFFFFFFFFFFFFFFFFFFFFFFFFFFFFFFFFFFF AND DUP2 MSTORE PUSH1 0x20 ADD PUSH1 0x1 DUP3 ADD SLOAD DUP2 MSTORE PUSH1 0x20 ADD PUSH1 0x2 DUP3 ADD SLOAD DUP2 MSTORE PUSH1 0x20 ADD PUSH1 0x3 DUP3 ADD SLOAD DUP2 MSTORE POP POP SWAP1 POP PUSH1 0x0 PUSH2 0xD54 DUP3 PUSH2 0x1D54 JUMP JUMPDEST SWAP1 POP DUP1 DUP3 PUSH1 0x20 ADD MLOAD PUSH2 0xD66 SWAP2 SWAP1 PUSH2 0x2CBB JUMP JUMPDEST SWAP6 POP POP POP PUSH1 0x1 DUP2 PUSH2 0xD77 SWAP2 SWAP1 PUSH2 0x2CBB JUMP JUMPDEST SWAP1 POP PUSH2 0xC74 JUMP JUMPDEST POP DUP3 SWAP4 POP POP POP POP SWAP2 SWAP1 POP JUMP JUMPDEST PUSH1 0x60 PUSH1 0x6 DUP1 SLOAD PUSH2 0xD99 SWAP1 PUSH2 0x2B95 JUMP JUMPDEST DUP1 PUSH1 0x1F ADD PUSH1 0x20 DUP1 SWAP2 DIV MUL PUSH1 0x20 ADD PUSH1 0x40 MLOAD SWAP1 DUP2 ADD PUSH1 0x40 MSTORE DUP1 SWAP3 SWAP2 SWAP1 DUP2 DUP2 MSTORE PUSH1 0x20 ADD DUP3 DUP1 SLOAD PUSH2 0xDC5 SWAP1 PUSH2 0x2B95 JUMP JUMPDEST DUP1 ISZERO PUSH2 0xE12 JUMPI DUP1 PUSH1 0x1F LT PUSH2 0xDE7 JUMPI PUSH2 0x100 DUP1 DUP4 SLOAD DIV MUL DUP4 MSTORE SWAP2 PUSH1 0x20 ADD SWAP2 PUSH2 0xE12 JUMP JUMPDEST DUP3 ADD SWAP2 SWAP1 PUSH1 0x0 MSTORE PUSH1 0x20 PUSH1 0x0 KECCAK256 SWAP1 JUMPDEST DUP2 SLOAD DUP2 MSTORE SWAP1 PUSH1 0x1 ADD SWAP1 PUSH1 0x20 ADD DUP1 DUP4 GT PUSH2 0xDF5 JUMPI DUP3 SWAP1 SUB PUSH1 0x1F AND DUP3 ADD SWAP2 JUMPDEST POP POP POP POP POP SWAP1 POP SWAP1 JUMP JUMPDEST PUSH1 0x0 CALLER PUSH20 0xFFFFFFFFFFFFFFFFFFFFFFFFFFFFFFFFFFFFFFFF AND PUSH1 0x0 DUP1 SLOAD SWAP1 PUSH2 0x100 EXP SWAP1 DIV PUSH20 0xFFFFFFFFFFFFFFFFFFFFFFFFFFFFFFFFFFFFFFFF AND PUSH20 0xFFFFFFFFFFFFFFFFFFFFFFFFFFFFFFFFFFFFFFFF AND EQ PUSH2 0xEAC JUMPI PUSH1 0x40 MLOAD PUSH32 0x8C379A000000000000000000000000000000000000000000000000000000000 DUP2 MSTORE PUSH1 0x4 ADD PUSH2 0xEA3 SWAP1 PUSH2 0x2D61 JUMP JUMPDEST PUSH1 0x40 MLOAD DUP1 SWAP2 SUB SWAP1 REVERT JUMPDEST PUSH2 0xEB6 DUP4 DUP4 PUSH2 0x1D96 JUMP JUMPDEST PUSH1 0x1 SWAP1 POP SWAP3 SWAP2 POP POP JUMP JUMPDEST PUSH1 0x0 PUSH2 0xF54 CALLER DUP5 DUP5 PUSH1 0x9 PUSH1 0x0 CALLER PUSH20 0xFFFFFFFFFFFFFFFFFFFFFFFFFFFFFFFFFFFFFFFF AND PUSH20 0xFFFFFFFFFFFFFFFFFFFFFFFFFFFFFFFFFFFFFFFF AND DUP2 MSTORE PUSH1 0x20 ADD SWAP1 DUP2 MSTORE PUSH1 0x20 ADD PUSH1 0x0 KECCAK256 PUSH1 0x0 DUP9 PUSH20 0xFFFFFFFFFFFFFFFFFFFFFFFFFFFFFFFFFFFFFFFF AND PUSH20 0xFFFFFFFFFFFFFFFFFFFFFFFFFFFFFFFFFFFFFFFF AND DUP2 MSTORE PUSH1 0x20 ADD SWAP1 DUP2 MSTORE PUSH1 0x20 ADD PUSH1 0x0 KECCAK256 SLOAD PUSH2 0xF4F SWAP2 SWAP1 PUSH2 0x2C87 JUMP JUMPDEST PUSH2 0x13A7 JUMP JUMPDEST PUSH1 0x1 SWAP1 POP SWAP3 SWAP2 POP POP JUMP JUMPDEST PUSH11 0x5955E3BB3E743FEC000000 PUSH1 0x4 SLOAD LT PUSH2 0xFAD JUMPI PUSH1 0x40 MLOAD PUSH32 0x8C379A000000000000000000000000000000000000000000000000000000000 DUP2 MSTORE PUSH1 0x4 ADD PUSH2 0xFA4 SWAP1 PUSH2 0x2DFC JUMP JUMPDEST PUSH1 0x40 MLOAD DUP1 SWAP2 SUB SWAP1 REVERT JUMPDEST PUSH1 0x8 PUSH1 0x0 CALLER PUSH20 0xFFFFFFFFFFFFFFFFFFFFFFFFFFFFFFFFFFFFFFFF AND PUSH20 0xFFFFFFFFFFFFFFFFFFFFFFFFFFFFFFFFFFFFFFFF AND DUP2 MSTORE PUSH1 0x20 ADD SWAP1 DUP2 MSTORE PUSH1 0x20 ADD PUSH1 0x0 KECCAK256 SLOAD DUP2 GT ISZERO PUSH2 0x102F JUMPI PUSH1 0x40 MLOAD PUSH32 0x8C379A000000000000000000000000000000000000000000000000000000000 DUP2 MSTORE PUSH1 0x4 ADD PUSH2 0x1026 SWAP1 PUSH2 0x2E8E JUMP JUMPDEST PUSH1 0x40 MLOAD DUP1 SWAP2 SUB SWAP1 REVERT JUMPDEST PUSH2 0x1038 DUP2 PUSH2 0x1F93 JUMP JUMPDEST PUSH2 0x1042 CALLER DUP3 PUSH2 0x1D96 JUMP JUMPDEST POP JUMP JUMPDEST PUSH1 0x0 PUSH2 0x1052 CALLER DUP5 DUP5 PUSH2 0x1570 JUMP JUMPDEST PUSH1 0x1 SWAP1 POP SWAP3 SWAP2 POP POP JUMP JUMPDEST PUSH1 0x0 PUSH1 0x9 PUSH1 0x0 DUP5 PUSH20 0xFFFFFFFFFFFFFFFFFFFFFFFFFFFFFFFFFFFFFFFF AND PUSH20 0xFFFFFFFFFFFFFFFFFFFFFFFFFFFFFFFFFFFFFFFF AND DUP2 MSTORE PUSH1 0x20 ADD SWAP1 DUP2 MSTORE PUSH1 0x20 ADD PUSH1 0x0 KECCAK256 PUSH1 0x0 DUP4 PUSH20 0xFFFFFFFFFFFFFFFFFFFFFFFFFFFFFFFFFFFFFFFF AND PUSH20 0xFFFFFFFFFFFFFFFFFFFFFFFFFFFFFFFFFFFFFFFF AND DUP2 MSTORE PUSH1 0x20 ADD SWAP1 DUP2 MSTORE PUSH1 0x20 ADD PUSH1 0x0 KECCAK256 SLOAD SWAP1 POP SWAP3 SWAP2 POP POP JUMP JUMPDEST PUSH2 0x10EB PUSH2 0x2652 JUMP JUMPDEST PUSH1 0x0 DUP1 PUSH1 0x40 MLOAD DUP1 PUSH1 0x40 ADD PUSH1 0x40 MSTORE DUP1 PUSH1 0x0 DUP2 MSTORE PUSH1 0x20 ADD PUSH1 0x2 PUSH1 0x3 PUSH1 0x0 DUP9 PUSH20 0xFFFFFFFFFFFFFFFFFFFFFFFFFFFFFFFFFFFFFFFF AND PUSH20 0xFFFFFFFFFFFFFFFFFFFFFFFFFFFFFFFFFFFFFFFF AND DUP2 MSTORE PUSH1 0x20 ADD SWAP1 DUP2 MSTORE PUSH1 0x20 ADD PUSH1 0x0 KECCAK256 SLOAD DUP2 SLOAD DUP2 LT PUSH2 0x1153 JUMPI PUSH2 0x1152 PUSH2 0x2D81 JUMP JUMPDEST JUMPDEST SWAP1 PUSH1 0x0 MSTORE PUSH1 0x20 PUSH1 0x0 KECCAK256 SWAP1 PUSH1 0x2 MUL ADD PUSH1 0x1 ADD DUP1 SLOAD DUP1 PUSH1 0x20 MUL PUSH1 0x20 ADD PUSH1 0x40 MLOAD SWAP1 DUP2 ADD PUSH1 0x40 MSTORE DUP1 SWAP3 SWAP2 SWAP1 DUP2 DUP2 MSTORE PUSH1 0x20 ADD PUSH1 0x0 SWAP1 JUMPDEST DUP3 DUP3 LT ISZERO PUSH2 0x122A JUMPI DUP4 DUP3 SWAP1 PUSH1 0x0 MSTORE PUSH1 0x20 PUSH1 0x0 KECCAK256 SWAP1 PUSH1 0x4 MUL ADD PUSH1 0x40 MLOAD DUP1 PUSH1 0x80 ADD PUSH1 0x40 MSTORE SWAP1 DUP2 PUSH1 0x0 DUP3 ADD PUSH1 0x0 SWAP1 SLOAD SWAP1 PUSH2 0x100 EXP SWAP1 DIV PUSH20 0xFFFFFFFFFFFFFFFFFFFFFFFFFFFFFFFFFFFFFFFF AND PUSH20 0xFFFFFFFFFFFFFFFFFFFFFFFFFFFFFFFFFFFFFFFF AND PUSH20 0xFFFFFFFFFFFFFFFFFFFFFFFFFFFFFFFFFFFFFFFF AND DUP2 MSTORE PUSH1 0x20 ADD PUSH1 0x1 DUP3 ADD SLOAD DUP2 MSTORE PUSH1 0x20 ADD PUSH1 0x2 DUP3 ADD SLOAD DUP2 MSTORE PUSH1 0x20 ADD PUSH1 0x3 DUP3 ADD SLOAD DUP2 MSTORE POP POP DUP2 MSTORE PUSH1 0x20 ADD SWAP1 PUSH1 0x1 ADD SWAP1 PUSH2 0x1184 JUMP JUMPDEST POP POP POP POP DUP2 MSTORE POP SWAP1 POP PUSH1 0x0 JUMPDEST DUP2 PUSH1 0x20 ADD MLOAD MLOAD DUP2 LT ISZERO PUSH2 0x12DB JUMPI PUSH1 0x0 PUSH2 0x126C DUP4 PUSH1 0x20 ADD MLOAD DUP4 DUP2 MLOAD DUP2 LT PUSH2 0x125F JUMPI PUSH2 0x125E PUSH2 0x2D81 JUMP JUMPDEST JUMPDEST PUSH1 0x20 MUL PUSH1 0x20 ADD ADD MLOAD PUSH2 0x1D54 JUMP JUMPDEST SWAP1 POP DUP1 DUP4 PUSH1 0x20 ADD MLOAD DUP4 DUP2 MLOAD DUP2 LT PUSH2 0x1286 JUMPI PUSH2 0x1285 PUSH2 0x2D81 JUMP JUMPDEST JUMPDEST PUSH1 0x20 MUL PUSH1 0x20 ADD ADD MLOAD PUSH1 0x60 ADD DUP2 DUP2 MSTORE POP POP DUP3 PUSH1 0x20 ADD MLOAD DUP3 DUP2 MLOAD DUP2 LT PUSH2 0x12AD JUMPI PUSH2 0x12AC PUSH2 0x2D81 JUMP JUMPDEST JUMPDEST PUSH1 0x20 MUL PUSH1 0x20 ADD ADD MLOAD PUSH1 0x20 ADD MLOAD DUP5 PUSH2 0x12C4 SWAP2 SWAP1 PUSH2 0x2CBB JUMP JUMPDEST SWAP4 POP POP PUSH1 0x1 DUP2 PUSH2 0x12D4 SWAP2 SWAP1 PUSH2 0x2CBB JUMP JUMPDEST SWAP1 POP PUSH2 0x1236 JUMP JUMPDEST POP DUP2 DUP2 PUSH1 0x0 ADD DUP2 DUP2 MSTORE POP POP DUP1 SWAP3 POP POP POP SWAP2 SWAP1 POP JUMP JUMPDEST PUSH1 0x0 PUSH2 0x12FC DUP4 DUP4 PUSH2 0x2177 JUMP JUMPDEST SWAP1 POP PUSH2 0x1308 CALLER DUP3 PUSH2 0x1856 JUMP JUMPDEST POP POP POP JUMP JUMPDEST CALLER PUSH20 0xFFFFFFFFFFFFFFFFFFFFFFFFFFFFFFFFFFFFFFFF AND PUSH1 0x0 DUP1 SLOAD SWAP1 PUSH2 0x100 EXP SWAP1 DIV PUSH20 0xFFFFFFFFFFFFFFFFFFFFFFFFFFFFFFFFFFFFFFFF AND PUSH20 0xFFFFFFFFFFFFFFFFFFFFFFFFFFFFFFFFFFFFFFFF AND EQ PUSH2 0x139B JUMPI PUSH1 0x40 MLOAD PUSH32 0x8C379A000000000000000000000000000000000000000000000000000000000 DUP2 MSTORE PUSH1 0x4 ADD PUSH2 0x1392 SWAP1 PUSH2 0x2D61 JUMP JUMPDEST PUSH1 0x40 MLOAD DUP1 SWAP2 SUB SWAP1 REVERT JUMPDEST PUSH2 0x13A4 DUP2 PUSH2 0x243F JUMP JUMPDEST POP JUMP JUMPDEST PUSH1 0x0 PUSH20 0xFFFFFFFFFFFFFFFFFFFFFFFFFFFFFFFFFFFFFFFF AND DUP4 PUSH20 0xFFFFFFFFFFFFFFFFFFFFFFFFFFFFFFFFFFFFFFFF AND SUB PUSH2 0x1416 JUMPI PUSH1 0x40 MLOAD PUSH32 0x8C379A000000000000000000000000000000000000000000000000000000000 DUP2 MSTORE PUSH1 0x4 ADD PUSH2 0x140D SWAP1 PUSH2 0x2F20 JUMP JUMPDEST PUSH1 0x40 MLOAD DUP1 SWAP2 SUB SWAP1 REVERT JUMPDEST PUSH1 0x0 PUSH20 0xFFFFFFFFFFFFFFFFFFFFFFFFFFFFFFFFFFFFFFFF AND DUP3 PUSH20 0xFFFFFFFFFFFFFFFFFFFFFFFFFFFFFFFFFFFFFFFF AND SUB PUSH2 0x1485 JUMPI PUSH1 0x40 MLOAD PUSH32 0x8C379A000000000000000000000000000000000000000000000000000000000 DUP2 MSTORE PUSH1 0x4 ADD PUSH2 0x147C SWAP1 PUSH2 0x2FB2 JUMP JUMPDEST PUSH1 0x40 MLOAD DUP1 SWAP2 SUB SWAP1 REVERT JUMPDEST DUP1 PUSH1 0x9 PUSH1 0x0 DUP6 PUSH20 0xFFFFFFFFFFFFFFFFFFFFFFFFFFFFFFFFFFFFFFFF AND PUSH20 0xFFFFFFFFFFFFFFFFFFFFFFFFFFFFFFFFFFFFFFFF AND DUP2 MSTORE PUSH1 0x20 ADD SWAP1 DUP2 MSTORE PUSH1 0x20 ADD PUSH1 0x0 KECCAK256 PUSH1 0x0 DUP5 PUSH20 0xFFFFFFFFFFFFFFFFFFFFFFFFFFFFFFFFFFFFFFFF AND PUSH20 0xFFFFFFFFFFFFFFFFFFFFFFFFFFFFFFFFFFFFFFFF AND DUP2 MSTORE PUSH1 0x20 ADD SWAP1 DUP2 MSTORE PUSH1 0x20 ADD PUSH1 0x0 KECCAK256 DUP2 SWAP1 SSTORE POP DUP2 PUSH20 0xFFFFFFFFFFFFFFFFFFFFFFFFFFFFFFFFFFFFFFFF AND DUP4 PUSH20 0xFFFFFFFFFFFFFFFFFFFFFFFFFFFFFFFFFFFFFFFF AND PUSH32 0x8C5BE1E5EBEC7D5BD14F71427D1E84F3DD0314C0F7B2291E5B200AC8C7C3B925 DUP4 PUSH1 0x40 MLOAD PUSH2 0x1563 SWAP2 SWAP1 PUSH2 0x283C JUMP JUMPDEST PUSH1 0x40 MLOAD DUP1 SWAP2 SUB SWAP1 LOG3 POP POP POP JUMP JUMPDEST PUSH1 0x0 PUSH20 0xFFFFFFFFFFFFFFFFFFFFFFFFFFFFFFFFFFFFFFFF AND DUP4 PUSH20 0xFFFFFFFFFFFFFFFFFFFFFFFFFFFFFFFFFFFFFFFF AND SUB PUSH2 0x15DF JUMPI PUSH1 0x40 MLOAD PUSH32 0x8C379A000000000000000000000000000000000000000000000000000000000 DUP2 MSTORE PUSH1 0x4 ADD PUSH2 0x15D6 SWAP1 PUSH2 0x3044 JUMP JUMPDEST PUSH1 0x40 MLOAD DUP1 SWAP2 SUB SWAP1 REVERT JUMPDEST PUSH1 0x0 PUSH20 0xFFFFFFFFFFFFFFFFFFFFFFFFFFFFFFFFFFFFFFFF AND DUP3 PUSH20 0xFFFFFFFFFFFFFFFFFFFFFFFFFFFFFFFFFFFFFFFF AND SUB PUSH2 0x164E JUMPI PUSH1 0x40 MLOAD PUSH32 0x8C379A000000000000000000000000000000000000000000000000000000000 DUP2 MSTORE PUSH1 0x4 ADD PUSH2 0x1645 SWAP1 PUSH2 0x30D6 JUMP JUMPDEST PUSH1 0x40 MLOAD DUP1 SWAP2 SUB SWAP1 REVERT JUMPDEST DUP1 PUSH1 0x8 PUSH1 0x0 DUP6 PUSH20 0xFFFFFFFFFFFFFFFFFFFFFFFFFFFFFFFFFFFFFFFF AND PUSH20 0xFFFFFFFFFFFFFFFFFFFFFFFFFFFFFFFFFFFFFFFF AND DUP2 MSTORE PUSH1 0x20 ADD SWAP1 DUP2 MSTORE PUSH1 0x20 ADD PUSH1 0x0 KECCAK256 SLOAD LT ISZERO PUSH2 0x16D0 JUMPI PUSH1 0x40 MLOAD PUSH32 0x8C379A000000000000000000000000000000000000000000000000000000000 DUP2 MSTORE PUSH1 0x4 ADD PUSH2 0x16C7 SWAP1 PUSH2 0x3168 JUMP JUMPDEST PUSH1 0x40 MLOAD DUP1 SWAP2 SUB SWAP1 REVERT JUMPDEST DUP1 PUSH1 0x8 PUSH1 0x0 DUP6 PUSH20 0xFFFFFFFFFFFFFFFFFFFFFFFFFFFFFFFFFFFFFFFF AND PUSH20 0xFFFFFFFFFFFFFFFFFFFFFFFFFFFFFFFFFFFFFFFF AND DUP2 MSTORE PUSH1 0x20 ADD SWAP1 DUP2 MSTORE PUSH1 0x20 ADD PUSH1 0x0 KECCAK256 SLOAD PUSH2 0x171B SWAP2 SWAP1 PUSH2 0x2C87 JUMP JUMPDEST PUSH1 0x8 PUSH1 0x0 DUP6 PUSH20 0xFFFFFFFFFFFFFFFFFFFFFFFFFFFFFFFFFFFFFFFF AND PUSH20 0xFFFFFFFFFFFFFFFFFFFFFFFFFFFFFFFFFFFFFFFF AND DUP2 MSTORE PUSH1 0x20 ADD SWAP1 DUP2 MSTORE PUSH1 0x20 ADD PUSH1 0x0 KECCAK256 DUP2 SWAP1 SSTORE POP DUP1 PUSH1 0x8 PUSH1 0x0 DUP5 PUSH20 0xFFFFFFFFFFFFFFFFFFFFFFFFFFFFFFFFFFFFFFFF AND PUSH20 0xFFFFFFFFFFFFFFFFFFFFFFFFFFFFFFFFFFFFFFFF AND DUP2 MSTORE PUSH1 0x20 ADD SWAP1 DUP2 MSTORE PUSH1 0x20 ADD PUSH1 0x0 KECCAK256 SLOAD PUSH2 0x17A9 SWAP2 SWAP1 PUSH2 0x2CBB JUMP JUMPDEST PUSH1 0x8 PUSH1 0x0 DUP5 PUSH20 0xFFFFFFFFFFFFFFFFFFFFFFFFFFFFFFFFFFFFFFFF AND PUSH20 0xFFFFFFFFFFFFFFFFFFFFFFFFFFFFFFFFFFFFFFFF AND DUP2 MSTORE PUSH1 0x20 ADD SWAP1 DUP2 MSTORE PUSH1 0x20 ADD PUSH1 0x0 KECCAK256 DUP2 SWAP1 SSTORE POP DUP2 PUSH20 0xFFFFFFFFFFFFFFFFFFFFFFFFFFFFFFFFFFFFFFFF AND DUP4 PUSH20 0xFFFFFFFFFFFFFFFFFFFFFFFFFFFFFFFFFFFFFFFF AND PUSH32 0xDDF252AD1BE2C89B69C2B068FC378DAA952BA7F163C4A11628F55A4DF523B3EF DUP4 PUSH1 0x40 MLOAD PUSH2 0x1849 SWAP2 SWAP1 PUSH2 0x283C JUMP JUMPDEST PUSH1 0x40 MLOAD DUP1 SWAP2 SUB SWAP1 LOG3 POP POP POP JUMP JUMPDEST PUSH1 0x0 PUSH20 0xFFFFFFFFFFFFFFFFFFFFFFFFFFFFFFFFFFFFFFFF AND DUP3 PUSH20 0xFFFFFFFFFFFFFFFFFFFFFFFFFFFFFFFFFFFFFFFF AND SUB PUSH2 0x18C5 JUMPI PUSH1 0x40 MLOAD PUSH32 0x8C379A000000000000000000000000000000000000000000000000000000000 DUP2 MSTORE PUSH1 0x4 ADD PUSH2 0x18BC SWAP1 PUSH2 0x31FA JUMP JUMPDEST PUSH1 0x40 MLOAD DUP1 SWAP2 SUB SWAP1 REVERT JUMPDEST DUP1 PUSH1 0x4 SLOAD PUSH2 0x18D3 SWAP2 SWAP1 PUSH2 0x2CBB JUMP JUMPDEST PUSH1 0x4 DUP2 SWAP1 SSTORE POP DUP1 PUSH1 0x8 PUSH1 0x0 DUP5 PUSH20 0xFFFFFFFFFFFFFFFFFFFFFFFFFFFFFFFFFFFFFFFF AND PUSH20 0xFFFFFFFFFFFFFFFFFFFFFFFFFFFFFFFFFFFFFFFF AND DUP2 MSTORE PUSH1 0x20 ADD SWAP1 DUP2 MSTORE PUSH1 0x20 ADD PUSH1 0x0 KECCAK256 SLOAD PUSH2 0x1924 SWAP2 SWAP1 PUSH2 0x2CBB JUMP JUMPDEST PUSH1 0x8 PUSH1 0x0 DUP5 PUSH20 0xFFFFFFFFFFFFFFFFFFFFFFFFFFFFFFFFFFFFFFFF AND PUSH20 0xFFFFFFFFFFFFFFFFFFFFFFFFFFFFFFFFFFFFFFFF AND DUP2 MSTORE PUSH1 0x20 ADD SWAP1 DUP2 MSTORE PUSH1 0x20 ADD PUSH1 0x0 KECCAK256 DUP2 SWAP1 SSTORE POP DUP2 PUSH20 0xFFFFFFFFFFFFFFFFFFFFFFFFFFFFFFFFFFFFFFFF AND PUSH1 0x0 PUSH20 0xFFFFFFFFFFFFFFFFFFFFFFFFFFFFFFFFFFFFFFFF AND PUSH32 0xDDF252AD1BE2C89B69C2B068FC378DAA952BA7F163C4A11628F55A4DF523B3EF DUP4 PUSH1 0x40 MLOAD PUSH2 0x19C5 SWAP2 SWAP1 PUSH2 0x283C JUMP JUMPDEST PUSH1 0x40 MLOAD DUP1 SWAP2 SUB SWAP1 LOG3 POP POP JUMP JUMPDEST PUSH1 0x0 PUSH1 0x1 SLOAD SWAP1 POP SWAP1 JUMP JUMPDEST PUSH1 0x0 DUP1 PUSH1 0x0 PUSH1 0x3 PUSH1 0x0 CALLER PUSH20 0xFFFFFFFFFFFFFFFFFFFFFFFFFFFFFFFFFFFFFFFF AND PUSH20 0xFFFFFFFFFFFFFFFFFFFFFFFFFFFFFFFFFFFFFFFF AND DUP2 MSTORE PUSH1 0x20 ADD SWAP1 DUP2 MSTORE PUSH1 0x20 ADD PUSH1 0x0 KECCAK256 SLOAD SWAP1 POP PUSH1 0x0 PUSH1 0x40 MLOAD DUP1 PUSH1 0x40 ADD PUSH1 0x40 MSTORE DUP1 PUSH1 0x0 DUP2 MSTORE PUSH1 0x20 ADD PUSH1 0x2 PUSH1 0x3 PUSH1 0x0 CALLER PUSH20 0xFFFFFFFFFFFFFFFFFFFFFFFFFFFFFFFFFFFFFFFF AND PUSH20 0xFFFFFFFFFFFFFFFFFFFFFFFFFFFFFFFFFFFFFFFF AND DUP2 MSTORE PUSH1 0x20 ADD SWAP1 DUP2 MSTORE PUSH1 0x20 ADD PUSH1 0x0 KECCAK256 SLOAD DUP2 SLOAD DUP2 LT PUSH2 0x1A89 JUMPI PUSH2 0x1A88 PUSH2 0x2D81 JUMP JUMPDEST JUMPDEST SWAP1 PUSH1 0x0 MSTORE PUSH1 0x20 PUSH1 0x0 KECCAK256 SWAP1 PUSH1 0x2 MUL ADD PUSH1 0x1 ADD DUP1 SLOAD DUP1 PUSH1 0x20 MUL PUSH1 0x20 ADD PUSH1 0x40 MLOAD SWAP1 DUP2 ADD PUSH1 0x40 MSTORE DUP1 SWAP3 SWAP2 SWAP1 DUP2 DUP2 MSTORE PUSH1 0x20 ADD PUSH1 0x0 SWAP1 JUMPDEST DUP3 DUP3 LT ISZERO PUSH2 0x1B60 JUMPI DUP4 DUP3 SWAP1 PUSH1 0x0 MSTORE PUSH1 0x20 PUSH1 0x0 KECCAK256 SWAP1 PUSH1 0x4 MUL ADD PUSH1 0x40 MLOAD DUP1 PUSH1 0x80 ADD PUSH1 0x40 MSTORE SWAP1 DUP2 PUSH1 0x0 DUP3 ADD PUSH1 0x0 SWAP1 SLOAD SWAP1 PUSH2 0x100 EXP SWAP1 DIV PUSH20 0xFFFFFFFFFFFFFFFFFFFFFFFFFFFFFFFFFFFFFFFF AND PUSH20 0xFFFFFFFFFFFFFFFFFFFFFFFFFFFFFFFFFFFFFFFF AND PUSH20 0xFFFFFFFFFFFFFFFFFFFFFFFFFFFFFFFFFFFFFFFF AND DUP2 MSTORE PUSH1 0x20 ADD PUSH1 0x1 DUP3 ADD SLOAD DUP2 MSTORE PUSH1 0x20 ADD PUSH1 0x2 DUP3 ADD SLOAD DUP2 MSTORE PUSH1 0x20 ADD PUSH1 0x3 DUP3 ADD SLOAD DUP2 MSTORE POP POP DUP2 MSTORE PUSH1 0x20 ADD SWAP1 PUSH1 0x1 ADD SWAP1 PUSH2 0x1ABA JUMP JUMPDEST POP POP POP POP DUP2 MSTORE POP SWAP1 POP PUSH1 0x0 JUMPDEST DUP2 PUSH1 0x20 ADD MLOAD MLOAD DUP2 LT ISZERO PUSH2 0x1CFD JUMPI PUSH1 0x0 PUSH1 0x2 DUP5 DUP2 SLOAD DUP2 LT PUSH2 0x1B8F JUMPI PUSH2 0x1B8E PUSH2 0x2D81 JUMP JUMPDEST JUMPDEST SWAP1 PUSH1 0x0 MSTORE PUSH1 0x20 PUSH1 0x0 KECCAK256 SWAP1 PUSH1 0x2 MUL ADD PUSH1 0x1 ADD DUP3 DUP2 SLOAD DUP2 LT PUSH2 0x1BB2 JUMPI PUSH2 0x1BB1 PUSH2 0x2D81 JUMP JUMPDEST JUMPDEST SWAP1 PUSH1 0x0 MSTORE PUSH1 0x20 PUSH1 0x0 KECCAK256 SWAP1 PUSH1 0x4 MUL ADD PUSH1 0x40 MLOAD DUP1 PUSH1 0x80 ADD PUSH1 0x40 MSTORE SWAP1 DUP2 PUSH1 0x0 DUP3 ADD PUSH1 0x0 SWAP1 SLOAD SWAP1 PUSH2 0x100 EXP SWAP1 DIV PUSH20 0xFFFFFFFFFFFFFFFFFFFFFFFFFFFFFFFFFFFFFFFF AND PUSH20 0xFFFFFFFFFFFFFFFFFFFFFFFFFFFFFFFFFFFFFFFF AND PUSH20 0xFFFFFFFFFFFFFFFFFFFFFFFFFFFFFFFFFFFFFFFF AND DUP2 MSTORE PUSH1 0x20 ADD PUSH1 0x1 DUP3 ADD SLOAD DUP2 MSTORE PUSH1 0x20 ADD PUSH1 0x2 DUP3 ADD SLOAD DUP2 MSTORE PUSH1 0x20 ADD PUSH1 0x3 DUP3 ADD SLOAD DUP2 MSTORE POP POP SWAP1 POP PUSH1 0x0 PUSH2 0x1C4C DUP3 PUSH2 0x1D54 JUMP JUMPDEST SWAP1 POP DUP1 DUP3 PUSH1 0x20 ADD MLOAD PUSH2 0x1C5E SWAP2 SWAP1 PUSH2 0x2CBB JUMP JUMPDEST SWAP6 POP PUSH1 0x2 DUP6 DUP2 SLOAD DUP2 LT PUSH2 0x1C74 JUMPI PUSH2 0x1C73 PUSH2 0x2D81 JUMP JUMPDEST JUMPDEST SWAP1 PUSH1 0x0 MSTORE PUSH1 0x20 PUSH1 0x0 KECCAK256 SWAP1 PUSH1 0x2 MUL ADD PUSH1 0x1 ADD DUP4 DUP2 SLOAD DUP2 LT PUSH2 0x1C97 JUMPI PUSH2 0x1C96 PUSH2 0x2D81 JUMP JUMPDEST JUMPDEST SWAP1 PUSH1 0x0 MSTORE PUSH1 0x20 PUSH1 0x0 KECCAK256 SWAP1 PUSH1 0x4 MUL ADD PUSH1 0x0 DUP1 DUP3 ADD PUSH1 0x0 PUSH2 0x100 EXP DUP2 SLOAD SWAP1 PUSH20 0xFFFFFFFFFFFFFFFFFFFFFFFFFFFFFFFFFFFFFFFF MUL NOT AND SWAP1 SSTORE PUSH1 0x1 DUP3 ADD PUSH1 0x0 SWAP1 SSTORE PUSH1 0x2 DUP3 ADD PUSH1 0x0 SWAP1 SSTORE PUSH1 0x3 DUP3 ADD PUSH1 0x0 SWAP1 SSTORE POP POP POP POP PUSH1 0x1 DUP2 PUSH2 0x1CF6 SWAP2 SWAP1 PUSH2 0x2CBB JUMP JUMPDEST SWAP1 POP PUSH2 0x1B6C JUMP JUMPDEST POP DUP3 SWAP4 POP POP POP POP SWAP1 JUMP JUMPDEST PUSH1 0x0 DUP2 GT PUSH2 0x1D4A JUMPI PUSH1 0x40 MLOAD PUSH32 0x8C379A000000000000000000000000000000000000000000000000000000000 DUP2 MSTORE PUSH1 0x4 ADD PUSH2 0x1D41 SWAP1 PUSH2 0x3266 JUMP JUMPDEST PUSH1 0x40 MLOAD DUP1 SWAP2 SUB SWAP1 REVERT JUMPDEST DUP1 PUSH1 0x1 DUP2 SWAP1 SSTORE POP POP JUMP JUMPDEST PUSH1 0x0 PUSH1 0x1 SLOAD DUP3 PUSH1 0x20 ADD MLOAD PUSH2 0xE10 DUP5 PUSH1 0x40 ADD MLOAD TIMESTAMP PUSH2 0x1D71 SWAP2 SWAP1 PUSH2 0x2C87 JUMP JUMPDEST PUSH2 0x1D7B SWAP2 SWAP1 PUSH2 0x32B5 JUMP JUMPDEST PUSH2 0x1D85 SWAP2 SWAP1 PUSH2 0x32E6 JUMP JUMPDEST PUSH2 0x1D8F SWAP2 SWAP1 PUSH2 0x32B5 JUMP JUMPDEST SWAP1 POP SWAP2 SWAP1 POP JUMP JUMPDEST PUSH1 0x0 PUSH20 0xFFFFFFFFFFFFFFFFFFFFFFFFFFFFFFFFFFFFFFFF AND DUP3 PUSH20 0xFFFFFFFFFFFFFFFFFFFFFFFFFFFFFFFFFFFFFFFF AND SUB PUSH2 0x1E05 JUMPI PUSH1 0x40 MLOAD PUSH32 0x8C379A000000000000000000000000000000000000000000000000000000000 DUP2 MSTORE PUSH1 0x4 ADD PUSH2 0x1DFC SWAP1 PUSH2 0x339A JUMP JUMPDEST PUSH1 0x40 MLOAD DUP1 SWAP2 SUB SWAP1 REVERT JUMPDEST DUP1 PUSH1 0x8 PUSH1 0x0 DUP5 PUSH20 0xFFFFFFFFFFFFFFFFFFFFFFFFFFFFFFFFFFFFFFFF AND PUSH20 0xFFFFFFFFFFFFFFFFFFFFFFFFFFFFFFFFFFFFFFFF AND DUP2 MSTORE PUSH1 0x20 ADD SWAP1 DUP2 MSTORE PUSH1 0x20 ADD PUSH1 0x0 KECCAK256 SLOAD LT ISZERO PUSH2 0x1E87 JUMPI PUSH1 0x40 MLOAD PUSH32 0x8C379A000000000000000000000000000000000000000000000000000000000 DUP2 MSTORE PUSH1 0x4 ADD PUSH2 0x1E7E SWAP1 PUSH2 0x342C JUMP JUMPDEST PUSH1 0x40 MLOAD DUP1 SWAP2 SUB SWAP1 REVERT JUMPDEST DUP1 PUSH1 0x8 PUSH1 0x0 DUP5 PUSH20 0xFFFFFFFFFFFFFFFFFFFFFFFFFFFFFFFFFFFFFFFF AND PUSH20 0xFFFFFFFFFFFFFFFFFFFFFFFFFFFFFFFFFFFFFFFF AND DUP2 MSTORE PUSH1 0x20 ADD SWAP1 DUP2 MSTORE PUSH1 0x20 ADD PUSH1 0x0 KECCAK256 SLOAD PUSH2 0x1ED2 SWAP2 SWAP1 PUSH2 0x2C87 JUMP JUMPDEST PUSH1 0x8 PUSH1 0x0 DUP5 PUSH20 0xFFFFFFFFFFFFFFFFFFFFFFFFFFFFFFFFFFFFFFFF AND PUSH20 0xFFFFFFFFFFFFFFFFFFFFFFFFFFFFFFFFFFFFFFFF AND DUP2 MSTORE PUSH1 0x20 ADD SWAP1 DUP2 MSTORE PUSH1 0x20 ADD PUSH1 0x0 KECCAK256 DUP2 SWAP1 SSTORE POP DUP1 PUSH1 0x4 SLOAD PUSH2 0x1F23 SWAP2 SWAP1 PUSH2 0x2C87 JUMP JUMPDEST PUSH1 0x4 DUP2 SWAP1 SSTORE POP PUSH1 0x0 PUSH20 0xFFFFFFFFFFFFFFFFFFFFFFFFFFFFFFFFFFFFFFFF AND DUP3 PUSH20 0xFFFFFFFFFFFFFFFFFFFFFFFFFFFFFFFFFFFFFFFF AND PUSH32 0xDDF252AD1BE2C89B69C2B068FC378DAA952BA7F163C4A11628F55A4DF523B3EF DUP4 PUSH1 0x40 MLOAD PUSH2 0x1F87 SWAP2 SWAP1 PUSH2 0x283C JUMP JUMPDEST PUSH1 0x40 MLOAD DUP1 SWAP2 SUB SWAP1 LOG3 POP POP JUMP JUMPDEST PUSH1 0x0 DUP2 GT PUSH2 0x1FD6 JUMPI PUSH1 0x40 MLOAD PUSH32 0x8C379A000000000000000000000000000000000000000000000000000000000 DUP2 MSTORE PUSH1 0x4 ADD PUSH2 0x1FCD SWAP1 PUSH2 0x3498 JUMP JUMPDEST PUSH1 0x40 MLOAD DUP1 SWAP2 SUB SWAP1 REVERT JUMPDEST PUSH1 0x0 PUSH1 0x3 PUSH1 0x0 CALLER PUSH20 0xFFFFFFFFFFFFFFFFFFFFFFFFFFFFFFFFFFFFFFFF AND PUSH20 0xFFFFFFFFFFFFFFFFFFFFFFFFFFFFFFFFFFFFFFFF AND DUP2 MSTORE PUSH1 0x20 ADD SWAP1 DUP2 MSTORE PUSH1 0x20 ADD PUSH1 0x0 KECCAK256 SLOAD SWAP1 POP PUSH1 0x0 TIMESTAMP SWAP1 POP PUSH1 0x0 DUP3 SUB PUSH2 0x2033 JUMPI PUSH2 0x2030 CALLER PUSH2 0x256B JUMP JUMPDEST SWAP2 POP JUMPDEST PUSH1 0x2 DUP3 DUP2 SLOAD DUP2 LT PUSH2 0x2047 JUMPI PUSH2 0x2046 PUSH2 0x2D81 JUMP JUMPDEST JUMPDEST SWAP1 PUSH1 0x0 MSTORE PUSH1 0x20 PUSH1 0x0 KECCAK256 SWAP1 PUSH1 0x2 MUL ADD PUSH1 0x1 ADD PUSH1 0x40 MLOAD DUP1 PUSH1 0x80 ADD PUSH1 0x40 MSTORE DUP1 CALLER PUSH20 0xFFFFFFFFFFFFFFFFFFFFFFFFFFFFFFFFFFFFFFFF AND DUP2 MSTORE PUSH1 0x20 ADD DUP6 DUP2 MSTORE PUSH1 0x20 ADD DUP4 DUP2 MSTORE PUSH1 0x20 ADD PUSH1 0x0 DUP2 MSTORE POP SWAP1 DUP1 PUSH1 0x1 DUP2 SLOAD ADD DUP1 DUP3 SSTORE DUP1 SWAP2 POP POP PUSH1 0x1 SWAP1 SUB SWAP1 PUSH1 0x0 MSTORE PUSH1 0x20 PUSH1 0x0 KECCAK256 SWAP1 PUSH1 0x4 MUL ADD PUSH1 0x0 SWAP1 SWAP2 SWAP1 SWAP2 SWAP1 SWAP2 POP PUSH1 0x0 DUP3 ADD MLOAD DUP2 PUSH1 0x0 ADD PUSH1 0x0 PUSH2 0x100 EXP DUP2 SLOAD DUP2 PUSH20 0xFFFFFFFFFFFFFFFFFFFFFFFFFFFFFFFFFFFFFFFF MUL NOT AND SWAP1 DUP4 PUSH20 0xFFFFFFFFFFFFFFFFFFFFFFFFFFFFFFFFFFFFFFFF AND MUL OR SWAP1 SSTORE POP PUSH1 0x20 DUP3 ADD MLOAD DUP2 PUSH1 0x1 ADD SSTORE PUSH1 0x40 DUP3 ADD MLOAD DUP2 PUSH1 0x2 ADD SSTORE PUSH1 0x60 DUP3 ADD MLOAD DUP2 PUSH1 0x3 ADD SSTORE POP POP CALLER PUSH20 0xFFFFFFFFFFFFFFFFFFFFFFFFFFFFFFFFFFFFFFFF AND PUSH32 0xB4CAAF29ADDA3EEFEE3AD552A8E85058589BF834C7466CAE4EE58787F70589ED DUP5 DUP5 DUP5 PUSH1 0x40 MLOAD PUSH2 0x216A SWAP4 SWAP3 SWAP2 SWAP1 PUSH2 0x34B8 JUMP JUMPDEST PUSH1 0x40 MLOAD DUP1 SWAP2 SUB SWAP1 LOG2 POP POP POP JUMP JUMPDEST PUSH1 0x0 DUP1 PUSH1 0x3 PUSH1 0x0 CALLER PUSH20 0xFFFFFFFFFFFFFFFFFFFFFFFFFFFFFFFFFFFFFFFF AND PUSH20 0xFFFFFFFFFFFFFFFFFFFFFFFFFFFFFFFFFFFFFFFF AND DUP2 MSTORE PUSH1 0x20 ADD SWAP1 DUP2 MSTORE PUSH1 0x20 ADD PUSH1 0x0 KECCAK256 SLOAD SWAP1 POP PUSH1 0x0 PUSH1 0x2 DUP3 DUP2 SLOAD DUP2 LT PUSH2 0x21D2 JUMPI PUSH2 0x21D1 PUSH2 0x2D81 JUMP JUMPDEST JUMPDEST SWAP1 PUSH1 0x0 MSTORE PUSH1 0x20 PUSH1 0x0 KECCAK256 SWAP1 PUSH1 0x2 MUL ADD PUSH1 0x1 ADD DUP5 DUP2 SLOAD DUP2 LT PUSH2 0x21F5 JUMPI PUSH2 0x21F4 PUSH2 0x2D81 JUMP JUMPDEST JUMPDEST SWAP1 PUSH1 0x0 MSTORE PUSH1 0x20 PUSH1 0x0 KECCAK256 SWAP1 PUSH1 0x4 MUL ADD PUSH1 0x40 MLOAD DUP1 PUSH1 0x80 ADD PUSH1 0x40 MSTORE SWAP1 DUP2 PUSH1 0x0 DUP3 ADD PUSH1 0x0 SWAP1 SLOAD SWAP1 PUSH2 0x100 EXP SWAP1 DIV PUSH20 0xFFFFFFFFFFFFFFFFFFFFFFFFFFFFFFFFFFFFFFFF AND PUSH20 0xFFFFFFFFFFFFFFFFFFFFFFFFFFFFFFFFFFFFFFFF AND PUSH20 0xFFFFFFFFFFFFFFFFFFFFFFFFFFFFFFFFFFFFFFFF AND DUP2 MSTORE PUSH1 0x20 ADD PUSH1 0x1 DUP3 ADD SLOAD DUP2 MSTORE PUSH1 0x20 ADD PUSH1 0x2 DUP3 ADD SLOAD DUP2 MSTORE PUSH1 0x20 ADD PUSH1 0x3 DUP3 ADD SLOAD DUP2 MSTORE POP POP SWAP1 POP DUP5 DUP2 PUSH1 0x20 ADD MLOAD LT ISZERO PUSH2 0x22CB JUMPI PUSH1 0x40 MLOAD PUSH32 0x8C379A000000000000000000000000000000000000000000000000000000000 DUP2 MSTORE PUSH1 0x4 ADD PUSH2 0x22C2 SWAP1 PUSH2 0x3561 JUMP JUMPDEST PUSH1 0x40 MLOAD DUP1 SWAP2 SUB SWAP1 REVERT JUMPDEST PUSH1 0x0 PUSH2 0x22D6 DUP3 PUSH2 0x1D54 JUMP JUMPDEST SWAP1 POP DUP6 DUP3 PUSH1 0x20 ADD MLOAD PUSH2 0x22E8 SWAP2 SWAP1 PUSH2 0x2C87 JUMP JUMPDEST DUP3 PUSH1 0x20 ADD DUP2 DUP2 MSTORE POP POP PUSH1 0x0 DUP3 PUSH1 0x20 ADD MLOAD SUB PUSH2 0x2389 JUMPI PUSH1 0x2 DUP4 DUP2 SLOAD DUP2 LT PUSH2 0x2311 JUMPI PUSH2 0x2310 PUSH2 0x2D81 JUMP JUMPDEST JUMPDEST SWAP1 PUSH1 0x0 MSTORE PUSH1 0x20 PUSH1 0x0 KECCAK256 SWAP1 PUSH1 0x2 MUL ADD PUSH1 0x1 ADD DUP6 DUP2 SLOAD DUP2 LT PUSH2 0x2334 JUMPI PUSH2 0x2333 PUSH2 0x2D81 JUMP JUMPDEST JUMPDEST SWAP1 PUSH1 0x0 MSTORE PUSH1 0x20 PUSH1 0x0 KECCAK256 SWAP1 PUSH1 0x4 MUL ADD PUSH1 0x0 DUP1 DUP3 ADD PUSH1 0x0 PUSH2 0x100 EXP DUP2 SLOAD SWAP1 PUSH20 0xFFFFFFFFFFFFFFFFFFFFFFFFFFFFFFFFFFFFFFFF MUL NOT AND SWAP1 SSTORE PUSH1 0x1 DUP3 ADD PUSH1 0x0 SWAP1 SSTORE PUSH1 0x2 DUP3 ADD PUSH1 0x0 SWAP1 SSTORE PUSH1 0x3 DUP3 ADD PUSH1 0x0 SWAP1 SSTORE POP POP PUSH2 0x2428 JUMP JUMPDEST DUP2 PUSH1 0x20 ADD MLOAD PUSH1 0x2 DUP5 DUP2 SLOAD DUP2 LT PUSH2 0x23A2 JUMPI PUSH2 0x23A1 PUSH2 0x2D81 JUMP JUMPDEST JUMPDEST SWAP1 PUSH1 0x0 MSTORE PUSH1 0x20 PUSH1 0x0 KECCAK256 SWAP1 PUSH1 0x2 MUL ADD PUSH1 0x1 ADD DUP7 DUP2 SLOAD DUP2 LT PUSH2 0x23C5 JUMPI PUSH2 0x23C4 PUSH2 0x2D81 JUMP JUMPDEST JUMPDEST SWAP1 PUSH1 0x0 MSTORE PUSH1 0x20 PUSH1 0x0 KECCAK256 SWAP1 PUSH1 0x4 MUL ADD PUSH1 0x1 ADD DUP2 SWAP1 SSTORE POP TIMESTAMP PUSH1 0x2 DUP5 DUP2 SLOAD DUP2 LT PUSH2 0x23EF JUMPI PUSH2 0x23EE PUSH2 0x2D81 JUMP JUMPDEST JUMPDEST SWAP1 PUSH1 0x0 MSTORE PUSH1 0x20 PUSH1 0x0 KECCAK256 SWAP1 PUSH1 0x2 MUL ADD PUSH1 0x1 ADD DUP7 DUP2 SLOAD DUP2 LT PUSH2 0x2412 JUMPI PUSH2 0x2411 PUSH2 0x2D81 JUMP JUMPDEST JUMPDEST SWAP1 PUSH1 0x0 MSTORE PUSH1 0x20 PUSH1 0x0 KECCAK256 SWAP1 PUSH1 0x4 MUL ADD PUSH1 0x2 ADD DUP2 SWAP1 SSTORE POP JUMPDEST DUP1 DUP7 PUSH2 0x2434 SWAP2 SWAP1 PUSH2 0x2CBB JUMP JUMPDEST SWAP4 POP POP POP POP SWAP3 SWAP2 POP POP JUMP JUMPDEST PUSH1 0x0 PUSH20 0xFFFFFFFFFFFFFFFFFFFFFFFFFFFFFFFFFFFFFFFF AND DUP2 PUSH20 0xFFFFFFFFFFFFFFFFFFFFFFFFFFFFFFFFFFFFFFFF AND SUB PUSH2 0x24AE JUMPI PUSH1 0x40 MLOAD PUSH32 0x8C379A000000000000000000000000000000000000000000000000000000000 DUP2 MSTORE PUSH1 0x4 ADD PUSH2 0x24A5 SWAP1 PUSH2 0x35F3 JUMP JUMPDEST PUSH1 0x40 MLOAD DUP1 SWAP2 SUB SWAP1 REVERT JUMPDEST DUP1 PUSH20 0xFFFFFFFFFFFFFFFFFFFFFFFFFFFFFFFFFFFFFFFF AND PUSH1 0x0 DUP1 SLOAD SWAP1 PUSH2 0x100 EXP SWAP1 DIV PUSH20 0xFFFFFFFFFFFFFFFFFFFFFFFFFFFFFFFFFFFFFFFF AND PUSH20 0xFFFFFFFFFFFFFFFFFFFFFFFFFFFFFFFFFFFFFFFF AND PUSH32 0x8BE0079C531659141344CD1FD0A4F28419497F9722A3DAAFE3B4186F6B6457E0 PUSH1 0x40 MLOAD PUSH1 0x40 MLOAD DUP1 SWAP2 SUB SWAP1 LOG3 DUP1 PUSH1 0x0 DUP1 PUSH2 0x100 EXP DUP2 SLOAD DUP2 PUSH20 0xFFFFFFFFFFFFFFFFFFFFFFFFFFFFFFFFFFFFFFFF MUL NOT AND SWAP1 DUP4 PUSH20 0xFFFFFFFFFFFFFFFFFFFFFFFFFFFFFFFFFFFFFFFF AND MUL OR SWAP1 SSTORE POP POP JUMP JUMPDEST PUSH1 0x0 PUSH1 0x2 PUSH1 0x1 DUP2 PUSH1 0x1 DUP2 SLOAD ADD DUP1 DUP3 SSTORE DUP1 SWAP2 POP POP SUB SWAP1 PUSH1 0x0 MSTORE PUSH1 0x20 PUSH1 0x0 KECCAK256 SWAP1 POP POP PUSH1 0x0 PUSH1 0x1 PUSH1 0x2 DUP1 SLOAD SWAP1 POP PUSH2 0x259F SWAP2 SWAP1 PUSH2 0x2C87 JUMP JUMPDEST SWAP1 POP DUP3 PUSH1 0x2 DUP3 DUP2 SLOAD DUP2 LT PUSH2 0x25B6 JUMPI PUSH2 0x25B5 PUSH2 0x2D81 JUMP JUMPDEST JUMPDEST SWAP1 PUSH1 0x0 MSTORE PUSH1 0x20 PUSH1 0x0 KECCAK256 SWAP1 PUSH1 0x2 MUL ADD PUSH1 0x0 ADD PUSH1 0x0 PUSH2 0x100 EXP DUP2 SLOAD DUP2 PUSH20 0xFFFFFFFFFFFFFFFFFFFFFFFFFFFFFFFFFFFFFFFF MUL NOT AND SWAP1 DUP4 PUSH20 0xFFFFFFFFFFFFFFFFFFFFFFFFFFFFFFFFFFFFFFFF AND MUL OR SWAP1 SSTORE POP DUP1 PUSH1 0x3 PUSH1 0x0 DUP6 PUSH20 0xFFFFFFFFFFFFFFFFFFFFFFFFFFFFFFFFFFFFFFFF AND PUSH20 0xFFFFFFFFFFFFFFFFFFFFFFFFFFFFFFFFFFFFFFFF AND DUP2 MSTORE PUSH1 0x20 ADD SWAP1 DUP2 MSTORE PUSH1 0x20 ADD PUSH1 0x0 KECCAK256 DUP2 SWAP1 SSTORE POP DUP1 SWAP2 POP POP SWAP2 SWAP1 POP JUMP JUMPDEST PUSH1 0x40 MLOAD DUP1 PUSH1 0x40 ADD PUSH1 0x40 MSTORE DUP1 PUSH1 0x0 DUP2 MSTORE PUSH1 0x20 ADD PUSH1 0x60 DUP2 MSTORE POP SWAP1 JUMP JUMPDEST PUSH1 0x0 DUP2 MLOAD SWAP1 POP SWAP2 SWAP1 POP JUMP JUMPDEST PUSH1 0x0 DUP3 DUP3 MSTORE PUSH1 0x20 DUP3 ADD SWAP1 POP SWAP3 SWAP2 POP POP JUMP JUMPDEST PUSH1 0x0 JUMPDEST DUP4 DUP2 LT ISZERO PUSH2 0x26A6 JUMPI DUP1 DUP3 ADD MLOAD DUP2 DUP5 ADD MSTORE PUSH1 0x20 DUP2 ADD SWAP1 POP PUSH2 0x268B JUMP JUMPDEST PUSH1 0x0 DUP5 DUP5 ADD MSTORE POP POP POP POP JUMP JUMPDEST PUSH1 0x0 PUSH1 0x1F NOT PUSH1 0x1F DUP4 ADD AND SWAP1 POP SWAP2 SWAP1 POP JUMP JUMPDEST PUSH1 0x0 PUSH2 0x26CE DUP3 PUSH2 0x266C JUMP JUMPDEST PUSH2 0x26D8 DUP2 DUP6 PUSH2 0x2677 JUMP JUMPDEST SWAP4 POP PUSH2 0x26E8 DUP2 DUP6 PUSH1 0x20 DUP7 ADD PUSH2 0x2688 JUMP JUMPDEST PUSH2 0x26F1 DUP2 PUSH2 0x26B2 JUMP JUMPDEST DUP5 ADD SWAP2 POP POP SWAP3 SWAP2 POP POP JUMP JUMPDEST PUSH1 0x0 PUSH1 0x20 DUP3 ADD SWAP1 POP DUP2 DUP2 SUB PUSH1 0x0 DUP4 ADD MSTORE PUSH2 0x2716 DUP2 DUP5 PUSH2 0x26C3 JUMP JUMPDEST SWAP1 POP SWAP3 SWAP2 POP POP JUMP JUMPDEST PUSH1 0x0 DUP1 REVERT JUMPDEST PUSH1 0x0 PUSH20 0xFFFFFFFFFFFFFFFFFFFFFFFFFFFFFFFFFFFFFFFF DUP3 AND SWAP1 POP SWAP2 SWAP1 POP JUMP JUMPDEST PUSH1 0x0 PUSH2 0x274E DUP3 PUSH2 0x2723 JUMP JUMPDEST SWAP1 POP SWAP2 SWAP1 POP JUMP JUMPDEST PUSH2 0x275E DUP2 PUSH2 0x2743 JUMP JUMPDEST DUP2 EQ PUSH2 0x2769 JUMPI PUSH1 0x0 DUP1 REVERT JUMPDEST POP JUMP JUMPDEST PUSH1 0x0 DUP2 CALLDATALOAD SWAP1 POP PUSH2 0x277B DUP2 PUSH2 0x2755 JUMP JUMPDEST SWAP3 SWAP2 POP POP JUMP JUMPDEST PUSH1 0x0 DUP2 SWAP1 POP SWAP2 SWAP1 POP JUMP JUMPDEST PUSH2 0x2794 DUP2 PUSH2 0x2781 JUMP JUMPDEST DUP2 EQ PUSH2 0x279F JUMPI PUSH1 0x0 DUP1 REVERT JUMPDEST POP JUMP JUMPDEST PUSH1 0x0 DUP2 CALLDATALOAD SWAP1 POP PUSH2 0x27B1 DUP2 PUSH2 0x278B JUMP JUMPDEST SWAP3 SWAP2 POP POP JUMP JUMPDEST PUSH1 0x0 DUP1 PUSH1 0x40 DUP4 DUP6 SUB SLT ISZERO PUSH2 0x27CE JUMPI PUSH2 0x27CD PUSH2 0x271E JUMP JUMPDEST JUMPDEST PUSH1 0x0 PUSH2 0x27DC DUP6 DUP3 DUP7 ADD PUSH2 0x276C JUMP JUMPDEST SWAP3 POP POP PUSH1 0x20 PUSH2 0x27ED DUP6 DUP3 DUP7 ADD PUSH2 0x27A2 JUMP JUMPDEST SWAP2 POP POP SWAP3 POP SWAP3 SWAP1 POP JUMP JUMPDEST PUSH1 0x0 DUP2 ISZERO ISZERO SWAP1 POP SWAP2 SWAP1 POP JUMP JUMPDEST PUSH2 0x280C DUP2 PUSH2 0x27F7 JUMP JUMPDEST DUP3 MSTORE POP POP JUMP JUMPDEST PUSH1 0x0 PUSH1 0x20 DUP3 ADD SWAP1 POP PUSH2 0x2827 PUSH1 0x0 DUP4 ADD DUP5 PUSH2 0x2803 JUMP JUMPDEST SWAP3 SWAP2 POP POP JUMP JUMPDEST PUSH2 0x2836 DUP2 PUSH2 0x2781 JUMP JUMPDEST DUP3 MSTORE POP POP JUMP JUMPDEST PUSH1 0x0 PUSH1 0x20 DUP3 ADD SWAP1 POP PUSH2 0x2851 PUSH1 0x0 DUP4 ADD DUP5 PUSH2 0x282D JUMP JUMPDEST SWAP3 SWAP2 POP POP JUMP JUMPDEST PUSH1 0x0 DUP1 PUSH1 0x0 PUSH1 0x60 DUP5 DUP7 SUB SLT ISZERO PUSH2 0x2870 JUMPI PUSH2 0x286F PUSH2 0x271E JUMP JUMPDEST JUMPDEST PUSH1 0x0 PUSH2 0x287E DUP7 DUP3 DUP8 ADD PUSH2 0x276C JUMP JUMPDEST SWAP4 POP POP PUSH1 0x20 PUSH2 0x288F DUP7 DUP3 DUP8 ADD PUSH2 0x276C JUMP JUMPDEST SWAP3 POP POP PUSH1 0x40 PUSH2 0x28A0 DUP7 DUP3 DUP8 ADD PUSH2 0x27A2 JUMP JUMPDEST SWAP2 POP POP SWAP3 POP SWAP3 POP SWAP3 JUMP JUMPDEST PUSH1 0x0 PUSH1 0xFF DUP3 AND SWAP1 POP SWAP2 SWAP1 POP JUMP JUMPDEST PUSH2 0x28C0 DUP2 PUSH2 0x28AA JUMP JUMPDEST DUP3 MSTORE POP POP JUMP JUMPDEST PUSH1 0x0 PUSH1 0x20 DUP3 ADD SWAP1 POP PUSH2 0x28DB PUSH1 0x0 DUP4 ADD DUP5 PUSH2 0x28B7 JUMP JUMPDEST SWAP3 SWAP2 POP POP JUMP JUMPDEST PUSH1 0x0 PUSH1 0x20 DUP3 DUP5 SUB SLT ISZERO PUSH2 0x28F7 JUMPI PUSH2 0x28F6 PUSH2 0x271E JUMP JUMPDEST JUMPDEST PUSH1 0x0 PUSH2 0x2905 DUP5 DUP3 DUP6 ADD PUSH2 0x276C JUMP JUMPDEST SWAP2 POP POP SWAP3 SWAP2 POP POP JUMP JUMPDEST PUSH1 0x0 PUSH1 0x20 DUP3 DUP5 SUB SLT ISZERO PUSH2 0x2924 JUMPI PUSH2 0x2923 PUSH2 0x271E JUMP JUMPDEST JUMPDEST PUSH1 0x0 PUSH2 0x2932 DUP5 DUP3 DUP6 ADD PUSH2 0x27A2 JUMP JUMPDEST SWAP2 POP POP SWAP3 SWAP2 POP POP JUMP JUMPDEST PUSH2 0x2944 DUP2 PUSH2 0x2743 JUMP JUMPDEST DUP3 MSTORE POP POP JUMP JUMPDEST PUSH1 0x0 PUSH1 0x20 DUP3 ADD SWAP1 POP PUSH2 0x295F PUSH1 0x0 DUP4 ADD DUP5 PUSH2 0x293B JUMP JUMPDEST SWAP3 SWAP2 POP POP JUMP JUMPDEST PUSH1 0x0 DUP1 PUSH1 0x40 DUP4 DUP6 SUB SLT ISZERO PUSH2 0x297C JUMPI PUSH2 0x297B PUSH2 0x271E JUMP JUMPDEST JUMPDEST PUSH1 0x0 PUSH2 0x298A DUP6 DUP3 DUP7 ADD PUSH2 0x276C JUMP JUMPDEST SWAP3 POP POP PUSH1 0x20 PUSH2 0x299B DUP6 DUP3 DUP7 ADD PUSH2 0x276C JUMP JUMPDEST SWAP2 POP POP SWAP3 POP SWAP3 SWAP1 POP JUMP JUMPDEST PUSH2 0x29AE DUP2 PUSH2 0x2781 JUMP JUMPDEST DUP3 MSTORE POP POP JUMP JUMPDEST PUSH1 0x0 DUP2 MLOAD SWAP1 POP SWAP2 SWAP1 POP JUMP JUMPDEST PUSH1 0x0 DUP3 DUP3 MSTORE PUSH1 0x20 DUP3 ADD SWAP1 POP SWAP3 SWAP2 POP POP JUMP JUMPDEST PUSH1 0x0 DUP2 SWAP1 POP PUSH1 0x20 DUP3 ADD SWAP1 POP SWAP2 SWAP1 POP JUMP JUMPDEST PUSH2 0x29E9 DUP2 PUSH2 0x2743 JUMP JUMPDEST DUP3 MSTORE POP POP JUMP JUMPDEST PUSH1 0x80 DUP3 ADD PUSH1 0x0 DUP3 ADD MLOAD PUSH2 0x2A05 PUSH1 0x0 DUP6 ADD DUP3 PUSH2 0x29E0 JUMP JUMPDEST POP PUSH1 0x20 DUP3 ADD MLOAD PUSH2 0x2A18 PUSH1 0x20 DUP6 ADD DUP3 PUSH2 0x29A5 JUMP JUMPDEST POP PUSH1 0x40 DUP3 ADD MLOAD PUSH2 0x2A2B PUSH1 0x40 DUP6 ADD DUP3 PUSH2 0x29A5 JUMP JUMPDEST POP PUSH1 0x60 DUP3 ADD MLOAD PUSH2 0x2A3E PUSH1 0x60 DUP6 ADD DUP3 PUSH2 0x29A5 JUMP JUMPDEST POP POP POP POP JUMP JUMPDEST PUSH1 0x0 PUSH2 0x2A50 DUP4 DUP4 PUSH2 0x29EF JUMP JUMPDEST PUSH1 0x80 DUP4 ADD SWAP1 POP SWAP3 SWAP2 POP POP JUMP JUMPDEST PUSH1 0x0 PUSH1 0x20 DUP3 ADD SWAP1 POP SWAP2 SWAP1 POP JUMP JUMPDEST PUSH1 0x0 PUSH2 0x2A74 DUP3 PUSH2 0x29B4 JUMP JUMPDEST PUSH2 0x2A7E DUP2 DUP6 PUSH2 0x29BF JUMP JUMPDEST SWAP4 POP PUSH2 0x2A89 DUP4 PUSH2 0x29D0 JUMP JUMPDEST DUP1 PUSH1 0x0 JUMPDEST DUP4 DUP2 LT ISZERO PUSH2 0x2ABA JUMPI DUP2 MLOAD PUSH2 0x2AA1 DUP9 DUP3 PUSH2 0x2A44 JUMP JUMPDEST SWAP8 POP PUSH2 0x2AAC DUP4 PUSH2 0x2A5C JUMP JUMPDEST SWAP3 POP POP PUSH1 0x1 DUP2 ADD SWAP1 POP PUSH2 0x2A8D JUMP JUMPDEST POP DUP6 SWAP4 POP POP POP POP SWAP3 SWAP2 POP POP JUMP JUMPDEST PUSH1 0x0 PUSH1 0x40 DUP4 ADD PUSH1 0x0 DUP4 ADD MLOAD PUSH2 0x2ADF PUSH1 0x0 DUP7 ADD DUP3 PUSH2 0x29A5 JUMP JUMPDEST POP PUSH1 0x20 DUP4 ADD MLOAD DUP5 DUP3 SUB PUSH1 0x20 DUP7 ADD MSTORE PUSH2 0x2AF7 DUP3 DUP3 PUSH2 0x2A69 JUMP JUMPDEST SWAP2 POP POP DUP1 SWAP2 POP POP SWAP3 SWAP2 POP POP JUMP JUMPDEST PUSH1 0x0 PUSH1 0x20 DUP3 ADD SWAP1 POP DUP2 DUP2 SUB PUSH1 0x0 DUP4 ADD MSTORE PUSH2 0x2B1E DUP2 DUP5 PUSH2 0x2AC7 JUMP JUMPDEST SWAP1 POP SWAP3 SWAP2 POP POP JUMP JUMPDEST PUSH1 0x0 DUP1 PUSH1 0x40 DUP4 DUP6 SUB SLT ISZERO PUSH2 0x2B3D JUMPI PUSH2 0x2B3C PUSH2 0x271E JUMP JUMPDEST JUMPDEST PUSH1 0x0 PUSH2 0x2B4B DUP6 DUP3 DUP7 ADD PUSH2 0x27A2 JUMP JUMPDEST SWAP3 POP POP PUSH1 0x20 PUSH2 0x2B5C DUP6 DUP3 DUP7 ADD PUSH2 0x27A2 JUMP JUMPDEST SWAP2 POP POP SWAP3 POP SWAP3 SWAP1 POP JUMP JUMPDEST PUSH32 0x4E487B7100000000000000000000000000000000000000000000000000000000 PUSH1 0x0 MSTORE PUSH1 0x22 PUSH1 0x4 MSTORE PUSH1 0x24 PUSH1 0x0 REVERT JUMPDEST PUSH1 0x0 PUSH1 0x2 DUP3 DIV SWAP1 POP PUSH1 0x1 DUP3 AND DUP1 PUSH2 0x2BAD JUMPI PUSH1 0x7F DUP3 AND SWAP2 POP JUMPDEST PUSH1 0x20 DUP3 LT DUP2 SUB PUSH2 0x2BC0 JUMPI PUSH2 0x2BBF PUSH2 0x2B66 JUMP JUMPDEST JUMPDEST POP SWAP2 SWAP1 POP JUMP JUMPDEST PUSH32 0x416C6661436F696E3A20596F752063616E6E6F74207370656E64207468617420 PUSH1 0x0 DUP3 ADD MSTORE PUSH32 0x6D756368206F6E2074686973206163636F756E74000000000000000000000000 PUSH1 0x20 DUP3 ADD MSTORE POP JUMP JUMPDEST PUSH1 0x0 PUSH2 0x2C22 PUSH1 0x34 DUP4 PUSH2 0x2677 JUMP JUMPDEST SWAP2 POP PUSH2 0x2C2D DUP3 PUSH2 0x2BC6 JUMP JUMPDEST PUSH1 0x40 DUP3 ADD SWAP1 POP SWAP2 SWAP1 POP JUMP JUMPDEST PUSH1 0x0 PUSH1 0x20 DUP3 ADD SWAP1 POP DUP2 DUP2 SUB PUSH1 0x0 DUP4 ADD MSTORE PUSH2 0x2C51 DUP2 PUSH2 0x2C15 JUMP JUMPDEST SWAP1 POP SWAP2 SWAP1 POP JUMP JUMPDEST PUSH32 0x4E487B7100000000000000000000000000000000000000000000000000000000 PUSH1 0x0 MSTORE PUSH1 0x11 PUSH1 0x4 MSTORE PUSH1 0x24 PUSH1 0x0 REVERT JUMPDEST PUSH1 0x0 PUSH2 0x2C92 DUP3 PUSH2 0x2781 JUMP JUMPDEST SWAP2 POP PUSH2 0x2C9D DUP4 PUSH2 0x2781 JUMP JUMPDEST SWAP3 POP DUP3 DUP3 SUB SWAP1 POP DUP2 DUP2 GT ISZERO PUSH2 0x2CB5 JUMPI PUSH2 0x2CB4 PUSH2 0x2C58 JUMP JUMPDEST JUMPDEST SWAP3 SWAP2 POP POP JUMP JUMPDEST PUSH1 0x0 PUSH2 0x2CC6 DUP3 PUSH2 0x2781 JUMP JUMPDEST SWAP2 POP PUSH2 0x2CD1 DUP4 PUSH2 0x2781 JUMP JUMPDEST SWAP3 POP DUP3 DUP3 ADD SWAP1 POP DUP1 DUP3 GT ISZERO PUSH2 0x2CE9 JUMPI PUSH2 0x2CE8 PUSH2 0x2C58 JUMP JUMPDEST JUMPDEST SWAP3 SWAP2 POP POP JUMP JUMPDEST PUSH32 0x4F776E61626C653A206F6E6C79206F776E65722063616E2063616C6C20746869 PUSH1 0x0 DUP3 ADD MSTORE PUSH32 0x732066756E6374696F6E00000000000000000000000000000000000000000000 PUSH1 0x20 DUP3 ADD MSTORE POP JUMP JUMPDEST PUSH1 0x0 PUSH2 0x2D4B PUSH1 0x2A DUP4 PUSH2 0x2677 JUMP JUMPDEST SWAP2 POP PUSH2 0x2D56 DUP3 PUSH2 0x2CEF JUMP JUMPDEST PUSH1 0x40 DUP3 ADD SWAP1 POP SWAP2 SWAP1 POP JUMP JUMPDEST PUSH1 0x0 PUSH1 0x20 DUP3 ADD SWAP1 POP DUP2 DUP2 SUB PUSH1 0x0 DUP4 ADD MSTORE PUSH2 0x2D7A DUP2 PUSH2 0x2D3E JUMP JUMPDEST SWAP1 POP SWAP2 SWAP1 POP JUMP JUMPDEST PUSH32 0x4E487B7100000000000000000000000000000000000000000000000000000000 PUSH1 0x0 MSTORE PUSH1 0x32 PUSH1 0x4 MSTORE PUSH1 0x24 PUSH1 0x0 REVERT JUMPDEST PUSH32 0x416C6661436F696E3A2043616E6E6F74207374616B65206D6F72650000000000 PUSH1 0x0 DUP3 ADD MSTORE POP JUMP JUMPDEST PUSH1 0x0 PUSH2 0x2DE6 PUSH1 0x1B DUP4 PUSH2 0x2677 JUMP JUMPDEST SWAP2 POP PUSH2 0x2DF1 DUP3 PUSH2 0x2DB0 JUMP JUMPDEST PUSH1 0x20 DUP3 ADD SWAP1 POP SWAP2 SWAP1 POP JUMP JUMPDEST PUSH1 0x0 PUSH1 0x20 DUP3 ADD SWAP1 POP DUP2 DUP2 SUB PUSH1 0x0 DUP4 ADD MSTORE PUSH2 0x2E15 DUP2 PUSH2 0x2DD9 JUMP JUMPDEST SWAP1 POP SWAP2 SWAP1 POP JUMP JUMPDEST PUSH32 0x416C6661436F696E3A2043616E6E6F74207374616B65206D6F7265207468616E PUSH1 0x0 DUP3 ADD MSTORE PUSH32 0x20796F75206F776E000000000000000000000000000000000000000000000000 PUSH1 0x20 DUP3 ADD MSTORE POP JUMP JUMPDEST PUSH1 0x0 PUSH2 0x2E78 PUSH1 0x28 DUP4 PUSH2 0x2677 JUMP JUMPDEST SWAP2 POP PUSH2 0x2E83 DUP3 PUSH2 0x2E1C JUMP JUMPDEST PUSH1 0x40 DUP3 ADD SWAP1 POP SWAP2 SWAP1 POP JUMP JUMPDEST PUSH1 0x0 PUSH1 0x20 DUP3 ADD SWAP1 POP DUP2 DUP2 SUB PUSH1 0x0 DUP4 ADD MSTORE PUSH2 0x2EA7 DUP2 PUSH2 0x2E6B JUMP JUMPDEST SWAP1 POP SWAP2 SWAP1 POP JUMP JUMPDEST PUSH32 0x416C6661436F696E3A20617070726F76652063616E6E6F7420626520646F6E65 PUSH1 0x0 DUP3 ADD MSTORE PUSH32 0x2066726F6D207A65726F20616464726573730000000000000000000000000000 PUSH1 0x20 DUP3 ADD MSTORE POP JUMP JUMPDEST PUSH1 0x0 PUSH2 0x2F0A PUSH1 0x32 DUP4 PUSH2 0x2677 JUMP JUMPDEST SWAP2 POP PUSH2 0x2F15 DUP3 PUSH2 0x2EAE JUMP JUMPDEST PUSH1 0x40 DUP3 ADD SWAP1 POP SWAP2 SWAP1 POP JUMP JUMPDEST PUSH1 0x0 PUSH1 0x20 DUP3 ADD SWAP1 POP DUP2 DUP2 SUB PUSH1 0x0 DUP4 ADD MSTORE PUSH2 0x2F39 DUP2 PUSH2 0x2EFD JUMP JUMPDEST SWAP1 POP SWAP2 SWAP1 POP JUMP JUMPDEST PUSH32 0x416C6661436F696E3A20617070726F76652063616E6E6F7420626520746F207A PUSH1 0x0 DUP3 ADD MSTORE PUSH32 0x65726F2061646472657373000000000000000000000000000000000000000000 PUSH1 0x20 DUP3 ADD MSTORE POP JUMP JUMPDEST PUSH1 0x0 PUSH2 0x2F9C PUSH1 0x2B DUP4 PUSH2 0x2677 JUMP JUMPDEST SWAP2 POP PUSH2 0x2FA7 DUP3 PUSH2 0x2F40 JUMP JUMPDEST PUSH1 0x40 DUP3 ADD SWAP1 POP SWAP2 SWAP1 POP JUMP JUMPDEST PUSH1 0x0 PUSH1 0x20 DUP3 ADD SWAP1 POP DUP2 DUP2 SUB PUSH1 0x0 DUP4 ADD MSTORE PUSH2 0x2FCB DUP2 PUSH2 0x2F8F JUMP JUMPDEST SWAP1 POP SWAP2 SWAP1 POP JUMP JUMPDEST PUSH32 0x416C6661436F696E3A207472616E736665722066726F6D207A65726F20616464 PUSH1 0x0 DUP3 ADD MSTORE PUSH32 0x7265737300000000000000000000000000000000000000000000000000000000 PUSH1 0x20 DUP3 ADD MSTORE POP JUMP JUMPDEST PUSH1 0x0 PUSH2 0x302E PUSH1 0x24 DUP4 PUSH2 0x2677 JUMP JUMPDEST SWAP2 POP PUSH2 0x3039 DUP3 PUSH2 0x2FD2 JUMP JUMPDEST PUSH1 0x40 DUP3 ADD SWAP1 POP SWAP2 SWAP1 POP JUMP JUMPDEST PUSH1 0x0 PUSH1 0x20 DUP3 ADD SWAP1 POP DUP2 DUP2 SUB PUSH1 0x0 DUP4 ADD MSTORE PUSH2 0x305D DUP2 PUSH2 0x3021 JUMP JUMPDEST SWAP1 POP SWAP2 SWAP1 POP JUMP JUMPDEST PUSH32 0x416C6661436F696E3A207472616E7366657220746F207A65726F206164647265 PUSH1 0x0 DUP3 ADD MSTORE PUSH32 0x7373000000000000000000000000000000000000000000000000000000000000 PUSH1 0x20 DUP3 ADD MSTORE POP JUMP JUMPDEST PUSH1 0x0 PUSH2 0x30C0 PUSH1 0x22 DUP4 PUSH2 0x2677 JUMP JUMPDEST SWAP2 POP PUSH2 0x30CB DUP3 PUSH2 0x3064 JUMP JUMPDEST PUSH1 0x40 DUP3 ADD SWAP1 POP SWAP2 SWAP1 POP JUMP JUMPDEST PUSH1 0x0 PUSH1 0x20 DUP3 ADD SWAP1 POP DUP2 DUP2 SUB PUSH1 0x0 DUP4 ADD MSTORE PUSH2 0x30EF DUP2 PUSH2 0x30B3 JUMP JUMPDEST SWAP1 POP SWAP2 SWAP1 POP JUMP JUMPDEST PUSH32 0x416C6661436F696E3A2063616E74207472616E73666572206D6F726520746861 PUSH1 0x0 DUP3 ADD MSTORE PUSH32 0x6E20796F7572206163636F756E7420686F6C6473000000000000000000000000 PUSH1 0x20 DUP3 ADD MSTORE POP JUMP JUMPDEST PUSH1 0x0 PUSH2 0x3152 PUSH1 0x34 DUP4 PUSH2 0x2677 JUMP JUMPDEST SWAP2 POP PUSH2 0x315D DUP3 PUSH2 0x30F6 JUMP JUMPDEST PUSH1 0x40 DUP3 ADD SWAP1 POP SWAP2 SWAP1 POP JUMP JUMPDEST PUSH1 0x0 PUSH1 0x20 DUP3 ADD SWAP1 POP DUP2 DUP2 SUB PUSH1 0x0 DUP4 ADD MSTORE PUSH2 0x3181 DUP2 PUSH2 0x3145 JUMP JUMPDEST SWAP1 POP SWAP2 SWAP1 POP JUMP JUMPDEST PUSH32 0x416C6661436F696E3A2063616E6E6F74206D696E7420746F207A65726F206164 PUSH1 0x0 DUP3 ADD MSTORE PUSH32 0x6472657373000000000000000000000000000000000000000000000000000000 PUSH1 0x20 DUP3 ADD MSTORE POP JUMP JUMPDEST PUSH1 0x0 PUSH2 0x31E4 PUSH1 0x25 DUP4 PUSH2 0x2677 JUMP JUMPDEST SWAP2 POP PUSH2 0x31EF DUP3 PUSH2 0x3188 JUMP JUMPDEST PUSH1 0x40 DUP3 ADD SWAP1 POP SWAP2 SWAP1 POP JUMP JUMPDEST PUSH1 0x0 PUSH1 0x20 DUP3 ADD SWAP1 POP DUP2 DUP2 SUB PUSH1 0x0 DUP4 ADD MSTORE PUSH2 0x3213 DUP2 PUSH2 0x31D7 JUMP JUMPDEST SWAP1 POP SWAP2 SWAP1 POP JUMP JUMPDEST PUSH32 0x43616E6E6F742062652030250000000000000000000000000000000000000000 PUSH1 0x0 DUP3 ADD MSTORE POP JUMP JUMPDEST PUSH1 0x0 PUSH2 0x3250 PUSH1 0xC DUP4 PUSH2 0x2677 JUMP JUMPDEST SWAP2 POP PUSH2 0x325B DUP3 PUSH2 0x321A JUMP JUMPDEST PUSH1 0x20 DUP3 ADD SWAP1 POP SWAP2 SWAP1 POP JUMP JUMPDEST PUSH1 0x0 PUSH1 0x20 DUP3 ADD SWAP1 POP DUP2 DUP2 SUB PUSH1 0x0 DUP4 ADD MSTORE PUSH2 0x327F DUP2 PUSH2 0x3243 JUMP JUMPDEST SWAP1 POP SWAP2 SWAP1 POP JUMP JUMPDEST PUSH32 0x4E487B7100000000000000000000000000000000000000000000000000000000 PUSH1 0x0 MSTORE PUSH1 0x12 PUSH1 0x4 MSTORE PUSH1 0x24 PUSH1 0x0 REVERT JUMPDEST PUSH1 0x0 PUSH2 0x32C0 DUP3 PUSH2 0x2781 JUMP JUMPDEST SWAP2 POP PUSH2 0x32CB DUP4 PUSH2 0x2781 JUMP JUMPDEST SWAP3 POP DUP3 PUSH2 0x32DB JUMPI PUSH2 0x32DA PUSH2 0x3286 JUMP JUMPDEST JUMPDEST DUP3 DUP3 DIV SWAP1 POP SWAP3 SWAP2 POP POP JUMP JUMPDEST PUSH1 0x0 PUSH2 0x32F1 DUP3 PUSH2 0x2781 JUMP JUMPDEST SWAP2 POP PUSH2 0x32FC DUP4 PUSH2 0x2781 JUMP JUMPDEST SWAP3 POP DUP3 DUP3 MUL PUSH2 0x330A DUP2 PUSH2 0x2781 JUMP JUMPDEST SWAP2 POP DUP3 DUP3 DIV DUP5 EQ DUP4 ISZERO OR PUSH2 0x3321 JUMPI PUSH2 0x3320 PUSH2 0x2C58 JUMP JUMPDEST JUMPDEST POP SWAP3 SWAP2 POP POP JUMP JUMPDEST PUSH32 0x416C6661436F696E3A2063616E6E6F74206275726E2066726F6D207A65726F20 PUSH1 0x0 DUP3 ADD MSTORE PUSH32 0x6164647265737300000000000000000000000000000000000000000000000000 PUSH1 0x20 DUP3 ADD MSTORE POP JUMP JUMPDEST PUSH1 0x0 PUSH2 0x3384 PUSH1 0x27 DUP4 PUSH2 0x2677 JUMP JUMPDEST SWAP2 POP PUSH2 0x338F DUP3 PUSH2 0x3328 JUMP JUMPDEST PUSH1 0x40 DUP3 ADD SWAP1 POP SWAP2 SWAP1 POP JUMP JUMPDEST PUSH1 0x0 PUSH1 0x20 DUP3 ADD SWAP1 POP DUP2 DUP2 SUB PUSH1 0x0 DUP4 ADD MSTORE PUSH2 0x33B3 DUP2 PUSH2 0x3377 JUMP JUMPDEST SWAP1 POP SWAP2 SWAP1 POP JUMP JUMPDEST PUSH32 0x416C6661436F696E3A2043616E6E6F74206275726E206D6F7265207468616E20 PUSH1 0x0 DUP3 ADD MSTORE PUSH32 0x746865206163636F756E74206F776E7300000000000000000000000000000000 PUSH1 0x20 DUP3 ADD MSTORE POP JUMP JUMPDEST PUSH1 0x0 PUSH2 0x3416 PUSH1 0x30 DUP4 PUSH2 0x2677 JUMP JUMPDEST SWAP2 POP PUSH2 0x3421 DUP3 PUSH2 0x33BA JUMP JUMPDEST PUSH1 0x40 DUP3 ADD SWAP1 POP SWAP2 SWAP1 POP JUMP JUMPDEST PUSH1 0x0 PUSH1 0x20 DUP3 ADD SWAP1 POP DUP2 DUP2 SUB PUSH1 0x0 DUP4 ADD MSTORE PUSH2 0x3445 DUP2 PUSH2 0x3409 JUMP JUMPDEST SWAP1 POP SWAP2 SWAP1 POP JUMP JUMPDEST PUSH32 0x43616E6E6F74207374616B65206E6F7468696E67000000000000000000000000 PUSH1 0x0 DUP3 ADD MSTORE POP JUMP JUMPDEST PUSH1 0x0 PUSH2 0x3482 PUSH1 0x14 DUP4 PUSH2 0x2677 JUMP JUMPDEST SWAP2 POP PUSH2 0x348D DUP3 PUSH2 0x344C JUMP JUMPDEST PUSH1 0x20 DUP3 ADD SWAP1 POP SWAP2 SWAP1 POP JUMP JUMPDEST PUSH1 0x0 PUSH1 0x20 DUP3 ADD SWAP1 POP DUP2 DUP2 SUB PUSH1 0x0 DUP4 ADD MSTORE PUSH2 0x34B1 DUP2 PUSH2 0x3475 JUMP JUMPDEST SWAP1 POP SWAP2 SWAP1 POP JUMP JUMPDEST PUSH1 0x0 PUSH1 0x60 DUP3 ADD SWAP1 POP PUSH2 0x34CD PUSH1 0x0 DUP4 ADD DUP7 PUSH2 0x282D JUMP JUMPDEST PUSH2 0x34DA PUSH1 0x20 DUP4 ADD DUP6 PUSH2 0x282D JUMP JUMPDEST PUSH2 0x34E7 PUSH1 0x40 DUP4 ADD DUP5 PUSH2 0x282D JUMP JUMPDEST SWAP5 SWAP4 POP POP POP POP JUMP JUMPDEST PUSH32 0x5374616B696E673A2043616E6E6F74207769746864726177206D6F7265207468 PUSH1 0x0 DUP3 ADD MSTORE PUSH32 0x616E20796F752068617665207374616B65640000000000000000000000000000 PUSH1 0x20 DUP3 ADD MSTORE POP JUMP JUMPDEST PUSH1 0x0 PUSH2 0x354B PUSH1 0x32 DUP4 PUSH2 0x2677 JUMP JUMPDEST SWAP2 POP PUSH2 0x3556 DUP3 PUSH2 0x34EF JUMP JUMPDEST PUSH1 0x40 DUP3 ADD SWAP1 POP SWAP2 SWAP1 POP JUMP JUMPDEST PUSH1 0x0 PUSH1 0x20 DUP3 ADD SWAP1 POP DUP2 DUP2 SUB PUSH1 0x0 DUP4 ADD MSTORE PUSH2 0x357A DUP2 PUSH2 0x353E JUMP JUMPDEST SWAP1 POP SWAP2 SWAP1 POP JUMP JUMPDEST PUSH32 0x4F776E61626C653A206E6577206F776E657220697320746865207A65726F2061 PUSH1 0x0 DUP3 ADD MSTORE PUSH32 0x6464726573730000000000000000000000000000000000000000000000000000 PUSH1 0x20 DUP3 ADD MSTORE POP JUMP JUMPDEST PUSH1 0x0 PUSH2 0x35DD PUSH1 0x26 DUP4 PUSH2 0x2677 JUMP JUMPDEST SWAP2 POP PUSH2 0x35E8 DUP3 PUSH2 0x3581 JUMP JUMPDEST PUSH1 0x40 DUP3 ADD SWAP1 POP SWAP2 SWAP1 POP JUMP JUMPDEST PUSH1 0x0 PUSH1 0x20 DUP3 ADD SWAP1 POP DUP2 DUP2 SUB PUSH1 0x0 DUP4 ADD MSTORE PUSH2 0x360C DUP2 PUSH2 0x35D0 JUMP JUMPDEST SWAP1 POP SWAP2 SWAP1 POP JUMP INVALID LOG2 PUSH5 0x6970667358 0x22 SLT KECCAK256 SWAP10 0xD9 AND 0xD 0x23 LOG2 0xD2 SWAP12 PUSH16 0x374A1654F7CBFB96697BF44B733FE25E AND MUL 0x21 CALLDATACOPY SHR JUMP SWAP7 PUSH5 0x736F6C6343 STOP ADDMOD GT STOP CALLER "
				},
				"gasEstimates": {
					"creation": {
						"codeDepositCost": "2779400",
						"executionCost": "infinite",
						"totalCost": "infinite"
					},
					"external": {
						"allowance(address,address)": "infinite",
						"approve(address,uint256)": "infinite",
						"balanceOf(address)": "2908",
						"burn(address,uint256)": "infinite",
						"decimals()": "2591",
						"decreaseAllowance(address,uint256)": "infinite",
						"getOwner()": "2580",
						"hasStake(address)": "infinite",
						"increaseAllowance(address,uint256)": "infinite",
						"mint(address,uint256)": "infinite",
						"name()": "infinite",
						"owner()": "2567",
						"renounceOwnership()": "30345",
						"setRewardPerHour(uint256)": "25074",
						"stake(uint256)": "infinite",
						"symbol()": "infinite",
						"totalSupply()": "2505",
						"transfer(address,uint256)": "infinite",
						"transferFrom(address,address,uint256)": "infinite",
						"transferOwnership(address)": "30763",
						"viewAll(address)": "infinite",
						"viewRewardPerHour()": "2517",
						"withdrawAll()": "infinite",
						"withdrawStake(uint256,uint256)": "infinite"
					},
					"internal": {
						"_approve(address,address,uint256)": "infinite",
						"_burn(address,uint256)": "infinite",
						"_mint(address,uint256)": "infinite",
						"_transfer(address,address,uint256)": "infinite"
					}
				},
				"methodIdentifiers": {
					"allowance(address,address)": "dd62ed3e",
					"approve(address,uint256)": "095ea7b3",
					"balanceOf(address)": "70a08231",
					"burn(address,uint256)": "9dc29fac",
					"decimals()": "313ce567",
					"decreaseAllowance(address,uint256)": "a457c2d7",
					"getOwner()": "893d20e8",
					"hasStake(address)": "e73e14bf",
					"increaseAllowance(address,uint256)": "39509351",
					"mint(address,uint256)": "40c10f19",
					"name()": "06fdde03",
					"owner()": "8da5cb5b",
					"renounceOwnership()": "715018a6",
					"setRewardPerHour(uint256)": "8761dc5f",
					"stake(uint256)": "a694fc3a",
					"symbol()": "95d89b41",
					"totalSupply()": "18160ddd",
					"transfer(address,uint256)": "a9059cbb",
					"transferFrom(address,address,uint256)": "23b872dd",
					"transferOwnership(address)": "f2fde38b",
					"viewAll(address)": "93eb26da",
					"viewRewardPerHour()": "4f9a9caa",
					"withdrawAll()": "853828b6",
					"withdrawStake(uint256,uint256)": "f1fdf469"
				}
			},
			"storageLayout": {
				"storage": [
					{
						"astId": 661,
						"contract": "contracts/AlfaCoin.sol:AlfaCoin",
						"label": "_owner",
						"offset": 0,
						"slot": "0",
						"type": "t_address"
					},
					{
						"astId": 788,
						"contract": "contracts/AlfaCoin.sol:AlfaCoin",
						"label": "_rewardPerHour",
						"offset": 0,
						"slot": "1",
						"type": "t_uint256"
					},
					{
						"astId": 816,
						"contract": "contracts/AlfaCoin.sol:AlfaCoin",
						"label": "stakeholders",
						"offset": 0,
						"slot": "2",
						"type": "t_array(t_struct(Stakeholder)804_storage)dyn_storage"
					},
					{
						"astId": 821,
						"contract": "contracts/AlfaCoin.sol:AlfaCoin",
						"label": "stakes",
						"offset": 0,
						"slot": "3",
						"type": "t_mapping(t_address,t_uint256)"
					},
					{
						"astId": 11,
						"contract": "contracts/AlfaCoin.sol:AlfaCoin",
						"label": "_totalSupply",
						"offset": 0,
						"slot": "4",
						"type": "t_uint256"
					},
					{
						"astId": 13,
						"contract": "contracts/AlfaCoin.sol:AlfaCoin",
						"label": "_decimals",
						"offset": 0,
						"slot": "5",
						"type": "t_uint8"
					},
					{
						"astId": 15,
						"contract": "contracts/AlfaCoin.sol:AlfaCoin",
						"label": "_symbol",
						"offset": 0,
						"slot": "6",
						"type": "t_string_storage"
					},
					{
						"astId": 17,
						"contract": "contracts/AlfaCoin.sol:AlfaCoin",
						"label": "_name",
						"offset": 0,
						"slot": "7",
						"type": "t_string_storage"
					},
					{
						"astId": 22,
						"contract": "contracts/AlfaCoin.sol:AlfaCoin",
						"label": "_balances",
						"offset": 0,
						"slot": "8",
						"type": "t_mapping(t_address,t_uint256)"
					},
					{
						"astId": 29,
						"contract": "contracts/AlfaCoin.sol:AlfaCoin",
						"label": "_allowances",
						"offset": 0,
						"slot": "9",
						"type": "t_mapping(t_address,t_mapping(t_address,t_uint256))"
					}
				],
				"types": {
					"t_address": {
						"encoding": "inplace",
						"label": "address",
						"numberOfBytes": "20"
					},
					"t_array(t_struct(Stake)797_storage)dyn_storage": {
						"base": "t_struct(Stake)797_storage",
						"encoding": "dynamic_array",
						"label": "struct Stakeable.Stake[]",
						"numberOfBytes": "32"
					},
					"t_array(t_struct(Stakeholder)804_storage)dyn_storage": {
						"base": "t_struct(Stakeholder)804_storage",
						"encoding": "dynamic_array",
						"label": "struct Stakeable.Stakeholder[]",
						"numberOfBytes": "32"
					},
					"t_mapping(t_address,t_mapping(t_address,t_uint256))": {
						"encoding": "mapping",
						"key": "t_address",
						"label": "mapping(address => mapping(address => uint256))",
						"numberOfBytes": "32",
						"value": "t_mapping(t_address,t_uint256)"
					},
					"t_mapping(t_address,t_uint256)": {
						"encoding": "mapping",
						"key": "t_address",
						"label": "mapping(address => uint256)",
						"numberOfBytes": "32",
						"value": "t_uint256"
					},
					"t_string_storage": {
						"encoding": "bytes",
						"label": "string",
						"numberOfBytes": "32"
					},
					"t_struct(Stake)797_storage": {
						"encoding": "inplace",
						"label": "struct Stakeable.Stake",
						"members": [
							{
								"astId": 790,
								"contract": "contracts/AlfaCoin.sol:AlfaCoin",
								"label": "user",
								"offset": 0,
								"slot": "0",
								"type": "t_address"
							},
							{
								"astId": 792,
								"contract": "contracts/AlfaCoin.sol:AlfaCoin",
								"label": "amount",
								"offset": 0,
								"slot": "1",
								"type": "t_uint256"
							},
							{
								"astId": 794,
								"contract": "contracts/AlfaCoin.sol:AlfaCoin",
								"label": "since",
								"offset": 0,
								"slot": "2",
								"type": "t_uint256"
							},
							{
								"astId": 796,
								"contract": "contracts/AlfaCoin.sol:AlfaCoin",
								"label": "claimable",
								"offset": 0,
								"slot": "3",
								"type": "t_uint256"
							}
						],
						"numberOfBytes": "128"
					},
					"t_struct(Stakeholder)804_storage": {
						"encoding": "inplace",
						"label": "struct Stakeable.Stakeholder",
						"members": [
							{
								"astId": 799,
								"contract": "contracts/AlfaCoin.sol:AlfaCoin",
								"label": "user",
								"offset": 0,
								"slot": "0",
								"type": "t_address"
							},
							{
								"astId": 803,
								"contract": "contracts/AlfaCoin.sol:AlfaCoin",
								"label": "address_stakes",
								"offset": 0,
								"slot": "1",
								"type": "t_array(t_struct(Stake)797_storage)dyn_storage"
							}
						],
						"numberOfBytes": "64"
					},
					"t_uint256": {
						"encoding": "inplace",
						"label": "uint256",
						"numberOfBytes": "32"
					},
					"t_uint8": {
						"encoding": "inplace",
						"label": "uint8",
						"numberOfBytes": "1"
					}
				}
			},
			"userdoc": {
				"events": {
					"Approval(address,address,uint256)": {
						"notice": "Approval is emitted when a new Spender is approved to spend Tokens on the Owners account"
					},
					"OwnershipTransferred(address,address)": {
						"notice": "Event OwnershipTransferred is used to log that a ownership change of the token has occured"
					},
					"Staked(address,uint256,uint256,uint256)": {
						"notice": "Staked event is triggered whenever a user stakes tokens, address is indexed to make it filterable"
					},
					"Transfer(address,address,uint256)": {
						"notice": "Events are created below. Transfer event is a event that notify the blockchain that a transfer of assets has taken place"
					}
				},
				"kind": "user",
				"methods": {
					"allowance(address,address)": {
						"notice": "allowance is used view how much allowance an spender has"
					},
					"approve(address,uint256)": {
						"notice": "approve will use the senders address and allow the spender to use X amount of tokens on his behalf"
					},
					"balanceOf(address)": {
						"notice": "balanceOf will return the account balance for the given account"
					},
					"burn(address,uint256)": {
						"notice": "burn is used to destroy tokens on an address See {_burn} Requires   - msg.sender must be the token owner"
					},
					"constructor": {
						"notice": "constructor will be triggered when we create the Smart contract _name = name of the token _short_symbol = Short Symbol name for the token token_decimals = The decimal precision of the Token, defaults 18 _totalSupply is how much Tokens there are totally"
					},
					"decimals()": {
						"notice": "decimals will return the number of decimal precision the Token is deployed with"
					},
					"decreaseAllowance(address,uint256)": {
						"notice": "decreaseAllowance Decrease the allowance on the account inputted from the caller address"
					},
					"getOwner()": {
						"notice": "getOwner just calls Ownables owner function. returns owner of the token"
					},
					"hasStake(address)": {
						"notice": "hasStake is used to check if a account has stakes and the total amount along with all the seperate stakes"
					},
					"increaseAllowance(address,uint256)": {
						"notice": "increaseAllowance Adds allowance to a account from the function caller address"
					},
					"mint(address,uint256)": {
						"notice": "mint is used to create tokens and assign them to msg.sender See {_mint} Requires   - msg.sender must be the token owner"
					},
					"name()": {
						"notice": "name will return the Token's symbol"
					},
					"owner()": {
						"notice": "owner() returns the currently assigned owner of the Token "
					},
					"renounceOwnership()": {
						"notice": "renounceOwnership will set the owner to zero address This will make the contract owner less, It will make ALL functions with onlyOwner no longer callable. There is no way of restoring the owner"
					},
					"stake(uint256)": {
						"notice": "Add functionality like burn to the _stake afunction"
					},
					"symbol()": {
						"notice": "symbol will return the Token's symbol"
					},
					"totalSupply()": {
						"notice": "totalSupply will return the tokens total supply of tokens"
					},
					"transfer(address,uint256)": {
						"notice": "transfer is used to transfer funds from the sender to the recipient This function is only callable from outside the contract. For internal usage see _transfer Requires - Caller cannot be zero - Caller must have a balance = or bigger than amount"
					},
					"transferFrom(address,address,uint256)": {
						"notice": "transferFrom is uesd to transfer Tokens from a Accounts allowance Spender address should be the token holder Requires   - The caller must have a allowance = or bigger than the amount spending"
					},
					"transferOwnership(address)": {
						"notice": "transferOwnership will assign the {newOwner} as owner"
					},
					"withdrawStake(uint256,uint256)": {
						"notice": "withdrawStake is used to withdraw stakes from the account holder"
					}
				},
				"notice": "AlfaCoin is a development token that we use to learn how to code solidity and what BEP-20 interface requires",
				"version": 1
			}
		}
	}
}