{
	"contracts/Stakeable.sol": {
		"Stakeable": {
			"abi": [
				{
					"inputs": [],
					"stateMutability": "nonpayable",
					"type": "constructor"
				},
				{
					"anonymous": false,
					"inputs": [
						{
							"indexed": true,
							"internalType": "address",
							"name": "user",
							"type": "address"
						},
						{
							"indexed": false,
							"internalType": "uint256",
							"name": "amount",
							"type": "uint256"
						},
						{
							"indexed": false,
							"internalType": "uint256",
							"name": "index",
							"type": "uint256"
						},
						{
							"indexed": false,
							"internalType": "uint256",
							"name": "timestamp",
							"type": "uint256"
						}
					],
					"name": "Staked",
					"type": "event"
				},
				{
					"inputs": [
						{
							"internalType": "address",
							"name": "_staker",
							"type": "address"
						}
					],
					"name": "hasStake",
					"outputs": [
						{
							"components": [
								{
									"internalType": "uint256",
									"name": "total_amount",
									"type": "uint256"
								},
								{
									"components": [
										{
											"internalType": "address",
											"name": "user",
											"type": "address"
										},
										{
											"internalType": "uint256",
											"name": "amount",
											"type": "uint256"
										},
										{
											"internalType": "uint256",
											"name": "since",
											"type": "uint256"
										},
										{
											"internalType": "uint256",
											"name": "claimable",
											"type": "uint256"
										}
									],
									"internalType": "struct Stakeable.Stake[]",
									"name": "stakes",
									"type": "tuple[]"
								}
							],
							"internalType": "struct Stakeable.StakingSummary",
							"name": "",
							"type": "tuple"
						}
					],
					"stateMutability": "view",
					"type": "function"
				},
				{
					"inputs": [
						{
							"internalType": "address",
							"name": "_staker",
							"type": "address"
						}
					],
					"name": "viewAll",
					"outputs": [
						{
							"internalType": "uint256",
							"name": "",
							"type": "uint256"
						}
					],
					"stateMutability": "view",
					"type": "function"
				}
			],
			"devdoc": {
				"kind": "dev",
				"methods": {},
				"version": 1
			},
			"evm": {
				"assembly": "    /* \"contracts/Stakeable.sol\":178:9872  contract Stakeable {... */\n  mstore(0x40, 0x80)\n    /* \"contracts/Stakeable.sol\":367:663  constructor() {... */\n  callvalue\n  dup1\n  iszero\n  tag_1\n  jumpi\n  0x00\n  dup1\n  revert\ntag_1:\n  pop\n    /* \"contracts/Stakeable.sol\":465:477  stakeholders */\n  0x01\n    /* \"contracts/Stakeable.sol\":465:484  stakeholders.push() */\n  dup1\n  dup2\n  0x01\n  dup2\n  sload\n  add\n  dup1\n  dup3\n  sstore\n  dup1\n  swap2\n  pop\n  pop\n  sub\n  swap1\n  0x00\n  mstore\n  keccak256(0x00, 0x20)\n  swap1\n  pop\n  pop\n    /* \"contracts/Stakeable.sol\":650:656  109500 */\n  0x01abbc\n    /* \"contracts/Stakeable.sol\":633:647  _rewardPerHour */\n  0x00\n    /* \"contracts/Stakeable.sol\":633:656  _rewardPerHour = 109500 */\n  dup2\n  swap1\n  sstore\n  pop\n    /* \"contracts/Stakeable.sol\":178:9872  contract Stakeable {... */\n  dataSize(sub_0)\n  dup1\n  dataOffset(sub_0)\n  0x00\n  codecopy\n  0x00\n  return\nstop\n\nsub_0: assembly {\n        /* \"contracts/Stakeable.sol\":178:9872  contract Stakeable {... */\n      mstore(0x40, 0x80)\n      callvalue\n      dup1\n      iszero\n      tag_1\n      jumpi\n      0x00\n      dup1\n      revert\n    tag_1:\n      pop\n      jumpi(tag_2, lt(calldatasize, 0x04))\n      shr(0xe0, calldataload(0x00))\n      dup1\n      0x93eb26da\n      eq\n      tag_3\n      jumpi\n      dup1\n      0xe73e14bf\n      eq\n      tag_4\n      jumpi\n    tag_2:\n      0x00\n      dup1\n      revert\n        /* \"contracts/Stakeable.sol\":8176:8867  function viewAll(address _staker) public view returns (uint256) {... */\n    tag_3:\n      tag_5\n      0x04\n      dup1\n      calldatasize\n      sub\n      dup2\n      add\n      swap1\n      tag_6\n      swap2\n      swap1\n      tag_7\n      jump\t// in\n    tag_6:\n      tag_8\n      jump\t// in\n    tag_5:\n      mload(0x40)\n      tag_9\n      swap2\n      swap1\n      tag_10\n      jump\t// in\n    tag_9:\n      mload(0x40)\n      dup1\n      swap2\n      sub\n      swap1\n      return\n        /* \"contracts/Stakeable.sol\":7270:8170  function hasStake(address _staker)... */\n    tag_4:\n      tag_11\n      0x04\n      dup1\n      calldatasize\n      sub\n      dup2\n      add\n      swap1\n      tag_12\n      swap2\n      swap1\n      tag_7\n      jump\t// in\n    tag_12:\n      tag_13\n      jump\t// in\n    tag_11:\n      mload(0x40)\n      tag_14\n      swap2\n      swap1\n      tag_15\n      jump\t// in\n    tag_14:\n      mload(0x40)\n      dup1\n      swap2\n      sub\n      swap1\n      return\n        /* \"contracts/Stakeable.sol\":8176:8867  function viewAll(address _staker) public view returns (uint256) {... */\n    tag_8:\n        /* \"contracts/Stakeable.sol\":8231:8238  uint256 */\n      0x00\n        /* \"contracts/Stakeable.sol\":8250:8269  uint256 totalAmount */\n      dup1\n        /* \"contracts/Stakeable.sol\":8279:8297  uint256 user_index */\n      0x00\n        /* \"contracts/Stakeable.sol\":8300:8306  stakes */\n      0x02\n        /* \"contracts/Stakeable.sol\":8300:8315  stakes[_staker] */\n      0x00\n        /* \"contracts/Stakeable.sol\":8307:8314  _staker */\n      dup6\n        /* \"contracts/Stakeable.sol\":8300:8315  stakes[_staker] */\n      0xffffffffffffffffffffffffffffffffffffffff\n      and\n      0xffffffffffffffffffffffffffffffffffffffff\n      and\n      dup2\n      mstore\n      0x20\n      add\n      swap1\n      dup2\n      mstore\n      0x20\n      add\n      0x00\n      keccak256\n      sload\n        /* \"contracts/Stakeable.sol\":8279:8315  uint256 user_index = stakes[_staker] */\n      swap1\n      pop\n        /* \"contracts/Stakeable.sol\":8326:8355  StakingSummary memory summary */\n      0x00\n        /* \"contracts/Stakeable.sol\":8358:8455  StakingSummary(... */\n      mload(0x40)\n      dup1\n      0x40\n      add\n      0x40\n      mstore\n      dup1\n        /* \"contracts/Stakeable.sol\":8386:8387  0 */\n      0x00\n        /* \"contracts/Stakeable.sol\":8358:8455  StakingSummary(... */\n      dup2\n      mstore\n      0x20\n      add\n        /* \"contracts/Stakeable.sol\":8401:8413  stakeholders */\n      0x01\n        /* \"contracts/Stakeable.sol\":8414:8420  stakes */\n      0x02\n        /* \"contracts/Stakeable.sol\":8414:8429  stakes[_staker] */\n      0x00\n        /* \"contracts/Stakeable.sol\":8421:8428  _staker */\n      dup10\n        /* \"contracts/Stakeable.sol\":8414:8429  stakes[_staker] */\n      0xffffffffffffffffffffffffffffffffffffffff\n      and\n      0xffffffffffffffffffffffffffffffffffffffff\n      and\n      dup2\n      mstore\n      0x20\n      add\n      swap1\n      dup2\n      mstore\n      0x20\n      add\n      0x00\n      keccak256\n      sload\n        /* \"contracts/Stakeable.sol\":8401:8430  stakeholders[stakes[_staker]] */\n      dup2\n      sload\n      dup2\n      lt\n      tag_17\n      jumpi\n      tag_18\n      tag_19\n      jump\t// in\n    tag_18:\n    tag_17:\n      swap1\n      0x00\n      mstore\n      keccak256(0x00, 0x20)\n      swap1\n      0x02\n      mul\n      add\n        /* \"contracts/Stakeable.sol\":8401:8445  stakeholders[stakes[_staker]].address_stakes */\n      0x01\n      add\n        /* \"contracts/Stakeable.sol\":8358:8455  StakingSummary(... */\n      dup1\n      sload\n      dup1\n      0x20\n      mul\n      0x20\n      add\n      mload(0x40)\n      swap1\n      dup2\n      add\n      0x40\n      mstore\n      dup1\n      swap3\n      swap2\n      swap1\n      dup2\n      dup2\n      mstore\n      0x20\n      add\n      0x00\n      swap1\n    tag_21:\n      dup3\n      dup3\n      lt\n      iszero\n      tag_22\n      jumpi\n      dup4\n      dup3\n      swap1\n      0x00\n      mstore\n      keccak256(0x00, 0x20)\n      swap1\n      0x04\n      mul\n      add\n      mload(0x40)\n      dup1\n      0x80\n      add\n      0x40\n      mstore\n      swap1\n      dup2\n      0x00\n      dup3\n      add\n      0x00\n      swap1\n      sload\n      swap1\n      0x0100\n      exp\n      swap1\n      div\n      0xffffffffffffffffffffffffffffffffffffffff\n      and\n      0xffffffffffffffffffffffffffffffffffffffff\n      and\n      0xffffffffffffffffffffffffffffffffffffffff\n      and\n      dup2\n      mstore\n      0x20\n      add\n      0x01\n      dup3\n      add\n      sload\n      dup2\n      mstore\n      0x20\n      add\n      0x02\n      dup3\n      add\n      sload\n      dup2\n      mstore\n      0x20\n      add\n      0x03\n      dup3\n      add\n      sload\n      dup2\n      mstore\n      pop\n      pop\n      dup2\n      mstore\n      0x20\n      add\n      swap1\n      0x01\n      add\n      swap1\n      jump(tag_21)\n    tag_22:\n      pop\n      pop\n      pop\n      pop\n      dup2\n      mstore\n      pop\n        /* \"contracts/Stakeable.sol\":8326:8455  StakingSummary memory summary = StakingSummary(... */\n      swap1\n      pop\n        /* \"contracts/Stakeable.sol\":8528:8537  uint256 s */\n      0x00\n        /* \"contracts/Stakeable.sol\":8523:8832  for (uint256 s = 0; s < summary.stakes.length; s += 1) {... */\n    tag_24:\n        /* \"contracts/Stakeable.sol\":8547:8554  summary */\n      dup2\n        /* \"contracts/Stakeable.sol\":8547:8561  summary.stakes */\n      0x20\n      add\n      mload\n        /* \"contracts/Stakeable.sol\":8547:8568  summary.stakes.length */\n      mload\n        /* \"contracts/Stakeable.sol\":8543:8544  s */\n      dup2\n        /* \"contracts/Stakeable.sol\":8543:8568  s < summary.stakes.length */\n      lt\n        /* \"contracts/Stakeable.sol\":8523:8832  for (uint256 s = 0; s < summary.stakes.length; s += 1) {... */\n      iszero\n      tag_25\n      jumpi\n        /* \"contracts/Stakeable.sol\":8592:8618  Stake memory current_stake */\n      0x00\n        /* \"contracts/Stakeable.sol\":8621:8633  stakeholders */\n      0x01\n        /* \"contracts/Stakeable.sol\":8634:8644  user_index */\n      dup5\n        /* \"contracts/Stakeable.sol\":8621:8645  stakeholders[user_index] */\n      dup2\n      sload\n      dup2\n      lt\n      tag_27\n      jumpi\n      tag_28\n      tag_19\n      jump\t// in\n    tag_28:\n    tag_27:\n      swap1\n      0x00\n      mstore\n      keccak256(0x00, 0x20)\n      swap1\n      0x02\n      mul\n      add\n        /* \"contracts/Stakeable.sol\":8621:8677  stakeholders[user_index]... */\n      0x01\n      add\n        /* \"contracts/Stakeable.sol\":8678:8679  s */\n      dup3\n        /* \"contracts/Stakeable.sol\":8621:8680  stakeholders[user_index]... */\n      dup2\n      sload\n      dup2\n      lt\n      tag_30\n      jumpi\n      tag_31\n      tag_19\n      jump\t// in\n    tag_31:\n    tag_30:\n      swap1\n      0x00\n      mstore\n      keccak256(0x00, 0x20)\n      swap1\n      0x04\n      mul\n      add\n        /* \"contracts/Stakeable.sol\":8592:8680  Stake memory current_stake = stakeholders[user_index]... */\n      mload(0x40)\n      dup1\n      0x80\n      add\n      0x40\n      mstore\n      swap1\n      dup2\n      0x00\n      dup3\n      add\n      0x00\n      swap1\n      sload\n      swap1\n      0x0100\n      exp\n      swap1\n      div\n      0xffffffffffffffffffffffffffffffffffffffff\n      and\n      0xffffffffffffffffffffffffffffffffffffffff\n      and\n      0xffffffffffffffffffffffffffffffffffffffff\n      and\n      dup2\n      mstore\n      0x20\n      add\n      0x01\n      dup3\n      add\n      sload\n      dup2\n      mstore\n      0x20\n      add\n      0x02\n      dup3\n      add\n      sload\n      dup2\n      mstore\n      0x20\n      add\n      0x03\n      dup3\n      add\n      sload\n      dup2\n      mstore\n      pop\n      pop\n      swap1\n      pop\n        /* \"contracts/Stakeable.sol\":8694:8717  uint256 availableReward */\n      0x00\n        /* \"contracts/Stakeable.sol\":8720:8755  calculateStakeReward(current_stake) */\n      tag_33\n        /* \"contracts/Stakeable.sol\":8741:8754  current_stake */\n      dup3\n        /* \"contracts/Stakeable.sol\":8720:8740  calculateStakeReward */\n      tag_34\n        /* \"contracts/Stakeable.sol\":8720:8755  calculateStakeReward(current_stake) */\n      jump\t// in\n    tag_33:\n        /* \"contracts/Stakeable.sol\":8694:8755  uint256 availableReward = calculateStakeReward(current_stake) */\n      swap1\n      pop\n        /* \"contracts/Stakeable.sol\":8806:8821  availableReward */\n      dup1\n        /* \"contracts/Stakeable.sol\":8783:8796  current_stake */\n      dup3\n        /* \"contracts/Stakeable.sol\":8783:8803  current_stake.amount */\n      0x20\n      add\n      mload\n        /* \"contracts/Stakeable.sol\":8783:8821  current_stake.amount + availableReward */\n      tag_35\n      swap2\n      swap1\n      tag_36\n      jump\t// in\n    tag_35:\n        /* \"contracts/Stakeable.sol\":8769:8821  totalAmount = current_stake.amount + availableReward */\n      swap6\n      pop\n        /* \"contracts/Stakeable.sol\":8578:8832  {... */\n      pop\n      pop\n        /* \"contracts/Stakeable.sol\":8575:8576  1 */\n      0x01\n        /* \"contracts/Stakeable.sol\":8570:8576  s += 1 */\n      dup2\n      tag_37\n      swap2\n      swap1\n      tag_36\n      jump\t// in\n    tag_37:\n      swap1\n      pop\n        /* \"contracts/Stakeable.sol\":8523:8832  for (uint256 s = 0; s < summary.stakes.length; s += 1) {... */\n      jump(tag_24)\n    tag_25:\n      pop\n        /* \"contracts/Stakeable.sol\":8849:8860  totalAmount */\n      dup3\n        /* \"contracts/Stakeable.sol\":8842:8860  return totalAmount */\n      swap4\n      pop\n      pop\n      pop\n      pop\n        /* \"contracts/Stakeable.sol\":8176:8867  function viewAll(address _staker) public view returns (uint256) {... */\n      swap2\n      swap1\n      pop\n      jump\t// out\n        /* \"contracts/Stakeable.sol\":7270:8170  function hasStake(address _staker)... */\n    tag_13:\n        /* \"contracts/Stakeable.sol\":7350:7371  StakingSummary memory */\n      tag_38\n      tag_39\n      jump\t// in\n    tag_38:\n        /* \"contracts/Stakeable.sol\":7467:7491  uint256 totalStakeAmount */\n      0x00\n        /* \"contracts/Stakeable.sol\":7569:7598  StakingSummary memory summary */\n      dup1\n        /* \"contracts/Stakeable.sol\":7601:7698  StakingSummary(... */\n      mload(0x40)\n      dup1\n      0x40\n      add\n      0x40\n      mstore\n      dup1\n        /* \"contracts/Stakeable.sol\":7629:7630  0 */\n      0x00\n        /* \"contracts/Stakeable.sol\":7601:7698  StakingSummary(... */\n      dup2\n      mstore\n      0x20\n      add\n        /* \"contracts/Stakeable.sol\":7644:7656  stakeholders */\n      0x01\n        /* \"contracts/Stakeable.sol\":7657:7663  stakes */\n      0x02\n        /* \"contracts/Stakeable.sol\":7657:7672  stakes[_staker] */\n      0x00\n        /* \"contracts/Stakeable.sol\":7664:7671  _staker */\n      dup9\n        /* \"contracts/Stakeable.sol\":7657:7672  stakes[_staker] */\n      0xffffffffffffffffffffffffffffffffffffffff\n      and\n      0xffffffffffffffffffffffffffffffffffffffff\n      and\n      dup2\n      mstore\n      0x20\n      add\n      swap1\n      dup2\n      mstore\n      0x20\n      add\n      0x00\n      keccak256\n      sload\n        /* \"contracts/Stakeable.sol\":7644:7673  stakeholders[stakes[_staker]] */\n      dup2\n      sload\n      dup2\n      lt\n      tag_41\n      jumpi\n      tag_42\n      tag_19\n      jump\t// in\n    tag_42:\n    tag_41:\n      swap1\n      0x00\n      mstore\n      keccak256(0x00, 0x20)\n      swap1\n      0x02\n      mul\n      add\n        /* \"contracts/Stakeable.sol\":7644:7688  stakeholders[stakes[_staker]].address_stakes */\n      0x01\n      add\n        /* \"contracts/Stakeable.sol\":7601:7698  StakingSummary(... */\n      dup1\n      sload\n      dup1\n      0x20\n      mul\n      0x20\n      add\n      mload(0x40)\n      swap1\n      dup2\n      add\n      0x40\n      mstore\n      dup1\n      swap3\n      swap2\n      swap1\n      dup2\n      dup2\n      mstore\n      0x20\n      add\n      0x00\n      swap1\n    tag_44:\n      dup3\n      dup3\n      lt\n      iszero\n      tag_45\n      jumpi\n      dup4\n      dup3\n      swap1\n      0x00\n      mstore\n      keccak256(0x00, 0x20)\n      swap1\n      0x04\n      mul\n      add\n      mload(0x40)\n      dup1\n      0x80\n      add\n      0x40\n      mstore\n      swap1\n      dup2\n      0x00\n      dup3\n      add\n      0x00\n      swap1\n      sload\n      swap1\n      0x0100\n      exp\n      swap1\n      div\n      0xffffffffffffffffffffffffffffffffffffffff\n      and\n      0xffffffffffffffffffffffffffffffffffffffff\n      and\n      0xffffffffffffffffffffffffffffffffffffffff\n      and\n      dup2\n      mstore\n      0x20\n      add\n      0x01\n      dup3\n      add\n      sload\n      dup2\n      mstore\n      0x20\n      add\n      0x02\n      dup3\n      add\n      sload\n      dup2\n      mstore\n      0x20\n      add\n      0x03\n      dup3\n      add\n      sload\n      dup2\n      mstore\n      pop\n      pop\n      dup2\n      mstore\n      0x20\n      add\n      swap1\n      0x01\n      add\n      swap1\n      jump(tag_44)\n    tag_45:\n      pop\n      pop\n      pop\n      pop\n      dup2\n      mstore\n      pop\n        /* \"contracts/Stakeable.sol\":7569:7698  StakingSummary memory summary = StakingSummary(... */\n      swap1\n      pop\n        /* \"contracts/Stakeable.sol\":7770:7779  uint256 s */\n      0x00\n        /* \"contracts/Stakeable.sol\":7765:8045  for (uint256 s = 0; s < summary.stakes.length; s += 1) {... */\n    tag_47:\n        /* \"contracts/Stakeable.sol\":7789:7796  summary */\n      dup2\n        /* \"contracts/Stakeable.sol\":7789:7803  summary.stakes */\n      0x20\n      add\n      mload\n        /* \"contracts/Stakeable.sol\":7789:7810  summary.stakes.length */\n      mload\n        /* \"contracts/Stakeable.sol\":7785:7786  s */\n      dup2\n        /* \"contracts/Stakeable.sol\":7785:7810  s < summary.stakes.length */\n      lt\n        /* \"contracts/Stakeable.sol\":7765:8045  for (uint256 s = 0; s < summary.stakes.length; s += 1) {... */\n      iszero\n      tag_48\n      jumpi\n        /* \"contracts/Stakeable.sol\":7834:7857  uint256 availableReward */\n      0x00\n        /* \"contracts/Stakeable.sol\":7860:7899  calculateStakeReward(summary.stakes[s]) */\n      tag_50\n        /* \"contracts/Stakeable.sol\":7881:7888  summary */\n      dup4\n        /* \"contracts/Stakeable.sol\":7881:7895  summary.stakes */\n      0x20\n      add\n      mload\n        /* \"contracts/Stakeable.sol\":7896:7897  s */\n      dup4\n        /* \"contracts/Stakeable.sol\":7881:7898  summary.stakes[s] */\n      dup2\n      mload\n      dup2\n      lt\n      tag_51\n      jumpi\n      tag_52\n      tag_19\n      jump\t// in\n    tag_52:\n    tag_51:\n      0x20\n      mul\n      0x20\n      add\n      add\n      mload\n        /* \"contracts/Stakeable.sol\":7860:7880  calculateStakeReward */\n      tag_34\n        /* \"contracts/Stakeable.sol\":7860:7899  calculateStakeReward(summary.stakes[s]) */\n      jump\t// in\n    tag_50:\n        /* \"contracts/Stakeable.sol\":7834:7899  uint256 availableReward = calculateStakeReward(summary.stakes[s]) */\n      swap1\n      pop\n        /* \"contracts/Stakeable.sol\":7943:7958  availableReward */\n      dup1\n        /* \"contracts/Stakeable.sol\":7913:7920  summary */\n      dup4\n        /* \"contracts/Stakeable.sol\":7913:7927  summary.stakes */\n      0x20\n      add\n      mload\n        /* \"contracts/Stakeable.sol\":7928:7929  s */\n      dup4\n        /* \"contracts/Stakeable.sol\":7913:7930  summary.stakes[s] */\n      dup2\n      mload\n      dup2\n      lt\n      tag_53\n      jumpi\n      tag_54\n      tag_19\n      jump\t// in\n    tag_54:\n    tag_53:\n      0x20\n      mul\n      0x20\n      add\n      add\n      mload\n        /* \"contracts/Stakeable.sol\":7913:7940  summary.stakes[s].claimable */\n      0x60\n      add\n        /* \"contracts/Stakeable.sol\":7913:7958  summary.stakes[s].claimable = availableReward */\n      dup2\n      dup2\n      mstore\n      pop\n      pop\n        /* \"contracts/Stakeable.sol\":8010:8017  summary */\n      dup3\n        /* \"contracts/Stakeable.sol\":8010:8024  summary.stakes */\n      0x20\n      add\n      mload\n        /* \"contracts/Stakeable.sol\":8025:8026  s */\n      dup3\n        /* \"contracts/Stakeable.sol\":8010:8027  summary.stakes[s] */\n      dup2\n      mload\n      dup2\n      lt\n      tag_55\n      jumpi\n      tag_56\n      tag_19\n      jump\t// in\n    tag_56:\n    tag_55:\n      0x20\n      mul\n      0x20\n      add\n      add\n      mload\n        /* \"contracts/Stakeable.sol\":8010:8034  summary.stakes[s].amount */\n      0x20\n      add\n      mload\n        /* \"contracts/Stakeable.sol\":7991:8007  totalStakeAmount */\n      dup5\n        /* \"contracts/Stakeable.sol\":7991:8034  totalStakeAmount + summary.stakes[s].amount */\n      tag_57\n      swap2\n      swap1\n      tag_36\n      jump\t// in\n    tag_57:\n        /* \"contracts/Stakeable.sol\":7972:8034  totalStakeAmount = totalStakeAmount + summary.stakes[s].amount */\n      swap4\n      pop\n        /* \"contracts/Stakeable.sol\":7820:8045  {... */\n      pop\n        /* \"contracts/Stakeable.sol\":7817:7818  1 */\n      0x01\n        /* \"contracts/Stakeable.sol\":7812:7818  s += 1 */\n      dup2\n      tag_58\n      swap2\n      swap1\n      tag_36\n      jump\t// in\n    tag_58:\n      swap1\n      pop\n        /* \"contracts/Stakeable.sol\":7765:8045  for (uint256 s = 0; s < summary.stakes.length; s += 1) {... */\n      jump(tag_47)\n    tag_48:\n      pop\n        /* \"contracts/Stakeable.sol\":8123:8139  totalStakeAmount */\n      dup2\n        /* \"contracts/Stakeable.sol\":8100:8107  summary */\n      dup2\n        /* \"contracts/Stakeable.sol\":8100:8120  summary.total_amount */\n      0x00\n      add\n        /* \"contracts/Stakeable.sol\":8100:8139  summary.total_amount = totalStakeAmount */\n      dup2\n      dup2\n      mstore\n      pop\n      pop\n        /* \"contracts/Stakeable.sol\":8156:8163  summary */\n      dup1\n        /* \"contracts/Stakeable.sol\":8149:8163  return summary */\n      swap3\n      pop\n      pop\n      pop\n        /* \"contracts/Stakeable.sol\":7270:8170  function hasStake(address _staker)... */\n      swap2\n      swap1\n      pop\n      jump\t// out\n        /* \"contracts/Stakeable.sol\":4645:5490  function calculateStakeReward(Stake memory _current_stake)... */\n    tag_34:\n        /* \"contracts/Stakeable.sol\":4751:4758  uint256 */\n      0x00\n        /* \"contracts/Stakeable.sol\":5469:5483  _rewardPerHour */\n      dup1\n      sload\n        /* \"contracts/Stakeable.sol\":5444:5458  _current_stake */\n      dup3\n        /* \"contracts/Stakeable.sol\":5444:5465  _current_stake.amount */\n      0x20\n      add\n      mload\n        /* \"contracts/Stakeable.sol\":5417:5424  1 hours */\n      0x0e10\n        /* \"contracts/Stakeable.sol\":5393:5407  _current_stake */\n      dup5\n        /* \"contracts/Stakeable.sol\":5393:5413  _current_stake.since */\n      0x40\n      add\n      mload\n        /* \"contracts/Stakeable.sol\":5375:5390  block.timestamp */\n      timestamp\n        /* \"contracts/Stakeable.sol\":5375:5413  block.timestamp - _current_stake.since */\n      tag_60\n      swap2\n      swap1\n      tag_61\n      jump\t// in\n    tag_60:\n        /* \"contracts/Stakeable.sol\":5374:5424  (block.timestamp - _current_stake.since) / 1 hours */\n      tag_62\n      swap2\n      swap1\n      tag_63\n      jump\t// in\n    tag_62:\n        /* \"contracts/Stakeable.sol\":5373:5465  ((block.timestamp - _current_stake.since) / 1 hours) *... */\n      tag_64\n      swap2\n      swap1\n      tag_65\n      jump\t// in\n    tag_64:\n        /* \"contracts/Stakeable.sol\":5372:5483  (((block.timestamp - _current_stake.since) / 1 hours) *... */\n      tag_66\n      swap2\n      swap1\n      tag_63\n      jump\t// in\n    tag_66:\n        /* \"contracts/Stakeable.sol\":5353:5483  return... */\n      swap1\n      pop\n        /* \"contracts/Stakeable.sol\":4645:5490  function calculateStakeReward(Stake memory _current_stake)... */\n      swap2\n      swap1\n      pop\n      jump\t// out\n    tag_39:\n      mload(0x40)\n      dup1\n      0x40\n      add\n      0x40\n      mstore\n      dup1\n      0x00\n      dup2\n      mstore\n      0x20\n      add\n      0x60\n      dup2\n      mstore\n      pop\n      swap1\n      jump\t// out\n        /* \"#utility.yul\":88:205   */\n    tag_68:\n        /* \"#utility.yul\":197:198   */\n      0x00\n        /* \"#utility.yul\":194:195   */\n      dup1\n        /* \"#utility.yul\":187:199   */\n      revert\n        /* \"#utility.yul\":334:460   */\n    tag_70:\n        /* \"#utility.yul\":371:378   */\n      0x00\n        /* \"#utility.yul\":411:453   */\n      0xffffffffffffffffffffffffffffffffffffffff\n        /* \"#utility.yul\":404:409   */\n      dup3\n        /* \"#utility.yul\":400:454   */\n      and\n        /* \"#utility.yul\":389:454   */\n      swap1\n      pop\n        /* \"#utility.yul\":334:460   */\n      swap2\n      swap1\n      pop\n      jump\t// out\n        /* \"#utility.yul\":466:562   */\n    tag_71:\n        /* \"#utility.yul\":503:510   */\n      0x00\n        /* \"#utility.yul\":532:556   */\n      tag_94\n        /* \"#utility.yul\":550:555   */\n      dup3\n        /* \"#utility.yul\":532:556   */\n      tag_70\n      jump\t// in\n    tag_94:\n        /* \"#utility.yul\":521:556   */\n      swap1\n      pop\n        /* \"#utility.yul\":466:562   */\n      swap2\n      swap1\n      pop\n      jump\t// out\n        /* \"#utility.yul\":568:690   */\n    tag_72:\n        /* \"#utility.yul\":641:665   */\n      tag_96\n        /* \"#utility.yul\":659:664   */\n      dup2\n        /* \"#utility.yul\":641:665   */\n      tag_71\n      jump\t// in\n    tag_96:\n        /* \"#utility.yul\":634:639   */\n      dup2\n        /* \"#utility.yul\":631:666   */\n      eq\n        /* \"#utility.yul\":621:684   */\n      tag_97\n      jumpi\n        /* \"#utility.yul\":680:681   */\n      0x00\n        /* \"#utility.yul\":677:678   */\n      dup1\n        /* \"#utility.yul\":670:682   */\n      revert\n        /* \"#utility.yul\":621:684   */\n    tag_97:\n        /* \"#utility.yul\":568:690   */\n      pop\n      jump\t// out\n        /* \"#utility.yul\":696:835   */\n    tag_73:\n        /* \"#utility.yul\":742:747   */\n      0x00\n        /* \"#utility.yul\":780:786   */\n      dup2\n        /* \"#utility.yul\":767:787   */\n      calldataload\n        /* \"#utility.yul\":758:787   */\n      swap1\n      pop\n        /* \"#utility.yul\":796:829   */\n      tag_99\n        /* \"#utility.yul\":823:828   */\n      dup2\n        /* \"#utility.yul\":796:829   */\n      tag_72\n      jump\t// in\n    tag_99:\n        /* \"#utility.yul\":696:835   */\n      swap3\n      swap2\n      pop\n      pop\n      jump\t// out\n        /* \"#utility.yul\":841:1170   */\n    tag_7:\n        /* \"#utility.yul\":900:906   */\n      0x00\n        /* \"#utility.yul\":949:951   */\n      0x20\n        /* \"#utility.yul\":937:946   */\n      dup3\n        /* \"#utility.yul\":928:935   */\n      dup5\n        /* \"#utility.yul\":924:947   */\n      sub\n        /* \"#utility.yul\":920:952   */\n      slt\n        /* \"#utility.yul\":917:1036   */\n      iszero\n      tag_101\n      jumpi\n        /* \"#utility.yul\":955:1034   */\n      tag_102\n      tag_68\n      jump\t// in\n    tag_102:\n        /* \"#utility.yul\":917:1036   */\n    tag_101:\n        /* \"#utility.yul\":1075:1076   */\n      0x00\n        /* \"#utility.yul\":1100:1153   */\n      tag_103\n        /* \"#utility.yul\":1145:1152   */\n      dup5\n        /* \"#utility.yul\":1136:1142   */\n      dup3\n        /* \"#utility.yul\":1125:1134   */\n      dup6\n        /* \"#utility.yul\":1121:1143   */\n      add\n        /* \"#utility.yul\":1100:1153   */\n      tag_73\n      jump\t// in\n    tag_103:\n        /* \"#utility.yul\":1090:1153   */\n      swap2\n      pop\n        /* \"#utility.yul\":1046:1163   */\n      pop\n        /* \"#utility.yul\":841:1170   */\n      swap3\n      swap2\n      pop\n      pop\n      jump\t// out\n        /* \"#utility.yul\":1176:1253   */\n    tag_74:\n        /* \"#utility.yul\":1213:1220   */\n      0x00\n        /* \"#utility.yul\":1242:1247   */\n      dup2\n        /* \"#utility.yul\":1231:1247   */\n      swap1\n      pop\n        /* \"#utility.yul\":1176:1253   */\n      swap2\n      swap1\n      pop\n      jump\t// out\n        /* \"#utility.yul\":1259:1377   */\n    tag_75:\n        /* \"#utility.yul\":1346:1370   */\n      tag_106\n        /* \"#utility.yul\":1364:1369   */\n      dup2\n        /* \"#utility.yul\":1346:1370   */\n      tag_74\n      jump\t// in\n    tag_106:\n        /* \"#utility.yul\":1341:1344   */\n      dup3\n        /* \"#utility.yul\":1334:1371   */\n      mstore\n        /* \"#utility.yul\":1259:1377   */\n      pop\n      pop\n      jump\t// out\n        /* \"#utility.yul\":1383:1605   */\n    tag_10:\n        /* \"#utility.yul\":1476:1480   */\n      0x00\n        /* \"#utility.yul\":1514:1516   */\n      0x20\n        /* \"#utility.yul\":1503:1512   */\n      dup3\n        /* \"#utility.yul\":1499:1517   */\n      add\n        /* \"#utility.yul\":1491:1517   */\n      swap1\n      pop\n        /* \"#utility.yul\":1527:1598   */\n      tag_108\n        /* \"#utility.yul\":1595:1596   */\n      0x00\n        /* \"#utility.yul\":1584:1593   */\n      dup4\n        /* \"#utility.yul\":1580:1597   */\n      add\n        /* \"#utility.yul\":1571:1577   */\n      dup5\n        /* \"#utility.yul\":1527:1598   */\n      tag_75\n      jump\t// in\n    tag_108:\n        /* \"#utility.yul\":1383:1605   */\n      swap3\n      swap2\n      pop\n      pop\n      jump\t// out\n        /* \"#utility.yul\":1611:1719   */\n    tag_76:\n        /* \"#utility.yul\":1688:1712   */\n      tag_110\n        /* \"#utility.yul\":1706:1711   */\n      dup2\n        /* \"#utility.yul\":1688:1712   */\n      tag_74\n      jump\t// in\n    tag_110:\n        /* \"#utility.yul\":1683:1686   */\n      dup3\n        /* \"#utility.yul\":1676:1713   */\n      mstore\n        /* \"#utility.yul\":1611:1719   */\n      pop\n      pop\n      jump\t// out\n        /* \"#utility.yul\":1725:1861   */\n    tag_77:\n        /* \"#utility.yul\":1814:1820   */\n      0x00\n        /* \"#utility.yul\":1848:1853   */\n      dup2\n        /* \"#utility.yul\":1842:1854   */\n      mload\n        /* \"#utility.yul\":1832:1854   */\n      swap1\n      pop\n        /* \"#utility.yul\":1725:1861   */\n      swap2\n      swap1\n      pop\n      jump\t// out\n        /* \"#utility.yul\":1867:2063   */\n    tag_78:\n        /* \"#utility.yul\":1978:1989   */\n      0x00\n        /* \"#utility.yul\":2012:2018   */\n      dup3\n        /* \"#utility.yul\":2007:2010   */\n      dup3\n        /* \"#utility.yul\":2000:2019   */\n      mstore\n        /* \"#utility.yul\":2052:2056   */\n      0x20\n        /* \"#utility.yul\":2047:2050   */\n      dup3\n        /* \"#utility.yul\":2043:2057   */\n      add\n        /* \"#utility.yul\":2028:2057   */\n      swap1\n      pop\n        /* \"#utility.yul\":1867:2063   */\n      swap3\n      swap2\n      pop\n      pop\n      jump\t// out\n        /* \"#utility.yul\":2069:2223   */\n    tag_79:\n        /* \"#utility.yul\":2158:2162   */\n      0x00\n        /* \"#utility.yul\":2181:2184   */\n      dup2\n        /* \"#utility.yul\":2173:2184   */\n      swap1\n      pop\n        /* \"#utility.yul\":2211:2215   */\n      0x20\n        /* \"#utility.yul\":2206:2209   */\n      dup3\n        /* \"#utility.yul\":2202:2216   */\n      add\n        /* \"#utility.yul\":2194:2216   */\n      swap1\n      pop\n        /* \"#utility.yul\":2069:2223   */\n      swap2\n      swap1\n      pop\n      jump\t// out\n        /* \"#utility.yul\":2229:2337   */\n    tag_80:\n        /* \"#utility.yul\":2306:2330   */\n      tag_115\n        /* \"#utility.yul\":2324:2329   */\n      dup2\n        /* \"#utility.yul\":2306:2330   */\n      tag_71\n      jump\t// in\n    tag_115:\n        /* \"#utility.yul\":2301:2304   */\n      dup3\n        /* \"#utility.yul\":2294:2331   */\n      mstore\n        /* \"#utility.yul\":2229:2337   */\n      pop\n      pop\n      jump\t// out\n        /* \"#utility.yul\":2399:3246   */\n    tag_81:\n        /* \"#utility.yul\":2530:2534   */\n      0x80\n        /* \"#utility.yul\":2525:2528   */\n      dup3\n        /* \"#utility.yul\":2521:2535   */\n      add\n        /* \"#utility.yul\":2617:2621   */\n      0x00\n        /* \"#utility.yul\":2610:2615   */\n      dup3\n        /* \"#utility.yul\":2606:2622   */\n      add\n        /* \"#utility.yul\":2600:2623   */\n      mload\n        /* \"#utility.yul\":2636:2699   */\n      tag_117\n        /* \"#utility.yul\":2693:2697   */\n      0x00\n        /* \"#utility.yul\":2688:2691   */\n      dup6\n        /* \"#utility.yul\":2684:2698   */\n      add\n        /* \"#utility.yul\":2670:2682   */\n      dup3\n        /* \"#utility.yul\":2636:2699   */\n      tag_80\n      jump\t// in\n    tag_117:\n        /* \"#utility.yul\":2545:2709   */\n      pop\n        /* \"#utility.yul\":2793:2797   */\n      0x20\n        /* \"#utility.yul\":2786:2791   */\n      dup3\n        /* \"#utility.yul\":2782:2798   */\n      add\n        /* \"#utility.yul\":2776:2799   */\n      mload\n        /* \"#utility.yul\":2812:2875   */\n      tag_118\n        /* \"#utility.yul\":2869:2873   */\n      0x20\n        /* \"#utility.yul\":2864:2867   */\n      dup6\n        /* \"#utility.yul\":2860:2874   */\n      add\n        /* \"#utility.yul\":2846:2858   */\n      dup3\n        /* \"#utility.yul\":2812:2875   */\n      tag_76\n      jump\t// in\n    tag_118:\n        /* \"#utility.yul\":2719:2885   */\n      pop\n        /* \"#utility.yul\":2968:2972   */\n      0x40\n        /* \"#utility.yul\":2961:2966   */\n      dup3\n        /* \"#utility.yul\":2957:2973   */\n      add\n        /* \"#utility.yul\":2951:2974   */\n      mload\n        /* \"#utility.yul\":2987:3050   */\n      tag_119\n        /* \"#utility.yul\":3044:3048   */\n      0x40\n        /* \"#utility.yul\":3039:3042   */\n      dup6\n        /* \"#utility.yul\":3035:3049   */\n      add\n        /* \"#utility.yul\":3021:3033   */\n      dup3\n        /* \"#utility.yul\":2987:3050   */\n      tag_76\n      jump\t// in\n    tag_119:\n        /* \"#utility.yul\":2895:3060   */\n      pop\n        /* \"#utility.yul\":3147:3151   */\n      0x60\n        /* \"#utility.yul\":3140:3145   */\n      dup3\n        /* \"#utility.yul\":3136:3152   */\n      add\n        /* \"#utility.yul\":3130:3153   */\n      mload\n        /* \"#utility.yul\":3166:3229   */\n      tag_120\n        /* \"#utility.yul\":3223:3227   */\n      0x60\n        /* \"#utility.yul\":3218:3221   */\n      dup6\n        /* \"#utility.yul\":3214:3228   */\n      add\n        /* \"#utility.yul\":3200:3212   */\n      dup3\n        /* \"#utility.yul\":3166:3229   */\n      tag_76\n      jump\t// in\n    tag_120:\n        /* \"#utility.yul\":3070:3239   */\n      pop\n        /* \"#utility.yul\":2499:3246   */\n      pop\n        /* \"#utility.yul\":2399:3246   */\n      pop\n      pop\n      jump\t// out\n        /* \"#utility.yul\":3252:3519   */\n    tag_82:\n        /* \"#utility.yul\":3365:3375   */\n      0x00\n        /* \"#utility.yul\":3386:3476   */\n      tag_122\n        /* \"#utility.yul\":3472:3475   */\n      dup4\n        /* \"#utility.yul\":3464:3470   */\n      dup4\n        /* \"#utility.yul\":3386:3476   */\n      tag_81\n      jump\t// in\n    tag_122:\n        /* \"#utility.yul\":3508:3512   */\n      0x80\n        /* \"#utility.yul\":3503:3506   */\n      dup4\n        /* \"#utility.yul\":3499:3513   */\n      add\n        /* \"#utility.yul\":3485:3513   */\n      swap1\n      pop\n        /* \"#utility.yul\":3252:3519   */\n      swap3\n      swap2\n      pop\n      pop\n      jump\t// out\n        /* \"#utility.yul\":3525:3660   */\n    tag_83:\n        /* \"#utility.yul\":3617:3621   */\n      0x00\n        /* \"#utility.yul\":3649:3653   */\n      0x20\n        /* \"#utility.yul\":3644:3647   */\n      dup3\n        /* \"#utility.yul\":3640:3654   */\n      add\n        /* \"#utility.yul\":3632:3654   */\n      swap1\n      pop\n        /* \"#utility.yul\":3525:3660   */\n      swap2\n      swap1\n      pop\n      jump\t// out\n        /* \"#utility.yul\":3726:4614   */\n    tag_84:\n        /* \"#utility.yul\":3879:3882   */\n      0x00\n        /* \"#utility.yul\":3908:3984   */\n      tag_125\n        /* \"#utility.yul\":3978:3983   */\n      dup3\n        /* \"#utility.yul\":3908:3984   */\n      tag_77\n      jump\t// in\n    tag_125:\n        /* \"#utility.yul\":4000:4098   */\n      tag_126\n        /* \"#utility.yul\":4091:4097   */\n      dup2\n        /* \"#utility.yul\":4086:4089   */\n      dup6\n        /* \"#utility.yul\":4000:4098   */\n      tag_78\n      jump\t// in\n    tag_126:\n        /* \"#utility.yul\":3993:4098   */\n      swap4\n      pop\n        /* \"#utility.yul\":4122:4200   */\n      tag_127\n        /* \"#utility.yul\":4194:4199   */\n      dup4\n        /* \"#utility.yul\":4122:4200   */\n      tag_79\n      jump\t// in\n    tag_127:\n        /* \"#utility.yul\":4223:4230   */\n      dup1\n        /* \"#utility.yul\":4254:4255   */\n      0x00\n        /* \"#utility.yul\":4239:4589   */\n    tag_128:\n        /* \"#utility.yul\":4264:4270   */\n      dup4\n        /* \"#utility.yul\":4261:4262   */\n      dup2\n        /* \"#utility.yul\":4258:4271   */\n      lt\n        /* \"#utility.yul\":4239:4589   */\n      iszero\n      tag_130\n      jumpi\n        /* \"#utility.yul\":4340:4346   */\n      dup2\n        /* \"#utility.yul\":4334:4347   */\n      mload\n        /* \"#utility.yul\":4367:4474   */\n      tag_131\n        /* \"#utility.yul\":4470:4473   */\n      dup9\n        /* \"#utility.yul\":4455:4468   */\n      dup3\n        /* \"#utility.yul\":4367:4474   */\n      tag_82\n      jump\t// in\n    tag_131:\n        /* \"#utility.yul\":4360:4474   */\n      swap8\n      pop\n        /* \"#utility.yul\":4497:4579   */\n      tag_132\n        /* \"#utility.yul\":4572:4578   */\n      dup4\n        /* \"#utility.yul\":4497:4579   */\n      tag_83\n      jump\t// in\n    tag_132:\n        /* \"#utility.yul\":4487:4579   */\n      swap3\n      pop\n        /* \"#utility.yul\":4299:4589   */\n      pop\n        /* \"#utility.yul\":4286:4287   */\n      0x01\n        /* \"#utility.yul\":4283:4284   */\n      dup2\n        /* \"#utility.yul\":4279:4288   */\n      add\n        /* \"#utility.yul\":4274:4288   */\n      swap1\n      pop\n        /* \"#utility.yul\":4239:4589   */\n      jump(tag_128)\n    tag_130:\n        /* \"#utility.yul\":4243:4257   */\n      pop\n        /* \"#utility.yul\":4605:4608   */\n      dup6\n        /* \"#utility.yul\":4598:4608   */\n      swap4\n      pop\n        /* \"#utility.yul\":3884:4614   */\n      pop\n      pop\n      pop\n        /* \"#utility.yul\":3726:4614   */\n      swap3\n      swap2\n      pop\n      pop\n      jump\t// out\n        /* \"#utility.yul\":4694:5396   */\n    tag_85:\n        /* \"#utility.yul\":4825:4828   */\n      0x00\n        /* \"#utility.yul\":4861:4865   */\n      0x40\n        /* \"#utility.yul\":4856:4859   */\n      dup4\n        /* \"#utility.yul\":4852:4866   */\n      add\n        /* \"#utility.yul\":4956:4960   */\n      0x00\n        /* \"#utility.yul\":4949:4954   */\n      dup4\n        /* \"#utility.yul\":4945:4961   */\n      add\n        /* \"#utility.yul\":4939:4962   */\n      mload\n        /* \"#utility.yul\":4975:5038   */\n      tag_134\n        /* \"#utility.yul\":5032:5036   */\n      0x00\n        /* \"#utility.yul\":5027:5030   */\n      dup7\n        /* \"#utility.yul\":5023:5037   */\n      add\n        /* \"#utility.yul\":5009:5021   */\n      dup3\n        /* \"#utility.yul\":4975:5038   */\n      tag_76\n      jump\t// in\n    tag_134:\n        /* \"#utility.yul\":4876:5048   */\n      pop\n        /* \"#utility.yul\":5132:5136   */\n      0x20\n        /* \"#utility.yul\":5125:5130   */\n      dup4\n        /* \"#utility.yul\":5121:5137   */\n      add\n        /* \"#utility.yul\":5115:5138   */\n      mload\n        /* \"#utility.yul\":5185:5188   */\n      dup5\n        /* \"#utility.yul\":5179:5183   */\n      dup3\n        /* \"#utility.yul\":5175:5189   */\n      sub\n        /* \"#utility.yul\":5168:5172   */\n      0x20\n        /* \"#utility.yul\":5163:5166   */\n      dup7\n        /* \"#utility.yul\":5159:5173   */\n      add\n        /* \"#utility.yul\":5152:5190   */\n      mstore\n        /* \"#utility.yul\":5211:5358   */\n      tag_135\n        /* \"#utility.yul\":5353:5357   */\n      dup3\n        /* \"#utility.yul\":5339:5351   */\n      dup3\n        /* \"#utility.yul\":5211:5358   */\n      tag_84\n      jump\t// in\n    tag_135:\n        /* \"#utility.yul\":5203:5358   */\n      swap2\n      pop\n        /* \"#utility.yul\":5058:5369   */\n      pop\n        /* \"#utility.yul\":5386:5390   */\n      dup1\n        /* \"#utility.yul\":5379:5390   */\n      swap2\n      pop\n        /* \"#utility.yul\":4830:5396   */\n      pop\n        /* \"#utility.yul\":4694:5396   */\n      swap3\n      swap2\n      pop\n      pop\n      jump\t// out\n        /* \"#utility.yul\":5402:5799   */\n    tag_15:\n        /* \"#utility.yul\":5557:5561   */\n      0x00\n        /* \"#utility.yul\":5595:5597   */\n      0x20\n        /* \"#utility.yul\":5584:5593   */\n      dup3\n        /* \"#utility.yul\":5580:5598   */\n      add\n        /* \"#utility.yul\":5572:5598   */\n      swap1\n      pop\n        /* \"#utility.yul\":5644:5653   */\n      dup2\n        /* \"#utility.yul\":5638:5642   */\n      dup2\n        /* \"#utility.yul\":5634:5654   */\n      sub\n        /* \"#utility.yul\":5630:5631   */\n      0x00\n        /* \"#utility.yul\":5619:5628   */\n      dup4\n        /* \"#utility.yul\":5615:5632   */\n      add\n        /* \"#utility.yul\":5608:5655   */\n      mstore\n        /* \"#utility.yul\":5672:5792   */\n      tag_137\n        /* \"#utility.yul\":5787:5791   */\n      dup2\n        /* \"#utility.yul\":5778:5784   */\n      dup5\n        /* \"#utility.yul\":5672:5792   */\n      tag_85\n      jump\t// in\n    tag_137:\n        /* \"#utility.yul\":5664:5792   */\n      swap1\n      pop\n        /* \"#utility.yul\":5402:5799   */\n      swap3\n      swap2\n      pop\n      pop\n      jump\t// out\n        /* \"#utility.yul\":5805:5985   */\n    tag_19:\n        /* \"#utility.yul\":5853:5930   */\n      0x4e487b7100000000000000000000000000000000000000000000000000000000\n        /* \"#utility.yul\":5850:5851   */\n      0x00\n        /* \"#utility.yul\":5843:5931   */\n      mstore\n        /* \"#utility.yul\":5950:5954   */\n      0x32\n        /* \"#utility.yul\":5947:5948   */\n      0x04\n        /* \"#utility.yul\":5940:5955   */\n      mstore\n        /* \"#utility.yul\":5974:5978   */\n      0x24\n        /* \"#utility.yul\":5971:5972   */\n      0x00\n        /* \"#utility.yul\":5964:5979   */\n      revert\n        /* \"#utility.yul\":5991:6171   */\n    tag_86:\n        /* \"#utility.yul\":6039:6116   */\n      0x4e487b7100000000000000000000000000000000000000000000000000000000\n        /* \"#utility.yul\":6036:6037   */\n      0x00\n        /* \"#utility.yul\":6029:6117   */\n      mstore\n        /* \"#utility.yul\":6136:6140   */\n      0x11\n        /* \"#utility.yul\":6133:6134   */\n      0x04\n        /* \"#utility.yul\":6126:6141   */\n      mstore\n        /* \"#utility.yul\":6160:6164   */\n      0x24\n        /* \"#utility.yul\":6157:6158   */\n      0x00\n        /* \"#utility.yul\":6150:6165   */\n      revert\n        /* \"#utility.yul\":6177:6368   */\n    tag_36:\n        /* \"#utility.yul\":6217:6220   */\n      0x00\n        /* \"#utility.yul\":6236:6256   */\n      tag_141\n        /* \"#utility.yul\":6254:6255   */\n      dup3\n        /* \"#utility.yul\":6236:6256   */\n      tag_74\n      jump\t// in\n    tag_141:\n        /* \"#utility.yul\":6231:6256   */\n      swap2\n      pop\n        /* \"#utility.yul\":6270:6290   */\n      tag_142\n        /* \"#utility.yul\":6288:6289   */\n      dup4\n        /* \"#utility.yul\":6270:6290   */\n      tag_74\n      jump\t// in\n    tag_142:\n        /* \"#utility.yul\":6265:6290   */\n      swap3\n      pop\n        /* \"#utility.yul\":6313:6314   */\n      dup3\n        /* \"#utility.yul\":6310:6311   */\n      dup3\n        /* \"#utility.yul\":6306:6315   */\n      add\n        /* \"#utility.yul\":6299:6315   */\n      swap1\n      pop\n        /* \"#utility.yul\":6334:6337   */\n      dup1\n        /* \"#utility.yul\":6331:6332   */\n      dup3\n        /* \"#utility.yul\":6328:6338   */\n      gt\n        /* \"#utility.yul\":6325:6361   */\n      iszero\n      tag_143\n      jumpi\n        /* \"#utility.yul\":6341:6359   */\n      tag_144\n      tag_86\n      jump\t// in\n    tag_144:\n        /* \"#utility.yul\":6325:6361   */\n    tag_143:\n        /* \"#utility.yul\":6177:6368   */\n      swap3\n      swap2\n      pop\n      pop\n      jump\t// out\n        /* \"#utility.yul\":6374:6568   */\n    tag_61:\n        /* \"#utility.yul\":6414:6418   */\n      0x00\n        /* \"#utility.yul\":6434:6454   */\n      tag_146\n        /* \"#utility.yul\":6452:6453   */\n      dup3\n        /* \"#utility.yul\":6434:6454   */\n      tag_74\n      jump\t// in\n    tag_146:\n        /* \"#utility.yul\":6429:6454   */\n      swap2\n      pop\n        /* \"#utility.yul\":6468:6488   */\n      tag_147\n        /* \"#utility.yul\":6486:6487   */\n      dup4\n        /* \"#utility.yul\":6468:6488   */\n      tag_74\n      jump\t// in\n    tag_147:\n        /* \"#utility.yul\":6463:6488   */\n      swap3\n      pop\n        /* \"#utility.yul\":6512:6513   */\n      dup3\n        /* \"#utility.yul\":6509:6510   */\n      dup3\n        /* \"#utility.yul\":6505:6514   */\n      sub\n        /* \"#utility.yul\":6497:6514   */\n      swap1\n      pop\n        /* \"#utility.yul\":6536:6537   */\n      dup2\n        /* \"#utility.yul\":6530:6534   */\n      dup2\n        /* \"#utility.yul\":6527:6538   */\n      gt\n        /* \"#utility.yul\":6524:6561   */\n      iszero\n      tag_148\n      jumpi\n        /* \"#utility.yul\":6541:6559   */\n      tag_149\n      tag_86\n      jump\t// in\n    tag_149:\n        /* \"#utility.yul\":6524:6561   */\n    tag_148:\n        /* \"#utility.yul\":6374:6568   */\n      swap3\n      swap2\n      pop\n      pop\n      jump\t// out\n        /* \"#utility.yul\":6574:6754   */\n    tag_87:\n        /* \"#utility.yul\":6622:6699   */\n      0x4e487b7100000000000000000000000000000000000000000000000000000000\n        /* \"#utility.yul\":6619:6620   */\n      0x00\n        /* \"#utility.yul\":6612:6700   */\n      mstore\n        /* \"#utility.yul\":6719:6723   */\n      0x12\n        /* \"#utility.yul\":6716:6717   */\n      0x04\n        /* \"#utility.yul\":6709:6724   */\n      mstore\n        /* \"#utility.yul\":6743:6747   */\n      0x24\n        /* \"#utility.yul\":6740:6741   */\n      0x00\n        /* \"#utility.yul\":6733:6748   */\n      revert\n        /* \"#utility.yul\":6760:6945   */\n    tag_63:\n        /* \"#utility.yul\":6800:6801   */\n      0x00\n        /* \"#utility.yul\":6817:6837   */\n      tag_152\n        /* \"#utility.yul\":6835:6836   */\n      dup3\n        /* \"#utility.yul\":6817:6837   */\n      tag_74\n      jump\t// in\n    tag_152:\n        /* \"#utility.yul\":6812:6837   */\n      swap2\n      pop\n        /* \"#utility.yul\":6851:6871   */\n      tag_153\n        /* \"#utility.yul\":6869:6870   */\n      dup4\n        /* \"#utility.yul\":6851:6871   */\n      tag_74\n      jump\t// in\n    tag_153:\n        /* \"#utility.yul\":6846:6871   */\n      swap3\n      pop\n        /* \"#utility.yul\":6890:6891   */\n      dup3\n        /* \"#utility.yul\":6880:6915   */\n      tag_154\n      jumpi\n        /* \"#utility.yul\":6895:6913   */\n      tag_155\n      tag_87\n      jump\t// in\n    tag_155:\n        /* \"#utility.yul\":6880:6915   */\n    tag_154:\n        /* \"#utility.yul\":6937:6938   */\n      dup3\n        /* \"#utility.yul\":6934:6935   */\n      dup3\n        /* \"#utility.yul\":6930:6939   */\n      div\n        /* \"#utility.yul\":6925:6939   */\n      swap1\n      pop\n        /* \"#utility.yul\":6760:6945   */\n      swap3\n      swap2\n      pop\n      pop\n      jump\t// out\n        /* \"#utility.yul\":6951:7361   */\n    tag_65:\n        /* \"#utility.yul\":6991:6998   */\n      0x00\n        /* \"#utility.yul\":7014:7034   */\n      tag_157\n        /* \"#utility.yul\":7032:7033   */\n      dup3\n        /* \"#utility.yul\":7014:7034   */\n      tag_74\n      jump\t// in\n    tag_157:\n        /* \"#utility.yul\":7009:7034   */\n      swap2\n      pop\n        /* \"#utility.yul\":7048:7068   */\n      tag_158\n        /* \"#utility.yul\":7066:7067   */\n      dup4\n        /* \"#utility.yul\":7048:7068   */\n      tag_74\n      jump\t// in\n    tag_158:\n        /* \"#utility.yul\":7043:7068   */\n      swap3\n      pop\n        /* \"#utility.yul\":7103:7104   */\n      dup3\n        /* \"#utility.yul\":7100:7101   */\n      dup3\n        /* \"#utility.yul\":7096:7105   */\n      mul\n        /* \"#utility.yul\":7125:7155   */\n      tag_159\n        /* \"#utility.yul\":7143:7154   */\n      dup2\n        /* \"#utility.yul\":7125:7155   */\n      tag_74\n      jump\t// in\n    tag_159:\n        /* \"#utility.yul\":7114:7155   */\n      swap2\n      pop\n        /* \"#utility.yul\":7304:7305   */\n      dup3\n        /* \"#utility.yul\":7295:7302   */\n      dup3\n        /* \"#utility.yul\":7291:7306   */\n      div\n        /* \"#utility.yul\":7288:7289   */\n      dup5\n        /* \"#utility.yul\":7285:7307   */\n      eq\n        /* \"#utility.yul\":7265:7266   */\n      dup4\n        /* \"#utility.yul\":7258:7267   */\n      iszero\n        /* \"#utility.yul\":7238:7321   */\n      or\n        /* \"#utility.yul\":7215:7354   */\n      tag_160\n      jumpi\n        /* \"#utility.yul\":7334:7352   */\n      tag_161\n      tag_86\n      jump\t// in\n    tag_161:\n        /* \"#utility.yul\":7215:7354   */\n    tag_160:\n        /* \"#utility.yul\":6999:7361   */\n      pop\n        /* \"#utility.yul\":6951:7361   */\n      swap3\n      swap2\n      pop\n      pop\n      jump\t// out\n\n    auxdata: 0xa264697066735822122019bc1d1057fd5e5e358ab5e8e6b6be3924d003ffb6ac87fb05abb6a2d12dee9464736f6c63430008110033\n}\n",
				"bytecode": {
					"linkReferences": {},
					"object": "608060405234801561001057600080fd5b5060018081600181540180825580915050039060005260206000209050506201abbc60008190555061098d806100476000396000f3fe608060405234801561001057600080fd5b50600436106100365760003560e01c806393eb26da1461003b578063e73e14bf1461006b575b600080fd5b6100556004803603810190610050919061060d565b61009b565b6040516100629190610653565b60405180910390f35b6100856004803603810190610080919061060d565b610342565b60405161009291906107cd565b60405180910390f35b6000806000600260008573ffffffffffffffffffffffffffffffffffffffff1673ffffffffffffffffffffffffffffffffffffffff16815260200190815260200160002054905060006040518060400160405280600081526020016001600260008973ffffffffffffffffffffffffffffffffffffffff1673ffffffffffffffffffffffffffffffffffffffff1681526020019081526020016000205481548110610149576101486107ef565b5b9060005260206000209060020201600101805480602002602001604051908101604052809291908181526020016000905b8282101561022057838290600052602060002090600402016040518060800160405290816000820160009054906101000a900473ffffffffffffffffffffffffffffffffffffffff1673ffffffffffffffffffffffffffffffffffffffff1673ffffffffffffffffffffffffffffffffffffffff16815260200160018201548152602001600282015481526020016003820154815250508152602001906001019061017a565b50505050815250905060005b8160200151518110156103365760006001848154811061024f5761024e6107ef565b5b90600052602060002090600202016001018281548110610272576102716107ef565b5b90600052602060002090600402016040518060800160405290816000820160009054906101000a900473ffffffffffffffffffffffffffffffffffffffff1673ffffffffffffffffffffffffffffffffffffffff1673ffffffffffffffffffffffffffffffffffffffff16815260200160018201548152602001600282015481526020016003820154815250509050600061030c8261054f565b905080826020015161031e919061084d565b9550505060018161032f919061084d565b905061022c565b50829350505050919050565b61034a610590565b6000806040518060400160405280600081526020016001600260008873ffffffffffffffffffffffffffffffffffffffff1673ffffffffffffffffffffffffffffffffffffffff16815260200190815260200160002054815481106103b2576103b16107ef565b5b9060005260206000209060020201600101805480602002602001604051908101604052809291908181526020016000905b8282101561048957838290600052602060002090600402016040518060800160405290816000820160009054906101000a900473ffffffffffffffffffffffffffffffffffffffff1673ffffffffffffffffffffffffffffffffffffffff1673ffffffffffffffffffffffffffffffffffffffff1681526020016001820154815260200160028201548152602001600382015481525050815260200190600101906103e3565b50505050815250905060005b81602001515181101561053a5760006104cb836020015183815181106104be576104bd6107ef565b5b602002602001015161054f565b905080836020015183815181106104e5576104e46107ef565b5b602002602001015160600181815250508260200151828151811061050c5761050b6107ef565b5b60200260200101516020015184610523919061084d565b935050600181610533919061084d565b9050610495565b50818160000181815250508092505050919050565b600080548260200151610e1084604001514261056b9190610881565b61057591906108e4565b61057f9190610915565b61058991906108e4565b9050919050565b604051806040016040528060008152602001606081525090565b600080fd5b600073ffffffffffffffffffffffffffffffffffffffff82169050919050565b60006105da826105af565b9050919050565b6105ea816105cf565b81146105f557600080fd5b50565b600081359050610607816105e1565b92915050565b600060208284031215610623576106226105aa565b5b6000610631848285016105f8565b91505092915050565b6000819050919050565b61064d8161063a565b82525050565b60006020820190506106686000830184610644565b92915050565b6106778161063a565b82525050565b600081519050919050565b600082825260208201905092915050565b6000819050602082019050919050565b6106b2816105cf565b82525050565b6080820160008201516106ce60008501826106a9565b5060208201516106e1602085018261066e565b5060408201516106f4604085018261066e565b506060820151610707606085018261066e565b50505050565b600061071983836106b8565b60808301905092915050565b6000602082019050919050565b600061073d8261067d565b6107478185610688565b935061075283610699565b8060005b8381101561078357815161076a888261070d565b975061077583610725565b925050600181019050610756565b5085935050505092915050565b60006040830160008301516107a8600086018261066e565b50602083015184820360208601526107c08282610732565b9150508091505092915050565b600060208201905081810360008301526107e78184610790565b905092915050565b7f4e487b7100000000000000000000000000000000000000000000000000000000600052603260045260246000fd5b7f4e487b7100000000000000000000000000000000000000000000000000000000600052601160045260246000fd5b60006108588261063a565b91506108638361063a565b925082820190508082111561087b5761087a61081e565b5b92915050565b600061088c8261063a565b91506108978361063a565b92508282039050818111156108af576108ae61081e565b5b92915050565b7f4e487b7100000000000000000000000000000000000000000000000000000000600052601260045260246000fd5b60006108ef8261063a565b91506108fa8361063a565b92508261090a576109096108b5565b5b828204905092915050565b60006109208261063a565b915061092b8361063a565b92508282026109398161063a565b915082820484148315176109505761094f61081e565b5b509291505056fea264697066735822122019bc1d1057fd5e5e358ab5e8e6b6be3924d003ffb6ac87fb05abb6a2d12dee9464736f6c63430008110033",
					"opcodes": "PUSH1 0x80 PUSH1 0x40 MSTORE CALLVALUE DUP1 ISZERO PUSH2 0x10 JUMPI PUSH1 0x0 DUP1 REVERT JUMPDEST POP PUSH1 0x1 DUP1 DUP2 PUSH1 0x1 DUP2 SLOAD ADD DUP1 DUP3 SSTORE DUP1 SWAP2 POP POP SUB SWAP1 PUSH1 0x0 MSTORE PUSH1 0x20 PUSH1 0x0 KECCAK256 SWAP1 POP POP PUSH3 0x1ABBC PUSH1 0x0 DUP2 SWAP1 SSTORE POP PUSH2 0x98D DUP1 PUSH2 0x47 PUSH1 0x0 CODECOPY PUSH1 0x0 RETURN INVALID PUSH1 0x80 PUSH1 0x40 MSTORE CALLVALUE DUP1 ISZERO PUSH2 0x10 JUMPI PUSH1 0x0 DUP1 REVERT JUMPDEST POP PUSH1 0x4 CALLDATASIZE LT PUSH2 0x36 JUMPI PUSH1 0x0 CALLDATALOAD PUSH1 0xE0 SHR DUP1 PUSH4 0x93EB26DA EQ PUSH2 0x3B JUMPI DUP1 PUSH4 0xE73E14BF EQ PUSH2 0x6B JUMPI JUMPDEST PUSH1 0x0 DUP1 REVERT JUMPDEST PUSH2 0x55 PUSH1 0x4 DUP1 CALLDATASIZE SUB DUP2 ADD SWAP1 PUSH2 0x50 SWAP2 SWAP1 PUSH2 0x60D JUMP JUMPDEST PUSH2 0x9B JUMP JUMPDEST PUSH1 0x40 MLOAD PUSH2 0x62 SWAP2 SWAP1 PUSH2 0x653 JUMP JUMPDEST PUSH1 0x40 MLOAD DUP1 SWAP2 SUB SWAP1 RETURN JUMPDEST PUSH2 0x85 PUSH1 0x4 DUP1 CALLDATASIZE SUB DUP2 ADD SWAP1 PUSH2 0x80 SWAP2 SWAP1 PUSH2 0x60D JUMP JUMPDEST PUSH2 0x342 JUMP JUMPDEST PUSH1 0x40 MLOAD PUSH2 0x92 SWAP2 SWAP1 PUSH2 0x7CD JUMP JUMPDEST PUSH1 0x40 MLOAD DUP1 SWAP2 SUB SWAP1 RETURN JUMPDEST PUSH1 0x0 DUP1 PUSH1 0x0 PUSH1 0x2 PUSH1 0x0 DUP6 PUSH20 0xFFFFFFFFFFFFFFFFFFFFFFFFFFFFFFFFFFFFFFFF AND PUSH20 0xFFFFFFFFFFFFFFFFFFFFFFFFFFFFFFFFFFFFFFFF AND DUP2 MSTORE PUSH1 0x20 ADD SWAP1 DUP2 MSTORE PUSH1 0x20 ADD PUSH1 0x0 KECCAK256 SLOAD SWAP1 POP PUSH1 0x0 PUSH1 0x40 MLOAD DUP1 PUSH1 0x40 ADD PUSH1 0x40 MSTORE DUP1 PUSH1 0x0 DUP2 MSTORE PUSH1 0x20 ADD PUSH1 0x1 PUSH1 0x2 PUSH1 0x0 DUP10 PUSH20 0xFFFFFFFFFFFFFFFFFFFFFFFFFFFFFFFFFFFFFFFF AND PUSH20 0xFFFFFFFFFFFFFFFFFFFFFFFFFFFFFFFFFFFFFFFF AND DUP2 MSTORE PUSH1 0x20 ADD SWAP1 DUP2 MSTORE PUSH1 0x20 ADD PUSH1 0x0 KECCAK256 SLOAD DUP2 SLOAD DUP2 LT PUSH2 0x149 JUMPI PUSH2 0x148 PUSH2 0x7EF JUMP JUMPDEST JUMPDEST SWAP1 PUSH1 0x0 MSTORE PUSH1 0x20 PUSH1 0x0 KECCAK256 SWAP1 PUSH1 0x2 MUL ADD PUSH1 0x1 ADD DUP1 SLOAD DUP1 PUSH1 0x20 MUL PUSH1 0x20 ADD PUSH1 0x40 MLOAD SWAP1 DUP2 ADD PUSH1 0x40 MSTORE DUP1 SWAP3 SWAP2 SWAP1 DUP2 DUP2 MSTORE PUSH1 0x20 ADD PUSH1 0x0 SWAP1 JUMPDEST DUP3 DUP3 LT ISZERO PUSH2 0x220 JUMPI DUP4 DUP3 SWAP1 PUSH1 0x0 MSTORE PUSH1 0x20 PUSH1 0x0 KECCAK256 SWAP1 PUSH1 0x4 MUL ADD PUSH1 0x40 MLOAD DUP1 PUSH1 0x80 ADD PUSH1 0x40 MSTORE SWAP1 DUP2 PUSH1 0x0 DUP3 ADD PUSH1 0x0 SWAP1 SLOAD SWAP1 PUSH2 0x100 EXP SWAP1 DIV PUSH20 0xFFFFFFFFFFFFFFFFFFFFFFFFFFFFFFFFFFFFFFFF AND PUSH20 0xFFFFFFFFFFFFFFFFFFFFFFFFFFFFFFFFFFFFFFFF AND PUSH20 0xFFFFFFFFFFFFFFFFFFFFFFFFFFFFFFFFFFFFFFFF AND DUP2 MSTORE PUSH1 0x20 ADD PUSH1 0x1 DUP3 ADD SLOAD DUP2 MSTORE PUSH1 0x20 ADD PUSH1 0x2 DUP3 ADD SLOAD DUP2 MSTORE PUSH1 0x20 ADD PUSH1 0x3 DUP3 ADD SLOAD DUP2 MSTORE POP POP DUP2 MSTORE PUSH1 0x20 ADD SWAP1 PUSH1 0x1 ADD SWAP1 PUSH2 0x17A JUMP JUMPDEST POP POP POP POP DUP2 MSTORE POP SWAP1 POP PUSH1 0x0 JUMPDEST DUP2 PUSH1 0x20 ADD MLOAD MLOAD DUP2 LT ISZERO PUSH2 0x336 JUMPI PUSH1 0x0 PUSH1 0x1 DUP5 DUP2 SLOAD DUP2 LT PUSH2 0x24F JUMPI PUSH2 0x24E PUSH2 0x7EF JUMP JUMPDEST JUMPDEST SWAP1 PUSH1 0x0 MSTORE PUSH1 0x20 PUSH1 0x0 KECCAK256 SWAP1 PUSH1 0x2 MUL ADD PUSH1 0x1 ADD DUP3 DUP2 SLOAD DUP2 LT PUSH2 0x272 JUMPI PUSH2 0x271 PUSH2 0x7EF JUMP JUMPDEST JUMPDEST SWAP1 PUSH1 0x0 MSTORE PUSH1 0x20 PUSH1 0x0 KECCAK256 SWAP1 PUSH1 0x4 MUL ADD PUSH1 0x40 MLOAD DUP1 PUSH1 0x80 ADD PUSH1 0x40 MSTORE SWAP1 DUP2 PUSH1 0x0 DUP3 ADD PUSH1 0x0 SWAP1 SLOAD SWAP1 PUSH2 0x100 EXP SWAP1 DIV PUSH20 0xFFFFFFFFFFFFFFFFFFFFFFFFFFFFFFFFFFFFFFFF AND PUSH20 0xFFFFFFFFFFFFFFFFFFFFFFFFFFFFFFFFFFFFFFFF AND PUSH20 0xFFFFFFFFFFFFFFFFFFFFFFFFFFFFFFFFFFFFFFFF AND DUP2 MSTORE PUSH1 0x20 ADD PUSH1 0x1 DUP3 ADD SLOAD DUP2 MSTORE PUSH1 0x20 ADD PUSH1 0x2 DUP3 ADD SLOAD DUP2 MSTORE PUSH1 0x20 ADD PUSH1 0x3 DUP3 ADD SLOAD DUP2 MSTORE POP POP SWAP1 POP PUSH1 0x0 PUSH2 0x30C DUP3 PUSH2 0x54F JUMP JUMPDEST SWAP1 POP DUP1 DUP3 PUSH1 0x20 ADD MLOAD PUSH2 0x31E SWAP2 SWAP1 PUSH2 0x84D JUMP JUMPDEST SWAP6 POP POP POP PUSH1 0x1 DUP2 PUSH2 0x32F SWAP2 SWAP1 PUSH2 0x84D JUMP JUMPDEST SWAP1 POP PUSH2 0x22C JUMP JUMPDEST POP DUP3 SWAP4 POP POP POP POP SWAP2 SWAP1 POP JUMP JUMPDEST PUSH2 0x34A PUSH2 0x590 JUMP JUMPDEST PUSH1 0x0 DUP1 PUSH1 0x40 MLOAD DUP1 PUSH1 0x40 ADD PUSH1 0x40 MSTORE DUP1 PUSH1 0x0 DUP2 MSTORE PUSH1 0x20 ADD PUSH1 0x1 PUSH1 0x2 PUSH1 0x0 DUP9 PUSH20 0xFFFFFFFFFFFFFFFFFFFFFFFFFFFFFFFFFFFFFFFF AND PUSH20 0xFFFFFFFFFFFFFFFFFFFFFFFFFFFFFFFFFFFFFFFF AND DUP2 MSTORE PUSH1 0x20 ADD SWAP1 DUP2 MSTORE PUSH1 0x20 ADD PUSH1 0x0 KECCAK256 SLOAD DUP2 SLOAD DUP2 LT PUSH2 0x3B2 JUMPI PUSH2 0x3B1 PUSH2 0x7EF JUMP JUMPDEST JUMPDEST SWAP1 PUSH1 0x0 MSTORE PUSH1 0x20 PUSH1 0x0 KECCAK256 SWAP1 PUSH1 0x2 MUL ADD PUSH1 0x1 ADD DUP1 SLOAD DUP1 PUSH1 0x20 MUL PUSH1 0x20 ADD PUSH1 0x40 MLOAD SWAP1 DUP2 ADD PUSH1 0x40 MSTORE DUP1 SWAP3 SWAP2 SWAP1 DUP2 DUP2 MSTORE PUSH1 0x20 ADD PUSH1 0x0 SWAP1 JUMPDEST DUP3 DUP3 LT ISZERO PUSH2 0x489 JUMPI DUP4 DUP3 SWAP1 PUSH1 0x0 MSTORE PUSH1 0x20 PUSH1 0x0 KECCAK256 SWAP1 PUSH1 0x4 MUL ADD PUSH1 0x40 MLOAD DUP1 PUSH1 0x80 ADD PUSH1 0x40 MSTORE SWAP1 DUP2 PUSH1 0x0 DUP3 ADD PUSH1 0x0 SWAP1 SLOAD SWAP1 PUSH2 0x100 EXP SWAP1 DIV PUSH20 0xFFFFFFFFFFFFFFFFFFFFFFFFFFFFFFFFFFFFFFFF AND PUSH20 0xFFFFFFFFFFFFFFFFFFFFFFFFFFFFFFFFFFFFFFFF AND PUSH20 0xFFFFFFFFFFFFFFFFFFFFFFFFFFFFFFFFFFFFFFFF AND DUP2 MSTORE PUSH1 0x20 ADD PUSH1 0x1 DUP3 ADD SLOAD DUP2 MSTORE PUSH1 0x20 ADD PUSH1 0x2 DUP3 ADD SLOAD DUP2 MSTORE PUSH1 0x20 ADD PUSH1 0x3 DUP3 ADD SLOAD DUP2 MSTORE POP POP DUP2 MSTORE PUSH1 0x20 ADD SWAP1 PUSH1 0x1 ADD SWAP1 PUSH2 0x3E3 JUMP JUMPDEST POP POP POP POP DUP2 MSTORE POP SWAP1 POP PUSH1 0x0 JUMPDEST DUP2 PUSH1 0x20 ADD MLOAD MLOAD DUP2 LT ISZERO PUSH2 0x53A JUMPI PUSH1 0x0 PUSH2 0x4CB DUP4 PUSH1 0x20 ADD MLOAD DUP4 DUP2 MLOAD DUP2 LT PUSH2 0x4BE JUMPI PUSH2 0x4BD PUSH2 0x7EF JUMP JUMPDEST JUMPDEST PUSH1 0x20 MUL PUSH1 0x20 ADD ADD MLOAD PUSH2 0x54F JUMP JUMPDEST SWAP1 POP DUP1 DUP4 PUSH1 0x20 ADD MLOAD DUP4 DUP2 MLOAD DUP2 LT PUSH2 0x4E5 JUMPI PUSH2 0x4E4 PUSH2 0x7EF JUMP JUMPDEST JUMPDEST PUSH1 0x20 MUL PUSH1 0x20 ADD ADD MLOAD PUSH1 0x60 ADD DUP2 DUP2 MSTORE POP POP DUP3 PUSH1 0x20 ADD MLOAD DUP3 DUP2 MLOAD DUP2 LT PUSH2 0x50C JUMPI PUSH2 0x50B PUSH2 0x7EF JUMP JUMPDEST JUMPDEST PUSH1 0x20 MUL PUSH1 0x20 ADD ADD MLOAD PUSH1 0x20 ADD MLOAD DUP5 PUSH2 0x523 SWAP2 SWAP1 PUSH2 0x84D JUMP JUMPDEST SWAP4 POP POP PUSH1 0x1 DUP2 PUSH2 0x533 SWAP2 SWAP1 PUSH2 0x84D JUMP JUMPDEST SWAP1 POP PUSH2 0x495 JUMP JUMPDEST POP DUP2 DUP2 PUSH1 0x0 ADD DUP2 DUP2 MSTORE POP POP DUP1 SWAP3 POP POP POP SWAP2 SWAP1 POP JUMP JUMPDEST PUSH1 0x0 DUP1 SLOAD DUP3 PUSH1 0x20 ADD MLOAD PUSH2 0xE10 DUP5 PUSH1 0x40 ADD MLOAD TIMESTAMP PUSH2 0x56B SWAP2 SWAP1 PUSH2 0x881 JUMP JUMPDEST PUSH2 0x575 SWAP2 SWAP1 PUSH2 0x8E4 JUMP JUMPDEST PUSH2 0x57F SWAP2 SWAP1 PUSH2 0x915 JUMP JUMPDEST PUSH2 0x589 SWAP2 SWAP1 PUSH2 0x8E4 JUMP JUMPDEST SWAP1 POP SWAP2 SWAP1 POP JUMP JUMPDEST PUSH1 0x40 MLOAD DUP1 PUSH1 0x40 ADD PUSH1 0x40 MSTORE DUP1 PUSH1 0x0 DUP2 MSTORE PUSH1 0x20 ADD PUSH1 0x60 DUP2 MSTORE POP SWAP1 JUMP JUMPDEST PUSH1 0x0 DUP1 REVERT JUMPDEST PUSH1 0x0 PUSH20 0xFFFFFFFFFFFFFFFFFFFFFFFFFFFFFFFFFFFFFFFF DUP3 AND SWAP1 POP SWAP2 SWAP1 POP JUMP JUMPDEST PUSH1 0x0 PUSH2 0x5DA DUP3 PUSH2 0x5AF JUMP JUMPDEST SWAP1 POP SWAP2 SWAP1 POP JUMP JUMPDEST PUSH2 0x5EA DUP2 PUSH2 0x5CF JUMP JUMPDEST DUP2 EQ PUSH2 0x5F5 JUMPI PUSH1 0x0 DUP1 REVERT JUMPDEST POP JUMP JUMPDEST PUSH1 0x0 DUP2 CALLDATALOAD SWAP1 POP PUSH2 0x607 DUP2 PUSH2 0x5E1 JUMP JUMPDEST SWAP3 SWAP2 POP POP JUMP JUMPDEST PUSH1 0x0 PUSH1 0x20 DUP3 DUP5 SUB SLT ISZERO PUSH2 0x623 JUMPI PUSH2 0x622 PUSH2 0x5AA JUMP JUMPDEST JUMPDEST PUSH1 0x0 PUSH2 0x631 DUP5 DUP3 DUP6 ADD PUSH2 0x5F8 JUMP JUMPDEST SWAP2 POP POP SWAP3 SWAP2 POP POP JUMP JUMPDEST PUSH1 0x0 DUP2 SWAP1 POP SWAP2 SWAP1 POP JUMP JUMPDEST PUSH2 0x64D DUP2 PUSH2 0x63A JUMP JUMPDEST DUP3 MSTORE POP POP JUMP JUMPDEST PUSH1 0x0 PUSH1 0x20 DUP3 ADD SWAP1 POP PUSH2 0x668 PUSH1 0x0 DUP4 ADD DUP5 PUSH2 0x644 JUMP JUMPDEST SWAP3 SWAP2 POP POP JUMP JUMPDEST PUSH2 0x677 DUP2 PUSH2 0x63A JUMP JUMPDEST DUP3 MSTORE POP POP JUMP JUMPDEST PUSH1 0x0 DUP2 MLOAD SWAP1 POP SWAP2 SWAP1 POP JUMP JUMPDEST PUSH1 0x0 DUP3 DUP3 MSTORE PUSH1 0x20 DUP3 ADD SWAP1 POP SWAP3 SWAP2 POP POP JUMP JUMPDEST PUSH1 0x0 DUP2 SWAP1 POP PUSH1 0x20 DUP3 ADD SWAP1 POP SWAP2 SWAP1 POP JUMP JUMPDEST PUSH2 0x6B2 DUP2 PUSH2 0x5CF JUMP JUMPDEST DUP3 MSTORE POP POP JUMP JUMPDEST PUSH1 0x80 DUP3 ADD PUSH1 0x0 DUP3 ADD MLOAD PUSH2 0x6CE PUSH1 0x0 DUP6 ADD DUP3 PUSH2 0x6A9 JUMP JUMPDEST POP PUSH1 0x20 DUP3 ADD MLOAD PUSH2 0x6E1 PUSH1 0x20 DUP6 ADD DUP3 PUSH2 0x66E JUMP JUMPDEST POP PUSH1 0x40 DUP3 ADD MLOAD PUSH2 0x6F4 PUSH1 0x40 DUP6 ADD DUP3 PUSH2 0x66E JUMP JUMPDEST POP PUSH1 0x60 DUP3 ADD MLOAD PUSH2 0x707 PUSH1 0x60 DUP6 ADD DUP3 PUSH2 0x66E JUMP JUMPDEST POP POP POP POP JUMP JUMPDEST PUSH1 0x0 PUSH2 0x719 DUP4 DUP4 PUSH2 0x6B8 JUMP JUMPDEST PUSH1 0x80 DUP4 ADD SWAP1 POP SWAP3 SWAP2 POP POP JUMP JUMPDEST PUSH1 0x0 PUSH1 0x20 DUP3 ADD SWAP1 POP SWAP2 SWAP1 POP JUMP JUMPDEST PUSH1 0x0 PUSH2 0x73D DUP3 PUSH2 0x67D JUMP JUMPDEST PUSH2 0x747 DUP2 DUP6 PUSH2 0x688 JUMP JUMPDEST SWAP4 POP PUSH2 0x752 DUP4 PUSH2 0x699 JUMP JUMPDEST DUP1 PUSH1 0x0 JUMPDEST DUP4 DUP2 LT ISZERO PUSH2 0x783 JUMPI DUP2 MLOAD PUSH2 0x76A DUP9 DUP3 PUSH2 0x70D JUMP JUMPDEST SWAP8 POP PUSH2 0x775 DUP4 PUSH2 0x725 JUMP JUMPDEST SWAP3 POP POP PUSH1 0x1 DUP2 ADD SWAP1 POP PUSH2 0x756 JUMP JUMPDEST POP DUP6 SWAP4 POP POP POP POP SWAP3 SWAP2 POP POP JUMP JUMPDEST PUSH1 0x0 PUSH1 0x40 DUP4 ADD PUSH1 0x0 DUP4 ADD MLOAD PUSH2 0x7A8 PUSH1 0x0 DUP7 ADD DUP3 PUSH2 0x66E JUMP JUMPDEST POP PUSH1 0x20 DUP4 ADD MLOAD DUP5 DUP3 SUB PUSH1 0x20 DUP7 ADD MSTORE PUSH2 0x7C0 DUP3 DUP3 PUSH2 0x732 JUMP JUMPDEST SWAP2 POP POP DUP1 SWAP2 POP POP SWAP3 SWAP2 POP POP JUMP JUMPDEST PUSH1 0x0 PUSH1 0x20 DUP3 ADD SWAP1 POP DUP2 DUP2 SUB PUSH1 0x0 DUP4 ADD MSTORE PUSH2 0x7E7 DUP2 DUP5 PUSH2 0x790 JUMP JUMPDEST SWAP1 POP SWAP3 SWAP2 POP POP JUMP JUMPDEST PUSH32 0x4E487B7100000000000000000000000000000000000000000000000000000000 PUSH1 0x0 MSTORE PUSH1 0x32 PUSH1 0x4 MSTORE PUSH1 0x24 PUSH1 0x0 REVERT JUMPDEST PUSH32 0x4E487B7100000000000000000000000000000000000000000000000000000000 PUSH1 0x0 MSTORE PUSH1 0x11 PUSH1 0x4 MSTORE PUSH1 0x24 PUSH1 0x0 REVERT JUMPDEST PUSH1 0x0 PUSH2 0x858 DUP3 PUSH2 0x63A JUMP JUMPDEST SWAP2 POP PUSH2 0x863 DUP4 PUSH2 0x63A JUMP JUMPDEST SWAP3 POP DUP3 DUP3 ADD SWAP1 POP DUP1 DUP3 GT ISZERO PUSH2 0x87B JUMPI PUSH2 0x87A PUSH2 0x81E JUMP JUMPDEST JUMPDEST SWAP3 SWAP2 POP POP JUMP JUMPDEST PUSH1 0x0 PUSH2 0x88C DUP3 PUSH2 0x63A JUMP JUMPDEST SWAP2 POP PUSH2 0x897 DUP4 PUSH2 0x63A JUMP JUMPDEST SWAP3 POP DUP3 DUP3 SUB SWAP1 POP DUP2 DUP2 GT ISZERO PUSH2 0x8AF JUMPI PUSH2 0x8AE PUSH2 0x81E JUMP JUMPDEST JUMPDEST SWAP3 SWAP2 POP POP JUMP JUMPDEST PUSH32 0x4E487B7100000000000000000000000000000000000000000000000000000000 PUSH1 0x0 MSTORE PUSH1 0x12 PUSH1 0x4 MSTORE PUSH1 0x24 PUSH1 0x0 REVERT JUMPDEST PUSH1 0x0 PUSH2 0x8EF DUP3 PUSH2 0x63A JUMP JUMPDEST SWAP2 POP PUSH2 0x8FA DUP4 PUSH2 0x63A JUMP JUMPDEST SWAP3 POP DUP3 PUSH2 0x90A JUMPI PUSH2 0x909 PUSH2 0x8B5 JUMP JUMPDEST JUMPDEST DUP3 DUP3 DIV SWAP1 POP SWAP3 SWAP2 POP POP JUMP JUMPDEST PUSH1 0x0 PUSH2 0x920 DUP3 PUSH2 0x63A JUMP JUMPDEST SWAP2 POP PUSH2 0x92B DUP4 PUSH2 0x63A JUMP JUMPDEST SWAP3 POP DUP3 DUP3 MUL PUSH2 0x939 DUP2 PUSH2 0x63A JUMP JUMPDEST SWAP2 POP DUP3 DUP3 DIV DUP5 EQ DUP4 ISZERO OR PUSH2 0x950 JUMPI PUSH2 0x94F PUSH2 0x81E JUMP JUMPDEST JUMPDEST POP SWAP3 SWAP2 POP POP JUMP INVALID LOG2 PUSH5 0x6970667358 0x22 SLT KECCAK256 NOT 0xBC SAR LT JUMPI REVERT 0x5E 0x5E CALLDATALOAD DUP11 0xB5 0xE8 0xE6 0xB6 0xBE CODECOPY 0x24 0xD0 SUB SELFDESTRUCT 0xB6 0xAC DUP8 0xFB SDIV 0xAB 0xB6 LOG2 0xD1 0x2D 0xEE SWAP5 PUSH5 0x736F6C6343 STOP ADDMOD GT STOP CALLER "
				},
				"gasEstimates": {
					"creation": {
						"codeDepositCost": "489000",
						"executionCost": "46933",
						"totalCost": "535933"
					},
					"external": {
						"hasStake(address)": "infinite",
						"viewAll(address)": "infinite"
					},
					"internal": {
						"_addStakeholder(address)": "infinite",
						"_getRewardValue()": "infinite",
						"_setRewardValue(uint256)": "infinite",
						"_stake(uint256)": "infinite",
						"_withdrawAll()": "infinite",
						"_withdrawStake(uint256,uint256)": "infinite",
						"calculateStakeReward(struct Stakeable.Stake memory)": "infinite"
					}
				},
				"methodIdentifiers": {
					"hasStake(address)": "e73e14bf",
					"viewAll(address)": "93eb26da"
				}
			},
			"storageLayout": {
				"storage": [
					{
						"astId": 788,
						"contract": "contracts/Stakeable.sol:Stakeable",
						"label": "_rewardPerHour",
						"offset": 0,
						"slot": "0",
						"type": "t_uint256"
					},
					{
						"astId": 816,
						"contract": "contracts/Stakeable.sol:Stakeable",
						"label": "stakeholders",
						"offset": 0,
						"slot": "1",
						"type": "t_array(t_struct(Stakeholder)804_storage)dyn_storage"
					},
					{
						"astId": 821,
						"contract": "contracts/Stakeable.sol:Stakeable",
						"label": "stakes",
						"offset": 0,
						"slot": "2",
						"type": "t_mapping(t_address,t_uint256)"
					}
				],
				"types": {
					"t_address": {
						"encoding": "inplace",
						"label": "address",
						"numberOfBytes": "20"
					},
					"t_array(t_struct(Stake)797_storage)dyn_storage": {
						"base": "t_struct(Stake)797_storage",
						"encoding": "dynamic_array",
						"label": "struct Stakeable.Stake[]",
						"numberOfBytes": "32"
					},
					"t_array(t_struct(Stakeholder)804_storage)dyn_storage": {
						"base": "t_struct(Stakeholder)804_storage",
						"encoding": "dynamic_array",
						"label": "struct Stakeable.Stakeholder[]",
						"numberOfBytes": "32"
					},
					"t_mapping(t_address,t_uint256)": {
						"encoding": "mapping",
						"key": "t_address",
						"label": "mapping(address => uint256)",
						"numberOfBytes": "32",
						"value": "t_uint256"
					},
					"t_struct(Stake)797_storage": {
						"encoding": "inplace",
						"label": "struct Stakeable.Stake",
						"members": [
							{
								"astId": 790,
								"contract": "contracts/Stakeable.sol:Stakeable",
								"label": "user",
								"offset": 0,
								"slot": "0",
								"type": "t_address"
							},
							{
								"astId": 792,
								"contract": "contracts/Stakeable.sol:Stakeable",
								"label": "amount",
								"offset": 0,
								"slot": "1",
								"type": "t_uint256"
							},
							{
								"astId": 794,
								"contract": "contracts/Stakeable.sol:Stakeable",
								"label": "since",
								"offset": 0,
								"slot": "2",
								"type": "t_uint256"
							},
							{
								"astId": 796,
								"contract": "contracts/Stakeable.sol:Stakeable",
								"label": "claimable",
								"offset": 0,
								"slot": "3",
								"type": "t_uint256"
							}
						],
						"numberOfBytes": "128"
					},
					"t_struct(Stakeholder)804_storage": {
						"encoding": "inplace",
						"label": "struct Stakeable.Stakeholder",
						"members": [
							{
								"astId": 799,
								"contract": "contracts/Stakeable.sol:Stakeable",
								"label": "user",
								"offset": 0,
								"slot": "0",
								"type": "t_address"
							},
							{
								"astId": 803,
								"contract": "contracts/Stakeable.sol:Stakeable",
								"label": "address_stakes",
								"offset": 0,
								"slot": "1",
								"type": "t_array(t_struct(Stake)797_storage)dyn_storage"
							}
						],
						"numberOfBytes": "64"
					},
					"t_uint256": {
						"encoding": "inplace",
						"label": "uint256",
						"numberOfBytes": "32"
					}
				}
			},
			"userdoc": {
				"events": {
					"Staked(address,uint256,uint256,uint256)": {
						"notice": "Staked event is triggered whenever a user stakes tokens, address is indexed to make it filterable"
					}
				},
				"kind": "user",
				"methods": {
					"constructor": {
						"notice": "Constructor since this contract is not ment to be used without inheritance push once to stakeholders for it to work proplerly"
					},
					"hasStake(address)": {
						"notice": "hasStake is used to check if a account has stakes and the total amount along with all the seperate stakes"
					}
				},
				"notice": "Stakeable is a contract who is ment to be inherited by other contract that wants Staking capabilities",
				"version": 1
			}
		}
	}
}